:020000040800F2
:10000000780A002029020008C54B0008CF450008E7
:10001000C14B000805060008BD4D000800000000A7
:10002000000000000000000000000000CB4B0008B2
:100030009106000800000000C94B0008694C000848
:10004000430200084302000843020008430200087C
:10005000430200084302000843020008430200086C
:100060004302000843020008430200082906000872
:100070003906000843020008430200084302000852
:10008000430200084302000843020008430200083C
:100090000906000819060008430200084302000888
:1000A000430200084302000843020008430200081C
:1000B0004302000843020008000000004302000859
:1000C0004302000800000000000000004302000896
:1000D0000000000043020008430200084302000839
:1000E0004302000843020008000000000000000076
:1000F0000000000000000000000000000000000000
:1001000000000000000000000000000000000000EF
:100110000000000000000000094D0008194D000813
:1001200000000000000000000000000000000000CF
:1001300000000000000000000000000000000000BF
:1001400043020008430200080000000043020008C8
:10015000430200084302000843020008430200086B
:1001600043020008430200080000000000000000F5
:10017000000000000000000000000000000000007F
:10018000000000004302000800F002F800F03CF814
:100190000AA090E8000C82448344AAF10107DA45E2
:1001A00001D100F031F8AFF2090EBAE80F0013F0F8
:1001B000010F18BFFB1A43F001031847BC4F0000A2
:1001C000DC4F0000103A24BF78C878C1FAD8520733
:1001D00024BF30C830C144BF04680C6070470000C1
:1001E0000023002400250026103A28BF78C1FBD840
:1001F000520728BF30C148BF0B6070471FB504F0DD
:1002000099FF1FBD10B510BD00F0CFF81146FFF7E4
:10021000F5FF04F0F1FD00F0EDF803B4FFF7F2FF95
:1002200003BC00F0F5F80000094880470948004782
:10023000FEE7FEE7FEE7FEE7FEE7FEE7FEE7FEE796
:10024000FEE7FEE704480549054A064B70470000F3
:10025000F54C00088901000878040020780A002085
:10026000780600207806002053EA020C00F069802E
:100270002DE9F04B4FF00006002B1FBFB3FA83F5BA
:1002800003FA05F424FA05F65E4012BF1643B2FAEB
:1002900082F502FA05F4C5F120051EBF22FA05FC1D
:1002A00044EA0C04203556EA044C4FEA144418BFC3
:1002B000641C4FF000084FF00009904271EB030CF2
:1002C00039D3002919BFB1FA81F701FA07F6B0FA5C
:1002D00080F700FA07F6C7F120071EBF20FA07FCD7
:1002E00046EA0C062037B6FBF4FCA7EB0507103FE7
:1002F00007F01F0BCBF120060CFA0BFB2CFA06F6CD
:1003000044BFB3460026202FA4BF5E464FF0000B2B
:100310005BEA060C08BF4FF0010B19EB0B09ABFBB6
:10032000027C48EB0608C01B06FB02CC0BFB03CC8F
:1003300071EB0C01C1E70B46024641464846BDE859
:10034000F08B13B54FF000004FF00001AFF30080C9
:10035000BDE81C4070474FF0000200B513469446BC
:100360009646203922BFA0E80C50A0E80C50B1F10D
:100370002001BFF4F7AF090728BFA0E80C5048BF21
:100380000CC05DF804EB890028BF40F8042B08BFBF
:10039000704748BF20F8022B11F0804F18BF00F8BB
:1003A000012B7047704770477047754600F02CF876
:1003B000AE4605006946534620F00700854618B052
:1003C00020B5FFF73FFFBDE820404FF000064FF09B
:1003D00000074FF000084FF0000B21F00701AC467A
:1003E000ACE8C009ACE8C009ACE8C009ACE8C00999
:1003F0008D46704710B50446AFF300802046BDE837
:100400001040FFF70ABF00000048704718040020A2
:1004100001491820ABBEFEE726000200704770B508
:1004200005466C6A206C00F05000D0B9206C40F496
:10043000007020642068C06800F4406068B9607E85
:1004400058B9206C20F480702064206C00F4805037
:1004500018B9206C40F001002064204600F026FC12
:1004600003E0A06B016B2846884770BD70B5054658
:100470006C6A206C40F040002064606C40F0040026
:100480006064204600F014FC70BD70B50446656AD7
:10049000284600F00CFC70BD70B5044600252068AD
:1004A000806800F00300012806D12068006800F091
:1004B000010008B1012000E0002000283BD02068A6
:1004C000806800F00D00012800D100E0002050B14C
:1004D00000BF2068806840F0020021688860032027
:1004E0002168086009E0206C40F010002064606C16
:1004F00040F001006064012070BD01F089FD0546F7
:1005000013E001F085FD401B02280ED920688068A9
:1005100000F0010048B1206C40F010002064606CD5
:1005200040F0010060640120E6E72068806800F088
:1005300001000028E5D10020DEE7000070B5044688
:1005400000252068806800F00300012806D120689B
:10055000006800F0010008B1012000E0002080BB2D
:10056000206880681B49084008B9012000E000208D
:1005700048B9206C40F010002064606C40F001002D
:100580006064012070BD2068806840F0010021682F
:10059000886001F03DFD054614E001F039FD401B87
:1005A00002280FD92068006800F0010050B9206CC3
:1005B00040F010002064606C40F001006064012095
:1005C000E0E705E02068006800F001000028E4D0C2
:1005D0000020D7E73F00008030B587B004460D46C5
:1005E00040F2112000900020029003900820049017
:1005F00006AB22466946024800F005FE07B030BD52
:100600007C02002000BFFEE710B5024800F0F0FFBA
:1006100010BD00007C02002010B5024800F0E8FF89
:1006200010BD00007C02002010B5024801F01BFB49
:1006300010BD0000F401002010B5024801F013FBCA
:1006400010BD000038020020054A0168891A1422F2
:10065000B1FBF2F18900016401490839C1637047B7
:100660000800024030B590F840500124AC40C56B02
:100670006C60046863604468102C04D10468A26054
:100680000468E16003E00468A1600468E26030BDD2
:10069000704772B600BFFEE72DE9F04104460E46F2
:1006A000002700BF94F83C00012802D10220BDE8D9
:1006B000F081012084F83C0000BF2046FFF7ECFEEB
:1006C000074697BB012020642068806820F08040A6
:1006D00021688860012E05D12068806840F0804044
:1006E000216888602068806840F000402168886048
:1006F00001F08EFC054619E001F08AFC401B0A2837
:1007000014D92068806800F00040B0F1004F0DD18E
:10071000206C20F0020040F01000206400BF002098
:1007200084F83C0000BF0120C1E70CE0206880682D
:1007300000F00040B0F1004FDED0206C20F002004D
:1007400040F00100206400BF002084F83C0000BF9E
:100750003846ACE770B594B002460B4600241868E2
:1007600000B100BF1068B0F1A04F02D14648009020
:1007700002E04FF0A0400090009810B9012014B0A2
:1007800070BD00BF92F83C00012801D10220F6E7BD
:10079000012082F83C0000BF10688068C0F3800030
:1007A000002864D100988068C0F3800000285ED1E2
:1007B0003649186890B392F830005D6845EA4030D9
:1007C0008D6825F46045284388601068806800F0D3
:1007D0000300012806D11068006800F0010008B18C
:1007E000012000E00020002846D10098806800F039
:1007F0000300012806D10098006800F0010008B14C
:10080000012000E0002088BB9D68186828438D689F
:1008100040F61F76B543284388602DE0FFE78868DF
:1008200020F4604088601068806800F003000128B0
:1008300006D11068006800F0010008B1012000E056
:10084000002098B90098806800F00300012806D1C4
:100850000098006800F0010008B1012000E00020CD
:1008600020B9886840F61F75A843886004E0106CC2
:1008700040F020001064012400BF002082F83C00FA
:1008800000BF20467BE7000000010050000300503D
:10089000F0B595B00246002500200090C8680128F8
:1008A00000D000E000BF00BF92F83C00012802D158
:1008B000022015B0F0BD012082F83C0000BF106896
:1008C0008068C0F38000002879D14868052812D2DA
:1008D0001068006B0E7906EB460677001F26BE40B7
:1008E000B0430F7907EB47077F000E68BE403043E7
:1008F0001668306343E048680A2814D21068406BD9
:100900000E79761F06EB460677001F26BE40B043E1
:100910000F797F1F07EB47077F000E68BE4030430B
:10092000166870632BE048680F2814D21068806B3B
:100930000E790A3E06EB460677001F26BE40B043FE
:100940000F790A3F07EB47077F000E68BE40304330
:100950001668B06313E01068C06B0E790F3E06EBAB
:10096000460677001F26BE40B0430F790F3F07EBC6
:1009700047077F000E68BE4030431668F06310687A
:10098000806800F00C0008B1012000E00020002881
:1009900070D108680A2813D3106880690E780A3E5F
:1009A00006EB46070726BE40B0430F780A3F07EB29
:1009B00047078E68BE4030431668B06110E05FE1C3
:1009C000106840690E7806EB46070726BE40B04324
:1009D0000F7807EB47078E68BE403043166870619A
:1009E00048691668F668C6F3C106760000FA06F490
:1009F0000869012806D0022812D003281ED0042836
:100A000039D129E01068006EA34E30400E784FF0C7
:100A1000004747EA8666264330431668306663E03F
:100A20001068406E9C4E30400E784FF0004747EA09
:100A30008666264330431668706655E01068806EFF
:100A4000954E30400E784FF0004747EA86662643C1
:100A500030431668B06647E01068C06E8E4E304076
:100A60000E784FF0004747EA866626433043166803
:100A7000F06639E039E01068006E00F0F8400E785A
:100A8000B0EB866F05D11068006E20F0004016684C
:100A900030661068406E00F0F8400E78B0EB866F5C
:100AA00005D11068406E20F000401668706610682E
:100AB000806E00F0F8400E78B0EB866F05D11068BC
:100AC000806E20F000401668B0661068C06E00F0BE
:100AD000F8400E78B0EB866F05D11068C06E20F03C
:100AE00000401668F06600BF00BF1068806800F024
:100AF0000300012806D11068006800F0010008B169
:100B0000012000E0002000287ED1C86801280AD01A
:100B10001068D0F8B0000F780126BE40B0431668C8
:100B2000C6F8B00032E01068D0F8B0000F780126A7
:100B3000BE4030431668C6F8B00008680A2813D3D0
:100B4000106886690878093800EB40070720B8402C
:100B500026EA00000E78093E06EB46068F68B7408D
:100B600038431668B06111E0106840690E78761C51
:100B700006EB46070726BE40B0430F787F1C07EB05
:100B800047078E68BE40304316687061434B086863
:100B9000102803D1986800F4000070B1086811288B
:100BA00003D1986800F0807038B1086812286CD1C1
:100BB000986800F48000002867D11068B0F1A04F59
:100BC00002D13748019002E04FF0A0400190106838
:100BD000806800F00300012806D11068006800F06A
:100BE000010008B1012000E0002070BB019880B135
:100BF0000198806800F00300012808D1019800687E
:100C000000F0010018B100E033E0012000E0002016
:100C1000D8B90868102819D11068B0F1A04F15D1C3
:100C2000986840F4000098601E4800681E4EB0FBB3
:100C3000F6F000EB80004000009002E00098401EBB
:100C4000009000980028F9D11FE013E008681128EF
:100C500008D11068B0F1A04F04D1986840F08070BE
:100C6000986012E0086812280FD1986840F480005C
:100C700098600AE0106C40F020001064012504E048
:100C8000106C40F020001064012500BF002082F8A5
:100C90003C0000BF28460CE600F0FF830003005034
:100CA000000100504800002040420F00704770478C
:100CB00070470000F0B595B00446002600250020DE
:100CC000009014B9012015B0F0BD206918B12020A2
:100CD000005D00B100BF206C00F01000002853D16F
:100CE000206C98BB002060640021E164A06484F85B
:100CF0003C00204600F008F92068806800F0805031
:100D000020BB2046FFF7C8FB0646206C00F0100011
:100D1000E0B9DEB9206C20F4885040F00200206475
:100D20002068806820F040502168886020688068D2
:100D300040F08050216888606E4800686E49B0FBC2
:100D4000F1F000EB80004000009003E005E0009827
:100D5000401E009000980028F9D12068806800F0BB
:100D6000805030B12068806800F00050B0F1005F22
:100D70000AD1206C20F0020040F010002064606C6A
:100D800040F0010060640126206C00F01000002893
:100D900073D1002EFCD120688068C0F38000002849
:100DA000F6D1206C20F4807040F002002064534F94
:100DB0002068B0F1A04F02D15148019002E04FF0FD
:100DC000A04001902068806800F00300012806D14F
:100DD0002068006800F0010008B1012000E0002058
:100DE000B0B9019870B10198806800F00300012843
:100DF00006D10198006800F0010008B1012000E070
:100E0000002028B9B86820F4403061680843B86011
:100E1000606B012802D04FF4805100E00021607E19
:100E200041EA4030E1680843A168084305432020B7
:100E3000005D012813D1607E38B9A08C401E4FF4AC
:100E4000803141EA4040054309E0206C20F0020077
:100E500040F020002064606C40F001006064A06AF3
:100E6000012803D0D4E90A010843054320688068BB
:100E700000F00C0010B1012001E032E0002068B960
:100E80002068C06844F2020188432168C860207E5F
:100E9000810394F8300041EA400005432068C068AF
:100EA0001849084028432168C8602069012809D1F1
:100EB0002068006B20F00F00E169491E084321689B
:100EC000086305E02068006B20F00F0021680863CC
:100ED00000206064206C20F0020040F001002064DB
:100EE00006E0206C20F0020040F010002064012693
:100EF0003046E8E64800002040420F000003005062
:100F00000001005007C0F0FF10B586B00446142160
:100F100001A8FFF720FA2068B0F1A04F4BD14F484D
:100F20000068401C4D4908600846006801280DD142
:100F300000BF4B48406940F080504949486108462D
:100F4000406900F08050009000BF00BF00BF4448DF
:100F5000406940F40030424948610846406900F465
:100F60000030009000BF00BF0720019003200290D6
:100F70000020039001A94FF0904000F061FF394834
:100F8000394908600020486000213748816080218D
:100F9000C160490001618900416120218161002116
:100FA000C16100F0D3FE08B1FFF773FB00BF2E480C
:100FB000A063446250E02D49206888424CD1274804
:100FC0000068401C254908600846006801280DD1CA
:100FD00000BF2348406940F08050214948610846DD
:100FE000406900F08050009000BF00BF00BF1C4867
:100FF000406940F400301A4948610846406900F4ED
:101000000030009000BF00BF30200190032002900C
:101010000020039001A94FF0904000F011FF11480B
:101020001430134908600020486000211048816096
:101030008021C160490001618900416120218161F5
:101040000021C16100F082FE08B1FFF722FB00BF62
:101050000748A063446200BF06B010BD38000020FE
:101060000010024008000240F4010020000100507E
:10107000380200202DE9F04104460D4616460027AF
:1010800020688068C0F3800000287DD100BF94F8FC
:101090003C00012802D10220BDE8F081012084F843
:1010A0003C0000BF4848006800F01F0000286CD1D9
:1010B0002046FFF743FA0746002F76D1206C40F612
:1010C0000161884340F4807020643F48006800F06C
:1010D0001F0018B12068B0F1A04F0FD1206C20F490
:1010E000801020642068C06800F0007000B3206C9D
:1010F00020F4005040F48050206419E0206C40F44B
:10110000801020642068B0F1A04F03D02F492068E0
:10111000884205D14FF0A040C06800F0007000E0A8
:10112000002028B1206C20F4005040F4805020644E
:10113000206C00F48050B0F5805F04D1606C20F02A
:101140000600606401E00020606400BF002084F8B5
:101150003C0000BF1E48A16B88621E48A16BC8629C
:101160001D48A16B08631C20216808602068406846
:1011700040F01000216848602068C06840F001001D
:101180002168C860226802E01AE013E00DE002F175
:10119000400133462A46A06B00F003FE20688068B9
:1011A00040F00400216888600BE000BF002084F854
:1011B0003C0006E0012700BF002084F83C0000E06E
:1011C0000227384668E7000008030050000100507D
:1011D0001F0400088B0400086D04000810B50246C7
:1011E00092F82030012B01D0022B06D11068406903
:1011F000084314686061002010BD506A40F48020EC
:1012000050620120F8E7F0B504460D461E4694F8FA
:10121000207020688368A86800B900E000BF012F33
:1012200001D0022F7DD103F0806030B903F000605F
:1012300018B903F0805000287ED0C3F3016101206B
:1012400088403060A86860B9B5F800C0E86840EA36
:101250004C5C206800F5C07000EB0110C0F800C0C5
:101260000FE0D5E901C040EACC00D5F80CC040EA57
:101270000C00D4F800C00CF5C07C0CEB011CCCF8C1
:101280000000D5F810C0206800F5C07000EB011018
:10129000C0F804C0287D01280ED1206800F5C07078
:1012A00000EB0110406840F4807C206800F5C070BD
:1012B00000EB0110C0F804C0D079000692F806C017
:1012C00040EA0C4092F805C040EA0C2092F804C0B5
:1012D00040EA0C00D4F800C00CF5C07C0CEB011CFB
:1012E000CCF80C00D078000692F802C040EA0C401E
:1012F00092F801C040EA0C2092F800C040EA0C00CD
:10130000D4F800C00CF5C07C0CEB011CCCF8080034
:10131000206800F5C07000EB0110006840F0010C7F
:1013200001E00FE008E0206800F5C07000EB01105C
:10133000C0F800C00020F0BD606A40F40010606298
:101340000120F8E7606A40F4802060620120F2E743
:10135000F0B504460A46216894F82050012D01D0CA
:10136000022D74D1D1F8000240F00100C1F8000252
:10137000107D00F01F06012000FA06F3D1F81C02D0
:101380009843C1F81C02D069C8B9D1F80C0298433F
:10139000C1F80C02908880B2968940EA064601F5B1
:1013A0001070576940F83760108880B2168940EA9B
:1013B000064601F51070576900EBC7004660D0691A
:1013C000012819D1D1F80C021843C1F80C029088F9
:1013D00080B2168840EA064601F51070576940F859
:1013E0003760908980B2168940EA064601F5107090
:1013F000576900EBC7004660906928B9D1F804022C
:101400009843C1F8040204E0D1F804021843C1F87B
:101410000402106928B9D1F814029843C1F81402E3
:1014200004E0D1F814021843C1F81402106A01282C
:1014300004D1D1F81C021843C1F81C02D1F80002F3
:1014400020F00100C1F800020020F0BDFFE7606A53
:1014500040F4802060620120F7E7704770B50446D1
:1014600094F82050012D01D0022D7DD151B9206872
:10147000C06800F0030080B9606A40F40010606248
:10148000012070BD2068006900F0030028B9606A7F
:1014900040F4001060620120F3E7206800F5D87086
:1014A00000EB0110006800F004009060906840B903
:1014B000206800F5D87000EB01100068400D106046
:1014C00007E0206800F5D87000EB01100068C00844
:1014D0005060206800F5D87000EB0110006800F043
:1014E0000200D060206800F5D87000EB0110406861
:1014F00000F00F00082802D30820106108E02068DF
:1015000000F5D87000EB0110406800F00F0010618A
:10151000206800F5D87000EB0110406800F47F40AF
:10152000000A9061206800F5D87000EB0110406857
:10153000000C5061206800F5D87000EB0110806845
:101540001870206800F5D87000EB0110806800F476
:101550007F40000A5870206800F5D87000EB011039
:10156000806800F47F0000E03CE0000C9870206888
:1015700000F5D87000EB01108068000ED87020686C
:1015800000F5D87000EB0110C0681871206800F5F4
:10159000D87000EB0110C06800F47F40000A587159
:1015A000206800F5D87000EB0110C06800F47F00DF
:1015B000000C9871206800F5D87000EB0110C0682D
:1015C000000ED87131B92068C06840F0200026684C
:1015D000F06005E02068006940F020002668306176
:1015E00000204EE7606A40F480206062012048E7F6
:1015F0002DE9F05F04460025206846692068D0F890
:101600000490206887682068D0F80CA02068D0F883
:1016100010B02068D0F8188006F00100002855D0DE
:1016200007F00100C0B101202168886007F00200C6
:1016300018B1204600F011FB0EE007F0040010B1D5
:1016400045F4006508E007F0080010B145F4805546
:1016500002E0204600F000FB07F48070C8B14FF4B0
:1016600080702168886007F4007018B1204600F08F
:10167000F6FA0EE007F4806010B145F4005508E07A
:1016800007F4006010B145F4804502E0204600F008
:10169000E5FA07F48030C8B14FF4803021688860E3
:1016A00007F4003018B1204600F0DBFA0EE007F432
:1016B000802010B145F4004508E007F4002010B187
:1016C00045F4803502E0204600F0CAFA06F0080032
:1016D00038B10AF0100020B145F4007510202168DF
:1016E000C86006F0040040B10AF0080028B10820E4
:1016F0002168C860204600F0ABF906F0020038B15E
:101700002068C06800F0030010B1204600F0A2F984
:1017100006F0400038B10BF0100020B145F48065B0
:1017200010202168086106F0200040B10BF008008D
:1017300028B1082021680861204600F0F3F906F07E
:10174000100038B12068006900F0030010B1204695
:1017500000F0EAF906F4003040B109F0100028B1B9
:10176000102021684860204600F046FA06F48030D8
:1017700040B109F0080028B10820216848602046DF
:1017800000F070FA06F4004088B309F0040078B362
:1017900006F4807020B108F0010008B145F00105A1
:1017A00006F4007020B108F0020008B145F002050F
:1017B00006F4806020B108F0040008B145F004058B
:1017C00006F40060A0B108F0700088B108F0700065
:1017D000402817D006DC10280BD020280CD0302849
:1017E00019D10CE0502810D0602814D110E01DE071
:1017F00019E045F008050FE045F010050CE045F054
:10180000200509E045F0400506E045F0800503E0CD
:1018100045F4807500E000BF00BF2068806920F0BB
:101820007000216888610420216848602DB1606AD9
:10183000284360622046FFF710FEBDE8F09F70B5B8
:1018400004460CB9012070BD94F8200010B9204660
:1018500000F0B0F82068006840F0010021680860DE
:1018600000F0D6FB05460DE000F0D2FB401B0A2835
:1018700008D9606A40F400306062052084F82000D6
:101880000120E0E72068406800F001000028EBD06C
:101890002068006820F002002168086000F0B8FBB2
:1018A00005460DE000F0B4FB401B0A2808D9606A29
:1018B00040F400306062052084F820000120C2E777
:1018C0002068406800F002000028EBD1207E01284B
:1018D00006D12068006840F080002168086005E0BB
:1018E0002068006820F0800021680860607E012880
:1018F00006D12068006840F040002168086005E0DB
:101900002068006820F0400021680860A07E01285F
:1019100006D12068006840F020002168086005E0DA
:101920002068006820F0200021680860E07E01281F
:1019300006D12068006820F010002168086005E0EA
:101940002068006840F0100021680860207F0128AE
:1019500006D12068006840F008002168086005E0B2
:101960002068006820F0080021680860607F012876
:1019700006D12068006840F004002168086005E096
:101980002068006820F0040021680860D4E90201A2
:10199000084321690843616908436168491E084397
:1019A0002168C86100206062012084F820000020C6
:1019B00049E7000010B586B00446142101A8FEF7DF
:1019C000CAFC20492068884239D100BF1E48C0693E
:1019D00040F000701C49C8610846C06900F0007002
:1019E000009000BF00BF00BF0846406940F480205F
:1019F00048610846406900F48020009000BF00BFA5
:101A00004FF44070019002200290002003900320C8
:101A100004900920059001A90C4800F011FA002259
:101A20001146142000F064FF142000F051FF002242
:101A30001146152000F05CFF152000F049FF06B0AC
:101A400010BD000000640040001002400004004887
:101A50007047000010B588B004462C4B01AA002145
:101A60002046FFF7FBFC0198B0F5047F4BD12748D7
:101A700040782649097800EB012000EE100AB8EE04
:101A8000C00ADFED230A80EE201A224880ED001AFA
:101A900090ED000AF3EE040AB4EEE00AF1EE10FA5B
:101AA0000EDB90ED000ADFED1C0AB4EEE00AF1EE69
:101AB00010FA05D890ED000A184880ED000A1EE0E3
:101AC000144890ED000AF3EE040AB4EEE00AF1EED9
:101AD00010FA05D2B3EE040A104880ED000A0EE0B9
:101AE0000C4890ED000ADFED0C0AB4EEE00AF1EECE
:101AF00010FA04DD9FED080A084880ED000A102165
:101B0000074800F075FA08B010BD00002C00002056
:101B10000000C8423400002000004843200000209C
:101B2000000400487047000010B588B004462C4BF4
:101B300001AA01212046FFF791FC0198B0F5047F2E
:101B40004BD1274840782649097800EB012000EE68
:101B5000100AB8EEC00ADFED230A80EE201A2248F0
:101B600080ED001A90ED000AF3EE040AB4EEE00AEC
:101B7000F1EE10FA0EDB90ED000ADFED1C0AB4EE78
:101B8000E00AF1EE10FA05D890ED000A184880ED51
:101B9000000A1EE0144890ED000AF3EE040AB4EEC9
:101BA000E00AF1EE10FA05D2B3EE040A104880ED17
:101BB000000A0EE00C4890ED000ADFED0C0AB4EECE
:101BC000E00AF1EE10FA04DD9FED080A084880ED06
:101BD000000A1021074800F00BFA08B010BD000001
:101BE0002C0000200000C8423400002000004843C0
:101BF0002000002000040048704770B5044694F8A7
:101C00002000012822D1022084F8200020680068EA
:101C100020F001002168086000F0FAF905460DE0A7
:101C200000F0F6F9401B0A2808D9606A40F4003039
:101C30006062052084F82000012070BD20684068A3
:101C400000F001000028EBD16062F6E7606A40F422
:101C5000002060620120F0E77047704770477047CE
:101C600070477047704770B50446E06B05682068A0
:101C7000066894F84010042088402840D0B106F04F
:101C80000400B8B12068006800F0200028B920687E
:101C9000006820F004002168086094F840100420D7
:101CA0008840E16B4860E06A00284ED02046E16A37
:101CB00088474AE094F8401002208840284008B342
:101CC00006F00200F0B12068006800F0200040B982
:101CD0002068006820F00A0021680860012084F86C
:101CE000210094F8401002208840E16B486000BF5A
:101CF000002084F8200000BFA06A30B32046A16A0B
:101D0000884722E094F84010082088402840E0B13D
:101D100006F00800C8B12068006820F00E002168B5
:101D2000086094F8401001208840E16B4860012071
:101D3000A06384F8210000BF002084F8200000BFC9
:101D4000206B10B12046216B884770BD70B50446EA
:101D500000250CB9012070BD022084F82100206804
:101D6000056843F6F0708543D4E901010843E16852
:101D700008432169084361690843A1690843E1698F
:101D800008430543206805602046FEF75DFC0020FF
:101D9000A063012084F82100002084F8200000BF07
:101DA000D9E72DE9F04104460D4616461F464FF08F
:101DB000000800BF94F82000012802D10220BDE8ED
:101DC000F081012084F8200000BF94F82100012850
:101DD0002CD1022084F821000020A0632068006834
:101DE00020F00100216808603B4632462946204623
:101DF000FEF738FCE06A30B12068006840F00E0061
:101E0000216808600BE02068006840F00A00216843
:101E100008602068006820F00400216808602068DD
:101E2000006840F001002168086006E000BF002063
:101E300084F8200000BF4FF002084046BFE70000D2
:101E400078B503460A460021C0E001268E40156899
:101E500005EA0604002C73D0157905F00305012D61
:101E600004D0157905F00305022D13D198684E00B2
:101E70000325B540A8434E00D568B5402843986077
:101E8000586801258D40A8431579C5F300158D408C
:101E900028435860157905F00305032D09D0D8684B
:101EA0004E000325B540A8434E009568B540284331
:101EB000D860157905F00305022D13D1CE0803F182
:101EC000200555F826004D07EE0E0F25B540A84316
:101ED0004E07F60E1569B5402843CE0803F12005DC
:101EE00045F8260018684E000325B540A84315792B
:101EF00005F003054E00B54028431860556805F409
:101F00004035002D61D000BF334DAD6945F001056E
:101F1000314EB5613546AD6905F00105009500BF4C
:101F200000BF4FEAB6358E0855F826008D072E0FF4
:101F30000F25B540A843B3F1904F02D1002510E022
:101F400043E0264DAB4201D101250AE0244DAB42CE
:101F500001D1022505E0234DAB4201D1032500E06C
:101F600005258E07360FB54028431F4D8E0845F8CE
:101F700026001E4D2868A043556805F4801505B15C
:101F800020431A4D28602D1D2868A043556805F48C
:101F9000001505B12043154D2D1D2860134D2D1F33
:101FA0002868A043556805F4003505B120430F4D5E
:101FB0002D1F28602D1F2868A043556805F4803523
:101FC00005B12043094D083D2860491C1568CD40E6
:101FD000002D7FF43AAF78BD0010024000040048A5
:101FE00000080048000C00480800014008040140B7
:101FF00010B5426921EA020302EA010443EA0443FC
:10200000836110BD0AB1816100E081627047000008
:1020100001480068704700003C00002030B50346CE
:102020000C4693F8C100022800D130BD00BF93F8E0
:10203000C000012801D10220F7E7012083F8C00089
:1020400000BF022083F8C1001868D0F88013012C6B
:1020500006D0022C0FD0042C1AD0082C32D124E048
:1020600021F4E021106800F4E0200143556818686D
:10207000C0F8BC532FE021F460114FF460151068D4
:1020800005EAC000014355681868C0F8C05322E053
:1020900021F0E0714FF0E075106805EA801001430F
:1020A00055681868C0F8C45315E021F060614FF01E
:1020B0006065106805EA4020014355681868C0F85B
:1020C000C85308E0072083F8C10000BF002083F850
:1020D000C00000BF00BF00BF93F8C100072801D1B6
:1020E0000120A2E71868C0F88013012083F8C1001E
:1020F00000BF002083F8C00000BF00BF95E7024684
:1021000000BF92F8C000012801D1022070470120D1
:1021100082F8C00000BF022082F8C100481C80B9CC
:102120001068D0F8CC0320F002031068C0F8CC335C
:102130001068D0F8CC0340F001031068C0F8CC332D
:1021400018E01068D0F8CC0340F002031068C0F823
:10215000CC331068D0F8CC0320F00C00084313688F
:10216000C3F8CC031068D0F8CC0340F0010310682A
:10217000C0F8CC33012082F8C1000020C6E700007F
:1021800030B503460C4693F8C100022800D130BD9B
:1021900000BF93F8C000012801D10220F7E7012019
:1021A00083F8C00000BF022083F8C100108800F44B
:1021B000E0519088C0F308000143108900F40070DA
:1021C0000143108A00F480400143908900F40040EC
:1021D0000143908A134D05EA00400143906900F0E5
:1021E00000700143106A00F080400143D06900F0A4
:1021F000004001431868803000EBC410806B0A4D2A
:10220000284008431D68803505EBC415A8630120EC
:1022100083F8C10000BF002083F8C00000BF00BFEA
:10222000B5E700000000FF010020003CF8B50446BF
:102230000CB90120F8BD0220C43404F8030C0020BE
:1022400020606060A060E06020616061C43C207A32
:1022500000F0010008B33549206888420DD100BF65
:102260003348806940F000503149886108468069F0
:1022700000F00050009000BF00BF2068066826F400
:102280004046208A00F44040064326F44056A08A87
:1022900000F44050064320680660204600F04AF8EB
:1022A000207A00F0020048B12068066826F44076E3
:1022B000A08900F44070064320680660012084F87D
:1022C000C10000BF002084F8C00000BF002529E045
:1022D0000021C5EBC50204F1180040F82210C5EB3F
:1022E000C50200EB82004160C5EBC50204F1180095
:1022F00000EB82008160C5EBC50204F1180000EB21
:102300008200C160C5EBC50204F1180000EB820039
:102310000161C5EBC50204F1180000EB8200816188
:10232000681CC5B2052DD3D9002083E70074014095
:102330000010024008B5094A016891420DD100BF62
:102340000749896941F00051054A9161114689693F
:1023500001F00051009100BF00BF08BD00740140B2
:102360000010024010B586B00446142101A8FDF704
:10237000F2FF1249206888421DD100BF1048406911
:1023800040F400300E4948610846406900F40030CE
:10239000009000BF00BF4FF47060019002200290D7
:1023A00000200390032004900D20059001A94FF018
:1023B0009040FFF745FD06B010BD000000740140DD
:1023C0000010024070B504460D46FFF721FE064698
:1023D0000CE0681C50B1FFF71BFE801BA84200D820
:1023E00025B9072084F8C100032070BD2068D0F80B
:1023F0008803C0F300400028EBD0012084F8C1001E
:1024000000BF002084F8C00000BF00BFEDE770B53A
:1024100004460D46164694F8C100022800D170BD4E
:10242000022084F8C100052D04D13146204601F078
:1024300002FF04E032462946204601F0B7FF0120A2
:1024400084F8C1000020EAE730B5044694F8C100E2
:10245000022800D130BD00BF94F8C000012801D18E
:102460000220F7E7012084F8C00000BF022084F8B2
:10247000C100052928D1012A06D0022A08D0042A41
:102480000AD0082A10D10BE018682568E86114E02A
:1024900018682568686210E018682568A8620CE072
:1024A00018682568E86208E0072084F8C10000BFCA
:1024B000002084F8C00000BF00BF00BF94F8C10036
:1024C00007287DD10120C5E7012A06D0022A0BD0BA
:1024D000042A4CD0082A74D150E01D68206880304E
:1024E00000EBC110C5619AE01D682068803000EBE8
:1024F000C1104562586868B32068803000EBC11095
:10250000006820F440552068803000EBC110056061
:102510002068803000EBC11000685D6828432568A2
:10252000803505EBC11528605868B0F5005F06D10D
:102530009D682068803000EBC110C56116E05868C6
:10254000B0F5405F12D19D682068803000EBC1106B
:1025500085620BE02068803000EBC110006820F439
:1025600040502568803505EBC115286057E01D688F
:102570002068803000EBC110856250E01D68206843
:10258000803000EBC110C562586888B32068803085
:1025900000EBC110006820F440452068803000EB5B
:1025A000C11005602068803000EBC11000685D68D4
:1025B00040EA85052068803000EBC110056001E02D
:1025C00034E023E05868B0F5005F06D19D682068CC
:1025D000803000EBC110C56117E05868B0F5405F6E
:1025E00013D19D682068803000EBC11085620CE03B
:1025F000FFE72068803000EBC110006820F4404005
:102600002568803505EBC115286008E0072084F8AF
:10261000C10000BF002084F8C00000BF00BF00BFA1
:1026200094F8C100072801D1012013E7012084F8A4
:10263000C10000BF002084F8C00000BF00BF09E750
:10264000024600BF92F8C000012801D10220704765
:10265000012082F8C00000BF022082F8C10010688B
:102660000068084313681860012082F8C10000BFA9
:10267000002082F8C00000BF00BFE8E72DE9F0416C
:1026800004460D4616461F4694F8C100022801D1A3
:10269000BDE8F08100BF94F8C000012801D10220FC
:1026A000F6E7012084F8C00000BF022084F8C100D2
:1026B0003B4632462946204601F0FFFD012084F8C2
:1026C000C10000BF002084F8C00000BF00BFDFE7EA
:1026D000024600BF92F8C000012801D102207047D5
:1026E000012082F8C00000BF022082F8C1001068FB
:1026F000D0F8940308431368C3F89403012082F8C8
:10270000C10000BF002082F8C00000BF00BFE6E7A4
:10271000024600BF92F8C000012801D10220704794
:10272000012082F8C00000BF022082F8C1001068BA
:10273000D0F8980308431368C3F89803012082F87F
:10274000C10000BF002082F8C00000BF00BFE6E764
:1027500070B504460D46164694F8C100022800D113
:1027600070BD00BF94F8C000012801D10220F7E736
:10277000012084F8C00000BF022084F8C100052DAC
:1027800004D13146204601F06AFD04E03246294674
:10279000204601F02BFEC5EBC50204F1180000EB4A
:1027A000820031688160C5EBC50204F1180000EBBE
:1027B00082007168C160C5EBC50204F1180000EB2E
:1027C0008200B1680161C5EBC50204F1180000EB9D
:1027D0008200F1684161C5EBC50204F1180000EB0D
:1027E0008200316981612946204601F0E4FC012024
:1027F00084F8C10000BF002084F8C00000BF00BF03
:10280000AEE700000348006803490978084401491D
:10281000086070473C0000204400002010B50848C4
:10282000006840F0100006490860032000F09EF8A0
:102830000F2000F007F800F02BF8002010BD00007A
:102840000020024070B504460E4800784FF47A71BB
:10285000B1FBF0F00C490968B1FBF0F5284601F036
:1028600059F808B1012070BD102C07D20022214672
:10287000501E00F03DF80548046001E00120F2E739
:102880000020F0E744000020480000204000002025
:1028900008B500BF0D48806940F001000B49886110
:1028A0000846806900F00100009000BF00BF00BF33
:1028B0000846C06940F08050C8610846C06900F011
:1028C0008050009000BF00BF08BD00000010024013
:1028D00001460846002809DB00F01F0301229A4048
:1028E00043099B0003F1E023C3F8002100BF7047B8
:1028F0002DE9F05F80460D461646002702F060FA8B
:10290000074639462A46334601F00700C0F1070A58
:10291000BAF1040F02D94FF0040A01E0C0F1070A2E
:10292000D14600F1040ABAF1070F02D24FF0000AB3
:1029300001E0A0F1030AD4464FF0010A0AFA09FAAD
:10294000AAF1010A0AEA020A0AFA0CFA4FF0010B8C
:102950000BFA0CFBABF1010B0BEA030B4AEA0B047D
:102960002146404602F034FABDE8F09F00BF00F077
:102970000702064B19684FF6FF031940044B0B433F
:1029800043EA0221014B196000BF70470CED00E0E3
:102990000000FA05F8B50446002600250027206847
:1029A00000F48030B0F5803F73D17A48C06900F000
:1029B000805070B900BF7748C06940F080507549B9
:1029C000C8610846C06900F08050009000BF00BF99
:1029D00001277148006800F48070B0B96E48006843
:1029E00040F480706C490860FFF712FB064606E071
:1029F000FFF70EFB801B642801D90320F8BD664851
:102A0000006800F480700028F2D06248006A00F488
:102A10004075002D6BD0A08800F44070A84266D0AD
:102A20005C48006A20F440750121080490FAA0F087
:102A3000B0FA80F0594A02EB8000C0F80014002080
:102A4000090491FAA1F1B1FA81F102EB8101C1F817
:102A500000045048056205F00100B8B3FFF7D8FA4A
:102A6000064608E0FFF7D4FA801B41F2883188421D
:102A700001D90320C2E74020022191FAA1F1B1FA65
:102A800081F108430121B1EB601F03D14148006887
:102A90001FE03BE04020022191FAA1F1B1FA81F15F
:102AA00008430221B1EB601F02D13A48006A10E0EE
:102AB0004020022191FAA1F1B1FA81F108430421E9
:102AC000B1EB601F03D13348406802E00FE03148AA
:102AD000406A4021022292FAA2F2B2FA82F2114333
:102AE00001F01F020121914008400028BAD0294876
:102AF000006A20F440706168084326490862012F8B
:102B000004D10846C06920F08050C861207800F0E8
:102B1000010038B11F48006B20F00300A168084392
:102B20001C490863207800F02000202807D11948AC
:102B3000006B20F01000E168084316490863207814
:102B400000F08000802807D11248C06A20F4F87095
:102B5000216908430F49C862208800F48050B0F50D
:102B6000805F07D10B48006B20F4807061690843D7
:102B700008490863208800F48040B0F5804F07D1F1
:102B80000448006B20F48050A169084301490863A0
:102B9000002033E700100240007000400000424275
:102BA00070B504460D4600260CB9012070BDA24840
:102BB000006800F00700A8420ED29F48006820F08D
:102BC000070028439C4908600846006800F0070099
:102BD000A84201D00120E9E7207800F00200022895
:102BE00007D19648406820F0F000A1680843934957
:102BF0004860207800F0010000287CD0606801283F
:102C00003BD12020010391FAA1F1B1FA81F10843EF
:102C10000121B1EB601F02D1884800681DE020202F
:102C2000010391FAA1F1B1FA81F108430221B1EB5C
:102C3000601F02D18148006A0FE02020010391FA51
:102C4000A1F1B1FA81F108430421B1EB601F02D177
:102C50007A48406801E07948406A20210A0392FAE4
:102C6000A2F2B2FA82F2114301F01F020121914057
:102C7000084000287CD1012098E7606802283BD1F9
:102C80002020010591FAA1F1B1FA81F10843012157
:102C9000B1EB601F02D1694800681DE020200105EA
:102CA00091FAA1F1B1FA81F108430221B1EB601F61
:102CB00002D16248006A0FE02020010591FAA1F1DB
:102CC000B1FA81F108430421B1EB601F02D15B48E6
:102CD000406801E05948406A20210A0592FAA2F2B0
:102CE000B2FA82F2114301F01F0201219140084023
:102CF000E8BB01205AE758E02020022191FAA1F117
:102D0000B1FA81F108430121B1EB601F02D14B48B8
:102D100000681DE02020022191FAA1F1B1FA81F1B1
:102D200008430221B1EB601F02D14448006A0FE062
:102D30002020022191FAA1F1B1FA81F10843042186
:102D4000B1EB601F02D13D48406801E03B48406A5A
:102D50002021022292FAA2F2B2FA82F2114301F089
:102D60001F0201219140084008B901201EE7FFE73A
:102D70003248406820F00300616808432F494860EA
:102D8000FFF746F9064608E0FFF742F9801B41F2DB
:102D90008831884201D9032008E72848406800F0BC
:102DA0000C006168B0EB810FEED12348006800F0A1
:102DB0000700A8420ED92048006820F007002843E9
:102DC0001D4908600846006800F00700A84201D0CD
:102DD0000120EBE6207800F00400042807D1174812
:102DE000406820F4E060E1680843144948602078B6
:102DF00000F00800082808D11048406820F460500E
:102E0000216940EAC1000D49486000F01FF80B49F4
:102E1000496801F0F001F02292FAA2F2B2FA82F2CD
:102E2000D140074A515CC84006490860064800681E
:102E3000FFF708FD0020B9E6002002400010024024
:102E40005E51000848000020400000202DE9F041BC
:102E50000024002500270026A0461F48446804F0EF
:102E60000C0078B3042802D008282CD102E0DFF847
:102E70006C802CE004F470104FF4701191FAA1F101
:102E8000B1FA81F1C84016490E5C1348C06A00F0DF
:102E90000F000F2191FAA1F1B1FA81F1C840114957
:102EA0000D5C04F4803040B12A4600230B481946DB
:102EB000FDF7DAF9A0FB067102E00B48A0FB0671F2
:102EC000B84604E000E000BFDFF8208000BF00BF8C
:102ED0004046BDE8F081000000100240001BB70032
:102EE0003E5100084E51000800093D0000127A00D2
:102EF000F8B504460CB90120F8BD207800F00100B7
:102F000000287BD0FA48406800F00C0004280CD060
:102F1000F748406800F00C00082845D1F4484068A4
:102F200000F48030B0F5803F3ED12020010391FABB
:102F3000A1F1B1FA81F108430121B1EB601F02D187
:102F4000EB4800681DE02020010391FAA1F1B1FADD
:102F500081F108430221B1EB601F02D1E448006A0D
:102F60000FE02020010391FAA1F1B1FA81F10843A9
:102F70000421B1EB601F02D1DD48406801E0DC486C
:102F8000406A20210A0392FAA2F2B2FA82F21143B5
:102F900001F01F020121914008400028B1D0606873
:102FA00000282BD10120A7E700BF6068B0F5803F63
:102FB00006D1CF48006840F48030CD49086029E050
:102FC000606858B9CA48006820F48030C849086071
:102FD0000846006820F4802008601BE06068B0F5B7
:102FE000A02F0CD1C248006840F48020C04908607E
:102FF0000846006840F4803008600BE0A1E0BC485F
:10300000006820F48030BA4908600846006820F45F
:103010008020086000BFB648C06A20F00F00A16899
:103020000843B349C8626068A0B3FEF7F1FF0546E4
:1030300006E0FEF7EDFF401B642801D903205BE7A3
:103040002020010391FAA1F1B1FA81F10843012195
:10305000B1EB601F02D1A64800681EE020200103EA
:1030600091FAA1F1B1FA81F108430221B1EB601F9D
:1030700002D19F48006A10E02020010391FAA1F1DB
:10308000B1FA81F108430421B1EB601F03D19848E4
:10309000406802E010E09648406A20210A0392FA54
:1030A000A2F2B2FA82F2114301F01F020121914013
:1030B00008400028BDD044E0FEF7AAFF054606E020
:1030C000FEF7A6FF401B642801D9032014E7202047
:1030D000010391FAA1F1B1FA81F108430121B1EBA9
:1030E000601F02D1824800681DE02020010391FA90
:1030F000A1F1B1FA81F108430221B1EB601F02D1C5
:103100007B48006A0FE02020010391FAA1F1B1FA97
:1031100081F108430421B1EB601F02D1744840687B
:1031200001E07348406A20210A0392FAA2F2B2FA3F
:1031300082F2114301F01F02012191400840002852
:10314000BED1207800F0020002285CD168484068B7
:1031500000F00C0050B16648406800F00C000828F0
:1031600052D16348406800F48030E8BB202002213F
:1031700091FAA1F1B1FA81F108430121B1EB601F8D
:1031800002D15B4800681DE02020022191FAA1F1E4
:10319000B1FA81F108430221B1EB601F02D154481A
:1031A000006A0FE02020022191FAA1F1B1FA81F129
:1031B00008430421B1EB601F02D14D48406801E093
:1031C0004B48406A2021022292FAA2F2B2FA82F21D
:1031D000114301F01F0201219140084028B12069EC
:1031E000012802D0012087E60EE04148006820F067
:1031F000F800F82292FAA2F2B2FA82F261699140E2
:1032000008433B490860B1E0206970B3012191FA9D
:10321000A1F0B0FA80F0374A42F82010FEF7F8FE2D
:10322000054606E0FEF7F4FE401B022801D9032004
:1032300062E62020022191FAA1F1B1FA81F108435E
:103240000121B1EB601F02D1294800681EE0202057
:10325000022191FAA1F1B1FA81F108430221B1EB07
:10326000601F03D12248006A10E02CE020200221D8
:1032700091FAA1F1B1FA81F108430421B1EB601F89
:1032800002D11B48406801E01948406A202102220F
:1032900092FAA2F2B2FA82F2114301F01F02012166
:1032A000914008400028BDD01148006820F0F80087
:1032B000F82292FAA2F2B2FA82F2616991400843CE
:1032C0000B49086052E00020012191FAA1F1B1FA06
:1032D00081F1084A42F82100FEF79AFE05460BE00C
:1032E000FEF796FE401B022806D9032004E60000E4
:1032F00000100240000042422020022191FAA1F178
:10330000B1FA81F108430121B1EB601F02D1FB4802
:1033100000681DE02020022191FAA1F1B1FA81F1AB
:1033200008430221B1EB601F02D1F448006A0FE0AC
:103330002020022191FAA1F1B1FA81F10843042180
:10334000B1EB601F02D1ED48406801E0EB48406AF4
:103350002021022292FAA2F2B2FA82F2114301F083
:103360001F020121914008400028B9D1207800F0C7
:103370000800082851D1A06980B3012191FAA1F079
:10338000B0FA80F0DE4A02EB8000C0F88014FEF74D
:103390003FFE054606E0FEF73BFE401B022801D932
:1033A0000320A9E56020022191FAA1F1B1FA81F18F
:1033B00008430121B1EB601F02D1D04800681EE034
:1033C0006020022191FAA1F1B1FA81F108430221B2
:1033D000B1EB601F03D1C948006A10E01EE0602015
:1033E000022191FAA1F1B1FA81F108430421B1EB74
:1033F000601F02D1C148406801E0C048406A6021B6
:10340000022292FAA2F2B2FA82F2114301F01F02F2
:103410000121914008400028BDD04FE0002001214B
:1034200091FAA1F1B1FA81F1B54A02EB8101C1F83B
:103430008004FEF7EDFD054606E0FEF7E9FD401BC2
:10344000022801D9032057E56020022191FAA1F159
:10345000B1FA81F108430121B1EB601F02D1A74805
:1034600000681DE06020022191FAA1F1B1FA81F11A
:1034700008430221B1EB601F02D1A048006A0FE0AF
:103480006020022191FAA1F1B1FA81F108430421EF
:10349000B1EB601F02D19948406801E09748406A4B
:1034A0006021022292FAA2F2B2FA82F2114301F0F2
:1034B0001F020121914008400028BED1207800F071
:1034C0000400042873D100278C48C06900F08050A4
:1034D00070B900BF8948C06940F080508749C86111
:1034E0000846C06900F08050009000BF00BF01276F
:1034F0008448006800F48070B0B98248006840F4E5
:10350000807080490860FEF783FD054606E0FEF7FF
:103510007FFD401B642801D90320EDE47948006851
:1035200000F480700028F2D000BFE068012806D1C6
:103530007248006A40F001007049086227E0E068C4
:1035400058B96E48006A20F001006C4908620846CC
:10355000006A20F00400086219E0E06805280BD139
:103560006648006A40F00400644908620846006A40
:1035700040F0010008620AE06048006A20F00100A3
:103580005E4908620846006A20F00400086200BF35
:10359000E068B8B3FEF73CFD054609E0FEF738FDEC
:1035A000401B41F28831884202D90320A4E48BE019
:1035B0004020022191FAA1F1B1FA81F108430121E1
:1035C000B1EB601F02D14D4800681EE0402002218F
:1035D00091FAA1F1B1FA81F108430221B1EB601F28
:1035E00002D14648006A10E04020022191FAA1F180
:1035F000B1FA81F108430421B1EB601F03D13F48C8
:10360000406802E010E03D48406A4021022292FA00
:10361000A2F2B2FA82F2114301F01F02012191409D
:1036200008400028BAD046E0FEF7F2FC054608E064
:10363000FEF7EEFC401B41F28831884201D903209D
:103640005AE44020022191FAA1F1B1FA81F1084334
:103650000121B1EB601F02D1284800681DE0402025
:10366000022191FAA1F1B1FA81F108430221B1EBF3
:10367000601F02D12148006A0FE04020022191FA28
:10368000A1F1B1FA81F108430421B1EB601F02D12D
:103690001A48406801E01948406A4021022292FA23
:1036A000A2F2B2FA82F2114301F01F02012191400D
:1036B00008400028BCD1012F05D11048C06920F076
:1036C00080500E49C86100BFE069002874D00B48E3
:1036D000406800F00C0008286FD0E06902286DD126
:1036E00000204FF0807191FAA1F1B1FA81F1044A02
:1036F00042F82100FEF78CFC05460CE00010024069
:103700000000424200700040FEF782FC401B02288D
:1037100001D9032047E42020010591FAA1F1B1FA73
:1037200081F108430121B1EB601F02D177480068A5
:103730001DE02020010591FAA1F1B1FA81F10843C1
:103740000221B1EB601F02D17048006A0FE0202017
:10375000010591FAA1F1B1FA81F108430421B1EB1D
:10376000601F02D16948406801E06848406A202132
:103770000A0592FAA2F2B2FA82F2114301F01F0294
:103780000121914008400028BED1D4E90810084327
:103790005E49496821F4741108435C49486001207E
:1037A000010691FAA1F1B1FA81F1594A42F82100DA
:1037B000FEF72EFC054609E0A5E092E041E0FEF7A9
:1037C00027FC401B022801D9032038E420200105F2
:1037D00091FAA1F1B1FA81F108430121B1EB601F27
:1037E00002D14A4800681DE02020010591FAA1F1AC
:1037F000B1FA81F108430221B1EB601F02D14348C5
:10380000006A0FE02020010591FAA1F1B1FA81F1DF
:1038100008430421B1EB601F02D13C48406801E03D
:103820003A48406A20210A0592FAA2F2B2FA82F2DC
:10383000114301F01F020121914008400028BED031
:1038400061E000204FF0807191FAA1F1B1FA81F1AD
:103850002F4A42F82100FEF7DBFB054606E0FEF7A3
:10386000D7FB401B022801D903202FE420200105AB
:1038700091FAA1F1B1FA81F108430121B1EB601F86
:1038800002D1224800681DE02020010591FAA1F133
:10389000B1FA81F108430221B1EB601F02D11B484C
:1038A000006A0FE02020010591FAA1F1B1FA81F13F
:1038B00008430421B1EB601F02D11448406801E0C5
:1038C0001248406A20210A0592FAA2F2B2FA82F264
:1038D000114301F01F020121914008400028BED190
:1038E00011E0E069012800D17DE40848466806F44B
:1038F0008031206A814204D106F47011606A8142ED
:1039000001D001206FE400206DE4000000100240AF
:103910000000424270B504462546681EB0F1807F23
:1039200001D301200FE0681E4FF0E02148610F2114
:103930004FF0FF3001F04CFA00204FF0E021886199
:1039400007200861002070BD704770477047000075
:1039500030B502460B4600BF92F83C00012801D169
:10396000022030BD012082F83C0000BF022082F816
:103970003D001068416810688468174D1068A842BF
:1039800003D121F470015868014321F070011868D7
:10399000014310684160104D1068A8420BD01068B8
:1039A000B0F1804F07D00D4D1068A84203D00C4DE8
:1039B0001068A84205D124F0800498680443106878
:1039C0008460012082F83D0000BF002082F83C00A6
:1039D00000BF00BFC5E70000002C0140000400400C
:1039E0000040014010B504460CB9012010BD94F808
:1039F0003D0028B9002084F83C00204600F02AF859
:103A0000022084F83D00211D206801F08DF901207D
:103A100084F8480000BF84F83E0001213F20015592
:103A200040200155412001554220015543200155B8
:103A300000BF00BF012084F8440045200155462006
:103A400001554720015500BF012084F83D000020AA
:103A5000CCE7000038B504461A492068884216D1E0
:103A600000BF1948C06940F010001749C8610846F6
:103A7000C06900F01000009000BF00BF0022114696
:103A80003620FEF735FF3620FEF722FF19E00F49FA
:103A90002068884215D100BF0B48C06940F0200063
:103AA0000949C8610846C06900F02000009000BFC5
:103AB00000BF002211463720FEF71AFF3720FEF71D
:103AC00007FF38BD00100040001002400014004005
:103AD000014691F83D00012801D0012070470220E5
:103AE00081F83D000868C06840F001000B68D860AC
:103AF000144B086898420BD00868B0F1804F07D08B
:103B0000114B0868984203D0104B0868984210D1B6
:103B1000086880680E4B00EA0302062A0FD0B2F54F
:103B2000803F0CD00868006840F001000B68186006
:103B300005E00868006840F001000B68186000208C
:103B4000CCE70000002C0140000400400040014090
:103B500007000100704710B5044620680069C0F3F3
:103B60004000D8B12068C068C0F34000B0B16FF029
:103B7000020021680861012020772068806900F038
:103B8000030018B12046FFF7E5FF05E0204600F0EE
:103B9000BEF8204600F0BCF80020207720680069BD
:103BA000C0F38000D8B12068C068C0F38000B0B115
:103BB0006FF0040021680861022020772068806986
:103BC00000F4407018B12046FFF7C4FF05E020461E
:103BD00000F09DF8204600F09BF800202077206838
:103BE0000069C0F3C000D8B12068C068C0F3C0004D
:103BF000B0B16FF0080021680861042020772068C8
:103C0000C06900F0030018B12046FFF7A3FF05E0EC
:103C1000204600F07CF8204600F07AF8002020775B
:103C200020680069C0F30010D8B12068C068C0F3F4
:103C30000010B0B16FF010002168086108202077F3
:103C40002068C06900F4407018B12046FFF782FF79
:103C500005E0204600F05BF8204600F059F800200F
:103C600020772068006900F0010058B12068C06822
:103C700000F0010030B16FF00100216808612046BA
:103C800000F048F820680069C0F3C01058B12068FF
:103C9000C068C0F3C01030B16FF0800021680861C7
:103CA0002046FFF752FE20680069C0F3002058B19B
:103CB0002068C068C0F3C01030B16FF48070216814
:103CC00008612046FFF740FE20680069C0F38010BD
:103CD00058B12068C068C0F3801030B16FF0400068
:103CE00021680861204600F065FA20680069C0F389
:103CF000401058B12068C068C0F3401030B16FF078
:103D00002000216808612046FFF720FE10BD7047A3
:103D10007047000010B52DED028B0446FD4884422B
:103D20007ED1FD4890ED000AF3EE020AB4EEE00AFF
:103D3000F1EE10FA08D390ED000AF3EE0E0AB4EE9D
:103D4000E00AF1EE10FA0EDD0321F448FEF7E0FC84
:103D50000C21F248FEF7DCFC0120F149087000203C
:103D6000F049088061E0EC4890ED000AF3EE0D0A9E
:103D7000B4EEE00AF1EE10FA57D290ED000AF3EE3D
:103D8000040AB4EEE00AF1EE10FA4EDDE4480078E1
:103D9000E0B3E4480088401CE249088008460088F7
:103DA000B0F57A7F32DDB1EE040ADF4880ED000A1B
:103DB000DE4801F0A7F9DE4801F0A4F9DD4801F082
:103DC000A1F9DD4801F09EF9DC4890ED000ADC48DD
:103DD000D0ED000A20EE200ACF48D0ED000A80EE98
:103DE000201AF0EE418AD448C0ED0B8A0321CB485B
:103DF000FEF76EFC0C21C948FEF76AFC0020C8499A
:103E00000870C8490880CF49087000BFCC4890EDC1
:103E1000000AF2EE040AB4EEE00AF1EE10FA00E055
:103E2000BCE102DD0120C7490870BF4890ED000ADF
:103E3000C548D0ED000AB4EEE00AF1EE10FA09D25E
:103E4000B94890ED000ADFEDC10A30EE200A80ED9E
:103E5000000A0FE0B44890ED000ABB48D0ED000A1C
:103E6000B4EEE00AF1EE10FA04DD90ED000AAE487F
:103E700080ED000AB6480088B54989880844B449ED
:103E80000989084400EE100AB8EEC00ADFEDB10A55
:103E900020EE200AF3EE000A60EE200A9FEDAE1A33
:103EA00080EE810AF0EE080A80EE201AA44880ED28
:103EB000001AA7484088A649C9880844A4494989E6
:103EC000084400EE100AB8EEC00ADFEDA20A20EEA8
:103ED000200AF3EE000A60EE200A9FED9F1A80EEA2
:103EE000810AF0EE080A80EE201A8B4880ED001A55
:103EF0009A4840889949C98808449849498908449A
:103F000000EE100AB8EEC00ADFED920A20EE200A99
:103F1000DFED910A80EE201AB2EE040A21EE000ACB
:103F2000F0EE080A80EE201A8D4880ED001A8B48CA
:103F300000888A4989880844884909890844A0F585
:103F4000B850FD3800EE100AB8EEC00ADFED810A65
:103F500020EE200A9FED801AC0EE010AB3EE040A9B
:103F600020EE800AF0EE080A80EE201A7D4880EDEF
:103F7000001A734890ED000A6D4801F011F870487E
:103F800090ED000A6B4801F00BF8674890ED000ACD
:103F9000664880ED0A0A7248D0ED000A5E4890ED4E
:103FA000001A60EE810AB0EE600A604800F0F8FF87
:103FB0005E4890ED0B8A5E4890ED0B0AB4EEC80A9D
:103FC000F1EE10FA07D290ED0B0AB0EE408A574896
:103FD00080ED0B8A18E05B48007878B1554890ED89
:103FE0000B0AB4EEC80AF1EE10FA07DD90ED0B0AE9
:103FF000B0EE408A4D4880ED0B8A05E04C4880EDDC
:104000000B8A4C4880ED0B8A4B4880ED0A8A554854
:1040100090ED000A484800F0C3FF474890ED0B0AB6
:10402000514880ED000A90ED000AF7EE080AB4EE60
:10403000E00AF1EE10FA04DDB7EE080A80ED000A9E
:104040000DE0494890ED000ADFED480AB4EEE00AC1
:10405000F1EE10FA03D29FED450A80ED000A4248C6
:1040600090ED000ADFED420AB4EEE00AF1EE10FA3C
:104070000FDD9FED3F0A3F4880ED000A3A4890ED82
:10408000000ADFED3D0A80EE801A3C4880ED001A00
:104090000AE0354890ED000A364880ED000A9FEDB1
:1040A000340A364880ED000A3248D0ED000A9FED10
:1040B000340A9FED331A01EE600ABCEEC00A10EE1E
:1040C000100A16490968C8612A48D0ED000A9FED18
:1040D0002C0A9FED2B1A01EE200ABCEEC00A10EE4E
:1040E000100A0E49096848622448D0ED000A9FED85
:1040F000240A9FED231A01EE600ABCEEC00A10EEFE
:10410000100A0649096888621C48D0ED000A9FED34
:104110001C0A37E0CC03002014000020A402002079
:10412000280000202A00002024000020DC000020BD
:1041300064000020A0000020180100201C000020C6
:104140000C00002029000020200000200AD7233C7A
:104150005800002046B6534000F07F454C00002038
:10416000180000201000002000000020CDCC4C3EA4
:104170006666663F04000020295C4F3F080000206F
:10418000000048461FED021A01EE200ABCEEC00AEC
:1041900010EE100A05490968C86204E00448844228
:1041A00001D100F013FDBDEC028B10BDA402002074
:1041B00080030020704706293AD2DFE801F00C1591
:1041C0001E2730030268D2F8842342F001030268FC
:1041D000C2F884332DE00268D2F8842342F002034F
:1041E0000268C2F8843324E00268D2F8842342F0E3
:1041F00004030268C2F884331BE00268D2F8842307
:1042000042F008030268C2F8843312E00268D2F870
:10421000842342F010030268C2F8843309E0026884
:10422000D2F8842342F020030268C2F8843300E00D
:1042300000BF00BF704710B503681A6822F007027C
:104240008B681A4322F01802CB681A4303681A607D
:104250000B68046863614B680468A36110BD10B506
:104260000246146820681468D4F8A03320F02000B7
:104270004C69204320F400608C69204320F4806066
:10428000CC69204320F0C0600C6A204320F000601D
:104290004C6A204320F040408C6A40EA840020F0C1
:1042A00000500C6B204323F48033CC6A2343146802
:1042B00020601468C4F8A03310BDF0B51546002482
:1042C0000768803707EBC1177A6E0768803707EBFE
:1042D000C117BE6B202D2FD00CDC042D16D004DCB2
:1042E000012D12D0022D3BD124E0082D23D0102D1A
:1042F00036D10CE0402D0BD0802D1ED0B5F5807F3F
:1043000007D0B5F5007F2BD118E000BF00BF00BF7C
:1043100000BFD3F804C00768803707EBC117C7F8A0
:104320003CC0D3F808C00768803707EBC117C7F84F
:1043300040C016E000BF00BF00BF00BFD3F804C0FC
:104340000768803707EBC117C7F844C0D3F808C027
:104350000768803707EBC117C7F848C0102400E092
:1043600000BF00BFFE27A740BA431F68A7403A43DB
:10437000DF68A7403A431F69A7403A435F69A740F7
:104380003A439F69A7403A431F69082F08D106F4B2
:1043900000772FB906F0007717B9DF69A7403A43D5
:1043A0000768803707EBC1177A66F0BD30B504683F
:1043B000803404EBC114236823F00703946823437B
:1043C00023F01803D46823430468803404EBC11439
:1043D000236015680468803404EBC1146561556876
:1043E0000468803404EBC114A56130BD2DE9F041AF
:1043F0000346D3F800C00CF1800C0CEBC11CDCF8B8
:1044000000C02CF07048D3F800C00CF1800C0CEB0D
:10441000C11CCCF80080D3F800C00CF1800C0CEB70
:10442000C11CDCF80000D3F800C00CF1800C0CEBD0
:10443000C11CDCF86850D3F800C00CF1800C0CEB08
:10444000C11CDCF86460D3F800C0DCF8A04320F0A5
:104450002000D2F814C04CEA000020F40060D2F82A
:1044600018C04CEA000020F48060D2F81CC04CEA6E
:10447000000020F0C060D2F820C04CEA000020F01C
:104480000060D2F824C04CEA000020F07040D2F85E
:1044900028C04CEA000020F40030D2F830C0BCF153
:1044A000005F01D140F4003020F04000D2F834C069
:1044B0004CEA000020F48020D2F850C04CEA000002
:1044C00020F0FC70D2F848C04CEA000025F01F052F
:1044D00092F838C00CF01F0C4CEA050525F0004599
:1044E000D2F83CC04CEA0505D2F834C0BCF1000F4C
:1044F00005D126F48076D2F840C04CEA0606D2F800
:1045000044C0BCF5606F04D0D2F844C0BCF5F05F85
:1045100004D1D2F834C0BCF1400F05D126F4F056D6
:10452000D2F844C04CEA0606D76C052927D2DFE84A
:1045300001F0030A11181F0024F40034D2F82CC033
:1045400044EA4C041CE024F48024D2F82CC044EA51
:104550008C0415E024F40024D2F82CC044EACC04E6
:104560000EE024F48014D2F82CC044EA0C1407E0C6
:1045700024F40014D2F82CC044EA4C1400E000BF2C
:1045800000BFD3F800C00CF1800C0CEBC11CCCF8C0
:104590000000D3F800C00CF1800C0CEBC11CCCF86F
:1045A0006850D3F800C00CF1800C0CEBC11CCCF8A7
:1045B0006460D3F800C00CF1800C0CEBC11CCCF88B
:1045C0005470D3F800C0CCF8A043BDE8F08100BF20
:1045D000FEE7000000B589B0002006900790089023
:1045E00018216846FBF7B7FE4FF0A0402649086047
:1045F0004FF40030486000212348816001210161AF
:104600000021417680F820104FF48061C1624FF4A0
:10461000E07181620021C1600221C161012180F845
:10462000301008214161002101764163FCF742FB13
:1046300008B1FCF72EF80020069006A91248FCF7F6
:1046400089F808B1FCF725F801200090019003904B
:104650000220029000200490059069460A48FCF769
:1046600017F908B1FCF715F803200090022001901B
:104670000020039069460448FCF70AF908B1FCF7EA
:1046800008F809B000BD00005401002000B587B053
:10469000182101A8FBF75FFE20482149086040026D
:1046A000486000211E48816001210161002141769E
:1046B00080F820104FF48061C1624FF4E071816294
:1046C0000021C1600221C161012180F83010082160
:1046D0004161002101764163FCF7ECFA08B1FBF778
:1046E000D8FF012001900290002004900220039046
:1046F00000200590069001A90948FCF7C9F808B107
:10470000FBF7C7FF02200190029001A90448FCF7C3
:10471000BFF808B1FBF7BDFF07B000BD00010050B6
:10472000A401002000B58BB0002006900120079066
:10473000002008904FF48440029044F22020019021
:104740004FF48440049044F2202003900020059010
:104750000120099018481949086004204860002188
:1047600016488160C1604FF480210161C900416138
:104770000021017601214176002181760121C17657
:104780000021017701214177FDF759F808B1FBF7C6
:1047900080FF01A90948FCF7DBFD08B1FBF779FFB1
:1047A0000120059001A90548FCF7D2FD08B1FBF7EF
:1047B00070FF0BB000BD0000006400407C020020D0
:1047C00008B500BF0E48406940F001000C4948613F
:1047D0000846406900F00100009000BF00BF0022C1
:1047E00011460B20FEF784F80B20FEF771F800222B
:1047F00011460C20FEF77CF80C20FEF769F808BD86
:104800000010024000B587B0142102A8FBF7A3FDF9
:1048100000BF2348406940F48000214948610846B0
:10482000406900F48000019000BF00BF00BF08464F
:10483000406940F4003048610846406900F40030A7
:10484000019000BF00BF00BF0846406940F48020CF
:1048500048610846406900F48020019000BF00BF15
:10486000012241F230010F48FDF7CCFB4FF480509C
:1048700002900120039000200490059002A90948AD
:10488000FDF7DEFA30200290112003900020049002
:10489000059002A90348FDF7D3FA07B000BD000058
:1048A000001002400004004800B5AFB000202D9079
:1048B0002E9029902A902B902C90542114A8FBF72D
:1048C0004AFD0020119012901390242108A8FBF7B4
:1048D00042FD20216846FBF73EFD90489049086064
:1048E0000020486000218E488160FDF79FFC08B1E0
:1048F000FBF7CFFE0C218A48FDF701FC08B1FBF75E
:10490000C8FE0A218648FDF75DFD08B1FBF7C1FE30
:104910004FF480302D9080112E902DAA01218048D7
:10492000FDF77CFB08B1FBF7B4FE4FF4C8402990BB
:1049300000202A902B9008202C9029AA0521784845
:10494000FDF765FD08B1FBF7A4FE0020149015905B
:104950001690179001201890002019901A901B9023
:104960001C904FF000601D9000201E901F904FF093
:104970000050209014AA05216948FDF7E9FE08B10E
:10498000FBF787FE6420119011AB012205216448DA
:10499000FDF75AFD08B1FBF77CFE4FF4345011903F
:1049A00011AB022205215E48FDF74EFD08B1FBF771
:1049B00070FE6420119011AB042205215848FDF7C8
:1049C00043FD08B1FBF765FE4FF43450119011AB75
:1049D000082205215248FDF737FD08B1FBF759FEC3
:1049E00029AA00214E48FDF712FD08B1FBF751FE40
:1049F0000020149015902190229023904FF4807005
:104A000024900020259026901020279000202890A8
:104A100014AA00214248FDF79BFE08B1FBF739FEBE
:104A20000020279014AA01213D48FDF791FE08B10E
:104A3000FBF72FFE4FF44850119000201290139076
:104A400011AB022200213648FDF7FEFC08B1FBF74E
:104A500020FE4FF4806008900A20099000200A9000
:104A60000B900C900A200D9000200E900F9010904B
:104A700008AA00212A48FDF783FB08B1FBF709FECD
:104A800008AA01212648FDF77BFB08B1FBF701FED0
:104A9000002000904FF480700190400002900020B0
:104AA000039004900590069007906B460122002128
:104AB0001B48FDF7E3FD08B1FBF7EBFD4FF4806009
:104AC0000190400002906B46042201211448FDF73A
:104AD000D5FD08B1FBF7DDFD0020019002906B468B
:104AE000022200210E48FDF7C9FD08B1FBF7D1FDF8
:104AF0006B46082201210A48FDF7C0FD08B1FBF70B
:104B0000C8FD29AA01210648FDF781FC08B1FBF781
:104B1000C0FD0348FDF726FC2FB000BD0074014026
:104B2000A40200200EB500200090019002900F48D2
:104B30000F49086041F61F40486000210C48816021
:104B400040F2E731C16080218161FEF74BFF08B17F
:104B5000FBF79FFD00200090029069460448FEF795
:104B6000F7FE08B1FBF795FD0EBD000000100040F8
:104B7000800300200EB500200090019002900E48A6
:104B80000E4908604720486000210C4881603121AF
:104B9000C16080218161FEF725FF08B1FBF779FD37
:104BA00000200090029069460448FEF7D1FE08B14B
:104BB000FBF76FFD0EBD000000140040CC03002089
:104BC00000BFFEE700BFFEE7704770471CB52048F6
:104BD00090ED000ADFED1F0A20EE200ABCEEC00AAD
:104BE00010EE100A80B2ADF800001B4890ED000AEC
:104BF000DFED180A20EE200ABCEEC00A10EE100A03
:104C000080B2ADF80200154890ED000ADFED110A00
:104C100020EE200ABCEEC00A10EE100A80B2ADF8F9
:104C200004000F4890ED000ADFED0A0A20EE200A8A
:104C3000BCEEC00A10EE100A80B2ADF806000821E2
:104C40006846FBF7C9FC20210648FDF7D1F91CBDD9
:104C5000140000200000C8420C00002018000020B2
:104C6000200000200004004810B5FDF7CBFD10BD6A
:104C700000B597B028210DA8FBF76DFB142108A8FB
:104C8000FBF769FB1C2101A8FBF765FB01200D90D8
:104C900000040E9000200F9001201190022014902B
:104CA000C1031591C10416910DA8FEF721F908B1B1
:104CB000FBF7EFFC0F2008900220099000200A90DB
:104CC0004FF480600B9000200C90022108A8FDF7A3
:104CD00067FF08B1FBF7DDFC4FF4804001908010C6
:104CE000079001A8FDF756FE08B1FBF7D2FC17B0FC
:104CF00000BD00000348006840F4700001490860EE
:104D00007047000088ED00E010B50248FEF723FF71
:104D100010BD00008003002010B50248FEF71BFF05
:104D200010BD0000CC03002010B502681E4B984255
:104D300005D0B0F1804F02D01C4B984203D122F035
:104D400070024B681A43184B98420ED0B0F1804F56
:104D50000BD0164B984208D0154B984205D0154BF6
:104D6000984202D0144B984203D122F44072CB688F
:104D70001A4322F080034C6943EA040202608B6804
:104D8000C3620B688362084B984208D0084B984274
:104D900005D0084B984202D0074B984201D10B69CD
:104DA00003630123436110BD002C01400004004057
:104DB00000400140004401400048014000BFFEE7C0
:104DC00002480068C0F30220704700000CED00E0CC
:104DD00010B5002804DB0A07130E054A135406E039
:104DE0000A07140E034A00F00F031B1FD45410BD12
:104DF00000E400E018ED00E0FDF710FDFFF738FFDC
:104E0000FFF700FDFFF7DCFCFFF74EFDFFF7E2FBCD
:104E1000FFF73CFCFFF786FCFFF784FEFFF7AAFED6
:104E200000BF00214948FBF737FC0028F9D100BF3B
:104E300001214648FBF730FC0028F9D100BF0021D2
:104E40004348FBF729FC0028F9D1062241493F4895
:104E5000FCF710F9062240493D48FCF70BF93F48A2
:104E6000FCF7CBFE02213D48FCF7B8F910213B4886
:104E7000FCF7B4F9FBEE022AB2EE042ADFED381A91
:104E80009FED371ADFED370AB6EE000A01213648EA
:104E900000F029F9FBEE022AB2EE042ADFED301A07
:104EA0009FED2F1ADFED2F0AB6EE000A01212F48E1
:104EB00000F019F9FBEE022AB2EE042ADFED281AFF
:104EC0009FED271ADFED2A0A9FED2A0A01212A48C1
:104ED00000F009F9DFED222A9FED282ADFED201AE4
:104EE0009FED1F1ADFED260A9FED260A01212648B5
:104EF00000F0F9F8B3EE0A0A1B4880ED0A0AB2EE98
:104F0000000A1A4880ED0A0AB1EE040A1A4880ED38
:104F10000A0A9FED1E0A1E4880ED000A4FF48031F8
:104F20001C48FDF78DFB4FF400311A48FDF788FB54
:104F30004FF480211748FDF783FB1748FEF7C8FDA3
:104F40001648FEF7C5FD00BFFEE700005401002033
:104F5000A40100204C000020580000207C0200200A
:104F600000000000CDCC4C3D64000020A0000020DB
:104F70006F12033C0AD7233DDC0000209A99D93FE9
:104F80006F12033A0AD7A33B180100206666663FFA
:104F900000000020A402002080030020CC03002099
:104FA00080ED090AD0ED050AC0ED060AD0ED040A2D
:104FB000C0ED050AD0ED0A0A90ED091A70EEC10A9B
:104FC000C0ED040A0178E9BB90ED041AD0ED051A92
:104FD00031EE611AF0EE410A90ED071AD0ED021A97
:104FE00090ED042A01EE821A80ED071A90ED071A5F
:104FF000D0ED081AB4EEE11AF1EE10FA04DD90EDEE
:10500000081A80ED071A10E090ED071AD0ED081A83
:10501000F1EE611AB4EEE11AF1EE10FA05D290ED5C
:10502000081AB1EE411A80ED071A90ED071AD0ED7B
:10503000011A90ED042A01EE821AD0ED031A01EE56
:10504000A01A00E006E0D0ED0E1A31EE211A80ED34
:105050000B1A2CE00178012929D1D0ED040A90ED3A
:10506000051A70EEC10A90ED011A60EE810A90ED0A
:10507000041AD0ED051AB0EE002A02EE611AD0ED46
:10508000061A31EE211AD0ED031A41EE810A90ED95
:10509000021AD0ED041A41EE210A90ED0E1A70EEBC
:1050A000810A90ED0B1A70EE810AC0ED0B0AD0ED6B
:1050B0000B0A90ED0C1AF4EEC10AF1EE10FA04DDC1
:1050C000D0ED0C0AC0ED0B0A0CE0D0ED0B0A90ED10
:1050D0000D1AF4EEC10AF1EE10FA03D2D0ED0D0A6A
:1050E000C0ED0B0A7047017080ED010AC0ED020AA5
:1050F00080ED031AC0ED081A80ED0C2AC0ED0D2AD0
:10510000704700009FED0A0A80ED070A9FED080A2C
:1051100080ED0B0A002108E09FED050A00F1100266
:1051200002EB810282ED000A491C0329F4DB70477F
:10513000000000004FF04070E1EE100A70470203DB
:105140000405060708090A0B0C0D0E0F10100102CA
:10515000030405060708090A0B0C0D0E0F100000CA
:105160000000000000000102030406070809000017
:105170000000010203040000985100080000002014
:105180004C000000C4010008E45100084C0000205D
:105190002C0A0000E00100080000000000000000F0
:1051A00000000000000000000000000000000000FF
:1051B000000000006666663F000020420000A0403C
:1051C00001000000000000000000000000000000DE
:1051D00000000000000000001000000001000000BE
:0451E00000127A003F
:040000050800018965
:00000001FF
