:020000040800F2
:10000000E0B6002029030008955B0008AD4B00080E
:10001000915B0008311100086D9500080000000098
:10002000000000000000000000000000690200085D
:10003000471B000800000000C5020008658C00088E
:100040004303000843030008430300084303000878
:100050004303000843030008491B0008430300084A
:1000600043030008531B00085D1B000843030008FE
:100070004303000843030008430300084303000848
:100080004303000843030008430300084303000838
:10009000351100084303000843030008671B0008EC
:1000A0004303000843030008430300084303000818
:1000B0004303000843030008430300084303000808
:1000C00043030008430300084303000843030008F8
:1000D0004303000843030008430300083D9400085D
:1000E00043030008430300084303000843030008D8
:1000F00043030008430300084303000843030008C8
:1001000043030008430300084303000843030008B7
:1001100043030008430300084303000843030008A7
:100120004303000843030008E911000843030008E3
:100130004303000843030008430300084303000887
:100140004511000843030008430300084303000867
:100150004303000843030008430300084303000867
:100160004303000843030008430300084303000857
:100170004303000843030008430300080000000095
:10018000430300084303000800F002F800F05CF8A5
:100190000AA090E8000C82448344AAF10107DA45E2
:1001A00001D100F051F8AFF2090EBAE80F0013F0D8
:1001B000010F18BFFB1A43F0010318470C000100A0
:1001C0002C0001000A444FF0000C10F8013B13F022
:1001D000070408BF10F8014B1D1108BF10F8015BA0
:1001E000641E05D010F8016B641E01F8016BF9D193
:1001F00013F0080F1EBF10F8014BAD1C0C1B09D1EA
:100200006D1E58BF01F801CBFAD505E014F8016B5B
:1002100001F8016B6D1EF9D59142D6D370470000ED
:100220000023002400250026103A28BF78C1FBD8FF
:10023000520728BF30C148BF0B6070471FB50FF091
:10024000A1F91FBD10B510BD00F090FA1146FFF7DF
:10025000F5FF0CF063FA00F0AEFA03B4FFF7F2FF1B
:1002600003BC00F011FB00002C4B19680868B0E8D3
:10027000F04F80F30988BFF36F8F4FF0000080F3D9
:10028000118870470000000008480068006880F38B
:1002900008884FF0000080F3148862B661B6BFF39F
:1002A0004F8FBFF36F8F00DF00BF00BF08ED00E08E
:1002B000DFF80C00016841F470010160704700BF75
:1002C00088ED00E0EFF30980BFF36F8F134B1A68DE
:1002D0001EF0100F08BF20ED108A20E9F04F1060CB
:1002E00009B44FF0500080F31188BFF34F8FBFF374
:1002F0006F8F0DF03DFD4FF0000080F3118809BCB9
:1003000019680868B0E8F04F1EF0100F08BFB0EC95
:10031000108A80F30988BFF36F8F70472C0000208C
:10032000EFF30580704700000948804709480047FF
:10033000FEE7FEE7FEE7FEE7FEE7FEE7FEE7FEE795
:10034000FEE7FEE704480549054A064B70470000F2
:10035000458D000889010008E0760020E0B6002005
:10036000E0960020E09600209FED1A1AF5EE000AB4
:1003700040EE010ABDEEE00AF5EEC00A10EE100AEA
:10038000F1EE10FA38BF401E00EE100A1349F7EEE6
:10039000001AB8EEC00A30EEC00ADFED0F0A20EEF8
:1003A000200AFCEEC00A10EE900AC0F3080000EE2E
:1003B000900A01EB8000F8EE600A90ED011A70EEF1
:1003C000600A90ED000A71EEE01A21EE800A00EE5C
:1003D000810A704783F9223E0000004494F9000826
:1003E000DFED190AB5EEC00A60EE200ABDEEE01A94
:1003F00011EE100AF1EE10FA38BF401E00EE100A9E
:100400001349F7EE001AB8EEC00A30EEC00ADFED6D
:100410000F0A60EE200ABCEEE00A10EE100AC0F3EC
:10042000080000EE100A01EB8000B8EE400A90EDE3
:10043000011A70EEC00A90ED000A71EEE01A21EE8A
:10044000800A00EE810A704783F9223E00000044D2
:1004500094F9000853EA020C00F069802DE9F04B92
:100460004FF00006002B1FBFB3FA83F503FA05F423
:1004700024FA05F65E4012BF1643B2FA82F502FA7C
:1004800005F4C5F120051EBF22FA05FC44EA0C0460
:10049000203556EA044C4FEA144418BF641C4FF050
:1004A00000084FF00009904271EB030C39D300298A
:1004B00019BFB1FA81F701FA07F6B0FA80F700FA2E
:1004C00007F6C7F120071EBF20FA07FC46EA0C0614
:1004D0002037B6FBF4FCA7EB0507103F07F01F0B16
:1004E000CBF120060CFA0BFB2CFA06F644BFB34600
:1004F0000026202FA4BF5E464FF0000B5BEA060CDF
:1005000008BF4FF0010B19EB0B09ABFB027C48EB6A
:100510000608C01B06FB02CC0BFB03CC71EB0C01E5
:10052000C1E70B46024641464846BDE8F08B13B58D
:100530004FF000004FF00001AFF30080BDE81C4019
:10054000704710B5431C02E010F8011B71B1810720
:10055000FAD14FF0013202C88C1A8C4314EAC2114E
:10056000F9D0C01A0A0603D0C01E10BDC01A10BDB3
:100570000A0401D0801E10BD0902FCD0401E10BD2F
:10058000032A40F2308010F0030C00F0158011F8BF
:10059000013BBCF1020F624498BF11F801CB00F897
:1005A000013B38BF11F8013BA2F1040298BF00F8EB
:1005B00001CB38BF00F8013B11F0030300F02580A8
:1005C000083AC0F0088051F8043B083A51F804CBCF
:1005D000A0E80810F5E7121D5CBF51F8043B40F895
:1005E000043BAFF30080D20724BF11F8013B11F8A0
:1005F00001CB48BF11F8012B24BF00F8013B00F8E4
:1006000001CB48BF00F8012B704710B5203AC0F06D
:100610000B80B1E81850203AA0E81850B1E8185003
:10062000A0E81850BFF4F5AF5FEA027C24BFB1E840
:100630001850A0E8185044BF18C918C0BDE81040B1
:100640005FEA827C24BF51F8043B40F8043B08BFBA
:100650007047D20728BF31F8023B48BF11F8012B81
:1006600028BF20F8023B48BF00F8012B704702F07A
:10067000FF0343EA032242EA024200F037B84FF098
:10068000000200B5134694469646203922BFA0E8E2
:100690000C50A0E80C50B1F12001BFF4F7AF0907EE
:1006A00028BFA0E80C5048BF0CC05DF804EB8900DF
:1006B00028BF40F8042B08BF704748BF20F8022B22
:1006C00011F0804F18BF00F8012B7047704770473A
:1006D000704710B500F02AF8006810BD10B5044648
:1006E00000F024F8046010BD4FF000020429C0F0AF
:1006F000128010F0030C3FF4C4AFCCF1040CBCF139
:10070000020F18BF00F8012BA8BF20F8022BA1EBA5
:100710000C01FFF7B6BF5FEAC17C24BF00F8012BD4
:1007200000F8012B48BF00F8012B704700487047C4
:100730007C7600201FB584B000200A9C06AB04AA7A
:1007400002A90094AFF3008018B1DDE9020108B0FE
:1007500010BD0348204000F034F800200146F6E7C1
:100760000000207C004870477C7600207546FFF72B
:10077000F9FFAE4605006946534620F0070085465E
:1007800018B020B5FFF7DEFDBDE820404FF00006B1
:100790004FF000074FF000084FF0000B21F0070169
:1007A000AC46ACE8C009ACE8C009ACE8C009ACE8AC
:1007B000C0098D4670470446AFF300802046FFF71E
:1007C0004CFD10B500F00AF8BDE81040AFF3008012
:1007D000002801D000F058B87047000010B502287A
:1007E00003D0410103D50DA112E0002010BD01018D
:1007F00001D50FA10CE0C10001D511A108E08100D5
:1008000001D512A104E0400001D513A100E00021B0
:1008100015A000F03FF8012010BD0000496E766180
:100820006C6964204F7065726174696F6E000000BE
:10083000446976696465204279205A65726F0000C8
:100840004F766572666C6F7700000000556E6465C8
:1008500072666C6F77000000496E65786163742082
:10086000526573756C7400005349474650453A20F1
:1008700041726974686D6574696320657863657039
:1008800074696F6E3A20000001491820ABBEFEE784
:100890002600020070B505460C460A2000E06D1CDB
:1008A00000F011F835B128780028F8D102E0641C76
:1008B00000F009F814B120780028F8D1BDE87040A4
:1008C0000A20AFF3008008B569468DF800000320C8
:1008D000ABBE08BD704710B52DED028BB0EE408A5F
:1008E000B0EE480A08F074FEBDEC028B10BD10B5E6
:1008F0002DED028BB0EE408AF0EE608AF0EE680AD1
:10090000B0EE480A08F0FAFEBDEC028B10BD10B53F
:100910002DED028BB0EE408AB0EE480AFFF724FDC1
:10092000BDEC028B10BDF0EE400AF5EEC00AF1EE10
:1009300010FA02DDB0EE600A7047B1EE600AFBE724
:1009400018B19FED020A80ED000A70470000000018
:1009500018B1B3EE060A80ED000A704770B52DEDB0
:100960000C8B84B006460C4615469FED990AF0EEB6
:10097000408A9FED970AB0EE409A9FED950AF0EEFF
:1009800040BA9FED930AF0EE409A9FED910AB0EEC7
:1009900040AA0EB104B11DB904B0BDEC0C8B70BD02
:1009A0008C48FFF7CDFF8C48FFF7D2FF8A48D0ED87
:1009B000000A9FED8A1A60EE810AB0EE600A00F02C
:1009C0002DF9F0EE408A28EEA80AF0EE408A82481F
:1009D000D0ED000AB0EE001A60EE810A9FED7F1A9A
:1009E00060EE810AB0EE600A00F018F9B0EE409AAD
:1009F00029EE090AB0EE409ADFED790AB7EE000A57
:100A000000EEA80ADFED770A00EEC90ADFED760AEC
:100A100020EE200A754880ED000A6E4890ED000A2D
:100A2000DFED730A80EE201AB7EE000A31EE000AFD
:100A300020EE000A6D48D0ED000A80EE801A6D4865
:100A400080ED001A94ED000AB5EEC00AF1EE10FA3E
:100A50000DD194ED010AB5EEC00AF1EE10FA06D1FF
:100A600094ED020AB5EEC00AF1EE10FA46D09FED01
:100A7000580AB0EE408A0020019002900390D4ED15
:100A8000000A60EEA00A94ED011AD4ED011A41EEBD
:100A9000210A94ED021AD4ED021A41EE210AB0EEB9
:100AA000600A00F0A9F8B0EE408A94ED000A20EE4A
:100AB000080A8DED010A94ED010A20EE080A8DED79
:100AC000020A94ED020A20EE080A8DED030ADDED1C
:100AD000010AF1EE600AB0EE600AFFF7FCFEF0EEEC
:100AE000409A9DED031AF0EE410A9DED021AB0EE18
:100AF000410AFFF7FCFEB0EE40AA07E09FED340A82
:100B0000F0EE409A9FED320AB0EE40AA95ED000A51
:100B1000B5EEC00AF1EE10FA0DD195ED010AB5EE71
:100B2000C00AF1EE10FA06D195ED020AB5EEC00A40
:100B3000F1EE10FA3CD0B0EE690A00F06FF8B0EEBA
:100B4000408AB0EE690AFFF7E2FEB0EE40DAB0EE9E
:100B50004A0A00F063F8F0EE40AAB0EE4A0AFFF746
:100B6000D6FEB0EE40BA28EE2A0AD5ED010A20EEF4
:100B7000200AD5ED000A0DEE200A68EE0B0A95ED6D
:100B8000021A00EE810AB0EE40CA95ED010A20EE8D
:100B90000B0AD5ED020A0AEEE00AF0EE40CAF0EECA
:100BA0006C0AB0EE4C0AFFF7A2FEF0EE40BA03E08A
:100BB0009FED070AF0EE40BAB0EE4A1AF0EE690A6D
:100BC000B0EE6B0A304609F0E1F800BFE4E6000041
:100BD00000000000440200204802002035FA8E3C4C
:100BE000C1BFAD3B9DF8C5362F7C1C414C02002097
:100BF000506CC24A5002002010B52DED028BB0EEB1
:100C0000408AB0EE480A08F0ABFEB7EE001AC1EE1B
:100C1000000AB0EE600ABDEC028B10BD10B52DEDE0
:100C2000028BB0EE408AB0EE480AFFF7D9FBBDEC6C
:100C3000028B10BD2DE9F0412DED028B9AB00546D7
:100C4000B0EE408A0E46174698460020179018903E
:100C500019901490159016904DB146B13FB1B8F16E
:100C6000000F04D0B5EEC08AF1EE10FA05D10020D5
:100C70001AB0BDEC028BBDE8F08196ED000A8DED57
:100C8000170A96ED010A8DED180A96ED020A8DED10
:100C9000190A97ED000A8DED140A97ED010A8DED02
:100CA000150A97ED020A8DED160A17AA14A928460F
:100CB00008F0BEFE402104A8FFF7E1FC00200090F0
:100CC000019002900390002417A904A80CF026FDBF
:100CD00000BF30E004A800EB041090ED000AD5ED51
:100CE000000A20EE200A04A800EB0410D0ED010A4F
:100CF00095ED011A00EE810A04A800EB0410D0ED76
:100D0000020A95ED021A00EE810A04A800EB041015
:100D1000D0ED030A95ED031A00EE810A20EE080AD1
:100D2000F0EE000A80EE201A684600EB840080EDA9
:100D3000001A601CC4B2042CCCDB002410E005EBCC
:100D4000840090ED000A684600EB8400D0ED000AB4
:100D500030EE200A05EB840080ED000A601CC4B26E
:100D6000042CECDB28460CF075FB012080E700002A
:100D700010B501221021024802F03EF810BD00001B
:100D80000000024010B500221021024802F034F8A1
:100D900010BD0000000002407047000010B50122A5
:100DA0001146024802F028F810BD0000000402407D
:100DB00010B500220121024802F01EF810BD00000B
:100DC0000004024010B543781B021BB20478234391
:100DD00000EE103AB8EEC01A1C4BD3ED001A21EE0B
:100DE000211A81ED001AC3781B021BB284782343B9
:100DF00000EE103AB8EEC01A144BD3ED001A21EEF3
:100E0000211A81ED011A43791B021BB20479234395
:100E100000EE103AB8EEC01A0C4BD3ED001A21EEDA
:100E2000211A81ED021A037A1B04C47943EA0423D0
:100E30008479234300EE903AB8EE601ADFED041A8D
:100E400021EE211A82ED001A10BD000018020020C8
:100E500000401C42704710B5044620460BF091FC40
:100E600010BD10B5044620460AF0F6FB10BD000088
:100E70004278120212B203781A4300EE102AF8EEFA
:100E8000C00A144A92ED001A60EE810AC1ED000A10
:100E9000C278120212B283781A4300EE102AF8EEDA
:100EA000C00A0C4A92ED001A60EE810AC1ED010AF7
:100EB0004279120212B203791A4300EE102AF8EEB8
:100EC000C00A044A92ED001A60EE810AC1ED020ADE
:100ED000704700001C02002010B50024FFF75CFFE3
:100EE000FFF7B8FF09F0A2F810B144F0800402E067
:100EF00009F002F8044309F091FA10B144F04004FB
:100F000002E009F011FA0443204610BD2DE9FC412E
:100F100005460E461746002000900190FFF732FF6D
:100F2000922000F0D1F806226946122000F0ACF8B9
:100F3000FFF71EFF9DF80100000200B29DF80010AF
:100F400040EA010400EE104AB8EEC00A4C48D0ED69
:100F5000000A20EE200A86ED000A9DF80300000238
:100F600000B29DF8021040EA010400EE104AB8EE0B
:100F7000C00A4348D0ED000A20EE200A86ED010A9F
:100F80009DF80500000200B29DF8041040EA01043B
:100F900000EE104AB8EEC00A3948D0ED000A20EE43
:100FA000200A86ED020AFFF703FF082269460020A7
:100FB00000F06AF8FFF7F2FE9DF800000F2838D124
:100FC0009DF80300000200B29DF8021040EA0104FF
:100FD00000EE104AB8EEC00A2A48D0ED000A20EE12
:100FE000200A85ED000A9DF80500000200B29DF878
:100FF000041040EA010400EE104AB8EEC00A21488D
:10100000D0ED000A20EE200A85ED010A9DF80700C8
:10101000000200B29DF8061040EA010400EE104AFA
:10102000B8EEC00A1748D0ED000A20EE200A85ED80
:10103000020AFFF7A7FEA22000F046F80222694646
:10104000222000F021F8FFF793FE9DF80000C00079
:101050009DF8011040EA6114B4F5806F02DBA4F53D
:10106000006004B200EE104AF8EEC00AB4EE001AB6
:10107000B3EE070A00EE810A87ED000ABDE8FC81A5
:10108000180200201C02002070B506460C461546CA
:1010900046F0800000F018F806E0552000F014F843
:1010A0002070641C681EC5B2002DF6D170BD70B5ED
:1010B00004460D4644F0800000F006F8552000F08C
:1010C00003F8287070BD000001B582B04FF47A704B
:1010D000012301AA02A90090024803F09BF89DF8A1
:1010E00004000EBDC009002010B502461378DB00D5
:1010F000547843EA6410B0F5806F02DBA0F500631A
:1011000018B200EE100AF8EEC00AB4EE001AB3EE00
:10111000070A00EE810A81ED000A10BD70B5054690
:101120000C462846FFF7D0FF2046FFF7CDFF70BDE5
:1011300000BFFEE710B5024801F07DF810BD0000C9
:101140005402002010B5024801F075F810BD0000EF
:101150007C020020F8B507460C4615461E464FF4A3
:1011600000700D49086000208860C8600820086190
:10117000380A0A4908704F70200A8870CC70280A13
:1011800008714D71300A8871CE716B460A4602496A
:10119000034800F054FEF8BD907000201C010020B0
:1011A0005402002008B54FF4E0600C4908600020AC
:1011B0008860C860082008610020094908704870EC
:1011C0008870C870087148718871C8716B460A468A
:1011D0000249044800F033FE08BD00009070002072
:1011E0001C0100205402002010B5FE48C06C0068AD
:1011F000FD49884276D9FC4854380068F949C96CE1
:101200000968FA4A914201D1202169E0F549C96C87
:101210000968F54A483A914201D1202160E0F1493C
:10122000C96C0968F14A6032914201D1202157E02E
:10123000EC49C96C0968EC4A1832914201D120216D
:101240004EE0E849C96C0968E84A1832914201D178
:10125000C91445E0E349C96C0968E34A303A914250
:1012600001D1C9143CE0DF49C96C0968DF4A783212
:10127000914201D1C91433E0DA49C96C0968DA4AEC
:101280003032914201D1C9142AE0D649C96C0968AB
:10129000D64A3032914202D14FF4001120E0D149B8
:1012A000C96C0968D04A183A914202D14FF4001132
:1012B00016E0CC49C96C0968CC4A9032914202D1FF
:1012C0004FF400110CE0C749C96C0968C64A48329E
:1012D000914203D14FF4001102E003E04FF00061AE
:1012E000084070E1BF48C06C0068C049A83188421E
:1012F00076D9BD4858380068BA49C96C0968BB4AF4
:10130000914201D1202169E0B649C96C0968B64A09
:10131000483A914201D1202160E0B249C96C096884
:10132000B24A6032914201D1202157E0AD49C96CE7
:101330000968AD4A1832914201D120214EE0A949F5
:10134000C96C0968A94A1832914201D1C91445E013
:10135000A449C96C0968A44A303A914201D1C91420
:101360003CE0A049C96C0968A04A7832914201D199
:10137000C91433E09B49C96C09689B4A30329142D9
:1013800001D1C9142AE09749C96C0968974A3032DB
:10139000914202D14FF4001120E09249C96C0968D2
:1013A000914A183A914202D14FF4001116E08D494A
:1013B000C96C09688D4A9032914202D14FF40011F4
:1013C0000CE08849C96C0968874A4832914203D1C8
:1013D0004FF4001102E003E04FF000610840F2E03A
:1013E0008048C06C006881494831884276D97F487E
:1013F000103840687B49C96C09687C4A914201D128
:10140000202169E07749C96C0968774A483A9142D6
:1014100001D1202160E07349C96C0968734A6032C8
:10142000914201D1202157E06E49C96C09686E4A8A
:101430001832914201D120214EE06A49C96C0968F5
:101440006A4A1832914201D1C91445E06549C96C14
:101450000968654A303A914201D1C9143CE06149BA
:10146000C96C0968614A7832914201D1C91433E0EC
:101470005C49C96C09685C4A3032914201D1C91497
:101480002AE05849C96C0968584A3032914202D161
:101490004FF4001120E05349C96C0968524A183AC8
:1014A000914202D14FF4001116E04E49C96C09680F
:1014B0004E4A9032914202D14FF400110CE049495A
:1014C000C96C0968484A4832914203D14FF400116F
:1014D00002E003E04FF00061084074E04348103838
:1014E00000684049C96C0968404A914201D12021F5
:1014F00068E03C49C96C09683B4A483A914201D1CD
:1015000020215FE03749C96C0968384A603291424E
:1015100001D1202156E03349C96C0968324A18329A
:10152000914201D120214DE02E49C96C09682F4A12
:101530001832914201D1C91444E02A49C96C0968A2
:10154000294A303A914201D1C9143BE02549C96C7E
:101550000968264A7832914201D1C91432E0214902
:10156000C96C0968204A3032914201D1C91429E07E
:101570001C49C96C09681D4A3032914202D14FF4AE
:1015800000111FE01749C96C0968174A183A9142BF
:1015900002D14FF4001115E01249C96C0968134AD1
:1015A0009032914202D14FF400110BE00D49C96C09
:1015B00009680D4A4832914202D14FF4001101E00E
:1015C0004FF00061084000286FD00648C06C0068EA
:1015D000054988427BD90348C06C006803498842AA
:1015E00008D105E0C00900205864024010600240A4
:1015F000202068E0FE48C06C0068FE49884201D1A6
:10160000202060E0FA48C06C0068FB49884201D1A4
:10161000202058E0F648C06C0068F64960318842E6
:1016200001D120204FE0F248C06C0068F2494839EF
:10163000884201D1C01446E0ED48C06C0068ED4915
:101640001831884201D1C0143DE0E948C06C0068FF
:10165000E9491831884201D1C01434E0E448C06C33
:101660000068E4497831884201D1C0142BE0E04899
:10167000C06C0068E0493039884202D14FF4001054
:1016800021E0DB48C06C0068DA493031884202D181
:101690004FF4001017E0D648C06C0068D6493031CE
:1016A000884204D14FF400100DE0D4E10FE0D0489F
:1016B000C06C0068CF499031884202D14FF40010CD
:1016C00001E04FF00060CB49091F08606AE1C8489B
:1016D000C06C0068C8494831884274D9C448C06C9D
:1016E0000068C5496039884201D1202066E0C048C1
:1016F000C06C0068BF49884201D120205EE0BC4830
:10170000C06C0068BC49884201D1202056E0B8482E
:10171000C06C0068B7496031884201D120204DE09B
:10172000B348C06C0068B4494839884201D1C0143C
:1017300044E0AF48C06C0068AE491831884201D11E
:10174000C0143BE0AA48C06C0068AB49183188421D
:1017500001D1C01432E0A648C06C0068A5497831B8
:10176000884201D1C01429E0A148C06C0068A24998
:101770003039884202D14FF400101FE09C48C06C01
:1017800000689C493031884202D14FF4001015E0C6
:101790009748C06C006898493031884202D14FF4B4
:1017A00000100BE09248C06C00689249903188426A
:1017B00002D14FF4001001E04FF000608D4908396C
:1017C0000860EFE0FFE78A48C06C00688A49183972
:1017D000884274D98648C06C00688749603988425D
:1017E00001D1202066E08248C06C006881498842AF
:1017F00001D120205EE07E48C06C00687E498842AE
:1018000001D1202056E07A48C06C006879496031E7
:10181000884201D120204DE07548C06C00687649AF
:101820004839884201D1C01444E07148C06C006856
:1018300070491831884201D1C0143BE06C48C06C3B
:1018400000686D491831884201D1C01432E06848FF
:10185000C06C006867497831884201D1C01429E022
:101860006348C06C006864493039884202D14FF443
:1018700000101FE05E48C06C00685E49303188424D
:1018800002D14FF4001015E05948C06C00685A4965
:101890003031884202D14FF400100BE05448C06C44
:1018A000006854499031884202D14FF4001001E0A1
:1018B0004FF0006050497039C86073E0FFE74C4852
:1018C000C06C00684C496039884201D1202066E034
:1018D0004748C06C00684749884201D120205EE03B
:1018E0004348C06C00684449884201D1202056E03A
:1018F0003F48C06C00683F496031884201D12020D8
:101900004DE03B48C06C00683B494839884201D1F2
:10191000C01444E03648C06C00683649183188422B
:1019200001D1C0143BE03248C06C00683249183124
:10193000884201D1C01432E02D48C06C00682D49A6
:101940007831884201D1C01429E02948C06C006870
:1019500029493039884202D14FF400101FE0244851
:10196000C06C006823493031884202D14FF4001026
:1019700015E01F48C06C00681F493031884202D111
:101980004FF400100BE01A48C06C00681949903100
:10199000884202D14FF4001001E04FF00060164978
:1019A000703988601548007800F0020078B113485B
:1019B000007820F00200114908700846007840F0D5
:1019C00004000870012211460D4801F015FA0D4877
:1019D000007800F00200E0B10A48007820F0020030
:1019E000084908700846007840F0040008700BE0D1
:1019F000C0090020106402407060024071010020A4
:101A0000000402407201002001221021124801F05E
:101A1000F3F91248007800F0020078B10F4800781E
:101A200020F002000D4908700846007840F00400DC
:101A3000087001221021084801F0DEF90AF0C0FB0D
:101A40000748007800F0040028B10648006840F01C
:101A500001000449086010BD00000240730100202D
:101A600071010020103C014001460878103818230D
:101A7000B0FBF3F20848805CC865032A05D9086802
:101A80006FF30900001D886503E008686FF3090023
:101A90008865886D70470000ACF80008014600209A
:101AA0008A6A8B69CBB932B1012A0DD0022A03D0E0
:101AB000032A10D10EE000BFCB6A03F08073B3F1AC
:101AC000807F00D1012007E0CB6AB3F1C07F00D155
:101AD000012001E000E000BF34E08B69B3F5005F56
:101AE0001AD132B1012A07D0022A03D0032A11D118
:101AF0000AE000BF01200EE0CB6A03F08073B3F16F
:101B0000807F00D1012006E0CB6AB3F1C07F00D115
:101B1000012000E000BF15E032B1012A05D0022A01
:101B200004D0032A0CD103E000BF00BF012008E06D
:101B3000CB6A03F08073B3F1807F00D1012000E015
:101B400000BF00BF7047704710B5012001F046F894
:101B500010BD10B5082001F041F810BD10B51020DF
:101B600001F03CF810BD10B5202001F037F810BD91
:101B70007047000010B5002201B909E0012901D128
:101B80000A0205E0022901D10A0201E04FF4407285
:101B90000E4B1B6823F440730C4C236023461B68D8
:101BA0001343236023461B6823F0F8032360234676
:101BB0001B68022444EAC0042343044C23602346E8
:101BC0001B6843F48033236010BD0000103C0240CA
:101BD0001C48006800F40070B0B11A48006820F496
:101BE00000701849086000BF0846006840F40060B3
:101BF00008600846006820F40060086000BF0846DE
:101C0000006840F4007008600E48006800F48060CE
:101C1000B0B10C48006820F480600A49086000BF39
:101C20000846006840F4805008600846006820F4C8
:101C30008050086000BF0846006840F4806008607B
:101C400070470000003C02400A4A126822F44072C9
:101C5000084B1A601A46126842F004021A601A46CB
:101C600012684FF4803343EA00231A43014B1A6091
:101C700070470000103C0240074A126822F440728C
:101C8000054B1A601A4612681A601A46126842F02A
:101C900001021A6001707047103C024010B50949FA
:101CA000096821F44071074C21602146096841F41C
:101CB000407121602146096841F001012160026004
:101CC000436010BD103C0240084A126822F4407282
:101CD000064B1A601A46126842F480721A601A465D
:101CE000126842F001021A6001807047103C024005
:101CF000084A126822F44072064B1A601A461268AB
:101D000042F400721A601A46126842F001021A6028
:101D100001607047103C02402348006800F010004A
:101D200040B12248C06940F010002049C86110202D
:101D30001D4908601C48006800F0200040B11B48A5
:101D4000C06940F008001949C861202016490860A0
:101D50001548006800F0400040B11448C06940F0E8
:101D600004001249C86140200F4908600E4800680D
:101D700000F0800040B10D48C06940F002000B49FE
:101D8000C8618020084908600748006800F0020028
:101D900040B10648C06940F020000449C8610220F3
:101DA00001490860704700000C3C0240B80C00205C
:101DB00070B50446002500201449C86101F022F8DE
:101DC000054609E0601C38B124B101F01BF8401B46
:101DD000A04201D9032070BD0D48006800F4803096
:101DE0000028EFD10A48006800F0010010B101207E
:101DF000074908600648006800F0F20018B1FFF7D4
:101E00008BFF0120E7E70020E5E70000B80C002089
:101E10000C3C024010B5024692F82030012B01D054
:101E2000022B06D1106840690843146860610020E5
:101E300010BD506A40F4802050620120F8E7F0B5F0
:101E400004460D461E4694F8207020688368A868F2
:101E500000B900E000BF012F01D0022F7CD103F0B8
:101E6000806030B903F0006018B903F0805000289A
:101E700073D0C3F30161022905D9606A40F4000000
:101E800060620120F0BD012088403060A86860B920
:101E9000B5F800C0E86840EA4C5C206800F5C07006
:101EA00000EB0110C0F800C00FE0D5E901C040EA26
:101EB000CC00D5F80CC040EA0C00D4F800C00CF5FA
:101EC000C07C0CEB011CCCF80000D5F810C02068D9
:101ED00000F5C07000EB0110C0F804C0287D012897
:101EE0000ED1206800F5C07000EB0110406840F48E
:101EF000807C206800F5C07000EB0110C0F804C0C1
:101F0000D079000692F806C040EA0C4092F805C06D
:101F100040EA0C2C10794CEA000C206800F5C070E7
:101F200000EB0110C0F80CC0D078000692F802C097
:101F300040EA0C4092F801C040EA0C2092F800C040
:101F400040EA0C00D4F800C00CF5C07C0CEB011C7E
:101F5000CCF80800206801E016E00FE000F5C07042
:101F600000EB0110006840F0010C206800F5C07023
:101F700000EB0110C0F800C0002083E7606A40F465
:101F80000010606201207DE7606A40F4802060629A
:101F9000012077E7F0B504460A46216894F82050FE
:101FA000012D01D0022D7ED1424901F50071086852
:101FB00040F001000860086820F47C500860086860
:101FC000566A40EA06200860107D00F01F060120D6
:101FD00000FA06F3C8699843C861A1F50071D06999
:101FE000C8B9D1F80C029843C1F80C02908880B2AD
:101FF000968940EA064601F51070576940F8376047
:10200000108880B2168940EA064601F510705769BB
:1020100000EBC7004660D069012819D1D1F80C0245
:102020001843C1F80C02908880B2168840EA064630
:1020300001F51070576940F83760908980B21689B1
:1020400040EA064601F51070576900EBC70046608C
:10205000906928B9D1F804029843C1F8040204E059
:10206000D1F804021843C1F80402106928B9D1F864
:1020700014029843C1F8140204E0D1F81402184382
:10208000C1F81402106A012804D1D1F81C021843C7
:10209000C1F81C02D1F8000220F00100C1F80002D2
:1020A0000020F0BDFFE7606A40F4802060620120FC
:1020B000F7E7000000640040704770B5044694F8EC
:1020C0002050012D01D0022D7CD151B92068C0686B
:1020D00000F0030080B9606A40F4001060620120E3
:1020E00070BD2068006900F0030028B9606A40F400
:1020F000001060620120F3E7206800F5D87000EB63
:102100000110006800F004009060906840B92068F9
:1021100000F5D87000EB01100068400D106007E07A
:10212000206800F5D87000EB01100068C00850600E
:10213000206800F5D87000EB0110006800F0020084
:102140004008D060206800F5D87000EB01104068AE
:1021500000F00F001061206800F5D87000EB01104E
:10216000406800F47F40000A9061206800F5D87054
:1021700000EB01104068000C5061206800F5D87039
:1021800000EB011080681870206800F5D87000EB33
:102190000110806800F47F40000A5870206800F544
:1021A000D87000EB0110806800F47F00000C98707C
:1021B000206800F5D87000EB01108068000ED87020
:1021C000206800E031E000F5D87000EB0110C06835
:1021D0001871206800F5D87000EB0110C06800F499
:1021E0007F40000A5871206800F5D87000EB01109C
:1021F000C06800F47F00000C9871206800F5D8706A
:1022000000EB0110C068000ED87131B92068C068B9
:1022100040F020002668F06005E02068006940F08A
:1022200020002668306100205AE7606A40F4802070
:102230006062012054E72DE9F05F04460025206824
:1022400046692068D0F80490206887682068D0F834
:102250000CA02068D0F810B02068D0F8188006F0E4
:102260000100002855D007F00100C0B1012021680D
:10227000886007F0020018B1204600F010FB0EE065
:1022800007F0040010B145F4006508E007F008000D
:1022900010B145F4805502E0204600F0FFFA07F443
:1022A0008070C8B14FF480702168886007F40070B6
:1022B00018B1204600F0F5FA0EE007F4806010B186
:1022C00045F4005508E007F4006010B145F480457E
:1022D00002E0204600F0E4FA07F48030C8B14FF481
:1022E00080302168886007F4003018B1204600F083
:1022F000DAFA0EE007F4802010B145F4004508E05A
:1023000007F4002010B145F4803502E0204600F0CB
:10231000C9FA06F0080038B10AF0100020B145F4FF
:10232000007510202168C86006F0040040B10AF072
:10233000080028B108202168C860204600F00CFA87
:1023400006F0020038B12068C06800F0030010B148
:10235000204600F003FA06F0400038B10BF0100000
:1023600020B145F4806510202168086106F0200046
:1023700040B10BF0080028B1082021680861204610
:1023800000F05AFA06F0100038B12068006900F039
:10239000030010B1204600F050FA06F4003040B1BE
:1023A00009F0100028B1102021684860204600F094
:1023B00045FA06F4803040B109F0080028B1082041
:1023C00021684860204600F06FFA06F4004088B3A8
:1023D00009F0040078B306F4807020B108F0010021
:1023E00008B145F0010506F4007020B108F00200C4
:1023F00008B145F0020506F4806020B108F0040041
:1024000008B145F0040506F40060A0B108F07000C2
:1024100088B108F07000402817D006DC10280BD0D7
:1024200020280CD0302819D10CE0502810D060287A
:1024300014D110E01DE019E045F008050FE045F06B
:1024400010050CE045F0200509E045F0400506E0E8
:1024500045F0800503E045F4807500E000BF00BF53
:102460002068806920F0700021688861042021685C
:1024700048602DB1606A284360622046FFF71CFE69
:10248000BDE8F09F70B504460CB9012070BD94F80A
:10249000200010B9204600F0AFF82068006820F056
:1024A00002002168086000F0ADFC05460DE000F078
:1024B000A9FC401B0A2808D9606A40F40030606219
:1024C000052084F820000120E0E72068406800F043
:1024D00002000028EBD12068006840F0010021686C
:1024E000086000F08FFC05460DE000F08BFC401BFF
:1024F0000A2808D9606A40F400306062052084F838
:1025000020000120C2E72068406800F00100002898
:10251000EBD0207E012806D12068006840F08000C2
:102520002168086005E02068006820F080002168CC
:102530000860607E012806D12068006840F04000F5
:102540002168086005E02068006820F040002168EC
:102550000860A07E012806D12068006840F02000B5
:102560002168086005E02068006820F020002168EC
:102570000860E07E012806D12068006820F0100085
:102580002168086005E02068006840F010002168BC
:102590000860207F012806D12068006840F008000C
:1025A0002168086005E02068006820F008002168C4
:1025B0000860607F012806D12068006840F00400B0
:1025C0002168086005E02068006820F004002168A8
:1025D0000860D4E90201084321690843616908439E
:1025E0006168491E08432168C861002060620120BB
:1025F00084F82000002049E710B586B00446142175
:1026000001A8FEF73CF84E492068884241D14D4868
:102610000068401C4B4908600846006801280FD13B
:1026200000BF002000904848006840F00070464914
:1026300008600846006800F00070009000BF00BF0E
:1026400000BF0020009040481038006840F00800AB
:102650003D49103908600846006800F00800009005
:1026600000BF00BF032001900220029000200390D1
:10267000032004900920059001A9344800F0BCFA19
:1026800000220621142000F0B9FF142000F0A6FF5C
:1026900054E02F492068884250D100BF00200090AC
:1026A0002948006840F080602749086008460068B3
:1026B00000F08060009000BF00BF22480068401C0E
:1026C000204908600846006801280FD100BF00209B
:1026D00000901D48006840F000701B4908600846E3
:1026E000006800F00070009000BF00BF00BF002035
:1026F000009015481038006840F002001249103967
:1027000008600846006800F00200009000BF00BFAB
:10271000602001900220029000200390032004908A
:102720000920059001A90B4800F066FA0022062155
:10273000402000F063FF402000F050FF06B010BDC5
:10274000006400400000002040380240000C0240BD
:1027500000680040000402407047000010B58AB0D5
:10276000044601AB03AA00212046FFF7A6FC03980C
:10277000A0F20120072857D2DFE800F00405060781
:1027800008090A0000BF00BF00BF00BF00BF00BFB4
:102790000398401E264908700846007800EB800028
:1027A000244931F8100000B22149097801EB810178
:1027B000204A02EB410108819DF805009DF80410B4
:1027C00040EA01201A49097801EB810122F8110041
:1027D0009DF807009DF8061040EA012000B2144958
:1027E000097801EB810102EB410148809DF8090065
:1027F0009DF8081040EA012000B20D49097801EB6C
:10280000810102EB410188809DF80A00084909789E
:1028100001EB810102EB4101887105490978491CEE
:10282000C8B208F041FF00E000BF00BF0AB010BD11
:10283000240100203070002070477047704770B549
:10284000044694F82000012822D1022084F82000B8
:102850002068006820F001002168086000F0D2FACA
:1028600005460DE000F0CEFA401B0A2808D9606A40
:1028700040F400306062052084F82000012070BD23
:102880002068406800F001000028EBD16062F6E7A4
:10289000606A40F4002060620120F0E770477047F2
:1028A0007047704770477047704700002DE9F0414E
:1028B0000446002500F0A6FA074614B90120BDE839
:1028C000F081606A00B100BF00BF002084F83400CE
:1028D00000BF022084F835002068006820F0010065
:1028E000216808600AE000F08DFAC01B052805D9B0
:1028F00020206065032084F83500E0E72068006848
:1029000000F001000028EED120680568214805404C
:10291000D4E901010843E16808432169084361697A
:102920000843A1690843E1690843216A0843054354
:10293000606A042803D1D4E90B01084305432068E9
:1029400005602068456925F00705606A0543606AEF
:1029500004280DD1A06A0543E06A48B12046FFF77C
:102960009DF828B140206065012084F83500A6E775
:10297000206845612046FFF777F8064694F85C101A
:102980003F208840B06000206065012084F8350059
:10299000002094E73F8010F02DE9F04104460E46F8
:1029A0000127002500BF2548007E012802D1022012
:1029B000BDE8F08101202149087600BF4CF250307B
:1029C000FFF7F6F90746002F31D1401E306020682E
:1029D00001280FD1207C6168FFF736F94CF25030A6
:1029E000FFF7E6F907461648006820F0040014498E
:1029F00008601AE0A56812E0217C2846FFF7BAF8C3
:102A00004CF25030FFF7D4F907460D48006820F02B
:102A1000FA000B4908600FB1356005E06D1CD4E980
:102A200002100844A842E7D800BFFFF7D1F800BF62
:102A300000200249087600BF3846B9E7B80C0020EC
:102A4000103C02400348006840F000400149086023
:102A500000207047103C02402DE9F04106460F4629
:102A600014461D464FF0010800BF1F48007E012894
:102A700002D10220BDE8F08101201B49087600BF89
:102A80004CF25030FFF794F98046B8F1000F23D193
:102A900026B9E1B23846FFF7EFF812E0012E04D173
:102AA000A1B23846FFF710F90BE0022E04D12146FF
:102AB0003846FFF71DF904E022462B463846FFF75B
:102AC000EDF84CF25030FFF773F980460748006884
:102AD00020F001000549086000BF00200249087687
:102AE00000BF4046C6E70000B80C0020103C024082
:102AF00000200949096801F0004159B10749064A17
:102B00000C3A1160064911600349096801F000415F
:102B100001B1012070470000103C024023016745CD
:102B2000AB89EFCD10B50446102C14D1092008F064
:102B3000BBFD2248007840F0010020490870204881
:102B4000007840F001001E4908701E480078A0B3CC
:102B500009F036FB31E0202C0ED1082008F0A4FD4E
:102B60001948007840F001001749087015480078AE
:102B700018B309F025FB20E0082C09D10A2008F041
:102B800093FD1248007840F001001049087014E0ED
:102B9000012C12D10BF0F4FD01280ED00C490D4888
:102BA00000680AF0CDFF0A48006830B120070A49E2
:102BB0000860BFF34F8FBFF36F8F10BD720100200D
:102BC00073010020750100207101002074010020B4
:102BD000E80100204C01002004ED00E010B504469F
:102BE00004480068204020B1024804602046FFF7F6
:102BF00099FF10BD143C0140F8B502460B46002574
:102C0000002400200021DCE0012606FA01F51E6800
:102C100006EA0504AC4273D15E68022E02D05E68FB
:102C2000122E13D1CF0802F1200656F827004E07C6
:102C3000F70E0F26BE40B0434F07FF0E1E69BE4081
:102C40003043CF0802F1200646F8270010684F00F5
:102C50000326BE40B0431E7906F003064F00BE4077
:102C6000304310605E68012E08D05E68022E05D0E9
:102C70005E68112E02D05E68122E13D190684F004C
:102C80000326BE40B0434F00DE68BE403043906034
:102C9000506801268E40B0431E79C6F300168E4060
:102CA00030435060D0684F000326BE40B0434F0011
:102CB0009E68BE403043D0605E6806F08056B6F134
:102CC000805F7DD100BF00260096404E366846F4F6
:102CD00080463E4F3E603E46366806F4804600968B
:102CE00000BF00BF3A4E8F0856F827008E07370FF7
:102CF0000F26BE40B043374EB24202D1002624E038
:102D00005EE0354EB24201D101261EE0334EB242A2
:102D100001D1022619E0324EB24201D1032614E05D
:102D2000304EB24201D104260FE02F4EB24201D103
:102D300005260AE02D4EB24201D1062605E02C4EB2
:102D4000B24201D1072600E008268F073F0FBE40A0
:102D500030431F4E8F0846F82700264E3068A043A8
:102D60005E6806F48036B6F5803F00D12043214EE0
:102D70003060361D3068A0435E6806F40036B6F554
:102D8000003F00D120431B4E361D3060361D306899
:102D9000A0435E6806F48016B6F5801F00D120437C
:102DA000144E08363060361D3068A0435E6806F465
:102DB0000016B6F5001F00D120430E4E0C363060D1
:102DC000491C1029FFF420AFF8BD00004438024030
:102DD00008380140000002400004024000080240A0
:102DE000000C024000100240001402400018024093
:102DF000001C0240003C01400AB1816101E00B046B
:102E00008361704701480068704700001C00002083
:102E100070B504460CB9012070BD94F83D0028B986
:102E2000002084F83C00204600F0FAFA242084F8C0
:102E30003D002068006820F001002168086000F073
:102E4000C5FD05465C496068884206D85B488542F6
:102E500001D2012007E0002005E05948854201D257
:102E6000012000E00020012800D1D5E75548B5FB3E
:102E7000F0F62068406820F03F0030432168486049
:102E80004D496068884201D8701C07E04FF4967085
:102E900070434FF47A71B0FBF1F0401C2168096A6D
:102EA00021F03F0108432168086243496068884275
:102EB00014D8681E61684900B0FBF1F0401CC0F3F3
:102EC0000B00042801D204203DE0681E616849001F
:102ED000B0FBF1F0401CC0F30B0034E0A06838B93F
:102EE000681E616801EB4101B0FBF1F0401C0AE093
:102EF000681E616801EBC10202EB0111B0FBF1F049
:102F0000401C40F48040C0F30B0008B901201AE0D7
:102F1000A06848B9681E616801EB4101B0FBF1F09F
:102F2000401CC0F30B000CE0681E616801EBC1029D
:102F300002EB0111B0FBF1F0401CC0F30B0040F4B8
:102F4000804040F400402168C9694CF6FF7291430B
:102F500008432168C861D4E907010843216809686A
:102F600021F0C001084321680860D4E90310084338
:102F70002168896848F2FF329143084321688860DC
:102F8000D4E9050108432168C96821F0FF0108431D
:102F90002168C8602068006840F00100216808606E
:102FA00000202064202084F83D000020206384F865
:102FB0003E0000BF30E70000A086010080841E00B4
:102FC00000093D0040420F002DE9FC5F04460F461A
:102FD00090469946DDE90CAB0E9EFFF713FF0546C0
:102FE00094F83D00202870D119230122B0492046D1
:102FF000009501F02DFF10B10220BDE8FC9F00BF3D
:1030000094F83C00012801D10220F6E7012084F861
:103010003C0000BF2068006800F0010028B920686B
:10302000006840F00100216808602068006820F412
:10303000006021680860222084F83D00402084F868
:103040003E0000202064C4F824A0A4F82AB0608DBB
:1030500020859848E0624B46424639462046CDE9F5
:10306000006501F0C5FD08B10120C6E7208D88B9D3
:1030700000BF0020019020684069019020688069AD
:10308000019000BF00BF2068006840F40070216814
:10309000086040E0208D012818D12068006820F4E5
:1030A00080602168086000BF0020019020684069AE
:1030B000019020688069019000BF00BF206800680F
:1030C00040F400702168086025E0EFE0208D0228C0
:1030D00016D12068006820F48060216808602068AC
:1030E000006840F400602168086000BF0020019083
:1030F00020684069019020688069019000BF0AE063
:1031000000BF00200190206840690190206880691C
:10311000019000BF00BFBAE0208D03287ED8208D2B
:10312000012815D12A463146204601F036FF08B164
:10313000012062E720680069616A0870606A401CCB
:103140006062208D401E2085608D401E60859EE05F
:10315000208D02282AD13346002257492046009567
:1031600001F076FE08B1012047E72068006840F4CE
:1031700000702168086020680069616A0870606AF0
:10318000401C6062208D401E2085608D401E608541
:1031900020680069616A0870606A401C6062208D66
:1031A000401E2085608D401E608570E03346002201
:1031B00041492046009501F04BFE08B101201CE773
:1031C0002068006820F48060216808602068006939
:1031D000616A0870606A401C6062208D401E208514
:1031E000608D401E6085334600223349204600959D
:1031F00001F02EFE08B10120FFE62068006840F4CF
:1032000000702168086020680069616A0870606A5F
:10321000401C6062208D401E208500E010E0608D23
:10322000401E608520680069616A0870606A401C01
:103230006062208D401E2085608D401E608526E0E6
:103240002A463146204601F0A8FE08B10120D4E606
:1032500020680069616A0870606A401C6062208DA5
:10326000401E2085608D401E608520684069C0F347
:10327000800060B120680069616A0870606A401C63
:103280006062208D401E2085608D401E6085208DEF
:1032900000287FF441AF202084F83D00002084F80E
:1032A0003E0000BF84F83C0000BFA6E60220A4E672
:1032B000020010000000FFFF040001002DE9FC5F88
:1032C00004460F4690469946DDE90CAB0E9EFFF78B
:1032D00099FD054694F83D0020287DD1192301224F
:1032E0004D492046009501F0B3FD10B10220BDE824
:1032F000FC9F00BF94F83C00012801D10220F6E7B2
:10330000012084F83C0000BF2068006800F0010044
:1033100028B92068006840F0010021680860206832
:10332000006820F4006021680860212084F83D00D6
:10333000402084F83E0000202064C4F824A0A4F8B3
:103340002AB0608D20853548E0624B4642463946BA
:103350002046CDE9006501F0E7FC08B10120C6E791
:1033600031E02A463146204601F057FE50B1206C2C
:10337000042805D12068006840F4007021680860C6
:103380000120B4E7606A007821680861606A401C27
:103390006062208D401E2085608D401E6085206803
:1033A0004069C0F3800070B1208D60B1606A007820
:1033B00021680861606A401C6062208D401E208583
:1033C000608D401E6085208D0028CAD12A46314676
:1033D000204601F00FFD00E01CE050B1206C0428F5
:1033E00005D12068006840F4007021680860012061
:1033F0007DE72068006840F40070216808602020A4
:1034000084F83D00002084F83E0000BF84F83C00B2
:1034100000BF6CE702206AE7020010000000FFFF17
:1034200010B586B00446142101A8FDF728F92A49F1
:10343000206888424DD100BF0020009027480068D6
:1034400040F00400254908600846006800F00400C8
:10345000009000BF00BF00BF002000900846006839
:1034600040F0010008600846006800F0010000908C
:1034700000BF00BF48150190122002900120039068
:10348000032004900420059001A91548FFF7B4FB20
:103490004FF48070019012200290012003900320CD
:1034A00004900420059001A90E48FFF7A5FB00BF7A
:1034B0000020009009481030006840F400000749DF
:1034C000103108600846006800F40000009000BF5A
:1034D00000BF06B010BD0000005C00403038024064
:1034E00000080240000002400348006803490978D0
:1034F00008440149086070471C0000202400002097
:1035000010B50D48006840F400700B49086008468B
:10351000006840F4806008600846006840F48070ED
:103520000860032000F0A8F80F2000F007F800F072
:103530002BF8002010BD0000003C024070B504468E
:103540000E4800784FF47A71B1FBF0F00C4909682D
:10355000B1FBF0F5284600F072FF08B1012070BD04
:10356000102C07D200222146501E00F047F80548D3
:10357000046001E00120F2E70020F0E724000020D1
:10358000280000202000002008B500BF0020009087
:103590001148006840F480400F4908600846006800
:1035A00000F48040009000BF00BF00BF00200090EA
:1035B000081F006840F08050091F08600846006836
:1035C00000F08050009000BF00BF00220F21901E2D
:1035D00000F014F808BD00004438024001460846D7
:1035E000002809DB00F01F0301229A4043099B00D9
:1035F00003F1E023C3F8002100BF70472DE9F05F1D
:1036000080460D461646002705F0C6FF0746394698
:103610002A46334601F00700C0F1070ABAF1040F49
:1036200002D94FF0040A01E0C0F1070AD14600F1C7
:10363000040ABAF1070F02D24FF0000A01E0A0F12C
:10364000030AD4464FF0010A0AFA09FAAAF1010A5C
:103650000AEA020A0AFA0CFA4FF0010B0BFA0CFB09
:10366000ABF1010B0BEA030B4AEA0B04214640467F
:1036700005F09AFFBDE8F09F00BF00F00702064B7F
:1036800019684FF6FF031940044B0B4343EA02212C
:10369000014B196000BF70470CED00E00000FA0517
:1036A000F8B5044600250026207800F0010020B976
:1036B000207800F0040004282FD100205B498866A0
:1036C000FFF7A0FB054606E0FFF79CFB401B022826
:1036D00001D90320F8BD56480068C0F3C060002837
:1036E000F2D160688101207A41EA0070504984314A
:1036F000086001204D498866FFF784FB054606E017
:10370000FFF780FB401B022801D90320E2E748486D
:103710000068C0F3C0600028F2D0207800F00200FA
:1037200002287DD100BF0020009041484030006851
:1037300040F080503E49403108600846006800F083
:103740008050009000BF00BF3A48006840F480708D
:1037500038490860FFF756FB054606E0FFF752FBC5
:10376000401B022801D90320B4E73248006800F466
:1037700080700028F2D02E487030006800F4407647
:103780004EB3A08900F44070B04224D02848703075
:10379000006820F440760120274908600020086076
:1037A000234870300660006800F0010098B1FFF710
:1037B00029FB054608E0FFF725FB401B41F2883155
:1037C000884201D9032085E7194870300068C0F3AA
:1037D00040000028EFD000BFA08900F44070B0F591
:1037E000407F0CD112480830006820F4F810134ACA
:1037F000E168114008430E490831086007E00C48B1
:103800000830006820F4F8100949083108600848B9
:1038100070300068A189C1F30B010843044900E03E
:1038200002E07031086000BF002053E7000047420B
:103830000038024000700040400E4742FFFCFF0F7E
:1038400070B504460D460CB9012070BD584800689B
:1038500000F00F00A84209D255490D7008460068D3
:1038600000F00F00A84201D00120EEE7207800F020
:10387000020002281DD1207800F00400042805D1A0
:103880004C48006840F4E0504A490860207800F055
:103890000800082805D14748006840F460404549C1
:1038A00008604448006820F0F000A16808434149DE
:1038B0000860207800F00100A8B36068012807D1F3
:1038C0003C4808380068C0F34040B8B90120BCE764
:1038D0006068022802D06068032807D1354808389C
:1038E0000068C0F3406048B90120AEE731480838AD
:1038F0000068C0F3400008B90120A6E72D48006821
:1039000020F00300616808432A490860FFF77AFA4B
:10391000064609E0FFF776FA801B41F288318842BB
:1039200002D9032091E707E02248006800F00C006C
:103930006168B0EB810FEDD11D48006800F00F0009
:10394000A84209D91A490D700846006800F00F0016
:10395000A84201D0012078E7207800F00400042874
:1039600007D11448006820F4E050E1680843114989
:103970000860207800F00800082808D10D48006889
:1039800020F46040216940EAC1000A49086000F063
:103990003DF808490968C1F30311074A515CC84062
:1039A000064908600F20FFF7C9FD00204DE7000021
:1039B000003C024008380240B4F80008280000200B
:1039C00001480068704700002800002000B5FFF79C
:1039D000F7FF04490968C1F38221034A515CC840DA
:1039E00000BD000008380240C4F8000800B5FFF729
:1039F000E7FF04490968C1F34231034A515CC840FA
:103A000000BD000008380240C4F800082DE9F04766
:103A1000002400250026A1462548006800F00C007F
:103A200020B1042805D008283AD105E0DFF88490B9
:103A300039E0DFF8849036E01D48001F006800F090
:103A40003F041B48001F006800F4800078B11A484A
:103A50001749091F0968C1F38811A0FB01700146CD
:103A6000224600233846FCF7F5FC05460EE01148D7
:103A70000F49091F0968C1F38811A0FB01700146B5
:103A8000224600233846FCF7E5FC05460848001F9F
:103A90000068C0F30140401C4600B5FBF6F902E0A7
:103AA000DFF8109000BF00BF4846BDE8F087000077
:103AB000083802400024F400001BB700F8B50446A3
:103AC0000CB90120F8BD207800F00100002874D066
:103AD000F948006800F00C0004280DD0F648006892
:103AE00000F00C00082813D1F348001F006800F410
:103AF0008000B0F5800F0BD1EF4808380068C0F3A4
:103B00004040002859D06068002856D10120D9E7EC
:103B100000BF6068B0F5803F08D1E748083800680A
:103B200040F48030E449083908601EE06068B0F570
:103B3000A02F0DD1E0480838006840F48020DE490D
:103B4000083908600846006840F4803008600CE0DE
:103B5000D9480838006820F48030D749083908600F
:103B60000846006820F48020086000BF606890B1BB
:103B7000FFF748F9054606E0FFF744F9401B6428C3
:103B800001D903209EE7CC4808380068C0F34040C4
:103B90000028F1D011E0FFF735F9054606E0FFF700
:103BA00031F9401B642801D903208BE7C24808384B
:103BB0000068C0F340400028F1D1207800F00200F6
:103BC00002285FD1BC48006800F00C0058B1BA4828
:103BD000006800F00C0008281CD1B748001F0068DE
:103BE00000F48000B0B9B44808380068C0F3400061
:103BF00020B1E068012801D0012063E7AE48083811
:103C0000006820F0F800216940EAC100AA4908399B
:103C1000086037E0E06800B30120A8490860FFF7BA
:103C2000F1F8054606E0FFF7EDF8401B022801D940
:103C3000032047E7A04808380068C0F34000002888
:103C4000F1D09D480838006820F0F800216940EA6A
:103C5000C10099490839086014E0002097490860BC
:103C6000FFF7D0F8054606E0FFF7CCF8401B022826
:103C700001D9032026E7904808380068C0F34000C7
:103C80000028F1D1207800F0080008282CD16069C4
:103C9000A8B101208A490860FFF7B4F8054606E09C
:103CA000FFF7B0F8401B022801D903200AE7824839
:103CB0006C300068C0F340000028F1D014E0002010
:103CC0007F490860FFF79EF8054606E0FFF79AF87F
:103CD000401B022801D90320F4E677486C300068C5
:103CE000C0F340000028F1D1207800F0040004283F
:103CF00070D1002670483830006800F0805090B9CC
:103D000000BF002000906C483830006840F08050C0
:103D10006949383108600846006800F0805000901A
:103D200000BF00BF01266748006800F48070B0B98A
:103D30006448006840F4807062490860FFF762F8E8
:103D4000054606E0FFF75EF8401B022801D9032074
:103D5000B8E65C48006800F480700028F2D000BF2C
:103D6000A068012808D154486830006840F001007C
:103D70005149683108601DE0A06805280DD14E4802
:103D80006830006840F004004B496831086008461C
:103D9000006840F0010008600CE0474868300068A7
:103DA00020F001004449683108600846006820F0AE
:103DB0000400086000BFA068A8B1FFF723F805461B
:103DC00009E0FFF71FF8401B41F28831884202D911
:103DD000032077E626E0384868300068C0F34000EA
:103DE0000028EED013E0FFF70DF8054608E0FFF7D6
:103DF00009F8401B41F28831884201D9032061E66D
:103E00002D4868300068C0F340000028EFD1012E33
:103E100007D129483830006820F0805026493831D1
:103E2000086000BFA069B8B32348006800F00C0028
:103E300008285ED0A069022846D100201F490866E4
:103E4000FEF7E0FF054606E0FEF7DCFF401B022818
:103E500001D9032036E6184808380068C0F34060EE
:103E60000028F1D1D4E907010843616A40EA8111D1
:103E70000122A06AC2EB500041EA00412C20005D03
:103E800041EA00600C49091F086001200B490866DF
:103E9000FEF7B8FF054607E02DE0FEF7B3FF401B35
:103EA000022801D903200DE6034808380068C0F352
:103EB00040600028F1D01EE0083802400000474270
:103EC000800E47420070004000200C490866FEF753
:103ED00099FF054606E0FEF795FF401B022801D931
:103EE0000320EFE506480068C0F340600028F2D1E7
:103EF00001E00120E6E50020E4E500000000474283
:103F00000038024010B504460CB9012010BD607F96
:103F100020B900202077204600F060F8022060776A
:103F200000BFCA202168486253202168486200BF50
:103F3000204602F08FF940B100BFFF20216848629F
:103F400000BF042060770120E0E7206880682249F4
:103F500008402168886021696068084361690843F6
:103F6000216889680843216888602168E0680861E1
:103F700020680169208941EA0040216808612068C1
:103F8000C06820F080002168C8602068806800F068
:103F9000200060B9204600F02DF840B100BFFF209E
:103FA0002168486200BF042060770120AEE72068E6
:103FB000006C20F48020216808642068006CA169EE
:103FC00008432168086400BFFF202168486200BFE1
:103FD00001206077002099E7BFFF8FFF034A016847
:103FE000914202D10121024A11607047002800402D
:103FF0003C0E474270B5044600252068C06820F09A
:10400000A0002168C860FEF7FDFE054607E0FEF748
:10401000F9FE401BB0F57A7F01D9032070BD2068FE
:10402000C06800F020000028F1D00020F6E710B5AD
:1040300004460CB9012010BD606A00B900BF002120
:10404000A16294F8510028B9002084F8500020465D
:1040500000F034F8022084F851002068006820F055
:10406000400021680860D4E901010843E168084381
:104070002169084361690843218B01F400710843F9
:10408000E1690843216A0843A16A0843216808607E
:104090000421A06901EA1040616A08432168486070
:1040A0002068C06920F400602168C8610020606554
:1040B000012084F851000020BDE7000010B586B053
:1040C0000446142101A8FCF7DAFA4B49206888421B
:1040D0007ED100BF002000904848006840F4805026
:1040E000464908600846006800F48050009000BF10
:1040F00000BF00BF0020009040481438006840F026
:1041000002003E49143908600846006800F00200C9
:10411000009000BF00BF00BF00200090084600686C
:1041200040F0010008600846006800F001000090BF
:1041300000BF00BF182001900220029001200390D0
:10414000032004900520059001A92D48FEF754FD99
:10415000802001900220029001200390032004900F
:104160000520059001A92748FEF746FD2648274966
:1041700008604FF0C0604860002124488160C16041
:104180004FF480610161002141618161C1614FF49F
:104190004031016200214162FEF788FB08B1FDF762
:1041A000E7FC00BF1948E064846300BF164818307C
:1041B000174908604FF0C060486040211448816092
:1041C0000021C1604FF4806101610021416100E084
:1041D00010E08161C1614FF4003101620021416250
:1041E000FEF764FB08B1FDF7C3FC00BF0848A064FC
:1041F000846300BF06B010BD003001404438024067
:10420000000402400000024040640240180A0020FE
:10421000780A00202DE9FF5F0446884691461D4636
:104220000E9E012002900020019000BF94F85000E3
:10423000012803D1022004B0BDE8F09F012084F8DA
:10424000500000BFFEF7DEFD074694F851B06068ED
:104250000390AA46BBF1010F0BD00398B0F5827F03
:1042600004D1A06810B9BBF1040F02D00220019064
:10427000DBE0B8F1000F03D0B9F1000F00D015B9A1
:1042800001200190D1E094F85100042802D00520CB
:1042900084F8510000206065C4F83890E587A58750
:1042A000C4F83080E586A5862064606420680068D4
:1042B00000F04000402805D02068006840F0400031
:1042C00021680860E068B0F5006F4AD1606810B1FD
:1042D000BAF1010F09D1206B00882168C860206BFA
:1042E000801C2063E08E401EE08633E020688068FA
:1042F00000F00200022810D1E08E70B1029801286F
:104300000BD1206B00882168C860206B801C206363
:10431000E08E401EE086002002902068806800F059
:10432000010068B1E08F58B12068C068A16B0880B7
:10433000A06B801CA063E08F401EE08701200290EC
:10434000FEF760FDC01BB04204D3701C10B1032007
:1043500001906AE0E08E0028C8D1E08F0028C5D126
:104360004AE0606810B1BAF1010F09D1206B007802
:1043700021680873206B401C2063E08E401EE0869D
:1043800034E02068806800F00200022810D1E08E3E
:1043900070B1029801280BD1206B00782168087356
:1043A000206B401C2063E08E401EE08600200290BF
:1043B0002068806800F0010068B1E08F58B1206883
:1043C000C068A16B0870A06B401CA063E08F401E0A
:1043D000E08701200290FEF715FDC01BB04201D31B
:1043E000701C00B916B9032001901EE0E08E002871
:1043F000C7D1E08F0028C4D13A463146204604F0A8
:10440000A7FB20B101200190202060650DE0A0688D
:1044100050B900BF002000902068C068009020685C
:104420008068009000BF00BF00BF012084F85100E9
:1044300000BF002084F8500000BF0198FBE670B573
:1044400004462546681EB0F1807F01D301200FE0AD
:10445000681E4FF0E02148610F214FF0FF3005F05A
:10446000A3F800204FF0E0218861072008610020B8
:1044700070BD10B5024600BF92F83C00012801D182
:10448000022010BD012082F83C0000BF022082F80B
:104490003D00106843681068846823F07003086862
:1044A000034324F0800448680443106843601068A4
:1044B0008460012082F83D0000BF002082F83C00AB
:1044C00000BF00BFDDE710B504460CB9012010BDE8
:1044D00094F83D0028B9002084F83C00204600F004
:1044E0000DF8022084F83D00211D206804F05CFCDA
:1044F000012084F83D000020E9E7000008B5344AB7
:10450000016891420FD100BF002100913149096833
:1045100041F002012F4A11601146096801F00201C1
:10452000009100BF53E02C4A016891420FD100BFB7
:10453000002100912749096841F00401254A1160D2
:104540001146096801F00401009100BF3FE0234AD1
:10455000016891420FD100BF002100911D490968F7
:1045600041F008011B4A11601146096801F0080179
:10457000009100BF2BE01A4A0168914211D100BF9F
:10458000002100911349091D096841F00201114AF7
:10459000121D11601146096801F00201009100BF6F
:1045A00015E0104A0168914211D100BF002100912D
:1045B0000849091D096841F40031064A121D1160BD
:1045C0001146096801F40031009100BF00BF08BD29
:1045D000000400404038024000080040000C004049
:1045E00000040140004401400146022081F83D00E2
:1045F0000868806800F00702062A05D0086800688D
:1046000040F001000B681860012081F83D00002097
:1046100070472DE9F04104460D4600BF94F83C0078
:10462000012802D10220BDE8F081012084F83C007D
:1046300000BF022084F83D002068866826F07706D7
:1046400026F47F46206886602868502833D00CDC2A
:10465000202850D004DC00284BD0102851D149E04C
:10466000302849D040284CD139E060282DD070281E
:1046700007D0B0F5805F03D0B0F5005F41D10DE009
:1046800040E0D5E902136A68206804F00AFC20685B
:10469000866846F077062068866033E0D5E9021325
:1046A0006A68206804F0FDFB2068806840F4804060
:1046B0002168886026E0EA686968206804F0E2FC06
:1046C0005021206804F0F8FB1CE0EA686968206863
:1046D00004F0EBFC6021206804F0EEFB12E0EA68D5
:1046E0006968206804F0CEFC4021206804F0E4FBF7
:1046F00008E000BF00BF00BF2968206804F0DCFBB1
:1047000000E000BF00BF012084F83D0000BF002092
:1047100084F83C0000BF00BF85E7000010B586B0FC
:104720000446142101A8FBF7AAFF584920688842D3
:1047300024D100BF002000905548006840F00400DC
:10474000534908600846006800F00400009000BF6C
:1047500000BF8815019002200290012003900220E2
:104760000490059001A94B48FEF746FA4A48FFF726
:104770003BFF0821484800F043F984E0474920689E
:10478000884225D100BF002000904148006840F0D9
:1047900008003F4908600846006800F008000090E3
:1047A00000BF00BF4FF48040019002200290012022
:1047B000039002200490059001A93948FEF71CFAE5
:1047C0003848FFF711FF0821364800F019F95AE080
:1047D0003549206888422DD100BF002000902C4828
:1047E000006840F080002A4908600846006800F030
:1047F0008000009000BF00BF4FF4E0500190022005
:1048000002900120039002200490059001A92748FE
:10481000FEF7F2F92648FFF7E7FE0021244800F0F2
:10482000EFF80421224800F0EBF80821204800F0BE
:10483000E7F828E01F492068884224D100BF002003
:1048400000901348006840F02000114908600846B5
:10485000006800F02000009000BF00BF40200190E1
:104860000220029001200390022004900320059072
:1048700001A91148FEF7C0F91048FFF7B5FE002165
:104880000E4800F0BDF806B010BD00000004004066
:104890003038024000080240D80A002000080040DA
:1048A000000C0240180B0020000C0040001C0240CD
:1048B000580B00200044014000140240D80B002097
:1048C00070B504460D46164600BF94F83C0001281A
:1048D00001D1022070BD012084F83C0000BF0220FD
:1048E00084F83D0036B1042E1BD0082E31D00C2E9A
:1048F0005ED145E02946206804F0E8FA2068806926
:1049000040F00800216888612068806920F0040078
:104910002168886120688069296908432168886165
:1049200047E02946206804F009FB2068806940F4CC
:104930000060216888612068806920F480602168B7
:10494000886120688069296940EA012021688861BE
:104950002FE02946206804F02FFB2068C06940F052
:1049600008002168C8612068C06920F0040021683F
:10497000C8612068C069296908432168C86118E0D6
:104980002946206804F054FB2068C06940F40060A8
:104990002168C8612068C06920F480602168C8610E
:1049A0002068C069296940EA01202168C86100E0E7
:1049B00000BF00BF012084F83D0000BF002084F844
:1049C0003C0000BF00BF85E710B504460CB90120CC
:1049D00010BD94F83D0028B9002084F83C00204622
:1049E00000F00CF8022084F83D00211D206804F03E
:1049F000DBF9012084F83D000020E9E77047000062
:104A000070B504460E4601223146206804F038FA9B
:104A10000F492068884203D00E492068884201D19E
:104A2000012000E0002028B12068406C40F40040E4
:104A3000216848642068806800F00705062D05D0CD
:104A40002068006840F0010021680860002070BD07
:104A5000000001400004014010B504460CB90120DB
:104A600010BDA06900B100E000BF94F8390028B97A
:104A7000002084F83800204600F028F8242084F82C
:104A800039002068C06820F400502168C8602046C2
:104A900004F020FB2068006920F490402168086140
:104AA0002068406920F02A00216848612068C068B9
:104AB00040F400502168C8600020E063202084F8A2
:104AC000390084F83A000020CAE7000010B586B02B
:104AD0000446142101A8FBF7D2FD2F492068884223
:104AE00058D100BF002000902C48006840F480207E
:104AF0002A4908600846006800F48020009000BF42
:104B000000BF00BF0020009024481038006840F02B
:104B100004002249103908600846006800F00400CB
:104B2000009000BF00BF4FF440600190022002904F
:104B300001200390032004900720059001A9184844
:104B4000FEF75AF81748184908604FF000604860AF
:104B5000002115488160C1604FF48061016100212E
:104B600041618161C1614FF4003101620021416204
:104B7000FDF79CFE08B1FCF7FBFF00BF0A4860632D
:104B8000846300BF002204212720FEF737FD272081
:104B9000FEF724FD06B010BD00480040403802403A
:104BA0000008024028600240580C002000BFFEE7C9
:104BB000014608684069C0F38020B0B16FF480609E
:104BC0000A68506100200863202081F83D00002021
:104BD00081F83E00086C40F00400086400BF00202B
:104BE00081F83C0000BF012070470020FCE7000076
:104BF0002DE9F84304460F4615469946DDE9088637
:104C00002068006840F480602168086020680068BF
:104C100040F4807021680860434600224FF0011183
:104C20002046009600F014F910B10120BDE8F88389
:104C300007F0FE00216808613346424639492046A4
:104C400000F049F908B10120F0E700BF0020009012
:104C500020684069009020688069009000BF00BF14
:104C600032464146204600F0D8F950B1206C042865
:104C700005D12068006840F40070216808600120B8
:104C8000D4E7B9F1010F03D1E8B22168086117E058
:104C9000C5F307202168086132464146204600F0EE
:104CA000BCF950B1206C042805D12068006840F49C
:104CB0000070216808600120B8E7E8B22168086147
:104CC00032464146204600F0A8F950B1206C042835
:104CD00005D12068006840F4007021680860012058
:104CE000A4E72068006840F48070216808604346AB
:104CF00000224FF001112046009600F0A9F808B1FB
:104D0000012093E7F8B240F00100216808613346C2
:104D100042460449204600F0DEF808B1012085E74C
:104D2000002083E7020001002DE9F843044688468D
:104D300015469946DDE908672068006840F48070F0
:104D400021680860334600224FF001112046009789
:104D500000F07EF810B10120BDE8F88308F0FE00F5
:104D6000216808613B4632462149204600F0B3F8ED
:104D700008B10120F0E700BF0020009020684069E2
:104D8000009020688069009000BF00BF3A4631461D
:104D9000204600F042F950B1206C042805D120686B
:104DA000006840F40070216808600120D4E7B9F180
:104DB000010F03D1E8B22168086117E0C5F30720AD
:104DC000216808613A463146204600F026F950B184
:104DD000206C042805D12068006840F40070216828
:104DE00008600120B8E7E8B2216808610020B3E755
:104DF0000200010070B504460D46164620E020462C
:104E0000FFF7D6FE08B1012070BD681CC0B1FDF7E8
:104E1000F9FF801BA84200D895B90020206320200C
:104E200084F83D00002084F83E00206C40F0200013
:104E3000206400BF002084F83C0000BF0120E3E7AD
:104E400020684069C0F380000028D8D00020DBE74C
:104E50002DE9F04104460D4617461E46DDF8188040
:104E60001CE0701CD0B1FDF7CDFFA0EB0800B042F4
:104E700000D89EB900202063202084F83D00002047
:104E800084F83E00206C40F02000206400BF002029
:104E900084F83C0000BF0120BDE8F081C5F3074065
:104EA00001280AD120684069A9B20840A9B2884205
:104EB00001D101200BE0002009E020688069A9B23F
:104EC0000840A9B2884201D1012000E00020B84288
:104ED000C7D00020E0E72DE9F04104460D46164614
:104EE0001F463DE020684069C0F38020E8B120689B
:104EF000006840F40070216808606FF480602168E9
:104F0000486100202063202084F83D00002084F8C0
:104F10003E00206C40F00400206400BF002084F8B4
:104F20003C0000BF0120BDE8F081701CC0B1FDF75E
:104F300069FFC01BB04200D896B900202063202032
:104F400084F83D00002084F83E00206C40F02000F2
:104F5000206400BF002084F83C0000BF0120E2E78D
:104F6000C5F3074001280AD120684069A9B208406A
:104F7000A9B2884201D101200BE0002009E020689D
:104F80008069A9B20840A9B2884201D1012000E09D
:104F900000200028A6D00020C5E770B504460D46C5
:104FA000164632E020684069C0F30010A0B16FF0EF
:104FB00010002168486100202063202084F83D0013
:104FC000002084F83E00206C206400BF002084F89C
:104FD0003C0000BF012070BDFDF714FF801BA842FC
:104FE00000D895B900202063202084F83D000020DF
:104FF00084F83E00206C40F02000206400BF0020B8
:1050000084F83C0000BF0120E5E720684069C0F358
:1050100080100028C6D00020DDE770B504460D469C
:10502000164620E02046FFF7C3FD08B1012070BD01
:10503000681CC0B1FDF7E6FE801BA84200D895B9F8
:1050400000202063202084F83D00002084F83E00EA
:10505000206C40F02000206400BF002084F83C0059
:1050600000BF0120E3E720684069C0F3C0100028BA
:10507000D8D00020DBE7000070B504460D46164688
:10508000308888B9184890ED000A184880ED000A69
:10509000154890ED010A154880ED010A124890ED7F
:1050A000020A124880ED020A324611490F4806F002
:1050B000C7FF0E4890ED000A85ED000A90ED010A49
:1050C00085ED010A90ED020A85ED020AB7EE000AAD
:1050D00084ED000AB7EE000A84ED010AB7EE000A7B
:1050E00084ED020A70BD00002475002018750020B0
:1050F000DC75002091ED000A0E4A82ED000A91ED68
:10510000010A82ED010A91ED020A82ED020A92ED96
:10511000000A094A82ED000A064A92ED010A064A8F
:1051200082ED010A034A92ED020A034A82ED020A65
:1051300070470000247500201875002008B507206E
:1051400007F01FFB02E0642007F01BFBFBF7C4FE27
:105150000028F8D102E0642007F013FB07F08CF977
:105160000028F8D19B4AA2F10C01101DFBF7CEFEDE
:105170009948984B103B994A99490090994806F0F4
:1051800089FFDFED990A9FED990A994A0021994814
:1051900000F0FAFD914A92499748FBF7DFFB9048EF
:1051A00090ED000A954880ED000A954880ED000AD0
:1051B000944880ED000A8A4890ED010A8F4880EDFE
:1051C000010A8F4880ED010A8E4880ED010A84486B
:1051D00090ED020A894880ED020A894880ED020AB2
:1051E000884880ED020A002007F014FB044609F00D
:1051F00075FA8549086010218448C161FEF717FFE0
:1052000008B1FCF7B5FC08228149824803F0E0FBB5
:10521000012081490870DBE000BF4FF0FF31012021
:1052200008F042FA0128F8D17C48007800F0040028
:1052300058B17A48007820F0040078490870654930
:10524000091D7348401CFBF713FE7548007800F0F9
:10525000040060B17248007820F0040070490870C2
:105260005C4A1032A2F11C016E48FBF7ABFD6E48A0
:10527000007800F0040088B16B48007820F004004A
:105280006949087053496948FBF72EFF51481038A7
:10529000D0ED040AB0EE600A07F04CF84E484D4BD2
:1052A000103B4E4A4E4900904E4806F0F3FE5448DB
:1052B00090ED000A534880ED000A504890ED000A36
:1052C0004F4880ED000A90ED000A5948D0ED000AE1
:1052D00020EE200A4B48D0ED000A554890ED011A07
:1052E00000EE810A3E48D0ED000A514890ED021AC6
:1052F00000EE810A414880ED000A414890ED010A24
:10530000404880ED010A3D4890ED010A3C4880ED9F
:10531000010A90ED010A4648D0ED000A20EE200A6D
:105320003848D0ED010A424890ED011A00EE810A9A
:105330002B48D0ED010A3E4890ED021A00EE810A9A
:105340002E4880ED010A2E4890ED020A2D4880ED8E
:10535000020A2A4890ED020A294880ED020A90EDDF
:10536000020A3348D0ED000A20EE200A2548D0ED8D
:10537000020A2F4890ED011A00EE810A1848D0ED7C
:10538000020A2B4890ED021A00EE810A1B4880EDBC
:10539000020A124B024613499FED260A1648FBF7F4
:1053A00049FC254B1A1F111F134806F047FD2348DF
:1053B000007800F001002149087048B108460078E3
:1053C00020F0010008700846007840F002000870E4
:1053D00022E700000475002048750020F4750020C5
:1053E000E8750020DC7500200080894500A08C4510
:1053F00050F900087075002000760020D07500205C
:10540000C4750020B87500204C010020C0090020A0
:10541000500100205801002075010020710100207A
:1054200072010020EA740020730100206B0100204B
:105430005CF900086F12833A18760020740100208E
:1054400010B50E480E4908600320486000210C4842
:105450008160C1604FF4102101614FF4001141617E
:105460000021017641768176C17601774177FDF79B
:1054700009F808B1FCF77CFB10BD00000064004097
:105480005402002010B50E480E4908600320486001
:1054900000210C488160C1604FF4102101614FF47C
:1054A000001141610021017641768176C176017754
:1054B0004177FCF7E7FF08B1FCF75AFB10BD00008D
:1054C000006800407C02002008B500BF002000906A
:1054D0001A48006840F480001849086008460068CF
:1054E00000F48000009000BF00BF00BF00200090CB
:1054F0000846006840F4001008600846006800F4A0
:105500000010009000BF00BF002205210C20FEF714
:1055100075F80C20FEF762F8002205213A20FEF70C
:105520006DF83A20FEF75AF8002205213B20FEF7DD
:1055300065F83B20FEF752F808BD00003038024005
:1055400000B5ABB01C22244924A8FBF75EF800216B
:1055500024A807F02FF9214908601C221E491C319C
:105560001DA8FBF752F800211DA807F023F91C49DC
:1055700008601C221849383116A8FBF746F80021AC
:1055800016A807F017F9174908601C221249543170
:105590000FA8FBF73AF800210FA807F00BF9124902
:1055A00008601C220C49703108A8FBF72EF8002176
:1055B00008A807F0FFF80D4908601C2206498C3145
:1055C00001A8FBF722F8002101A807F0F3F8084929
:1055D00008602BB000BD000004F80008180000208F
:1055E00004000020080000200C0000201000002013
:1055F0001400002000B587B0142102A8FBF73FF883
:1056000000BF002001906548006840F00200634937
:1056100008600846006800F00200019000BF00BF6B
:1056200000BF002001900846006840F001000860BB
:105630000846006800F00100019000BF00BF00BFF5
:10564000002001900846006840F008000860084605
:10565000006800F00800019000BF00BF00BF0020FC
:1056600001900846006840F00400086008460068A1
:1056700000F00400019000BF00BF00BF00200190B7
:105680000846006840F0800008600846006800F0A6
:105690008000019000BF00BF00BF002001900846BD
:1056A000006840F0400008600846006800F04000D4
:1056B000019000BF00BF00BF0020019008460068B5
:1056C00040F0200008600846006800F020000190CB
:1056D00000BF00BF012240213148FDF78DFB0122B0
:1056E00010213048FDF788FB012211462E48FDF7B6
:1056F00083FB40200290012003900490059002A9B2
:105700002748FDF779FA09200290284803900120E4
:10571000049002A92248FDF76FFA102002900120A0
:10572000039004900220059002A91E48FDF764FA38
:10573000302002901D4803900120049002A91C48CB
:10574000FDF75AFA01200290039004900220059080
:1057500002A91548FDF750FA002206210846FDF778
:105760004DFF0620FDF73AFF002205210920FDF735
:1057700045FF0920FDF732FF002205210A20FDF731
:105780003DFF0A20FDF72AFF002205211720FDF723
:1057900035FF1720FDF722FF07B000BD303802406B
:1057A00000180240000002400004024000002110E6
:1057B0000008024010B50B480B4908600B484860D0
:1057C000002109488160C1604FF4804101610021DE
:1057D00041618161C1610162FDF71AFB08B1FCF70B
:1057E000C7F910BD005C00404C090020801A06007B
:1057F00010B50A480A490860002048607C21084822
:10580000816040F67F41C160002101614161816199
:10581000FEF778FB08B1FCF7ABF910BD002800409B
:10582000A009002010B50F480F4908604FF482709E
:10583000486000210C488160C160022101610121A2
:105840004161490281613821C161002101624162E7
:1058500081620A21C162FEF7EAFB08B1FCF788F910
:1058600010BD000000300140C009002000B587B025
:105870001C216846FAF703FF154816490860002006
:10588000486000211348816041F28731C1600021E6
:1058900001618161FEF717FE08B1FCF769F90D4857
:1058A000FFF792F808B1FCF763F960200090002040
:1058B000019002900490002269460648FFF700F824
:1058C00008B1FCF755F90348FEF728FF07B000BD03
:1058D00000440140D80B002000B58DB00020099095
:1058E0000A900B900C90079008901C216846FAF7DC
:1058F000C6FE2048204908600020486000211E485C
:10590000816042F2CF01C160002101618161FEF737
:10591000DAFD08B1FCF72CF94FF48050099009A981
:105920001548FEF776FE08B1FCF722F91248FFF79A
:105930004BF808B1FCF71CF900200790089007A964
:105940000D48FEF796FD08B1FCF712F960200090B3
:105950000020019002900490082269460648FEF754
:10596000AFFF08B1FCF704F90348FEF7D7FE0DB00E
:1059700000BD000000040040D80A002000B58DB032
:10598000002009900A900B900C90079008901C2121
:105990006846FAF774FE204820490860A72048604E
:1059A00000211E4881604FF6FF71C1600021016136
:1059B0008161FEF788FD08B1FCF7DAF84FF48050FA
:1059C000099009A91548FEF724FE08B1FCF7D0F8A4
:1059D0001248FEF7F9FF08B1FCF7CAF8002007905B
:1059E000089007A90D48FEF744FD08B1FCF7C0F880
:1059F00060200090002001900290049008226946E7
:105A00000648FEF75DFF08B1FCF7B2F80348FEF761
:105A100085FE0DB000BD000000080040180B0020FE
:105A200000B58DB0002009900A900B900C90079063
:105A300008901C216846FAF722FE28482849086089
:105A4000002048600021264881604FF6FF71C16048
:105A5000002101618161FEF736FD08B1FCF788F88D
:105A60004FF48050099009A91D48FEF7D2FD08B1F6
:105A7000FCF77EF81A48FEF7A7FF08B1FCF778F8A4
:105A800000200790089007A91548FEF7F2FC08B11E
:105A9000FCF76EF8602000900020019002900490C6
:105AA000002269460E48FEF70BFF08B1FCF760F8CC
:105AB000042269460A48FEF703FF08B1FCF758F8CC
:105AC000082269460648FEF7FBFE08B1FCF750F8CD
:105AD0000348FEF723FE0DB000BD0000000C00409F
