:020000040800F2
:10000000B8060020290200088913000879120008A8
:100010008513000817040008DB1700080000000023
:100020000000000000000000000000008D13000828
:100030001B040008000000008B1300088F13000849
:10004000430200084302000843020008430200087C
:10005000430200084302000843020008430200086C
:10006000430200084302000843020008430200085C
:10007000430200084302000843020008430200084C
:10008000430200084302000843020008430200083C
:10009000430200084302000843020008430200082C
:1000A000430200084302000843020008430200081C
:1000B000430200084302000843020008430200080C
:1000C00043020008430200084302000843020008FC
:1000D00043020008430200084302000843020008EC
:1000E00043020008430200084302000843020008DC
:1000F00043020008430200084302000843020008CC
:1001000043020008430200084302000843020008BB
:1001100043020008430200084302000843020008AB
:10012000430200084302000843020008430200089B
:10013000430200084302000843020008430200088B
:10014000430200084302000843020008430200087B
:10015000430200084302000843020008430200086B
:10016000430200084302000843020008430200085B
:100170004302000843020008430200080000000098
:10018000430200084302000800F002F800F03CF8C7
:100190000AA090E8000C82448344AAF10107DA45E2
:1001A00001D100F031F8AFF2090EBAE80F0013F0F8
:1001B000010F18BFFB1A43F0010318470C1700008A
:1001C0002C170000103A24BF78C878C1FAD852071B
:1001D00024BF30C830C144BF04680C6070470000C1
:1001E0000023002400250026103A28BF78C1FBD840
:1001F000520728BF30C148BF0B6070471FB501F0E0
:1002000051FB1FBD10B510BD00F0CFF81146FFF730
:10021000F5FF01F00BFB00F0EDF803B4FFF7F2FF80
:1002200003BC00F0F1F80000094880470948004786
:10023000FEE7FEE7FEE7FEE7FEE7FEE7FEE7FEE796
:10024000FEE7FEE704480549054A064B70470000F3
:100250004D14000889010008B8000020B8060020ED
:10026000B8020020B802002053EA020C00F06980B6
:100270002DE9F04B4FF00006002B1FBFB3FA83F5BA
:1002800003FA05F424FA05F65E4012BF1643B2FAEB
:1002900082F502FA05F4C5F120051EBF22FA05FC1D
:1002A00044EA0C04203556EA044C4FEA144418BFC3
:1002B000641C4FF000084FF00009904271EB030CF2
:1002C00039D3002919BFB1FA81F701FA07F6B0FA5C
:1002D00080F700FA07F6C7F120071EBF20FA07FCD7
:1002E00046EA0C062037B6FBF4FCA7EB0507103FE7
:1002F00007F01F0BCBF120060CFA0BFB2CFA06F6CD
:1003000044BFB3460026202FA4BF5E464FF0000B2B
:100310005BEA060C08BF4FF0010B19EB0B09ABFBB6
:10032000027C48EB0608C01B06FB02CC0BFB03CC8F
:1003300071EB0C01C1E70B46024641464846BDE859
:10034000F08B13B54FF000004FF00001AFF30080C9
:10035000BDE81C4070474FF0000200B513469446BC
:100360009646203922BFA0E80C50A0E80C50B1F10D
:100370002001BFF4F7AF090728BFA0E80C5048BF21
:100380000CC05DF804EB890028BF40F8042B08BFBF
:10039000704748BF20F8022B11F0804F18BF00F8BB
:1003A000012B7047704770477047754600F028F87A
:1003B000AE4605006946534620F00700854618B052
:1003C00020B5FFF73FFFBDE820404FF000064FF09B
:1003D00000074FF000084FF0000B21F00701AC467A
:1003E000ACE8C009ACE8C009ACE8C009ACE8C00999
:1003F0008D4670470446AFF300802046FFF70DFF9F
:10040000004870475400002001491820ABBEFEE7A9
:1004100026000200704700BFFEE7704770470000EB
:1004200070B5044600F010F906462546681C10B168
:1004300004480078054400BF00F006F9801BA8427C
:10044000FAD370BD0C000020F8B502460B4600251B
:10045000002400200021DCE0012606FA01F51E68D8
:1004600006EA0504AC4273D15E68022E02D05E68D3
:10047000122E13D1CF0802F1200656F827004E079E
:10048000F70E0F26BE40B0434F07FF0E1E69BE4059
:100490003043CF0802F1200646F8270010684F00CD
:1004A0000326BE40B0431E7906F003064F00BE404F
:1004B000304310605E68012E08D05E68022E05D0C1
:1004C0005E68112E02D05E68122E13D190684F0024
:1004D0000326BE40B0434F00DE68BE40304390600C
:1004E000506801268E40B0431E79C6F300168E4038
:1004F00030435060D0684F000326BE40B0434F00E9
:100500009E68BE403043D0605E6806F08056B6F10B
:10051000805F7DD100BF00260096404E366846F4CD
:1005200080463E4F3E603E46366806F48046009662
:1005300000BF00BF3A4E8F0856F827008E07370FCE
:100540000F26BE40B043374EB24202D1002624E00F
:100550005EE0354EB24201D101261EE0334EB2427A
:1005600001D1022619E0324EB24201D1032614E035
:10057000304EB24201D104260FE02F4EB24201D1DB
:1005800005260AE02D4EB24201D1062605E02C4E8A
:10059000B24201D1072600E008268F073F0FBE4078
:1005A00030431F4E8F0846F82700264E3068A04380
:1005B0005E6806F48036B6F5803F00D12043214EB8
:1005C0003060361D3068A0435E6806F40036B6F52C
:1005D000003F00D120431B4E361D3060361D306871
:1005E000A0435E6806F48016B6F5801F00D1204354
:1005F000144E08363060361D3068A0435E6806F43D
:100600000016B6F5001F00D120430E4E0C363060A8
:10061000491C1029FFF420AFF8BD00004438024007
:100620000838014000000240000402400008024077
:10063000000C02400010024000140240001802406A
:10064000001C0240003C0140014800687047000067
:100650000400002003480068034909780844014960
:1006600008607047040000200C00002010B50D4801
:10067000006840F400700B4908600846006840F4C8
:10068000806008600846006840F4807008600320BD
:1006900000F092F8002000F007F800F02BF800209E
:1006A00010BD0000003C024070B504460E480078C2
:1006B0004FF47A71B1FBF0F00C490968B1FBF0F529
:1006C000284600F0C9FB08B1012070BD102C07D2EC
:1006D00000222146501E00F031F80548046001E078
:1006E0000120F2E70020F0E70C00002010000020BD
:1006F0000800002008B500BF002000900E480068E8
:1007000040F480400C4908600846006800F48040CE
:10071000009000BF00BF00BF00200090081F0068CD
:1007200040F08050091F08600846006800F08050C3
:10073000009000BF00BF08BD443802402DE9F05FC3
:1007400080460D461646002701F04AF8074639460E
:100750002A46334601F00700C0F1070ABAF1040F38
:1007600002D94FF0040A01E0C0F1070AD14600F1B6
:10077000040ABAF1070F02D24FF0000A01E0A0F11B
:10078000030AD4464FF0010A0AFA09FAAAF1010A4B
:100790000AEA020A0AFA0CFA4FF0010B0BFA0CFBF8
:1007A000ABF1010B0BEA030B4AEA0B04214640466E
:1007B00001F01EF8BDE8F09F00BF00F00702064BF5
:1007C00019684FF6FF031940044B0B4343EA02211B
:1007D000014B196000BF70470CED00E00000FA0506
:1007E00070B504460D460CB9012070BD584800682C
:1007F00000F00F00A84209D255490D700846006864
:1008000000F00F00A84201D00120EEE7207800F0B0
:10081000020002281DD1207800F00400042805D130
:100820004C48006840F4E0504A490860207800F0E5
:100830000800082805D14748006840F46040454951
:1008400008604448006820F0F000A168084341496E
:100850000860207800F00100A8B36068012807D183
:100860003C4808380068C0F34040B8B90120BCE7F4
:100870006068022802D06068032807D1354808382C
:100880000068C0F3406048B90120AEE7314808383D
:100890000068C0F3400008B90120A6E72D480068B1
:1008A00020F00300616808432A490860FFF7CCFE86
:1008B000064609E0FFF7C8FE801B41F288318842F6
:1008C00002D9032091E707E02248006800F00C00FD
:1008D0006168B0EB810FEDD11D48006800F00F009A
:1008E000A84209D91A490D700846006800F00F00A7
:1008F000A84201D0012078E7207800F00400042805
:1009000007D11448006820F4E050E1680843114919
:100910000860207800F00800082808D10D48006819
:1009200020F46040216940EAC1000A49086000F0F3
:1009300017F808490968C1F30311074A515CC84018
:10094000064908600020FFF7AFFE00204DE70000D9
:10095000003C024008380240AE1800081000002099
:100960002DE9F047002400250026A146254800680F
:1009700000F00C0020B1042805D008283AD105E089
:10098000DFF8849039E0DFF8849036E01D48001FDE
:10099000006800F03F041B48001F006800F480005E
:1009A00078B11A481749091F0968C1F38811A0FBDB
:1009B00001700146224600233846FFF755FC0546E4
:1009C0000EE011480F49091F0968C1F38811A0FB07
:1009D00001700146224600233846FFF745FC0546D4
:1009E0000848001F0068C0F30140401C4600B5FBEA
:1009F000F6F902E0DFF8109000BF00BF4846BDE8FE
:100A0000F0870000083802400024F400001BB70003
:100A1000F8B504460CB90120F8BD207800F00100BB
:100A2000002874D0F948006800F00C0004280DD0AC
:100A3000F648006800F00C00082813D1F348001FA6
:100A4000006800F48000B0F5800F0BD1EF48083843
:100A50000068C0F34040002859D06068002856D193
:100A60000120D9E700BF6068B0F5803F08D1E748B2
:100A70000838006840F48030E449083908601EE016
:100A80006068B0F5A02F0DD1E0480838006840F448
:100A90008020DE49083908600846006840F480304C
:100AA00008600CE0D9480838006820F48030D74945
:100AB000083908600846006820F48020086000BFFC
:100AC000606890B1FFF7C0FD054606E0FFF7BCFD8A
:100AD000401B642801D903209EE7CC4808380068F1
:100AE000C0F340400028F1D011E0FFF7ADFD05460E
:100AF00006E0FFF7A9FD401B642801D903208BE71E
:100B0000C24808380068C0F340400028F1D120787E
:100B100000F0020002285FD1BC48006800F00C0021
:100B200058B1BA48006800F00C0008281CD1B7483A
:100B3000001F006800F48000B0B9B44808380068AD
:100B4000C0F3400020B1E068012801D0012063E734
:100B5000AE480838006820F0F800216940EAC1007A
:100B6000AA490839086037E0E06800B30120A849C5
:100B70000860FFF769FD054606E0FFF765FD401BCD
:100B8000022801D9032047E7A04808380068C0F3CD
:100B900040000028F1D09D480838006820F0F80097
:100BA000216940EAC10099490839086014E0002031
:100BB00097490860FFF748FD054606E0FFF744FD4A
:100BC000401B022801D9032026E790480838006816
:100BD000C0F340000028F1D1207800F00800082878
:100BE0002CD16069A8B101208A490860FFF72CFD6B
:100BF000054606E0FFF728FD401B022801D9032027
:100C00000AE782486C300068C0F340000028F1D049
:100C100014E000207F490860FFF716FD054606E056
:100C2000FFF712FD401B022801D90320F4E67748A4
:100C30006C300068C0F340000028F1D1207800F04B
:100C40000400042870D1002670483830006800F095
:100C5000805090B900BF002000906C483830006888
:100C600040F080506949383108600846006800F05B
:100C70008050009000BF00BF01266748006800F464
:100C80008070B0B96448006840F4807062490860C0
:100C9000FFF7DAFC054606E0FFF7D6FC401B02280A
:100CA00001D90320B8E65C48006800F48070002891
:100CB000F2D000BFA068012808D15448683000680D
:100CC00040F001005149683108601DE0A068052826
:100CD0000DD14E486830006840F004004B4968313F
:100CE00008600846006840F0010008600CE04748D2
:100CF0006830006820F00100444968310860084607
:100D0000006820F00400086000BFA068A8B1FFF7E9
:100D10009BFC054609E0FFF797FC401B41F2883138
:100D2000884202D9032077E626E038486830006818
:100D3000C0F340000028EED013E0FFF785FC054625
:100D400008E0FFF781FC401B41F28831884201D95D
:100D5000032061E62D4868300068C0F34000002899
:100D6000EFD1012E07D129483830006820F080509B
:100D700026493831086000BFA069B8B3234800682D
:100D800000F00C0008285ED0A069022846D100209F
:100D90001F490866FFF758FC054606E0FFF754FCBC
:100DA000401B022801D9032036E61848083800689D
:100DB000C0F340600028F1D1D4E907010843616A1B
:100DC00040EA81110122A06AC2EB500041EA0041D1
:100DD0002C20005D41EA00600C49091F08600120D9
:100DE0000B490866FFF730FC054607E02DE0FFF7EA
:100DF0002BFC401B022801D903200DE603480838CC
:100E00000068C0F340600028F1D01EE008380240BE
:100E100000004742800E47420070004000200C490D
:100E20000866FFF711FC054606E0FFF70DFC401BC6
:100E3000022801D90320EFE506480068C0F34060AE
:100E40000028F2D101E00120E6E50020E4E5000001
:100E5000000047420038024070B504462546681E2F
:100E6000B0F1807F01D301200FE0681E4FF0E02138
:100E700048610F214FF0FF3000F0BAFC00204FF026
:100E8000E021886107200861002070BD10B502468E
:100E900000BF92F83C00012801D1022010BD0120C2
:100EA00082F83C0000BF022082F83D0010684368D1
:100EB0001068846823F070030868034324F08004FA
:100EC000486804431068436010688460012082F819
:100ED0003D0000BF002082F83C0000BF00BFDDE7FE
:100EE00010B504460CB9012010BD94F83D0028B996
:100EF000002084F83C00204600F00CF8022084F822
:100F00003D00211D206800F0D3FA012084F83D0047
:100F10000020E9E708B50A4A016891420FD100BFF5
:100F2000002100910749096841F00401054A116058
:100F30001146096801F00401009100BF00BF08BD1F
:100F400000080040403802400146022081F83D0080
:100F50000868806800F00702062A05D00868006863
:100F600040F001000B681860012081F83D0000206E
:100F700070472DE9F04104460D4600BF94F83C004F
:100F8000012802D10220BDE8F081012084F83C0054
:100F900000BF022084F83D002068866826F07706AE
:100FA00026F47F46206886602868502833D00CDC01
:100FB000202850D004DC00284BD0102851D149E023
:100FC000302849D040284CD139E060282DD07028F5
:100FD00007D0B0F5805F03D0B0F5005F41D10DE0E0
:100FE00040E0D5E902136A68206800F0DEFA206864
:100FF000866846F077062068866033E0D5E90213FC
:101000006A68206800F0D1FA2068806840F4804067
:101010002168886026E0EA686968206800F0B6FB0D
:101020005021206800F0CCFA1CE0EA68696820686A
:1010300000F0BFFB6021206800F0C2FA12E0EA680D
:101040006968206800F0A2FB4021206800F0B8FA2F
:1010500008E000BF00BF00BF2968206800F0B0FAB8
:1010600000E000BF00BF012084F83D0000BF002069
:1010700084F83C0000BF00BF85E7000010B586B0D3
:101080000446142101A8FFF766F912492068884236
:101090001DD100BF002000900F48006840F00800FC
:1010A0000D4908600846006800F00800009000BF85
:1010B00000BF4FF480400190022002900020039076
:1010C00004900220059001A90448FFF7BDF906B07D
:1010D00010BD00000008004030380240000C024003
:1010E00070B504460D46164600BF94F83C00012832
:1010F00001D1022070BD012084F83C0000BF022015
:1011000084F83D0036B1042E1BD0082E31D00C2EB1
:101110005ED145E02946206800F05CFA20688069CD
:1011200040F00800216888612068806920F0040090
:10113000216888612068806929690843216888617D
:1011400047E02946206800F07DFA2068806940F475
:101150000060216888612068806920F480602168CF
:10116000886120688069296940EA012021688861D6
:101170002FE02946206800F0A3FA2068C06940F0FB
:1011800008002168C8612068C06920F00400216857
:10119000C8612068C069296908432168C86118E0EE
:1011A0002946206800F0C8FA2068C06940F4006051
:1011B0002168C8612068C06920F480602168C86126
:1011C0002068C069296940EA01202168C86100E0FF
:1011D00000BF00BF012084F83D0000BF002084F85C
:1011E0003C0000BF00BF85E710B504460CB90120E4
:1011F00010BD94F83D0028B9002084F83C0020463A
:1012000000F00CF8022084F83D00211D206800F059
:101210004FF9012084F83D000020E9E77047000005
:1012200070B504460E4601223146206800F0ACF944
:101230000F492068884203D00E492068884201D1B6
:10124000012000E0002028B12068406C40F40040FC
:10125000216848642068806800F00705062D05D0E5
:101260002068006840F0010021680860002070BD1F
:10127000000001400004014000BFFEE708B500BFC8
:10128000002000901548006840F0010013490860F4
:101290000846006800F00100009000BF00BF00BFDA
:1012A000002000900846006840F080000860084672
:1012B000006800F08000009000BF00BF00BF002069
:1012C00000900846006840F0080008600846006882
:1012D00000F00800009000BF00BF08BD3038024099
:1012E00000B58DB0002009900A900B900C900790EB
:1012F00008901C216846FFF72EF820482049086016
:101300000020486000211E48816045F20721C1602D
:10131000002101618161FFF7E3FD08B1FFF77EF86D
:101320004FF48050099009A91548FFF722FE08B133
:10133000FFF774F81248FFF757FF08B1FFF76EF890
:1013400000200790089007A90D48FFF79FFD08B1FE
:10135000FFF764F860200090002001900290049054
:10136000082269460648FFF7BBFE08B1FFF756F8AA
:101370000348FFF783FE0DB000BD000000080040E9
:101380001400002000BFFEE770477047704710B59B
:10139000FFF760F910BD000000B593B0302107A839
:1013A000FEF7D9FF142102A8FEF7D5FF00BF0020E9
:1013B00001902448006840F08050224908600846A7
:1013C000006800F08050019000BF00BF00BF002007
:1013D00001901D48006840F480401B4908600846A1
:1013E000006800F48040019000BF00BF012007901A
:1013F0000004089002200D9041050E9106210F91E6
:10140000A8211091022111910421129107A8FFF740
:10141000FFFA08B1FFF702F80F20029002200390B4
:10142000002004904FF4A05005904FF48050069097
:10143000052102A8FFF7D4F908B1FEF7EFFF13B0BA
:1014400000BD0000403802400070004014480068B1
:1014500040F47000124908601248006840F0010032
:101460001049086000200F49083108600D480068E5
:101470000D4908400B4908600C48091D0860081F09
:10148000006820F48020091F0860002005490C3105
:1014900008604FF000600249803908607047000022
:1014A00088ED00E000380240FFFFF6FE1030002417
:1014B00010B50268294B98420ED0B0F1804F0BD086
:1014C000274B984208D0274B984205D0264B98428C
:1014D00002D0264B984203D122F070024B681A4387
:1014E0001E4B984220D0B0F1804F1DD01C4B98422B
:1014F0001AD01C4B984217D01B4B984214D01B4B50
:10150000984211D01A4B98420ED01A4B98420BD0E9
:10151000194B984208D0194B984205D0184B984265
:1015200002D0184B984203D122F44072CB681A4380
:1015300022F080034C6943EA040202608B68C362B4
:101540000B688362054B984202D0084B984201D148
:101550000B6903630123436110BD000000000140DB
:101560000004004000080040000C0040000401405E
:101570000040014000440140004801400018004084
:10158000001C00400020004030B501F01F05012480
:1015900004FA05F3046A9C430462046A01F01F051F
:1015A00002FA05F52C43046230BD30B50C46816863
:1015B00021F47F4142EA032525432943816030BD60
:1015C0000A46816821F0700142F0070319438160E7
:1015D0007047000030B5056A25F001050562026A12
:1015E0004368846924F0700424F003040D682C43DC
:1015F00022F002028D682A43104DA84200D103E078
:101600000F4DA84206D100BF22F00802CD682A4340
:1016100022F00402094DA84202D0094DA84207D188
:1016200023F4807323F400734D692B438D692B439E
:10163000436084614D684563026230BD0000014033
:101640000004014030B5056A25F010050562026A04
:101650004368846924F4E04424F440740D6844EA47
:10166000052422F020028D6842EA0512124DA8429C
:1016700000D103E0114DA84207D100BF22F0800243
:10168000CD6842EA051222F040020B4DA84202D07A
:101690000A4DA84209D123F4806323F400634D6905
:1016A00043EA85038D6943EA8503436084614D689D
:1016B0008563026230BD000000000140000401406B
:1016C00030B5056A25F480750562026A4368C4690D
:1016D00024F0700424F003040D682C4322F40072FB
:1016E0008D6842EA0522124DA84200D103E0114D57
:1016F000A84207D100BF22F40062CD6842EA052269
:1017000022F480620A4DA84202D00A4DA84209D1B3
:1017100023F4805323F400534D6943EA05138D6984
:1017200043EA05134360C4614D68C563026230BD7E
:10173000000001400004014030B5056A25F48055E1
:101740000562036A4468C26922F4E04222F44072EE
:101750000D6842EA052223F400538D6843EA0533FD
:10176000084DA84202D0084DA84204D124F4804478
:101770004D6944EA85144460C2614D6805640362A2
:1017800030BD0000000001400004014030B50B46B0
:101790001446026A056A25F001050562816921F097
:1017A000F00141EA041122F00A021A438161026247
:1017B00030BD30B50B461446056A25F010050562AC
:1017C0008169026A21F4704141EA043122F0A002E9
:1017D00042EA03128161026230BD00BFFEE70000F1
:1017E00002480068C0F30220704700000CED00E0E2
:1017F00010B5002804DB0A07130E054A135406E04F
:101800000A07140E034A00F00F031B1FD45410BD27
:1018100000E400E018ED00E0034A12689062024A1A
:101820001268D1637047000014000020FEF71EFF0D
:10183000FFF7B2FDFFF722FDFFF752FD1648FFF755
:1018400083FB08211448FFF7EBFC23E013480088D2
:10185000401C1249088012480088401C104908802A
:101860000E48008844F62061884202DD48100B498A
:1018700008800B480088B0F57A7F02DD0020084917
:1018800008800648018806480088FFF7C5FF012048
:10189000FEF7C6FDDAE70000140000200200002079
:1018A000000000204FF04070E1EE100A7047000089
:1018B0000000000000000102030406070809000000
:1018C0000000010203040000E818000800000020E6
:1018D00014000000C4010008FC18000814000020D7
:1018E000A4060000E001000800001027000000002E
:0C18F00010000000010000000024F400C3
:040000050800018965
:00000001FF
