:020000040800F2
:1000000008F6002061020008117400089D5F0008D6
:10001000157200089D1400085DCD00080000000066
:10002000000000000000000000000000A101000826
:10003000D318000800000000FD01000851A40008CA
:100040007B0200087B0200087B0200087B0200089C
:100050007B0200087B020008D51800087B0200081C
:100060007B020008DF180008E91800087B0200087E
:100070004D1600087B0200087B0200087B02000886
:100080007B0200087B0200087B0200087B0200085C
:10009000A11400087B0200087B020008F318000886
:1000A0007B0200087B0200087B0200087B0200083C
:1000B0007B0200087B0200087B0200087B0200082C
:1000C0007B0200087B0200087B0200087B0200081C
:1000D0007B02000865AC00087B02000875AC0008D4
:1000E0007B0200087B0200087B0200087B020008FC
:1000F0007B02000895A500087B0200085D16000839
:100100007B0200087B0200087B0200087B020008DB
:100110007B0200087B0200087B0200087B020008CB
:100120007B020008D9160008E91600087B020008C7
:100130007B0200087B0200087B0200087B020008AB
:10014000B11400087B0200087B0200081574000847
:10015000B9170008C9170008D917000899AD000899
:100160007B0200087B0200087B0200087B0200087B
:100170007B0200087B0200087B02000800000000F0
:100180007B0200087B020008DFF810D000F0CAFCF8
:1001900000480047150B0108AFF3008008F6002067
:1001A0002C4B19680868B0E8F04F80F30988BFF35A
:1001B0006F8F4FF0000080F311887047000000003F
:1001C00008480068006880F308884FF0000080F35A
:1001D000148862B661B6BFF34F8FBFF36F8F00DF35
:1001E00000BF00BF08ED00E0DFF80C00016841F43B
:1001F00070010160704700BF88ED00E0EFF30980F7
:10020000BFF36F8F134B1A681EF0100F08BF20ED5D
:10021000108A20E9F04F106009B44FF0500080F3CD
:100220001188BFF34F8FBFF36F8F13F033FB4FF085
:10023000000080F3118809BC19680868B0E8F04F25
:100240001EF0100F08BFB0EC108A80F30988BFF3CE
:100250006F8F704750090020EFF305807047000052
:100260000648804706480047FEE7FEE7FEE7FEE750
:10027000FEE7FEE7FEE7FEE7FEE7FEE731A5000842
:10028000890100089FED1A1AF5EE000A40EE010AF6
:10029000BDEEE00AF5EEC00A10EE100AF1EE10FA1B
:1002A00038BF401E00EE100A1349F7EE001AB8EEF0
:1002B000C00A30EEC00ADFED0F0A20EE200AFCEE85
:1002C000C00A10EE900AC0F3080000EE900A01EB9D
:1002D0008000F8EE600A90ED011A70EE600A90ED71
:1002E000000A71EEE01A21EE800A00EE810A7047E2
:1002F00083F9223E00000044BC480108DFED190AE2
:10030000B5EEC00A60EE200ABDEEE01A11EE100A4A
:10031000F1EE10FA38BF401E00EE100A1349F7EE56
:10032000001AB8EEC00A30EEC00ADFED0F0A60EE28
:10033000200ABCEEE00A10EE100AC0F3080000EE3E
:10034000100A01EB8000B8EE400A90ED011A70EE41
:10035000C00A90ED000A71EEE01A21EE800A00EE6C
:10036000810A704783F9223E00000044BC4801081E
:100370002DE9F05F0546002092469B4688460646DA
:10038000814640241BE0284641464746224600F06D
:10039000E4FA53465A46C01A914110D31146184602
:1003A000224600F0CBFA2D1A67EB01084F46224691
:1003B0000120002100F0C2FA17EB00094E41201E77
:1003C000A4F10104DFDC484631462A464346BDE835
:1003D000F09FA0F14101192900D82030704740EA70
:1003E00001039B0703D009E008C9121F08C0042AB3
:1003F000FAD203E011F8013B00F8013B521EF9D29A
:100400007047D2B201E000F8012B491EFBD27047C1
:100410000022F6E710B513460A4604461946FFF7D0
:10042000F0FF204610BDCAB2401E10F8011F8A42DC
:1004300002D00029F9D100207047421C10F8011B9E
:100440000029FBD1801A704710B5002200E0521C31
:10045000835C8C5CA34201D1002BF8D1D8B2E1B20D
:10046000401A10BD034611F8012B00F8012B002A99
:10047000F9D11846704730B505460020034600E024
:100480005B1C934205D2EC5CC85C201A01D1002CA5
:10049000F6D130BD2DE9FE4F804681EA0300C00F42
:1004A0000C46009021F0004123F00045B8EB02001B
:1004B000A94105D24046214690461C460B460246BD
:1004C00023F00040104347D0270DC7F30A00C3F3C1
:1004D0000A510290401A019040286BDAC3F31300CE
:1004E00040F4801B0098924620B10023D2EB030A0F
:1004F00063EB0B0B01985946C0F14002504600F0E7
:100500001DFA06460D4650465946019A00F035FA46
:1005100010EB08006141002487EA115284EAE77376
:100520001A4340D0009A62B3019A012A4FEA075257
:1005300015DC001B61EB02014FF0004202EA07529A
:10054000CDE90042001C41F5801132462B4600F0F7
:100550006CFA03B0BDE8F08F40462146F9E7001B76
:1005600061EB0201001C41F5801300185B4120186B
:10057000A2F5001747EB030140EAD570B6196D41AB
:1005800011E06D084FEA360645EAC0754FEA07529A
:10059000001B61EB0201001C41F5801149084FEA84
:1005A00030000019514132462B4603B0BDE8F04FF0
:1005B00000F02CBA0098012240000023D0EB020288
:1005C00063EBE073009821464FEAE074B8EB00005B
:1005D00061EB0401E9E783F000435BE781F0004150
:1005E00058E72DE9FE4F81EA030404F0004421F0AE
:1005F000004100944FF0000B23F0004350EA010447
:100600005ED052EA03045BD0C3F30A54C1F30A5527
:100610002C44A4F2F3340194A0FB0254C1F313015F
:1006200041F48011C3F3130343F4801301FB02442C
:1006300000FB034E840A970A44EA815447EA835731
:10064000A4FB076802958D0A05FB07854FEA932CEA
:1006500004FB0C542705029D4FEA065847EA16375B
:10066000B5EB08056EEB070C870E920E47EA811773
:1006700042EA8312A7FB0201B6EB0B0164EB000414
:100680002B0D43EA0C335E1844EB1C50DA465146FE
:10069000E7FB0201C5F313044FEA0B3343EA14539B
:1006A0004FEA0432019C43EA0603A4F10C040294CD
:1006B000009CCDE900B400F0B8F903B0BDE8F08FBC
:1006C00000200146F9E72DE9F04D81EA030404F02A
:1006D000004B21F0004514464FF0000A23F0004182
:1006E00050EA050220D054EA01021DD0C5F30A5792
:1006F0000246C5F31303C1F31300C1F30A5640F4D5
:10070000801543F48013A7EB0608101BD64608F2A9
:10071000FD3873EB050002D308F1010801E09218DF
:100720005B41B8F1000F03DA00200146BDE8F08D0F
:1007300000204FF48011064684460EE0171B73EB31
:10074000050705D3121B63EB050306434CEA010CB6
:1007500049084FEA300092185B4150EA0107EDD199
:1007600052EA030012D082EA040083EA050108433A
:1007700005D0101BAB4106D20122002306E0002267
:100780004FF0004302E06FF0010253101AEB060035
:100790004CEB085110EB0A0041EB0B01BDE8F04DAA
:1007A00000F034B90EB5C10F80EAE0700844CA0702
:1007B000002140F233438DE80E000A460B4600F05C
:1007C00034F903B000BD0EB540F23341029100216F
:1007D000CDE900110A460B4600F027F903B000BD31
:1007E00070B5C1F30A5201F000450024C1F31301B2
:1007F00040F2FF3341F480119A4201DA002070BDCB
:1008000040F233439A42A2F2334203DC524200F0F8
:10081000A4F800E090402C43F1D0404270BDC1F3F9
:100820000A5210B5C1F3130140F2FF3341F48011B5
:100830009A4201DA002010BD40F233439A42A2F2FC
:10084000334203DC524200F088F810BD904010BDE6
:1008500000F0004230F000400AD0C10D01F5607197
:10086000C0F3160042EA0151C20840071143704725
:10087000002001467047000030B5041E71F10004ED
:1008800004DB4FF00044404264EB0101141E73F19D
:10089000000405DB1C464FF00043524263EB0403A7
:1008A0008B4208BF824230BD30B5041E71F1000496
:1008B00004DB4FF00044404264EB0101141E73F16D
:1008C000000405DB1C464FF00043524263EB040377
:1008D000994208BF904230BD01F0004330B421F08E
:1008E000004150EA010206D00A0DA2F56072C1F380
:1008F0001301002A02DC30BC00207047440F44EA98
:10090000C104C100E01830BC00EBC25000F047B891
:1009100030B50B46014600202022012409E021FACF
:1009200002F59D4205D303FA02F5491B04FA02F5CC
:100930002844151EA2F10102F1DC30BD202A04DB9F
:10094000203A00FA02F1002070479140C2F12003E2
:1009500020FA03F3194390407047202A04DB203A21
:1009600021FA02F00021704721FA02F3D040C2F1CF
:1009700020029140084319467047202A06DBCB1716
:10098000203A41FA02F043EAE07306E041FA02F34A
:10099000D040C2F120029140084319467047002917
:1009A000A8BF7047401C490008BF20F001007047F5
:1009B00010B4B0FA80FC00FA0CF050EA010404BF55
:1009C00010BC704749B1CCF1200421FA04F411FAAB
:1009D0000CF118BF012121430843A3EB0C01CB1DEF
:1009E0004FEA00614FEA102042BF002010BC704760
:1009F00000EBC35010440029A4BF10BC7047401C3A
:100A0000490008BF20F0010010BC704710B5141E4B
:100A100073F1000408DA401C41F1000192185B41B7
:100A20001A4301D120F0010010BD2DE9F04D92468E
:100A30009B4611B1B1FA81F202E0B0FA80F22032A5
:100A40009046FFF77BFF04460F4640EA0A0041EA62
:100A50000B0153465A46084313D0114653EA01008E
:100A600019D0C8F140025046FFF777FF05460E4601
:100A7000504659464246FFF761FF084305D0012022
:100A800004E020463946BDE8F08D0020054346EAE3
:100A9000E0762C4337430A986305E40AA0EB08008C
:100AA0000022FD0A44EA47540A3002D500200146DC
:100AB000E9E7010510196941DDE9084500196941B7
:100AC000BDE8F04DA2E770B521F0004303430CD020
:100AD000C1F30A550024D5EB040564EB0403D617D3
:100AE000AD1AB34102DB0020014670BD201841EB76
:100AF000025170BDC1F30A52C1F3130140F2FF333A
:100B000041F480119A4202DA00200146704740F217
:100B100033439A42A2F2334202DC5242FFF71DBF36
:100B2000FFF70CBF064C074D06E0E06840F00103FC
:100B300094E8070098471034AC42F6D3FFF728FB3F
:100B4000A0510108C05101082DE9F04D00231A46BB
:100B50001B1A8A4103DB00200146BDE8F08DC1F37A
:100B60000A52C1F3130141F480154FF0000BD10775
:100B700002D100186D41521E0027044640F2FF11B9
:100B8000384601EB620A3E468046024600204FF49A
:100B90008011FFF7E2FEC2197141BB1846EB01005C
:100BA000B4EB030C75EB000C04D3E41A65EB000501
:100BB00017460E46241908F101006D41804634287D
:100BC000E3DDF91946EB0600091BA84103D24FF0FB
:100BD000FF32134601E0002213461BEB070046EBF1
:100BE0000A51BDE8F04DFFF711BF70B58C1810F831
:100BF000015B15F0070301D110F8013B2A1106D162
:100C000010F8012B03E010F8016B01F8016B5B1E7B
:100C1000F9D12B0705D40023521E0DD401F8013B56
:100C2000FAE710F8013BCB1A921C03E013F8015BC2
:100C300001F8015B521EF9D5A142D8D3002070BD46
:100C400010B52DED028BB0EE408AB0EE480A0CF0E4
:100C5000D9F8BDEC028B10BD10B52DED028BB0EEB6
:100C6000408AF0EE608AF0EE680AB0EE480A0CF0B6
:100C70005FF9BDEC028B10BD10B52DED028BB0EE0F
:100C8000408AB0EE480AFFF7FDFABDEC028B10BDBA
:100C9000F0EE400AF5EEC00AF1EE10FA02DDB0EE19
:100CA000600A7047B1EE600AFBE7000018B19FEDE3
:100CB000020A80ED000A70470000000018B1B3EE90
:100CC000060A80ED000A704770B52DED0C8B84B0DC
:100CD00006460C4615469FED990AF0EE408A9FEDB8
:100CE000970AB0EE409A9FED950AF0EE40BA9FED5C
:100CF000930AF0EE409A9FED910AB0EE40AA0EB131
:100D000004B11DB904B0BDEC0C8B70BD8C48FFF76D
:100D1000CDFF8C48FFF7D2FF8A48D0ED000A9FED47
:100D20008A1A60EE810AB0EE600A00F02DF9F0EE4A
:100D3000408A28EEA80AF0EE408A8248D0ED000AE8
:100D4000B0EE001A60EE810A9FED7F1A60EE810A14
:100D5000B0EE600A00F018F9B0EE409A29EE090AE8
:100D6000B0EE409ADFED790AB7EE000A00EEA80A6D
:100D7000DFED770A00EEC90ADFED760A20EE200AE1
:100D8000754880ED000A6E4890ED000ADFED730AA9
:100D900080EE201AB7EE000A31EE000A20EE000ABB
:100DA0006D48D0ED000A80EE801A6D4880ED001A83
:100DB00094ED000AB5EEC00AF1EE10FA0DD194EDF3
:100DC000010AB5EEC00AF1EE10FA06D194ED020A5E
:100DD000B5EEC00AF1EE10FA46D09FED580AB0EE1B
:100DE000408A0020019002900390D4ED000A60EE4A
:100DF000A00A94ED011AD4ED011A41EE210A94EDF6
:100E0000021AD4ED021A41EE210AB0EE600A00F097
:100E1000A9F8B0EE408A94ED000A20EE080A8DEDA4
:100E2000010A94ED010A20EE080A8DED020A94ED04
:100E3000020A20EE080A8DED030ADDED010AF1EE4B
:100E4000600AB0EE600AFFF7FBFEF0EE409A9DEDFF
:100E5000031AF0EE410A9DED021AB0EE410AFFF7C7
:100E6000FBFEB0EE40AA07E09FED340AF0EE409A98
:100E70009FED320AB0EE40AA95ED000AB5EEC00A29
:100E8000F1EE10FA0DD195ED010AB5EEC00AF1EEC2
:100E900010FA06D195ED020AB5EEC00AF1EE10FA8D
:100EA0003CD0B0EE690A00F06FF8B0EE408AB0EEC8
:100EB000690AFFF7E1FEB0EE40DAB0EE4A0A00F050
:100EC00063F8F0EE40AAB0EE4A0AFFF7D5FEB0EEA6
:100ED00040BA28EE2A0AD5ED010A20EE200AD5ED07
:100EE000000A0DEE200A68EE0B0A95ED021A00EEDC
:100EF000810AB0EE40CA95ED010A20EE0B0AD5ED4D
:100F0000020A0AEEE00AF0EE40CAF0EE6C0AB0EE19
:100F10004C0AFFF7A1FEF0EE40BA03E09FED070A8E
:100F2000F0EE40BAB0EE4A1AF0EE690AB0EE6B0A83
:100F300030460DF059FF00BFE4E60000000000005D
:100F4000CC090020D009002035FA8E3CC1BFAD3B52
:100F50009DF8C5362F7C1C41D4090020506CC24A34
:100F6000D809002010B52DED028BB0EE408AB0EE0E
:100F7000480A0CF0F1FFB7EE001AC1EE000AB0EE1D
:100F8000600ABDEC028B10BD10B52DED028BB0EEEA
:100F9000408AB0EE480AFFF7B1F9BDEC028B10BDF4
:100FA0002DE9F0412DED028B9AB00546B0EE408A56
:100FB0000E461746984600201790189019901490E6
:100FC000159016904DB146B13FB1B8F1000F04D065
:100FD000B5EEC08AF1EE10FA05D100201AB0BDECD2
:100FE000028BBDE8F08196ED000A8DED170A96EDB3
:100FF000010A8DED180A96ED020A8DED190A97ED9A
:10100000000A8DED140A97ED010A8DED150A97ED92
:10101000020A8DED160A17AA14A928460DF036FD0E
:10102000402104A8FFF7F4F90020009001900290FD
:101030000390002417A904A812F0B8F800BF30E00C
:1010400004A800EB041090ED000AD5ED000A20EE94
:10105000200A04A800EB0410D0ED010A95ED011A56
:1010600000EE810A04A800EB0410D0ED020A95ED11
:10107000021A00EE810A04A800EB0410D0ED030A66
:1010800095ED031A00EE810A20EE080AF0EE000A40
:1010900080EE201A684600EB840080ED001A601C88
:1010A000C4B2042CCCDB002410E005EB840090EDEE
:1010B000000A684600EB8400D0ED000A30EE200AFA
:1010C00005EB840080ED000A601CC4B2042CECDB4C
:1010D000284611F0C3FC012080E7000010B5012272
:1010E0001021024802F099F810BD000000000240F3
:1010F00010B500221021024802F08FF810BD000048
:10110000000002407047000010B50122114602485D
:1011100002F083F810BD00000004024010B5002268
:101120000121024802F079F810BD000000040240DD
:1011300010B543781B021BB20478234300EE103A2B
:10114000B8EEC01A1C4BD3ED001A21EE211A81ED26
:10115000001AC3781B021BB28478234300EE103AB6
:10116000B8EEC01A144BD3ED001A21EE211A81ED0E
:10117000011A43791B021BB20479234300EE103A93
:10118000B8EEC01A0C4BD3ED001A21EE211A81EDF6
:10119000021A037A1B04C47943EA042384792343A3
:1011A00000EE903AB8EE601ADFED041A21EE211A33
:1011B00082ED001A10BD00001809002000401C42FA
:1011C000704710B5044620460FF028FD10BD10B53D
:1011D000044620460EF0B2FB10BD00004278120219
:1011E00012B203781A4300EE102AF8EEC00A144A2D
:1011F00092ED001A60EE810AC1ED000AC278120277
:1012000012B283781A4300EE102AF8EEC00A0C4A94
:1012100092ED001A60EE810AC1ED010A42791202D4
:1012200012B203791A4300EE102AF8EEC00A044AFB
:1012300092ED001A60EE810AC1ED020A70470000CB
:101240001C09002010B50024FFF75CFFFFF7B8FF72
:101250000DF01AFF10B144F0800402E00DF07AFEA8
:1012600004430EF009F910B144F0400402E00EF01E
:1012700089F80443204610BD2DE9FC4105460E4681
:101280001746002000900190FFF732FF922000F0F7
:10129000D1F806226946122000F0ACF8FFF71EFFD5
:1012A0009DF80100000200B29DF8001040EA010420
:1012B00000EE104AB8EEC00A4C48D0ED000A20EE0D
:1012C000200A86ED000A9DF80300000200B29DF896
:1012D000021040EA010400EE104AB8EEC00A43488A
:1012E000D0ED000A20EE200A86ED010A9DF80500E7
:1012F000000200B29DF8041040EA010400EE104A1A
:10130000B8EEC00A3948D0ED000A20EE200A86ED7A
:10131000020AFFF703FF08226946002000F06AF87E
:10132000FFF7F2FE9DF800000F2838D19DF803006A
:10133000000200B29DF8021040EA010400EE104ADB
:10134000B8EEC00A2A48D0ED000A20EE200A85ED4A
:10135000000A9DF80500000200B29DF8041040EA62
:10136000010400EE104AB8EEC00A2148D0ED000A90
:1013700020EE200A85ED010A9DF80700000200B268
:101380009DF8061040EA010400EE104AB8EEC00ACB
:101390001748D0ED000A20EE200A85ED020AFFF77B
:1013A000A7FEA22000F046F802226946222000F0A3
:1013B00021F8FFF793FE9DF80000C0009DF8011092
:1013C00040EA6114B4F5806F02DBA4F5006004B25A
:1013D00000EE104AF8EEC00AB4EE001AB3EE070AA7
:1013E00000EE810A87ED000ABDE8FC8118090020A3
:1013F0001C09002070B506460C46154646F08000D4
:1014000000F018F806E0552000F014F82070641C75
:10141000681EC5B2002DF6D170BD70B504460D46EC
:1014200044F0800000F006F8552000F003F8287022
:1014300070BD000001B582B04FF47A70012301AA9B
:1014400002A90090024803F04DFD9DF804000EBD76
:101450003C12002010B502461378DB00547843EAB2
:101460006410B0F5806F02DBA0F5006318B200EEE7
:10147000100AF8EEC00AB4EE001AB3EE070A00EE46
:10148000810A81ED000A10BD70B505460C4628465C
:10149000FFF7D0FF2046FFF7CDFF70BD00BFFEE78E
:1014A00010B5024800F071FD10BD00009010002042
:1014B00010B5024800F069FD10BD0000B810002012
:1014C000F8B507460C4615461E4640F2FF100D497A
:1014D000086000208860C86008200861380A0A494E
:1014E00008704F70200A8870CC70280A08714D71FE
:1014F000300A8871CE716B460A460249034800F0F3
:1015000077FBF8BD84370020EE010020B8100020E2
:101510000346042B15D007DC7BB1012B0ED0022B28
:101520000DD0032B12D10BE0202B0BD0212B0AD096
:10153000222B09D0232B09D107E008E007E006E0C1
:1015400005E004E003E002E001E000E000BF00BFCE
:10155000002070470020704710B50022044905485C
:1015600009F0A6FD0449034809F097FD002010BDCD
:10157000D0290020D8160020D021002070B50546C3
:101580000C461E480068216808441C49086008464B
:101590000068B0F5006F11D208460068401E184977
:1015A000085C0A280AD0154800680A4681181548C0
:1015B00009F073FD134809F04BFD02E001200F49CB
:1015C00048600E484068012815D10C480D4A016852
:1015D0000B4811F029FE00200849086048604FF4CC
:1015E00000610748FEF714FF0549064809F055FD5C
:1015F000044809F02DFD002070BD00007C00002093
:10160000D0210020D816002010B503460C4600213A
:10161000084610BD2DE9F04104460D4600260A4853
:10162000D0F8BC72D7F8140210B10120BDE8F081E7
:101630002A462146044809F03BFD034809F0D4FD41
:1016400006463046F2E70000D816002010B50248E2
:1016500001F0F2F910BD0000B81500201B484068E9
:1016600000F0006080B31A48406B00681949884256
:1016700005D94FF0006017494C3908601CE0144848
:10168000406B00681149B831884205D94FF00060BD
:101690001049503908600FE00D48406B00680B4955
:1016A0005831884204D94FF000600849C86003E00F
:1016B0004FF000600549886005480068006840F404
:1016C000007003490968086070470000006002402C
:1016D000341100205864024010B5024801F0ACF902
:1016E00010BD00001816002010B52C48006800F44A
:1016F0000010002850D04FF0F460284908310860ED
:101700002748007800F0020078B12548007820F0E2
:101710000200234908700846007840F00400087071
:10172000012211461F4801F078FD1F48007800F0A3
:10173000020078B11C48007820F002001A490870B5
:101740000846007840F00400087001221021174874
:1017500001F063FD1648007800F0020078B11448EB
:10176000007820F00200124908700846007840F026
:1017700004000870012210210C4801F04EFD0EF00B
:1017800039FF0748007800F0040028B109480068D4
:1017900040F001000749086010BD000000640240ED
:1017A000E902002000040240EA020020000002409A
:1017B000EB020020103C014010B5024801F03CF95A
:1017C00010BD00005815002010B5024801F034F992
:1017D00010BD00007816002010B5024801F02CF969
:1017E00010BD0000F814002001680A4BCAB2103A7C
:1017F000A3FB02321209084B9B5CC365032A04D980
:101800006FF30901091D816502E06FF3090181652C
:10181000806D7047ABAAAAAAA7480108014600201C
:101820008A6A8B69002B0FD0B3F5005F1DD08AB395
:10183000012A30D0022A2ED0032A04D1C96A11F01D
:10184000807F00D0012070471AB1012A07D0022AF8
:10185000F9D1C96A11F0807FF5D001207047C96ABB
:10186000B1F1C07FFAD1012070475AB1012A0BD0E3
:10187000022A07D0032AF7D1C96AB1F1C07FF3D198
:101880000120704701207047C96A11F0807FFAD0AB
:1018900001207047FFE70120704710B4D0F800C066
:1018A000DCF8004024F48024CCF80040D0F800C0DC
:1018B000CCF804308368402B05D003689960006839
:1018C000C26010BC704703689A600068C16010BCB9
:1018D0007047704710B5012001F074FB10BD10B5C2
:1018E000082001F06FFB10BD10B5102001F06AFB5D
:1018F00010BD10B5202001F065FB10BD7047000041
:101900000022002905D001291AD002291BD04FF44A
:1019100040720E490B6823F440730B600B681A4346
:101920000A600A6822F0F8020A600A68022343EAA1
:10193000C00010430860086840F4803008607047B9
:101940004FF48072E5E74FF40072E2E7103C02408A
:101950001448016811F4007F0FD0016821F4007170
:101960000160016841F400610160016821F40061D7
:101970000160016841F400710160016811F4806F39
:101980000FD0016821F480610160016841F4805149
:101990000160016821F480510160016841F48061B7
:1019A00001607047003C024008490A6822F4407216
:1019B0000A600A6842F004020A600A684FF4803341
:1019C00043EA00201043086070470000103C0240CA
:1019D000064A136823F44073136013681360136896
:1019E00043F001031360017070470000103C024097
:1019F0000B49D1F800C02CF4407CC1F800C0D1F8EC
:101A000000C04CF4407CC1F800C0D1F800C04CF0DC
:101A1000010CC1F800C00260BFF36F8F43607047D4
:101A2000103C0240074A136823F4407313601368A4
:101A300043F480731360136843F001031360018063
:101A400070470000103C0240074A136823F44073BB
:101A50001360136843F400731360136843F00103C9
:101A60001360016070470000103C02401A4908688A
:101A700010F0100F194805D0C26942F01002C2617F
:101A800010220A600A6812F0200F05D0C26942F0E5
:101A90000802C26120220A600A6812F0400F05D0D5
:101AA000C26942F00402C26140220A600A6812F070
:101AB000800F05D0C26942F00202C26180220A6032
:101AC0000A6812F0020F05D0C26942F02002C2611A
:101AD00002200860704700000C3C0240A853002020
:101AE00070B5044614490020C86101F09DFB06460C
:101AF000124D286810F4803F0ED0B4F1FF3F07D09C
:101B000024B101F091FB801BA04201D9032070BDDC
:101B1000286810F4803FF0D1286810F0010F01D040
:101B200001202860286810F0F20F03D0FFF79EFF15
:101B3000012070BD002070BDA85300200C3C024065
:101B400030B5034613B94FF6FF7030BD09E013F806
:101B5000014B82EA0400C0B2054D35F8100080EA5E
:101B60002222081EA1F10101F1D11046EDE700008B
:101B70008246010830B5034605E013F8010B80EA00
:101B800002040448025D081EA1F10101F5D11046CE
:101B900030BD00008145010870B50A480468001D89
:101BA0000568001D0668344454B1082206492046E1
:101BB00004F09CFE042204491031284604F096FEED
:101BC00070BD0000107AFF1F6200002090F82020F6
:101BD000012A07D0022A05D0416A41F480214162DE
:101BE000012070470068426911434161002070473D
:101BF00070B490F82040D0F800C0DCF808C0012C88
:101C000008D0022C06D0416A41F48021416270BCA8
:101C1000012070470CF080640CF000652C4302D169
:101C20001CF0805F5FD0CCF3016CBCF1020F06D9D1
:101C3000416A41F40001416270BC012070470124F7
:101C400004FA0CF41C608B684FF4C0749BB1CD682F
:101C500004EB0C162B434D6843EAC5030568AB51F2
:101C60004FF4C273066803EB0C130D69F550097D40
:101C7000012909D00DE00D88CB6804EB0C1643EA6E
:101C800045530568AB51EBE70168CD5845F48075C5
:101C9000CD501179D379557941EA036193791B04C9
:101CA00043EA052319434FF4C675036805EB0C1589
:101CB00059511178D37841EA0361937852781B0423
:101CC00043EA022211434FF4C473026803EB0C137E
:101CD000D150016804EB0C100A5842F001020A507E
:101CE00070BC00207047416A41F40011416270BC31
:101CF0000120704790F82020012A07D0022A05D041
:101D0000416A41F480214162012070474248D0F885
:101D1000002242F00102C0F80022D0F8002222F492
:101D20007C52C0F80022D0F800224B6A42EA03221B
:101D3000C0F800220A7D012302F01F0203FA02F21A
:101D4000D0F81C329343C0F81C32CB69D3B9D0F819
:101D50000C329343C0F80C32B1F80CC04B686CF3F2
:101D60001F43D1F814C000EBCC0CCCF84032B1F8D2
:101D700008C00B686CF31F43D1F814C000EBCC0C07
:101D8000CCF84432CB69012B1AD1D0F80C32134372
:101D9000C0F80C32B1F800C04B686CF31F43D1F8A7
:101DA00014C000EBCC0CCCF84032B1F808C0CB68C2
:101DB0006CF31F43D1F814C000EBCC0CCCF84432C8
:101DC0008B697BB1D0F804321343C0F804320B693D
:101DD00073B1D0F814321343C0F81432096A0129E0
:101DE0000CD010E0D0F804329343C0F80432EEE790
:101DF000D0F814329343C0F81432EFE7D0F81C1235
:101E00001143C0F81C12D0F8001221F00101C0F8F3
:101E1000001200207047000000640040704710B4BA
:101E200090F820C0BCF1010F09D0BCF1020F06D020
:101E3000416A41F48021416210BC0120704739B1F0
:101E4000D0F800C0DCF810C01CF0030F7DD006E015
:101E5000D0F800C0DCF80CC01CF0030F7BD04FF4AE
:101E6000D87C04680CEB011C54F80C4004F004040A
:101E70009460002C7DD0046854F80C40E408546051
:101E8000046854F80CC00CF0020CC2F80CC04FF4FB
:101E9000DA7C04680CEB011C54F80C4004F00F04CD
:101EA0001461046854F80C40C4F307249461046876
:101EB00054F80CC04FEA1C4CC2F814C04FF4DC724A
:101EC000D0F800C002EB01125CF802C083F800C039
:101ED000D0F800C05CF802C04FEA1C2C83F801C0A7
:101EE000D0F800C05CF802C04FEA1C4C83F802C076
:101EF000D0F800C05CF80220120EDA704FF4DE72E7
:101F0000D0F800C002EB01125CF802C083F804C0F4
:101F1000D0F800C05CF802C04FEA1C2C83F805C062
:101F2000D0F800C05CF802C04FEA1C4C83F806C031
:101F3000D0F800C05CF80220120EDA71F9B1006826
:101F4000016941F02001016102E00BE003E010E0D3
:101F500010BC00207047416A41F40011416210BC7E
:101F600001207047416A41F40011416210BC012018
:101F70007047046854F80C40640D146080E70068F2
:101F8000C16841F02001C160DEE72DE9F05F054640
:101F9000002428684669D0F804908768D0F80CA01F
:101FA000D0F810B0D0F8188016F0010F54D017F008
:101FB000010F17D00121816017F0020F03D02846CE
:101FC00000F0A4FC0EE017F0040F02D04FF4006400
:101FD00008E017F0080F02D04FF4805402E02846C2
:101FE00000F093FC17F4807F19D029684FF48070BB
:101FF000886017F4007F03D0284600F089FC0EE0CB
:1020000017F4806F02D044F4005408E017F4006F16
:1020100002D044F4804402E0284600F078FC17F433
:10202000803F19D029684FF48030886017F4003F52
:1020300003D0284600F06EFC0EE017F4802F02D08B
:1020400044F4004408E017F4002F02D044F4803434
:1020500002E0284600F05DFC16F0080F07D01AF0E9
:10206000100F04D044F4007429681020C86016F0E2
:10207000040F4FF0080707D01AF0080F04D02868A3
:10208000C760284600F000FA16F0020F07D0286853
:10209000C06810F0030F02D0284600F0F7F916F0E0
:1020A000400F07D01BF0100F04D044F4806429685F
:1020B0001020086116F0200F07D01BF0080F04D085
:1020C00028680761284600F0EBFB16F0100F07D0D8
:1020D0002868006910F0030F02D0284600F0E1FBE9
:1020E00016F4003F08D019F0100F05D02968102011
:1020F0004860284600F0D6FB16F4803F07D019F060
:10210000080F04D028684760284600F004FC16F445
:10211000004F4AD019F0040F44D016F4807F04D049
:1021200018F0010F01D044F0010416F4007F04D030
:1021300018F0020F01D044F0020416F4806F04D0AE
:1021400018F0040F01D044F0040416F4006F29D0F5
:1021500018F0700F26D008F07000402815D006DC6B
:10216000102809D020280AD0302816D10AE050289B
:102170000ED0602811D10EE044F008040DE044F0C8
:1021800010040AE044F0200407E044F0400404E0B6
:1021900044F0800401E044F480742868816921F0EF
:1021A00070018161296804204860002C05D0686AAC
:1021B000204368622846FFF731FEBDE8F09F70B506
:1021C0000446002C03D094F8200010B104E0012054
:1021D00070BD204600F0A8F82068016821F00201D7
:1021E000016001F021F80546206840684FF00506BF
:1021F00010F0020F11D001F017F8401B0A2807D980
:10220000606A40F40030606284F82060012070BD94
:102210002068406810F0020FEDD12068016841F09D
:102220000101016001F000F805462068406810F0E7
:10223000010F11D100F0F8FF401B0A2807D9606A8E
:1022400040F40030606284F82060012070BD206896
:10225000406810F0010FEDD0207E01283FD02068AB
:10226000016821F080010160607E01283DD0206876
:10227000016821F040010160A07E01283BD0206868
:10228000016821F020010160E07E012839D020683A
:10229000016841F010010160207F012837D02068DB
:1022A000016821F008010160607F012835D02068B5
:1022B000016821F004010160E168A06862690843D7
:1022C0002169114308436168491E08432168C861B8
:1022D00000206062012084F82000002070BD20688A
:1022E000016841F080010160BEE72068016841F0AB
:1022F00040010160C0E72068016841F020010160F1
:10230000C2E72068016821F010010160C4E720687D
:10231000016841F008010160C6E72068016841F0EA
:1023200004010160C8E7000010B586B0044614211E
:1023300001A8FEF76DF84E492068884241D14D480A
:102340000068401C4B4908600846006801280FD10E
:1023500000BF002000904848006840F000704649E7
:1023600008600846006800F00070009000BF00BFE1
:1023700000BF0020009040481038006840F008007E
:102380003D49103908600846006800F008000090D8
:1023900000BF00BF032001900220029000200390A4
:1023A000032004900920059001A9344800F016FE8E
:1023B00000220521142001F0C7FB142001F0B6FB18
:1023C00054E02F492068884250D100BF002000907F
:1023D0002948006840F08060274908600846006886
:1023E00000F08060009000BF00BF22480068401CE1
:1023F000204908600846006801280FD100BF00206E
:1024000000901D48006840F000701B4908600846B5
:10241000006800F00070009000BF00BF00BF002007
:10242000009015481038006840F002001249103939
:1024300008600846006800F00200009000BF00BF7E
:10244000602001900220029000200390032004905D
:102450000920059001A90B4800F0C0FD00220521CC
:10246000402001F071FB402001F060FB06B010BD80
:10247000006400402000002040380240000C024070
:1024800000680040000402407047000010B592B0A0
:102490000446FA492068884205D109AB0BAA0021FD
:1024A000F748FFF7BCFCF7492068884205D16B4626
:1024B00002AA0021F448FFF7B2FC40F205220B9873
:1024C000811A90427AD009DCA0F2012068B101287B
:1024D0002ED002284FD0032871D173E001296FD08C
:1024E00002296ED00C29F7D192E0E848008800B2AA
:1024F000E64908819DF825009DF8241040EA012056
:10250000E24908809DF827009DF8261040EA012046
:1025100000B2DE4948809DF829009DF8281040EA65
:10252000012000B2D94988809DF82A00C880A9E01E
:10253000D648408901B2D54841829DF825009DF8D2
:10254000241040EA0120D14948819DF827009DF8D8
:10255000261040EA012001B2CC4881819DF8290073
:102560009DF8281040EA012001B2C848C1819DF8B9
:102570002A10018286E0C548808A01B2C34881835F
:102580009DF825009DF8241040EA0120BF4988826B
:102590009DF827009DF8261040EA012001B2BB48B3
:1025A000C1829DF829009DF8281040EA012001B25F
:1025B000B64801839DF82A10418363E025E060E07E
:1025C00024E024E0B148C08B01B2B048C1849DF83A
:1025D00025009DF8241040EA0120AC49C8839DF8ED
:1025E00027009DF8261040EA012001B2A748018487
:1025F0009DF829009DF8281040EA012001B2A34867
:1026000041849DF82A1081843CE000BF00BF00BFD8
:1026100009A8418800EE101AB8EE400ADFED9C0AC6
:1026200080EE201ABCEEC10A10EE101A994A1180F1
:10263000018800EE101AB8EE400ADFED970A80EE2E
:10264000201ABDEEC10A10EE101A09B2518081881D
:1026500000EE101AB8EE400ABDEEC00A10EE101AD5
:1026600009B29180C18800EE101AB8EE400ADFED81
:10267000880A80EE201ABCEEC10A10EE101A917181
:1026800000E000BF00BF0298A0F2022006287DD221
:10269000DFE800F0032C5580A3C67C48B0F85A0050
:1026A00001B27A48A0F862109DF801009DF8001070
:1026B00040EA01207549A1F85A009DF803009DF8F1
:1026C000021040EA012001B27048A0F85C109DF8A9
:1026D00005009DF8041040EA012001B26B48A0F803
:1026E0005E109DF80610A0F86010C0E06748B0F8D2
:1026F000460001B26548A0F84E109DF801009DF813
:10270000001040EA01206149A1F846009DF803004D
:102710009DF8021040EA012001B25C48A0F8481080
:102720009DF805009DF8041040EA012001B25748C9
:10273000A0F84A109DF80610A0F84C1097E05348F6
:10274000B0F8500001B25148A0F858109DF80100AF
:102750009DF8001040EA01204C49A1F850009DF876
:1027600003009DF8021040EA012001B24748A0F89A
:1027700052109DF805009DF8041040EA012001B2B6
:102780004248A0F854109DF8061000E06EE0A0F852
:1027900056106CE03D48008D01B23C4801869DF822
:1027A00001009DF8001040EA0120384908859DF895
:1027B00003009DF8021040EA012001B23348418530
:1027C0009DF805009DF8041040EA012001B22F4851
:1027D00081859DF80610C18549E02C48408E01B2E4
:1027E0002A4841879DF801009DF8001040EA012029
:1027F000264948869DF803009DF8021040EA012012
:1028000001B2224881869DF805009DF8041040EA37
:10281000012001B21D48C1869DF80610018700BF46
:102820001A48808F01B21948A0F844109DF80100A1
:102830009DF8001040EA0120144988879DF80300A4
:102840009DF8021040EA012001B21048C1879DF8AE
:1028500005009DF8041040EA012001B20B48A0F8E1
:1028600040109DF80610A0F8421000E000BF00BF25
:102870000A4804F0D1FC12B010BD00000064004012
:102880009010002000680040B81000202037002081
:102890000000C842E401002000007A449C020020AD
:1028A00070477047704770B5044694F820000128BF
:1028B00005D0606A40F400206062012070BD0220F3
:1028C00084F820002068016821F00101016000F017
:1028D000ABFC05462068406810F0010F12D000F0F4
:1028E000A3FC401B0A2808D9606A40F400306062EB
:1028F000052084F82000012070BD2068406810F099
:10290000010FECD10020606270BD704770477047C6
:10291000704770477047704710B50446002C02D0CE
:10292000607910B106E0012010BD00202071204622
:1029300000F004F801206071002010BD08B50A4ABB
:10294000016891420FD100BF002100910749096839
:1029500041F48051054A11601146096801F4805123
:10296000009100BF00BF08BD003002403038024077
:102970002DE9F0410446A66D00F056FC054694F89A
:1029800035000027022806D08020606584F8347066
:102990000120BDE8F0812068016821F01601016086
:1029A0002068416921F080014161206C08B9A06C68
:1029B00020B12068016821F00801016020680168E9
:1029C00021F0010101602068006810F0010F12D0B1
:1029D00000F02AFC401B052808D92020606584F8F7
:1029E0003470032084F83500BDE8F0812068006869
:1029F00010F0010FECD194F85C003F2101FA00F0D7
:102A0000B06084F83470012084F835000020BDE8FF
:102A1000F08190F83510022903D080214165012012
:102A20007047052180F835100068016821F0010128
:102A300001600020704700002DE9F84304464FF084
:102A40000008CDF8008076484FF416510068B0FBBE
:102A5000F1F7A56D2E6894F85C00082101FA00F0EA
:102A6000304211D02068026812F0040F0CD00268C6
:102A700022F00402026094F85C0001FA00F0A86001
:102A8000606D40F00100606594F85C004FF0010952
:102A900009FA00F0304209D02168496911F0800F2D
:102AA00004D0A860606D40F00200606594F85C108E
:102AB00004208840304209D02168096811F0020FD3
:102AC00004D0A860606D40F00400606594F85C106C
:102AD00010208840304224D02168096811F0080F86
:102AE0001FD0A8602068016811F4802F0DD0006805
:102AF00010F4002F04D0A16C99B12046884710E053
:102B0000216C71B1204688470BE0016811F4807F89
:102B100003D1016821F008010160216C09B1204650
:102B2000884794F85C1020208840304251D02168BA
:102B3000096811F0100F4CD0A86094F835000528F2
:102B40000DD02068016811F4802F32D0006810F495
:102B5000002F29D0E16B59B32046884739E020681F
:102B6000016821F0160101602068416921F08001AF
:102B70004161206C08B9A06C20B12068016821F087
:102B80000801016094F85C003F2101FA00F0A860A0
:102B900084F8348084F83590216D00293ED001B04E
:102BA0002046BDE8F0430847616C09B120468847DC
:102BB0000FE0016811F4807F07D1016821F0100156
:102BC000016084F8348084F83590E16B09B12046C7
:102BD0008847606D002821D0606D10F0010F15D07E
:102BE000052084F835002068016821F001010160AA
:102BF0000098401C0090B84204D82068006810F08B
:102C0000010FF5D184F8348084F83590E16C002907
:102C100004D001B02046BDE8F0430847BDE8F88382
:102C2000980000202DE9F041044600F0FDFA054629
:102C3000DCB1002684F83460022084F83500206876
:102C4000016821F0010101602068006810F0010FA7
:102C500013D000F0E9FA401B052809D9202060654F
:102C6000032084F83500BDE8F0810120BDE8F08143
:102C70002068006810F0010FEBD121680868234A32
:102C80001040A3686268D4F810C01A43E36843EAAE
:102C90000C031A4363691A43A3691A43E3691A438D
:102CA000236A1A431043626A042A03D1236BE26A3F
:102CB0001A43104308602068406920F00701606AE9
:102CC00040EA0105012704280ED1A06A0543E06A05
:102CD00050B12046FEF7A2FD30B14020606584F877
:102CE00035700120BDE8F081206845612046FEF77F
:102CF0007BFD94F85C103F2202FA01F18160666569
:102D000084F835700020BDE8F08100003F8010F0AD
:102D100070B504460025A66D94F8340001280DD046
:102D2000012084F8340094F835C00020BCF1010F74
:102D300006D084F834000225284670BD022070BDFC
:102D40004FF0020C84F835C060652046FEF7A5FD03
:102D500094F85C003F2101FA00F0B060206801683F
:102D600041F016010160206C20B12068016841F03B
:102D7000080101602068016841F001010160DBE7A2
:102D800070B5044600F050FA0546B4F1FF3F02D09A
:102D900004480078044400F047FA401BA042FAD3EC
:102DA00070BD0000440900202DE9F04104460F46A3
:102DB000DFF8988098F8180001280AD0012088F8D8
:102DC00018004CF25030FEF78BFE0246100003D084
:102DD00035E00220BDE8F0814FF0FF303860206818
:102DE0001B4E012815D0A568E0682844A84224D9C4
:102DF000217C2846FEF784FD4CF25030FEF770FE31
:102E00000246306820F0FA00306010000FD03D60BC
:102E100013E0207C6168FEF7C7FD4CF25030FEF7EE
:102E20005FFE0246306820F00400306005E06D1C53
:102E3000A168E0680844A842DAD8FEF789FD0020BE
:102E400088F818001046BDE8F0810000A853002063
:102E5000103C02400348016841F00041016000203D
:102E600070470000103C02402DE9F04106468846BC
:102E700014461D461A4F387E012807D001203876A7
:102E80004CF25030FEF72CFE18B115E00220BDE8E0
:102E9000F081AEB1012E18D0022E1BD022462B4657
:102EA0004046FEF7A5FD4CF25030FEF719FE0D49E5
:102EB0000A6822F001020A6000213976BDE8F0813B
:102EC000E1B24046FEF784FDEDE7A1B24046FEF7D1
:102ED000A9FDE8E721464046FEF7B6FDE3E700001E
:102EE000A8530020103C0240002008490A6812F054
:102EF000004F09D0074A064B1360074B136009685F
:102F000011F0004F00D0012070470000103C02403B
:102F100023016745043C0240AB89EFCD10B5044660
:102F2000102C11D11F48007840F001001D49087095
:102F30001D48007840F001001B4908701B480078CC
:102F400070B30DF057FB2BE0202C0BD11848007804
:102F500040F00100164908701448007800B30DF0E5
:102F600049FB1DE0082C06D11248007840F0010012
:102F70001049087014E0012C12D111F09DF80128BD
:102F80000ED00D490D48006810F09EFB0A480068FD
:102F900030B120070A490860BFF34F8FBFF36F8F2E
:102FA00010BD0000EA020020EB020020ED0200202C
:102FB000E9020020EC02002060030020C40200208F
:102FC00004ED00E010B504490A68024202D008602E
:102FD000FFF7A4FF10BD0000143C01402DE9F84F9D
:102FE0000022DFF81492DFF814A2DFF814B24FF0D9
:102FF000010E03274FF00F080EFA02FC0B6803EADC
:103000000C0363457DD10C7904F00304012C01D03D
:10301000022C14D18568540007FA04F6B543CE6833
:1030200006FA04F42C438460446824EA0C0C0C79FE
:10303000C4F30014944044EA0C0CC0F804C0D1F866
:1030400004C037EA0C0C0CD0C4684FEA420C07FAF3
:103050000CF5AC438D6805FA0CFC4CEA040CC0F886
:103060000CC091F804C00CF0030CBCF1020F12D19B
:103070004FEAD20C00EB8C04256A4FEA427C4FEAFF
:10308000DC6C08FA0CF6B5430E6906FA0CFC4CEA47
:10309000050CC4F820C004684FEA420C07FA0CF58E
:1030A000AC430D7905F0030505FA0CFC4CEA040C61
:1030B000C0F800C0D1F804C01CF0805F7DD0D9F802
:1030C00000C04CF4804CC9F800C0D9F800C00CF422
:1030D000804CCDF800C022F0030C0CF1804505F5C2
:1030E0009835D5F808C89407240F08FA04F62CEA96
:1030F0000606A0F1804CBCF5003C64D0A0F1804CE9
:1031000000E05AE0BCF5013C60D0A0F1804CBCF579
:10311000023C5ED0A0F1804CBCF5033C5CD0A0F139
:10312000804CBCF5043C5AD0A0F1804CBCF5053C69
:1031300058D0A0F1804CBCF5063C56D0A0F1804C94
:10314000BCF5073C54D04FF0080C0CFA04FC4CEAD8
:10315000060CC5F808C8DAF800C02CEA030C4C6865
:1031600014F4803F01D04CEA030CCAF800C0254C8F
:10317000D4F800C02CEA030C4D6815F4003F01D0D0
:103180004CEA030CC4F800C0DBF800C02CEA030CC6
:103190004C6814F4801F01D04CEA030CCBF800C03B
:1031A000194CD4F800C02CEA030C4D6815F4001F2C
:1031B00001D04CEA030CC4F800C0521C102AFFF4E2
:1031C0001BAFBDE8F88F4FF0000CBEE74FF0010CCD
:1031D000BBE74FF0020CB8E74FF0030CB5E74FF038
:1031E000040CB2E74FF0050CAFE74FF0060CACE76C
:1031F0004FF0070CA9E7000044380240003C0140B2
:10320000083C0140043C01400C3C0140006908427C
:1032100001D00120704700207047002A01D0816151
:103220007047090481617047014880687047000059
:103230004409002070B50446002C04D094F83D00E9
:10324000002510B106E0012070BD84F83C502046F6
:1032500000F0E0FA242084F83D002068016821F0A5
:10326000010101602068016841F4004101602068AB
:10327000016821F40041016001F090FA544B61684B
:10328000994203D85349884203D304E05249884203
:1032900001D2012070BD5149B0FBF1F12268D2F892
:1032A00004C02CF03F0C4CEA010CC2F804C0626868
:1032B0009A4201D84A1C07E04FF4967251434FF4EA
:1032C0007A72B1FBF2F14A1C2168D1F820C02CF0CF
:1032D0003F0C42EA0C020A626168994210D8490028
:1032E000401EB0FBF1F2521CC2F30B02042A01D2C1
:1032F000042026E0B0FBF1F0401CC0F30B0020E0FE
:10330000A268002A50D001EBC10303EB0113A0F126
:10331000010CBCFBF3F35B1C43F480431B051B0D4A
:103320004AD0002A4AD001EBC10202EB0111401E33
:10333000B0FBF1F0401CC0F30B0040F4804040F4BF
:1033400000402168CA6922F0FF0222F44F42104374
:10335000C861216AE06901432068026822F0C00266
:1033600011430160E168206901432068826822F00E
:10337000FF0222F4034211438160A16960690143A5
:103380002068C26822F0FF021143C1602068016812
:1033900041F0010101602564202084F83D0025638F
:1033A00084F83E50002070BD01EB4103A0F1010CF8
:1033B000BCFBF3F35B1CB1E70120C2E701EB410169
:1033C000401EB0FBF1F0401CC0F30B00B7E700005B
:1033D000A086010080841E0000093D0040420F00CD
:1033E0002DE9FF4F83B004468A469346DDF84490AA
:1033F000DDF84080129EFFF717FF054694F83D0068
:10340000202803D007B00220BDE8F08F1923012245
:10341000A0492046009502F01DFF18B107B0022018
:10342000BDE8F08F94F83C00012808D0012084F812
:103430003C002068016811F0010F04D007E007B0DC
:103440000220BDE8F08F016841F0010101602068B1
:10345000016821F400610160222084F83D004020D1
:1034600084F83E0000272764C4F82480A4F82A903A
:10347000608D20858848E062019500965A46514645
:103480002046069B02F0A6FD18B107B00120BDE85A
:10349000F08F208D10B3012829D0022835D0206864
:1034A000416980690290208D002800F0E880DFF8F3
:1034B000EC81208D032800F2B780012834D0022847
:1034C0004AD03346002241462046009502F0C2FE13
:1034D00000286CD007B00120BDE8F08F206841695A
:1034E00081690291016841F400710160DBE72068A5
:1034F000016821F48061016020684169816902915D
:10350000016841F400710160CDE72068016821F491
:10351000806101602068016841F4006101602068F9
:10352000416980690290BEE72A463146204602F092
:1035300052FF18B107B00120BDE8F08F2068006984
:10354000616A0870606A401C6062208D401E2085A0
:10355000608D401E60858EE0334600224146204645
:10356000009502F077FE18B107B00120BDE8F08F9A
:103570002068016841F40071016020680069616A97
:103580000870606A401C6062218D491E2185618D32
:10359000491E6185216809690170606A401C60628A
:1035A000208D401E2085608D401E608563E0206870
:1035B000016821F48061016020680069616A087017
:1035C000606A401C6062208D401E2085608D401E18
:1035D00060853346002241462046009502F03AFEBF
:1035E00018B107B00120BDE8F08F2068016841F4F0
:1035F0000071016020680069616A0870606A401C9F
:103600006062218D491E2185618D491E6185216879
:1036100009690170606A401C6062208D401E20852F
:10362000608D401E608526E02A463146204602F025
:10363000D2FE18B107B00120BDE8F08F2068006904
:10364000616A0870606A401C6062218D491E218594
:10365000618D491E61852268516911F0040F0AD0FD
:1036600011690170606A401C6062208D401E2085D7
:10367000608D401E6085208D00287FF41AAF2020C9
:1036800084F83D0084F83E7084F83C7007B0002058
:10369000BDE8F08F020010000000FFFF04000100F1
:1036A0002DE9FF4F83B004468A469346DDF84490E7
:1036B000DDF84080129EFFF7B7FD054694F83D0007
:1036C000202803D007B00220BDE8F08F1923012283
:1036D0004E492046009502F0BDFD18B107B002200A
:1036E000BDE8F08F94F83C00012808D0012084F850
:1036F0003C002068016811F0010F04D007E007B01A
:103700000220BDE8F08F016841F0010101602068EE
:10371000016821F400610160212084F83D0040200F
:1037200084F83E0000272764C4F82480A4F82A9077
:10373000608D20853648E062019500965A465146D4
:103740002046069B02F0F0FC18B107B00120BDE84E
:10375000F08F208D002836D02A463146204602F0D0
:1037600078FE58B1206C042804D12068016841F427
:103770000071016007B00120BDE8F08F606A216828
:1037800000780861606A00F1010CC4F824C0208D43
:10379000401E80B22085618D491E6185236859696C
:1037A00011F0040F0CD058B19CF800001861606A49
:1037B000401C6062208D401E2085608D401E60850B
:1037C000208D0028C8D12A463146204602F014FD3B
:1037D00058B1206C042804D12068016841F40071BC
:1037E000016007B00120BDE8F08F2068016841F456
:1037F00000710160202084F83D0084F83E7084F858
:103800003C7007B00020BDE8F08F000002001000FF
:103810000000FFFF10B586B00446142101A8FCF794
:10382000F7FD6F492068884230D100BF002000902A
:103830006C48006840F002006A4908600846006869
:1038400000F00200009000BF00BF4FF440700190F4
:103850001220029001200390032004900420059080
:1038600001A96148FFF7BAFB00BF002000905D4846
:103870001030006840F400105A49103108600846C2
:10388000006800F40010009000BFA6E057492068CF
:10389000884250D100BF002000905248006840F09C
:1038A0002000504908600846006800F020000090A1
:1038B00000BF00BF0320019012200290012003905E
:1038C000032004900420059001A94948FFF786FBD6
:1038D00000BF0020009043481030006840F4800092
:1038E0004049103108600846006800F480000090EC
:1038F00000BF00BF3F48404908604FF0606048602B
:1039000040213D4881600021C1604FF48061016128
:10391000002141618161C1614FF4003101620021E8
:103920004162FFF77FF908B1FDF7E8FF00BF3248B9
:103930006063846351E03149206888424DD100BF03
:10394000002000902748006840F0040025490860E6
:103950000846006800F00400009000BF00BF00BFF0
:10396000002000900846006840F00100086008460A
:10397000006800F00100009000BF00BF48150190F2
:10398000122002900120039003200490042005904F
:1039900001A91B48FFF722FB4FF480700190122011
:1039A000029001200390032004900420059001A9B7
:1039B0001448FFF713FB00BF0020009009481030A7
:1039C000006840F4000007491031086008460068AC
:1039D00000F40000009000BF00BF06B010BD000062
:1039E00000540040303802400004024000580040BB
:1039F00000140240B8600240DC110020005C00406E
:103A00000008024000000240024881680278114428
:103A1000816070474409002010B50B48016841F4EB
:103A200000710160016841F480610160016841F446
:103A300080710160032000F0BBF80F2000F006F851
:103A400000F04AF8002010BD003C024070B588B07C
:103A5000044600250026002221462D2000F074F89F
:103A60002D2000F063F800BF002001901648006888
:103A700040F48070144908600846006800F48070C3
:103A8000019000BF00BF02A903A800F063FE00F090
:103A900085FE45000D48B5FBF0F0461E0C480D496B
:103AA000086040F2E7310B48C160466000210161C7
:103AB000816001F095FB20B9064801F031FC08B0A7
:103AC00070BD0120FBE700004038024040420F007B
:103AD00000200040D031002008B500BF0020009039
:103AE0001148006840F480400F49086008460068AB
:103AF00000F48040009000BF00BF00BF0020009095
:103B0000081F006840F08050091F086008460068E0
:103B100000F08050009000BF00BF00220F21901ED7
:103B200000F012F808BD00004438024000280ADB0B
:103B300000F01F01012202FA01F14009800000F1AA
:103B4000E020C0F80011704710B4184B1B68C3F395
:103B50000223C3F1070CBCF1040F01D94FF0040C90
:103B60001C1D072C01D2002300E0DB1E012404FAF7
:103B70000CFCACF1010C0CEA0101994004FA03F3CE
:103B80005B1E1A401143002806DB00F1E02009010A
:103B900080F8001410BC704700F00F0000F1E02026
:103BA000090180F8141D10BC704700000CED00E006
:103BB00000F00700064A11684FF6FF03194041EA7A
:103BC000002040F0FD7040F0806010607047000001
:103BD0000CED00E07047006841620020704730B48F
:103BE0000368586A00291BD0D3F828C000EB1C4C8E
:103BF00000200129A1F101014FF4827408D004EBE7
:103C000080055D590CEB154C401CC0B28842F6D3C0
:103C100004EB81014CEA0240585030BC0020704750
:103C200040EA02409862F8E710B50446D4F804046C
:103C300007F0ACFE10BD70B504460D46C5EBC503DC
:103C400004F13C0101EB8301CA682946D4F804045D
:103C500007F0E4FD70BD70B504460D46C5EBC50325
:103C600004F5FE7101EB8301CA682946D4F8040407
:103C700007F045FE70BD10B50446D4F8040407F003
:103C800088FE10BD70B5044611F0800F01F00F00E2
:103C9000C0EBC00104EB81014FF001024FF00005C1
:103CA00002D03C314A7002E001F5FE714D7008709F
:103CB00094F8BC03012808D084F8BC23206808F0DD
:103CC0008BFB84F8BC53002070BD022070BD70B522
:103CD000044601F00F026068824201D9012070BDE4
:103CE00001F00F00C0EBC00011F0800F04EB80006A
:103CF0004FF001034FF0000503D000F13C014B7081
:103D000002E000F5FE714D708D700A7094F8BC03EE
:103D1000012808D084F8BC33206808F06FFD84F8CF
:103D2000BC53002070BD022070BD01F00F01C1EB3B
:103D3000C10100EB8100D0F81402704770B5044651
:103D400011F0800F01F00F00C0EBC00104EB810106
:103D50004FF0010C4FF0000503D03C3181F801C059
:103D600002E001F5FE714D7008708A60CB704A78F0
:103D700002B1C880022B00D10D7194F8BC03012858
:103D800008D084F8BCC3206808F06CFA284684F890
:103D9000BC5370BD022070BD10B50C4604F00F0C72
:103DA000CCEBCC0100EB810101F5FE71CA604B61E7
:103DB00000238B614B7081F800C00369012B00D197
:103DC0000A6114F00F0F05D0027C006808F071FD45
:103DD000002010BD027C006808F04AFCF8E770B5CE
:103DE00004460D46616805F00F00884201D90120A4
:103DF00070BD15F0800F4FF000064FF0010206D0A5
:103E0000C0EBC00104EB81013C314A7006E0C5EB18
:103E1000C50104EB810101F5FE714E708A700870D6
:103E200094F8BC03012808D084F8BC23206808F06B
:103E300011FD15F00F0F02D007E0022070BD217CAC
:103E400004F57172206808F0A9FC84F8BC630020B6
:103E500070BD10B50C4604F00F0CCCEBCC0100EBA0
:103E600081013C31CA604B6100238B6101234B709F
:103E700081F800C00369012B00D10A6114F00F0F13
:103E800005D0027C006808F014FD002010BD027C03
:103E9000006808F0EDFBF8E72DE9F05F04462568BF
:103EA000284608F057FE00287DD1206808F07EFEE5
:103EB000002878D0206808F079FE10F0020F04D0B6
:103EC0002068416901F002014161206808F06EFE3E
:103ED00010F0100F36D02068816921F01001816147
:103EE0002F6A07F00F00C0EBC00004EB800000F564
:103EF000FE76C7F34340022802D0062812D01CE009
:103F000047F6F070074218D0C7F30A121746284642
:103F1000F16808F04FFEF0683844F060B06938444A
:103F2000B0610AE0082204F57171284608F042FEEB
:103F3000B069C7F30A110844B0612068816941F093
:103F400010018161206808F031FE10F4002F4FF05D
:103F500001094FF0080A4FF0100B45D000262068E9
:103F600008F003FE80465FEA08003DD018F0010F1C
:103F700034D0F1B2206808F011FE074617F0010FA7
:103F800007D005EB4610C0F8089B3146204603F0E9
:103F90006DFA17F0080F09D005EB4610C0F808AB12
:103FA0003146204600E090E103F03CFA17F0100F94
:103FB00003D005EB4610C0F808BB17F0200F04D063
:103FC00005EB46112020C1F8080B17F4005F05D05F
:103FD00005EB46114FF40050C1F8080B761C4FEA70
:103FE0005808B8F1000FC1D1206808F0DFFD10F4C7
:103FF000802F63D0206808F0B1FD80460026B8F11C
:10400000000F5BD018F0010F52D0F1B2206808F019
:10401000B3FD074617F0010F25D006F00F0009FA8F
:1040200000F0D5F8341821EA0000C5F8340805EB93
:104030004610C0F808992069012810D1C6EBC600C7
:1040400004EB8000426C816C114481643EB9206DA8
:1040500028B904F571720121206808F09FFBF1B2C4
:104060002046FFF7E8FD17F0080F03D005EB4610D8
:10407000C0F808A917F0100F03D005EB4610C0F8E0
:1040800008B917F0400F04D005EB46114020C1F8E5
:10409000080917F0020F04D005EB46110220C1F801
:1040A000080917F0800F03D03146204603F054FA78
:1040B000761C4FEA5808B8F1000FA3D1206808F029
:1040C00075FD10F0004F11D0D5F8040820F0010064
:1040D000C5F8040894F8F403012867D0204600F0DE
:1040E00015FA2068416901F000414161206808F03B
:1040F0005DFD10F4006F0CD0D5F8080810F0010F2A
:1041000002D0204600F04EFA2068416901F40061B7
:104110004161206808F04AFD10F4805F6CD0D5F84A
:10412000040820F00100C5F804081021206808F0F8
:10413000EDFC00216068002823D94FF67F3205EBA3
:104140004110C0F80829D0F8003923F40013C0F852
:104150000039D0F8003943F00063C0F80039C0F8E6
:10416000082BD0F8003B23F40013C0F8003BD0F834
:10417000003B43F00063C0F8003B491C6068884284
:10418000DDD8D5F81C0840F00110C5F81C08206BDC
:10419000A0B1D5F8840840F00B00C5F88408D5F824
:1041A000440840F00B00C5F8440814E0002084F8EF
:1041B000F40300212046FFF70DFD92E7D5F814081F
:1041C00042F22B010843C5F81408D5F8100840F056
:1041D0000B00C5F81008D5F8000820F4FE60C5F8FB
:1041E0000008217C04F57172206808F0D7FA206875
:1041F000416901F480514161206808F0D7FC10F456
:10420000005F16D0206808F07BF8206808F092FC68
:10421000E06000F0BDFA23680146227B184608F0F2
:104220000BFD204600F05AF92068416901F4005165
:104230004161206808F0BAFC10F0080F07D0204652
:1042400000F06BF92068416901F0080141612068C4
:1042500008F0ACFC10F4801F08D00021204600F0CC
:1042600036F82068416901F480114161206808F046
:104270009DFC10F4001F08D00021204600F030F80B
:104280002068416901F400114161206808F08EFC4A
:1042900010F0804F07D02046FFF7C6FC2068416928
:1042A00001F080414161206808F080FC10F0040FAB
:1042B0000BD02068456815F0040F02D02046FFF7A8
:1042C000DAFC2068416829434160BDE8F09F70B581
:1042D00004460D462946D4F8040407F0C3FB70BD1C
:1042E00070B504460D462946D4F8040407F0D2FB05
:1042F00070BD2DE9F0478AB00446002C05D0266831
:1043000094F8BD03002520B108E00AB00120BDE803
:10431000F08784F8BC53204600F08CF8032084F822
:10432000BD03F06B10F4807F00D12561206808F098
:1043300099F904F11000D4F82C8090E80F10A76AC6
:10434000666A8DE80F10CDF81C8006970596616BA4
:10435000206B0991089094E80F0007F0DFFF022717
:1043600028B184F8BD730AB00120BDE8F0870021B0
:10437000206808F031FC002160680126002813D96C
:10438000C1EBC10004EB800080F83D6080F83C1078
:10439000A0F8421080F83F50456485640565481CCC
:1043A000C1B260688842EBD800216068002814D947
:1043B000C1EBC10004EB800080F8FD5180F8FC11D6
:1043C00080F8FF51C0F80452C0F80852C0F81052EB
:1043D000481CC1B260688842EAD804F11000D4F8E1
:1043E0002CA090E80F10D4F82890D4F824808DE801
:1043F0000F10CDF81CA0CDF81890CDF81480616B8B
:10440000206B0991089094E80F0008F06FF828B12C
:1044100084F8BD730AB00120BDE8F08784F83850F5
:1044200084F8BD63206808F053F80AB00020BDE8A6
:10443000F087000010B586B00446142101A8FBF7F0
:10444000E7FF2068B0F1A04F42D100BF00200090EC
:104450002048006840F001001E49086008460068D6
:1044600000F00100009000BF00BF4FF4C050019069
:104470000220029000200390032004900A2005905F
:1044800001A91548FEF7AAFD00BF1248001D0068EB
:1044900040F080000F49091D086000BF0020009017
:1044A0000C481430006840F480400A491431086018
:1044B0000846006800F48040009000BF00BF00BFC5
:1044C000002205214320FFF73FFB4320FFF72EFB8F
:1044D00006B010BD303802400000024070B50446FE
:1044E0000125E06808B9002506E0E068022801D14E
:1044F000012501E0FDF702FA2946D4F8040407F08B
:1045000068FBD4F8040407F00DFB70BD10B5044639
:10451000D4F8040407F03CFB10BD10B50446D4F8F1
:10452000040407F040FB10BD10B5044694F8BC032A
:1045300001280BD0012084F8BC0384F838102068CF
:1045400008F062FB002084F8BC0310BD022010BDFF
:1045500010B5044604F57171D4F8040407F050FB5B
:1045600010BD10B50446206894F8BC13012906D08C
:10457000012184F8BC13A16A012902D008E00220BD
:1045800010BDA169012903D0816B41F480318163A1
:10459000206808F0A2FA206807F08CFF002084F859
:1045A000BC0310BD10B50446D4F8040407F085FB25
:1045B0002068D0F8000E40F001002168C1F8000E1C
:1045C000206A28B10348006840F0060001490860ED
:1045D00010BD000010ED00E02DE9F04704460D4647
:1045E000002C13D0DFF85491D9F80000EFB200F09E
:1045F0000700A8420DD289F80070D9F8000000F039
:104600000700A84205D00120BDE8F0870120BDE8E1
:10461000F08720684A4E10F0020F14D010F0040FFB
:1046200003D0306840F4E0503060207810F0080F7C
:1046300003D0306840F4604030603068A16820F0FA
:10464000F00008433060207810F0010F3ED0606821
:104650003C49012808D002280DD003280BD0096856
:1046600011F0020F28D00AE0096811F4003F06D1CA
:104670000120BDE8F087096811F0007F19D031688A
:1046800021F0030108433060FEF7CEFD804630681C
:10469000616800F00C00B0EB810F17D041F2883A4E
:1046A000FEF7C2FDA0EB0800504508D90320BDE885
:1046B000F0870120BDE8F0870120BDE8F087306871
:1046C000616800F00C00B0EB810FE9D1D9F800006F
:1046D00000F00700A8420AD989F80070D9F8000054
:1046E00000F00700A84202D00120BDE8F087207842
:1046F00010F0040F05D03068E16820F4E050084362
:104700003060207810F0080F06D03068216920F45E
:10471000604040EAC100306000F060F831680A4A49
:10472000C1F30311515CC84008490860084800689B
:10473000FFF78CF90020BDE8F0870000003C024044
:10474000083802400038024018450108980000204F
:10475000480900200F2202600B4A136803F003038C
:104760004360136803F0F0038360136803F4E053BD
:10477000C360126802F46042D20802610348006814
:1047800000F007000860704708380240003C024013
:1047900001480068704700009800002000B5FFF74E
:1047A000F7FF04490968044AC1F38221515CC840FB
:1047B00000BD0000083802402845010800B5FFF799
:1047C000E7FF04490968044AC1F34231515CC8401B
:1047D00000BD0000083802402845010810B5174800
:1047E000006810F00C01164816D0164B042912D0A0
:1047F000082911D1144C216801F03F02216811F4FD
:10480000800F0AD02068C0F38810A0FB03010023AA
:10481000FBF7AEFD09E0184610BD21680023C1F387
:104820008811A1FB0001FBF7A3FD2168C1F3014141
:10483000491C4900B0FBF1F010BD000008380240EF
:104840000024F400001BB700043802402DE9F84FA3
:104850000446002C12D02078FB4E10F0010FA6F178
:10486000040563D0301D016801F00C0104290CD04F
:10487000006800F00C00082803D010E00120BDE81B
:10488000F88F306810F4800F09D0286810F4003FCA
:104890004CD06068002849D10120BDE8F88F6068DD
:1048A000B0F5803F14D0B0F5A02F16D0286820F4C2
:1048B00080302860286820F480202860606810B369
:1048C000FEF7B2FC0746286810F4003F0ED02DE03A
:1048D000286840F480302860F0E7286840F48020A1
:1048E0002860286840F480302860E7E7FEF79CFCE9
:1048F000C01B642802D90320BDE8F88F286810F493
:10490000003FF3D012E0FEF78FFC0746286810F452
:10491000003F0BD0FEF788FCC01B642802D903209F
:10492000BDE8F88F286810F4003FF3D12078C74F16
:1049300010F0020F4FF0000957D0C548016811F080
:104940000C0F14D0006800F00C00082803D1306868
:1049500010F4800F0BD0E06880B301203860FEF7C0
:1049600063FC8046286810F0020F12D01EE0286811
:1049700010F0020F05D0E068012802D00120BDE848
:10498000F88F2868216920F0F80040EAC10028600B
:104990002BE0FEF749FCA0EB0800022802D9032017
:1049A000BDE8F88F286810F0020FF2D0286821695E
:1049B00020F0F80040EAC100286016E0FFE7C7F8E1
:1049C0000090FEF731FC8046286810F0020F0CD0F2
:1049D000FEF72AFCA0EB0800022802D90320BDE85C
:1049E000F88F286810F0020FF2D1207810F0080F2D
:1049F00035D09848DFF860A26169C1B1012101603A
:104A0000FEF712FC8046DAF8000010F0020F26D103
:104A1000FEF70AFCA0EB0800022802D90320BDE83B
:104A2000F88FDAF8000010F0020FF1D017E0C0F8AC
:104A30000090FEF7F9FB8046DAF8000010F0020F54
:104A40000DD0FEF7F1FBA0EB0800022802D90320ED
:104A5000BDE8F88FDAF8000010F0020FF1D12078ED
:104A600010F0040F71D04FF000087C48006810F07F
:104A7000805F0AD17948016841F080510160006887
:104A800000F0805000904FF00108DFF8D4B1DBF85F
:104A9000000010F4807F1BD1DBF8000040F4807030
:104AA000CBF80000FEF7C0FB8246DBF8000010F4F4
:104AB000807F0DD1FEF7B8FBA0EB0A00022802D9D7
:104AC0000320BDE8F88FDBF8000010F4807FF1D000
:104AD000A068DFF890B1012818D005281DD0DBF8B8
:104AE000000020F00100CBF80000DBF8000020F00F
:104AF0000400CBF80000A06840B3FEF795FB8246A7
:104B0000DBF8000010F0020F14D03EE0DBF80000EC
:104B100040F00100CBF80000EDE7DBF8000040F0CA
:104B20000400CBF80000DBF8000040F00100CBF8F7
:104B30000000E0E7FEF778FBA0EB0A0141F28830C5
:104B4000814204D90320BDE8F88F26E005E0DBF8B8
:104B5000000010F0020FEDD017E0FEF765FB824673
:104B6000DBF8000010F0020F0FD0FEF75DFBA0EBAA
:104B70000A0141F28830814202D90320BDE8F88F52
:104B8000DBF8000010F0020FEFD1B8F1010F04D1F3
:104B90003248016821F080510160A069F0B32C49CE
:104BA00009684FF0FF3801F00C01082966D002288F
:104BB00010D0C7F86090FEF737FB0446286810F065
:104BC000007F2BD0FEF730FB001B022851D90320B9
:104BD000BDE8F88FC7F86090FEF726FB814628688D
:104BE00010F0007F0CD0FEF71FFBA0EB090002289D
:104BF00002D90320BDE8F88F286810F0007FF2D1B9
:104C0000216AE069A26A0843616A08EB52028901DD
:104C100041EA0241084394F82C1000E055E040EAD4
:104C20000160306001203866FEF7FEFA044628680D
:104C300010F0007F49D1FEF7F7FA001B022813D9C4
:104C40000320BDE8F88F000004380240000047420E
:104C500008380240800E4742743802404038024013
:104C60000070004070380240286810F0007FE2D0E9
:104C70002BE0286810F0007FA4D126E0012822D084
:104C80003068E26900F4800191421AD1226A00F092
:104C90003F01914215D147F6C071626A0140B1EB04
:104CA000821F0ED1A26A00F4403108EB5202B1EB30
:104CB000024F06D194F82C1000F07060B0EB016F39
:104CC00003D00120BDE70120BBE70020B9E770B5A4
:104CD0000446002C09D0606A002540B12561656159
:104CE000A56294F8510040B10CE0012070BD6068ED
:104CF000B0F5827FF4D0E561F2E784F850502046A9
:104D000000F044F8022084F851002068016821F086
:104D100040010160A088218900F4827001F40441FF
:104D20000843A18901F400610843217C01F00201DC
:104D30000843217D01F001010843218B01F400713A
:104D40000843217F01F03801084394F8201001F056
:104D500080010843218D01F4005108432168086057
:104D6000A169042000EA114094F8241001F0100118
:104D70000143206841602068C16921F40061C1617C
:104D80006565012084F85100002070BD10B586B023
:104D90000446142101A8FBF73BFB4B4920688842DD
:104DA0007ED100BF002000904848006840F4805049
:104DB000464908600846006800F48050009000BF33
:104DC00000BF00BF0020009040481438006840F049
:104DD00002003E49143908600846006800F00200ED
:104DE000009000BF00BF00BF002000900846006890
:104DF00040F0010008600846006800F001000090E3
:104E000000BF00BF182001900220029001200390F3
:104E1000032004900520059001A92D48FEF7DEF837
:104E20008020019002200290012003900320049032
:104E30000520059001A92748FEF7D0F82648274904
:104E400008604FF0C0604860002124488160C16064
:104E50004FF480610161002141618161C1614FF4C2
:104E60004031016200214162FDF7DCFE08B1FCF730
:104E700045FD00BF1948E064846300BF1648183040
:104E8000174908604FF0C0604860402114488160B5
:104E90000021C1604FF4806101610021416100E0A7
:104EA00010E08161C1614FF4003101620021416273
:104EB000FDF7B8FE08B1FCF721FD00BF0848A0646B
:104EC000846300BF06B010BD00300140443802408A
:104ED000000402400000024040640240941200209E
:104EE000F41200202DE9F84F04460A9E8A469346A4
:104EF0001F4601254FF0000894F8500001280ED0FD
:104F0000012084F85000FEF78FF9814694F8510093
:104F1000616801280ED0B1F5827F07D102E002203E
:104F2000BDE8F88FA16809B9042803D04FF0020842
:104F300000F0CBB8BAF1000F1DD0BBF1000F1AD0B2
:104F4000380018D094F85100042802D0052084F8C5
:104F5000510000206065C4F838B0E787A787C4F81F
:104F600030A0E786A786206460642068016811F09D
:104F7000400F03D006E04FF00108A6E0016841F0C1
:104F800040010160E068B0F5006F05D0606800285E
:104F900048D0012F46D07EE0606808B1012F3AD199
:104FA000206B21680088C860206B801C2063E08E25
:104FB000401EE0862FE02068816811F0020F0DD0BE
:104FC000E18E59B1012D09D1216B0988C160206B97
:104FD000801C2063E08E401EE086002520688168EA
:104FE00011F0010F0BD0E18F49B1C068A16B0880AF
:104FF000A06B801CA063E08F401EE0870125FEF7B8
:1050000013F9A0EB0900B04205D3B6F1FF3F02D07F
:105010004FF0030859E0E08E0028CCD1E08F002843
:10502000C9D13EE0206B216800780873206B401CDA
:105030002063E08E401EE0862DE02068816811F03C
:10504000020F0DD0E18E59B1012D09D1216B0978E4
:105050000173206B401C2063E08E401EE08600251B
:105060002068816811F0010F0BD0E18F49B1C06851
:10507000A16B0870A06B401CA063E08F401EE0870E
:105080000125FEF7D1F8A0EB0900B04202D3B6F13A
:10509000FF3F11D186B1E08E0028CED1E08F0028ED
:1050A000CBD14A463146204605F07CF838B14FF066
:1050B00001082020606508E04FF0030805E0A068C3
:1050C00018B92068C16880680090012084F85100F8
:1050D000002084F850004046BDE8F88F70477047C4
:1050E00090F83C20012A2CD0012280F83C20CA688C
:1050F0000023D1F808C022F4407242EA0C02D1F831
:1051000004C022F4806242EA0C02D1F800C022F40A
:10511000006242EA0C02D1F810C022F4805242EA46
:105120000C02D1F814C022F4005242EA0C02C96900
:1051300022F4804211430268516480F83C30002020
:1051400070470220704730B490F83C20012A44D0C8
:10515000012480F83C40022280F83D200268D2F809
:1051600004C093682CF0700C0D6845EA0C0CC2F872
:1051700004C00268A2F1804CBCF5803C20D0B2F1A2
:10518000804F1DD0A2F1804CBCF5806C18D0A2F1EC
:10519000804CBCF5006C13D0A2F1804CBCF5406C87
:1051A0000ED0A2F1804CBCF5823C09D0A2F1804C1B
:1051B000BCF5A03C04D0A2F1804CBCF5C05C04D18D
:1051C00023F0800349681943916080F83D40002135
:1051D00080F83C1030BC0020704730BC0220704783
:1051E00010B50446002C03D094F83D0010B107E040
:1051F000012010BD002084F83C00204600F01EF87D
:10520000022084F83D00211D206805F0CBF9012023
:1052100084F8460084F83E0084F83F0084F840009B
:1052200084F8410084F8420084F8430084F8440084
:1052300084F8450084F83D00002010BD08B5154AEB
:10524000016891420FD100BF002100911249096805
:1052500041F00801104A11601146096801F0080187
:10526000009100BF15E00D4A0168914211D100BFC5
:10527000002100910849091D096841F40031064ADE
:10528000121D11601146096801F40031009100BF40
:1052900000BF08BD000C00404038024000440140FF
:1052A00090F83D10012901D001207047022180F8BB
:1052B0003D100068A0F18041B1F5803126D0B0F1F9
:1052C000804F23D0A0F18041B1F580611ED0A0F1C4
:1052D0008041B1F5006119D0A0F18041B1F5406184
:1052E00014D0A0F18041B1F582310FD0A0F18041FE
:1052F000B1F5A0310AD0A0F18041B1F5C05105D07F
:10530000016841F00101016000207047816801F0EF
:1053100007010629F8D0016841F001010160F3E7B7
:1053200090F83D10012901D001207047022180F83A
:105330003D100168CA6842F00102CA600068A0F12D
:105340008041B1F5803126D0B0F1804F23D0A0F15B
:105350008041B1F580611ED0A0F18041B1F50061BE
:1053600019D0A0F18041B1F5406114D0A0F1804185
:10537000B1F582310FD0A0F18041B1F5A0310AD052
:10538000A0F18041B1F5C05105D0016841F00101A3
:10539000016000207047816801F007010629F8D0FC
:1053A000016841F001010160F3E770B5044694F82B
:1053B0003C00012818D0012584F83C50022084F8D4
:1053C0003D002068826822F0770222F47F428260EA
:1053D0000868502832D00EDC20284DD006DC00288A
:1053E0004AD010284DD147E0022070BD302843D06C
:1053F000402846D136E060282AD0702806D0B0F583
:10540000805F3ED0B0F5005F3BD10BE0CB684A68CF
:105410008968206805F03BF92068816841F07701D0
:1054200081602EE0CB684A688968206805F02FF912
:105430002068816841F48041816022E0CA6849683F
:10544000206805F013FA5021206805F02BF918E0C8
:10545000CA684968206805F01CFA6021206805F0D8
:1054600021F90EE0CA684968206805F0FFF940217B
:10547000206805F017F904E022680146104605F09F
:1054800011F984F83D50002084F83C0070BD70474D
:1054900070B50446206801694FF0000511F0020F55
:1054A00017D0C16811F0020F13D0E91E016101206D
:1054B00020772068806910F0030F03D02046FFF7A3
:1054C000E6FF05E0204600F045F9204600F0F4F93B
:1054D00025772068016911F0040F18D0C16811F018
:1054E000040F14D06FF004010161022020772068BE
:1054F000806910F4407F03D02046FFF7C8FF05E025
:10550000204600F027F9204600F0D6F925772068DC
:10551000016911F0080F18D0C16811F0080F14D0FC
:105520006FF008010161042020772068C06910F045
:10553000030F03D02046FFF7AAFF05E0204600F046
:1055400009F9204600F0B8F925772068016911F0C3
:10555000100F18D0C16811F0100F14D06FF01001A7
:105560000161082020772068C06910F4407F03D0D3
:105570002046FFF78CFF05E0204600F0EBF82046C0
:1055800000F09AF925772068016911F0010F09D020
:10559000C16811F0010F05D06FF0010101612046D3
:1055A00000F0FAF92068016911F0800F09D0C16894
:1055B00011F0800F05D06FF0800101612046FFF7E8
:1055C0008DFD2068016911F0400F09D0C16811F00C
:1055D000400F05D06FF040010161204600F0E8F96E
:1055E0002068016911F0200F0BD0C16811F0200F65
:1055F00007D06FF0200101612046BDE87040FFF741
:105600006EBD70BD10B586B00446142101A8FAF72E
:10561000FFFE4749206888422DD100BF002000903E
:105620004448006840F0100042490860084600689D
:1056300000F01000009000BF00BF4FF4C040019088
:10564000022002900020039004900120059001A9FF
:105650003948FDF7C3FC4FF420600190022002900E
:1056600000200390022004900120059001A93248F7
:10567000FDF7B4FC5AE03149206888422DD100BFC3
:10568000002000902B48006840F080002949086005
:105690000846006800F08000009000BF00BF4FF493
:1056A000E05001900220029001200390022004901B
:1056B000059001A92248FDF791FC2248FFF7F0FD73
:1056C0000021204800F0FAF804211E4800F0F6F806
:1056D00008211C4800F0F2F828E01B4920688842A5
:1056E00024D100BF002000901248006840F0200044
:1056F000104908600846006800F02000009000BFD4
:1057000000BF40200190022002900120039002205F
:1057100004900320059001A90C48FDF75FFC0C489C
:10572000FFF7BEFD00210A4800F0C8F806B010BD22
:10573000000001403038024000100240000C0040E0
:10574000001C02409C130020004401400014024051
:10575000E4130020704770B504460D4694F83C00F1
:1057600001280AD0012084F83C0042B1042A1AD052
:10577000082A2DD00C2A53D13EE0022070BD2946C4
:10578000206804F097FF2068816941F00801816179
:105790002068816921F004018161206881692A699A
:1057A000114381613CE02946206804F0BBFF20687A
:1057B000816941F4006181612068816921F480611F
:1057C0008161206881692A6941EA0221816127E0BB
:1057D0002946206804F0E2FF2068C16941F0080111
:1057E000C1612068C16921F00401C1612068C169FB
:1057F0002A691143C16113E02946206805F00AF8BF
:105800002068C16941F40061C1612068C16921F467
:105810008061C1612068C1692A6941EA0221C161D0
:10582000002084F83C0070BD10B50446002C03D065
:1058300094F83D0010B107E0012010BD002084F86D
:105840003C00204600F01EF8022084F83D00211D97
:10585000206804F0A7FE012084F8460084F83E008A
:1058600084F83F0084F8400084F8410084F8420046
:1058700084F8430084F8440084F8450084F83D002F
:10588000002010BD08B50A4A016891420FD100BF3F
:10589000002100910749096841F00101054A1160A2
:1058A0001146096801F00101009100BF00BF08BD69
:1058B00000000140443802407047000010B5044623
:1058C000002909D004290AD008290BD094F84100F6
:1058D00001280AD0012010BD94F83E00F8E794F8A2
:1058E0003F00F5E794F84000F2E70220D9B304291D
:1058F00047D0082948D084F841000122206804F0EC
:10590000B7FE234A20682349904201D0884203D140
:10591000436C43F4004343642068904224D0B0F1C8
:10592000804F21D0A0F18042B2F580621CD0A0F15E
:105930008042B2F5006217D0A0F18042B2F5406219
:1059400012D0884210D0A0F18041B1F5A0310BD027
:10595000A0F18041B1F5C05106D0016841F00101CC
:105960000160002010BD09E0816801F007010629EF
:10597000F7D0016841F001010160F2E784F83E00D0
:10598000BBE784F83F00B8E784F84000B5E70000C3
:10599000000001400004014010B50446034920689E
:1059A000884201D1FEF730F810BD00000020004011
:1059B0007047704770470000F8B5044622681068C9
:1059C000D168536900F00F0CBCF1000F0AD110F040
:1059D000200F07D011F0200F04D02046BDE8F8407A
:1059E00004F0FFBF0025BCF1000F6DD003F0010CE7
:1059F00001F490765CEA060666D010F0010F06D03E
:105A000011F4807F03D0226C42F00102226410F076
:105A1000040F06D013F0010F03D0226C42F00202F3
:105A2000226410F0020F06D013F0010F03D0226C95
:105A300042F00402226410F0080F08D001F02002A6
:105A400052EA0C0203D0226C42F008022264226C5B
:105A5000002A2FD010F0200F05D011F0200F02D017
:105A6000204604F0BEFF20684069C0F38010216C1E
:105A700011F0080F00D110B3204604F084FF206815
:105A8000416911F0400F16D0416921F04001416198
:105A9000A06B60B147490165A06BFCF7BAFF002815
:105AA00008D0A06B016D01B0BDE8F040084720466A
:105AB000FFF780FFF8BD2046FFF77CFFF8BD2046CA
:105AC000FFF778FF2564F8BD236B012B5CD110F044
:105AD000100F59D011F0100F56D010685068009078
