:020000040800F2
:10000000B006002029020008911300085F120008C2
:100010008D130008170400081716000800000000E0
:100020000000000000000000000000009513000820
:100030001B04000800000000931300089713000839
:10004000430200084302000843020008430200087C
:10005000430200084302000843020008430200086C
:10006000430200084302000843020008430200085C
:10007000430200084302000843020008430200084C
:10008000430200084302000843020008430200083C
:10009000430200084302000843020008430200082C
:1000A00043020008B9140008430200084302000894
:1000B000430200084302000843020008430200080C
:1000C00043020008430200084302000843020008FC
:1000D00043020008430200084302000843020008EC
:1000E00043020008430200084302000843020008DC
:1000F00043020008430200084302000843020008CC
:1001000043020008430200084302000843020008BB
:1001100043020008430200084302000843020008AB
:10012000430200084302000843020008430200089B
:10013000430200084302000843020008430200088B
:10014000430200084302000843020008430200087B
:10015000430200084302000843020008430200086B
:10016000430200084302000843020008430200085B
:100170004302000843020008430200080000000098
:10018000430200084302000800F002F800F03CF8C7
:100190000AA090E8000C82448344AAF10107DA45E2
:1001A00001D100F031F8AFF2090EBAE80F0013F0F8
:1001B000010F18BFFB1A43F001031847FC1400009D
:1001C0001C150000103A24BF78C878C1FAD852072D
:1001D00024BF30C830C144BF04680C6070470000C1
:1001E0000023002400250026103A28BF78C1FBD840
:1001F000520728BF30C148BF0B6070471FB501F0E0
:1002000049FA1FBD10B510BD00F0CFF81146FFF739
:10021000F5FF01F02FFA00F0EDF803B4FFF7F2FF5D
:1002200003BC00F0F1F80000094880470948004786
:10023000FEE7FEE7FEE7FEE7FEE7FEE7FEE7FEE796
:10024000FEE7FEE704480549054A064B70470000F3
:100250005514000889010008B0000020B0060020F5
:10026000B0020020B002002053EA020C00F06980C6
:100270002DE9F04B4FF00006002B1FBFB3FA83F5BA
:1002800003FA05F424FA05F65E4012BF1643B2FAEB
:1002900082F502FA05F4C5F120051EBF22FA05FC1D
:1002A00044EA0C04203556EA044C4FEA144418BFC3
:1002B000641C4FF000084FF00009904271EB030CF2
:1002C00039D3002919BFB1FA81F701FA07F6B0FA5C
:1002D00080F700FA07F6C7F120071EBF20FA07FCD7
:1002E00046EA0C062037B6FBF4FCA7EB0507103FE7
:1002F00007F01F0BCBF120060CFA0BFB2CFA06F6CD
:1003000044BFB3460026202FA4BF5E464FF0000B2B
:100310005BEA060C08BF4FF0010B19EB0B09ABFBB6
:10032000027C48EB0608C01B06FB02CC0BFB03CC8F
:1003300071EB0C01C1E70B46024641464846BDE859
:10034000F08B13B54FF000004FF00001AFF30080C9
:10035000BDE81C4070474FF0000200B513469446BC
:100360009646203922BFA0E80C50A0E80C50B1F10D
:100370002001BFF4F7AF090728BFA0E80C5048BF21
:100380000CC05DF804EB890028BF40F8042B08BFBF
:10039000704748BF20F8022B11F0804F18BF00F8BB
:1003A000012B7047704770477047754600F028F87A
:1003B000AE4605006946534620F00700854618B052
:1003C00020B5FFF73FFFBDE820404FF000064FF09B
:1003D00000074FF000084FF0000B21F00701AC467A
:1003E000ACE8C009ACE8C009ACE8C009ACE8C00999
:1003F0008D4670470446AFF300802046FFF70DFF9F
:10040000004870475000002001491820ABBEFEE7AD
:1004100026000200704700BFFEE7704770470000EB
:10042000F8B502460B460025002400200021DCE040
:10043000012606FA01F51E6806EA0504AC4273D1EE
:100440005E68022E02D05E68122E13D1CF0802F130
:10045000200656F827004E07F70E0F26BE40B04381
:100460004F07FF0E1E69BE403043CF0802F1200641
:1004700046F8270010684F000326BE40B0431E799F
:1004800006F003064F00BE40304310605E68012E48
:1004900008D05E68022E05D05E68112E02D05E681C
:1004A000122E13D190684F000326BE40B0434F0078
:1004B000DE68BE4030439060506801268E40B043F5
:1004C0001E79C6F300168E4030435060D0684F004E
:1004D0000326BE40B0434F009E68BE403043D0600C
:1004E0005E6806F08056B6F1805F7DD100BF0026C1
:1004F0000096404E366846F480463E4F3E603E468B
:10050000366806F48046009600BF00BF3A4E8F085A
:1005100056F827008E07370F0F26BE40B043374EE0
:10052000B24202D1002624E05EE0354EB24201D153
:1005300001261EE0334EB24201D1022619E0324EAE
:10054000B24201D1032614E0304EB24201D104265A
:100550000FE02F4EB24201D105260AE02D4EB242E5
:1005600001D1062605E02C4EB24201D1072600E05B
:1005700008268F073F0FBE4030431F4E8F0846F8B6
:100580002700264E3068A0435E6806F48036B6F534
:10059000803F00D12043214E3060361D3068A0439B
:1005A0005E6806F40036B6F5003F00D120431B4ECE
:1005B000361D3060361D3068A0435E6806F4801634
:1005C000B6F5801F00D12043144E08363060361D2A
:1005D0003068A0435E6806F40016B6F5001F00D12F
:1005E00020430E4E0C363060491C1029FFF420AF1A
:1005F000F8BD0000443802400838014000000240C5
:100600000004024000080240000C024000100240BA
:100610000014024000180240001C0240003C01404F
:1006200042690A408A4202D10A04826100E0816183
:1006300070470AB1816101E00B04836170470000DB
:10064000014800687047000004000020034800686B
:1006500003490978084401490860704704000020F4
:100660000C00002010B50D48006840F400700B49E4
:1006700008600846006840F480600860084600682A
:1006800040F480700860032000F0A2F8002000F021
:1006900007F800F02BF8002010BD0000003C0240DD
:1006A00070B504460E4800784FF47A71B1FBF0F053
:1006B0000C490968B1FBF0F5284600F0D9FB08B1F8
:1006C000012070BD102C07D200222146501E00F0E0
:1006D00041F80548046001E00120F2E70020F0E75E
:1006E0000C000020000000200800002008B500BF1A
:1006F000002000900E48006840F480400C490860DB
:100700000846006800F48040009000BF00BF00BFB2
:1007100000200090081F006840F08050091F08600A
:100720000846006800F08050009000BF00BF08BD80
:100730004438024001460846002809DB00F01F0348
:1007400001229A4043099B0003F1E023C3F80021F2
:1007500000BF70472DE9F05F80460D461646002722
:1007600000F05CFF074639462A46334601F0070091
:10077000C0F1070ABAF1040F02D94FF0040A01E0F0
:10078000C0F1070AD14600F1040ABAF1070F02D2FC
:100790004FF0000A01E0A0F1030AD4464FF0010A2D
:1007A0000AFA09FAAAF1010A0AEA020A0AFA0CFA92
:1007B0004FF0010B0BFA0CFBABF1010B0BEA030B37
:1007C0004AEA0B042146404600F030FFBDE8F09FA6
:1007D00000BF00F00702064B19684FF6FF031940EF
:1007E000044B0B4343EA0221014B196000BF7047E1
:1007F0000CED00E00000FA0570B504460D460CB99A
:10080000012070BD5848006800F00F00A84209D2CE
:1008100055490D700846006800F00F00A84201D04D
:100820000120EEE7207800F0020002281DD1207898
:1008300000F00400042805D14C48006840F4E05062
:100840004A490860207800F00800082805D1474888
:10085000006840F46040454908604448006820F062
:10086000F000A168084341490860207800F00100C9
:10087000A8B36068012807D13C4808380068C0F375
:100880004040B8B90120BCE76068022802D0606827
:10089000032807D1354808380068C0F3406048B9DC
:1008A0000120AEE7314808380068C0F3400008B9BD
:1008B0000120A6E72D48006820F003006168084386
:1008C0002A490860FFF7BCFE064609E0FFF7B8FEBC
:1008D000801B41F28831884202D9032091E707E06A
:1008E0002248006800F00C006168B0EB810FEDD188
:1008F0001D48006800F00F00A84209D91A490D7080
:100900000846006800F00F00A84201D0012078E7F7
:10091000207800F00400042807D11448006820F46F
:10092000E050E168084311490860207800F00800B1
:10093000082808D10D48006820F46040216940EA89
:10094000C1000A49086000F017F808490968C1F3B6
:100950000311074A515CC840064908600020FFF7B0
:100960009FFE00204DE70000003C02400838024096
:100970009E160008000000202DE9F0470024002505
:100980000026A1462548006800F00C0020B104288C
:1009900005D008283AD105E0DFF8849039E0DFF887
:1009A000849036E01D48001F006800F03F041B489B
:1009B000001F006800F4800078B11A481749091F29
:1009C0000968C1F38811A0FB01700146224600238B
:1009D0003846FFF749FC05460EE011480F49091F4C
:1009E0000968C1F38811A0FB01700146224600236B
:1009F0003846FFF739FC05460848001F0068C0F379
:100A00000140401C4600B5FBF6F902E0DFF810900B
:100A100000BF00BF4846BDE8F0870000083802402C
:100A20000024F400001BB700F8B504460CB90120FF
:100A3000F8BD207800F00100002874D0F948006863
:100A400000F00C0004280DD0F648006800F00C00FF
:100A5000082813D1F348001F006800F48000B0F5A7
:100A6000800F0BD1EF4808380068C0F340400028E1
:100A700059D06068002856D10120D9E700BF6068CE
:100A8000B0F5803F08D1E7480838006840F480306E
:100A9000E449083908601EE06068B0F5A02F0DD168
:100AA000E0480838006840F48020DE4908390860D2
:100AB0000846006840F4803008600CE0D9480838E7
:100AC000006820F48030D74908390860084600687B
:100AD00020F48020086000BF606890B1FFF7B0FD8F
:100AE000054606E0FFF7ACFD401B642801D9032052
:100AF0009EE7CC4808380068C0F340400028F1D099
:100B000011E0FFF79DFD054606E0FFF799FD401B4C
:100B1000642801D903208BE7C24808380068C0F375
:100B200040400028F1D1207800F0020002285FD177
:100B3000BC48006800F00C0058B1BA48006800F0EA
:100B40000C0008281CD1B748001F006800F4800082
:100B5000B0B9B44808380068C0F3400020B1E0687C
:100B6000012801D0012063E7AE480838006820F072
:100B7000F800216940EAC100AA490839086037E055
:100B8000E06800B30120A8490860FFF759FD054659
:100B900006E0FFF755FD401B022801D9032047E777
:100BA000A04808380068C0F340000028F1D09D48F4
:100BB0000838006820F0F800216940EAC10099492E
:100BC0000839086014E0002097490860FFF738FDF5
:100BD000054606E0FFF734FD401B022801D903203B
:100BE00026E7904808380068C0F340000028F1D19B
:100BF000207800F0080008282CD16069A8B10120F5
:100C00008A490860FFF71CFD054606E0FFF718FD5E
:100C1000401B022801D903200AE782486C30006893
:100C2000C0F340000028F1D014E000207F490860A4
:100C3000FFF706FD054606E0FFF702FD401B022810
:100C400001D90320F4E677486C300068C0F3400017
:100C50000028F1D1207800F00400042870D100268B
:100C600070483830006800F0805090B900BF002014
:100C700000906C483830006840F080506949383145
:100C800008600846006800F08050009000BF00BF78
:100C900001266748006800F48070B0B964480068B5
:100CA00040F4807062490860FFF7CAFC054606E020
:100CB000FFF7C6FC401B022801D90320B8E65C48B8
:100CC000006800F480700028F2D000BFA0680128FE
:100CD00008D154486830006840F00100514968313B
:100CE00008601DE0A06805280DD14E4868300068F6
:100CF00040F004004B49683108600846006840F045
:100D0000010008600CE047486830006820F00100EE
:100D10004449683108600846006820F00400086013
:100D200000BFA068A8B1FFF78BFC054609E0FFF7FC
:100D300087FC401B41F28831884202D9032077E6C4
:100D400026E0384868300068C0F340000028EED044
:100D500013E0FFF775FC054608E0FFF771FC401B48
:100D600041F28831884201D9032061E62D4868307C
:100D70000068C0F340000028EFD1012E07D12948B8
:100D80003830006820F0805026493831086000BFB4
:100D9000A069B8B32348006800F00C0008285ED0B2
:100DA000A069022846D100201F490866FFF748FCC9
:100DB000054606E0FFF744FC401B022801D903204A
:100DC00036E6184808380068C0F340600028F1D1C2
:100DD000D4E907010843616A40EA81110122A06A4F
:100DE000C2EB500041EA00412C20005D41EA006066
:100DF0000C49091F086001200B490866FFF720FC19
:100E0000054607E02DE0FFF71BFC401B022801D937
:100E100003200DE6034808380068C0F3406000284E
:100E2000F1D01EE00838024000004742800E4742E1
:100E30000070004000200C490866FFF701FC0546E1
:100E400006E0FFF7FDFB401B022801D90320EFE578
:100E500006480068C0F340600028F2D101E001209C
:100E6000E6E50020E4E500000000474200380240CB
:100E700070B504462546681EB0F1807F01D301207D
:100E80000FE0681E4FF0E02148610F214FF0FF3066
:100E900000F0CCFB00204FF0E021886107200861C2
:100EA000002070BD7047704710B5024600BF92F831
:100EB0003C00012801D1022010BD012082F83C0035
:100EC00000BF022082F83D00106843681068846803
:100ED00023F070030868034324F080044868044347
:100EE0001068436010688460012082F83D0000BFF4
:100EF000002082F83C0000BF00BFDDE710B50446CB
:100F00000CB9012010BD94F83D0028B9002084F8E8
:100F10003C00204600F00CF8022084F83D00211D22
:100F2000206800F0D1FA012084F83D000020E9E7B4
:100F300038B504460E492068884217D100BF00200A
:100F400000900C48006840F001000A49086008461B
:100F5000006800F00100009000BF00BF00221146B1
:100F60001920FFF7F7FB1920FFF7E4FB38BD00005D
:100F7000000001404438024001460868C06840F063
:100F800001000B68D8600868806800F00702062A34
:100F900005D00868006840F001000B681860002068
:100FA00070472DE9F04104460D4600BF94F83C001F
:100FB000012802D10220BDE8F081012084F83C0024
:100FC00000BF022084F83D002068866826F077067E
:100FD00026F47F46206886602868502833D00CDCD1
:100FE000202850D004DC00284BD0102851D149E0F3
:100FF000302849D040284CD139E060282DD07028C5
:1010000007D0B0F5805F03D0B0F5005F41D10DE0AF
:1010100040E0D5E902136A68206800F0C1FA206850
:10102000866846F077062068866033E0D5E90213CB
:101030006A68206800F0B4FA2068806840F4804054
:101040002168886026E0EA686968206800F0BCFAD8
:101050005021206800F0AFFA1CE0EA686968206857
:1010600000F0C5FA6021206800F0A5FA12E0EA68F5
:101070006968206800F0A8FA4021206800F09BFA17
:1010800008E000BF00BF00BF2968206800F093FAA5
:1010900000E000BF00BF012084F83D0000BF002039
:1010A00084F83C0000BF00BF85E7704710B50446D8
:1010B00020680069C0F34000D8B12068C068C0F360
:1010C0004000B0B16FF00200216808610120207774
:1010D0002068806900F0030018B12046FFF7E5FFA3
:1010E00005E0204600F0ADF8204600F0ABF8002007
:1010F000207720680069C0F38000D8B12068C068FC
:10110000C0F38000B0B16FF00400216808610220D4
:1011100020772068806900F4407018B12046FFF7FE
:10112000C4FF05E0204600F08CF8204600F08AF865
:101130000020207720680069C0F3C000D8B1206883
:10114000C068C0F3C000B0B16FF00800216808614A
:10115000042020772068C06900F0030018B1204601
:10116000FFF7A3FF05E0204600F06BF8204600F0F3
:1011700069F80020207720680069C0F30010D8B11A
:101180002068C068C0F30010B0B16FF01000216893
:101190000861082020772068C06900F4407018B109
:1011A0002046FFF782FF05E0204600F04AF820467F
:1011B00000F048F8002020772068006900F0010066
:1011C00058B12068C06800F0010030B16FF0010034
:1011D00021680861204600F037F820680069C0F3F4
:1011E000C01058B12068C068C0F3C01030B16FF0B3
:1011F0008000216808612046FFF754FE20680069DE
:10120000C0F3801058B12068C068C0F3801030B1BE
:101210006FF0400021680861204600F01FF8206848
:101220000069C0F3401058B12068C068C0F3401096
:1012300030B16FF02000216808612046FFF733FECF
:1012400010BD70477047000010B504460248844244
:1012500001D100F0FFF910BD10000020704700BF61
:10126000FEE7000000B587B0142102A8FFF773F86D
:1012700000BF002001902648006840F0010024498A
:1012800008600846006800F00100019000BF00BF40
:1012900000BF002001900846006840F08000086010
:1012A0000846006800F08000019000BF00BF00BF4A
:1012B000002001900846006840F0400008600846A1
:1012C000006800F04000019000BF00BF01220E2125
:1012D0001048FFF7AEF900220E210F48FFF7A9F9D9
:1012E0000E2002900120039004900020059002A996
:1012F0000848FFF795F80E20029001200390002087
:101300000490059002A90448FFF78AF807B000BDD1
:1013100030380240001C02400018024000B587B07F
:1013200000200390049005900690019002901548CB
:101330001549086042F2CF004860002112488160E0
:1013400041F28731C1600021016141618161FFF794
:10135000D5FD08B1FFF762F84FF48050039003A960
:101360000948FFF71EFE08B1FFF758F8002001906A
:10137000029001A90448FFF797FD08B1FFF74EF866
:1013800007B000BD000001401000002000BFFEE7D4
:1013900070477047704710B5FFF758F910BD00004F
:1013A00000B593B0302107A8FEF7D5FF142102A89D
:1013B000FEF7D1FF00BF002001902448006840F0F4
:1013C0008050224908600846006800F08050019073
:1013D00000BF00BF00BF002001901D48006840F41E
:1013E00080401B4908600846006800F48040019076
:1013F00000BF00BF012007900004089002200D905C
:1014000041050E9106210F91A82110910221119101
:101410000421129107A8FFF707FB08B1FEF7FEFFB2
:101420000F20029002200390002004904FF4A0505F
:1014300005904FF480500690052102A8FFF7DCF9D3
:1014400008B1FEF7EBFF13B000BD000040380240CA
:10145000007000401448006840F4700012490860B1
:101460001248006840F001001049086000200F4950
:10147000083108600D4800680D4908400B490860B4
:101480000C48091D0860081F006820F48020091F0F
:101490000860002005490C3108604FF000600249E7
:1014A000803908607047000088ED00E00038024095
:1014B000FFFFF6FE1030002410B50248FFF7F6FDDE
:1014C00010BD00001000002010B50268294B9842A2
:1014D0000ED0B0F1804F0BD0274B984208D0274B4D
:1014E000984205D0264B984202D0264B984203D111
:1014F00022F070024B681A431E4B984220D0B0F184
:10150000804F1DD01C4B98421AD01C4B984217D0CC
:101510001B4B984214D01B4B984211D01A4B984247
:101520000ED01A4B98420BD0194B984208D0194B49
:10153000984205D0184B984202D0184B984203D1DC
:1015400022F44072CB681A4322F080034C6943EACC
:10155000040202608B68C3620B688362054B984289
:1015600002D0084B984201D10B6903630123436108
:1015700010BD0000000001400004004000080040D1
:10158000000C0040000401400040014000440140C4
:101590000048014000180040001C004000200040AE
:1015A00030B50C46816821F47F4142EA032525438A
:1015B0002943816030BD0A46816821F0700142F004
:1015C000070319438160704730B50B461446026A21
:1015D000056A25F001050562816921F0F00141EA03
:1015E000041122F00A021A438161026230BD30B553
:1015F0000B461446056A25F0100505628169026AEA
:1016000021F4704141EA043122F0A00242EA0312BF
:101610008161026230BD00BFFEE700000248006841
:10162000C0F30220704700000CED00E010B5002868
:1016300004DB0A07130E054A135406E00A07140ECA
:10164000034A00F00F031B1FD45410BD00E400E058
:1016500018ED00E010B502210548FEF7E1FF042176
:101660000348FEF7DDFF08210148FEF7D9FF10BD52
:1016700000180240FEF7F6FFFFF792FEFFF7F2FDBB
:10168000FFF74CFE0248FFF777FC00BFFEE70000C3
:10169000100000204FF04070E1EE100A704700008B
:1016A0000000000000000102030406070809000012
:1016B0000000010203040000D8160008000000200A
:1016C00010000000C4010008E81600081000002007
:1016D000A0060000E00100080024F4000000000063
:0816E0001000000001000000F1
:040000050800018965
:00000001FF
