:020000040800F2
:10000000100400209D010008DB080008A908000872
:10001000D9080008A9020008BD0900080000000076
:10002000000000000000000000000000DF080008E1
:10003000AB02000800000000DD080008E10800082D
:10004000B7010008B7010008B7010008B7010008B0
:10005000B7010008B7010008B7010008B7010008A0
:10006000B7010008B7010008B7010008B701000890
:10007000B7010008B7010008B7010008B701000880
:10008000B7010008B7010008B7010008B701000870
:10009000B7010008B7010008B7010008B701000860
:1000A000B7010008B7010008B7010008B701000850
:1000B000B7010008B7010008B7010008B701000840
:1000C000B7010008B7010008B7010008B701000830
:1000D000B7010008B7010008B7010008B701000820
:1000E000B7010008B7010008B7010008B701000810
:1000F000B7010008B7010008B7010008B701000800
:10010000B7010008B7010008B7010008B7010008EF
:10011000B7010008B7010008B7010008B7010008DF
:10012000B7010008B7010008B7010008B7010008CF
:10013000B7010008B7010008B7010008B7010008BF
:10014000B7010008B7010008B7010008B7010008AF
:10015000B7010008B7010008B7010008B70100089F
:10016000B7010008B7010008B7010008B70100088F
:10017000B7010008B7010008B7010008000000003F
:10018000B7010008B7010008DFF80CD000F07AF8DA
:1001900000480047FD090008100400200648804779
:1001A00006480047FEE7FEE7FEE7FEE7FEE7FEE75C
:1001B000FEE7FEE7FEE7FEE769090008890100089F
:1001C0002DE9F05F0546002092469B46884606468C
:1001D000814640241BE0284641464746224600F01F
:1001E00041F853465A46C01A914110D31146184659
:1001F000224600F028F82D1A67EB01084F462246E8
:100200000120002100F01FF817EB00094E41201ECD
:10021000A4F10104DFDC484631462A464346BDE8E6
:10022000F09FD2B201E000F8012B491EFBD27047CB
:100230000022F6E710B513460A4604461946FFF7B2
:10024000F0FF204610BD202A04DB203A00FA02F11C
:10025000002070479140C2F1200320FA03F31943B4
:1002600090407047202A04DB203A21FA02F0002156
:10027000704721FA02F3D040C2F1200291400843B6
:1002800019467047064C074D06E0E06840F0010350
:1002900094E8070098471034AC42F6D3FFF778FF94
:1002A0001C0A00083C0A0008FEE770470148806805
:1002B0007047000000000020024881680278114465
:1002C00081607047000000200B4810B5016841F4C0
:1002D00000710160016841F480610160016841F4CE
:1002E00080710160032000F061F8002000F006F842
:1002F00000F024F8002010BD003C024070B50D4D08
:1003000004464FF47A712878B1FBF0F00A49096885
:10031000B1FBF0F000F0B4FA48B9102C07D200227B
:100320002146501E00F022F800206C6070BD0120B4
:1003300070BD0000000000200C0000200A4808B535
:10034000016841F480410160006800F48040009041
:100350000548001F016841F080510160006800F00D
:100360008050009008BD000044380240F0B40E4BAD
:100370001B680C46C3F30223C3F10705042D00D903
:100380000425191D072901D2002300E0DB1E0126E8
:1003900006FA05F1491E214099409E40761E1640FE
:1003A0003143F0BC00F00BBB0CED00E0064900F05F
:1003B000070208684FF6FF03184040EA0220034A8C
:1003C00010430860704700000CED00E00000FA05E3
:1003D0002DE9F0470E46050065D0DFF81481D8F806
:1003E0000000F7B200F00F00B04207D288F80070AA
:1003F000D8F8000000F00F00B04254D128683D4CFE
:10040000810712D5400703D5206840F4E0502060F2
:100410002878000703D5206840F4604020602068F9
:10042000A96820F0F000084320602878C0072DD08C
:10043000304968680839012812D0022813D00328EF
:1004400011D00968890700292DDA216821F00301FC
:1004500001432160FFF72AFF814641F2883A0EE00E
:1004600009688903EFE709688901ECE7FFF71EFFD8
:10047000A0EB0901514502D90320BDE8F0872068AF
:10048000696800F00C00B0EB810FEFD1D8F80010D4
:10049000404601F00F01B14207D90770006800F033
:1004A0000F00B04201D00120E7E72878400705D5CA
:1004B0002068E96820F4E0500843206028780007AD
:1004C00006D52068296920F4604040EAC100206018
:1004D00000F016F82168084AC1F30311515CC840C6
:1004E000064908600020FFF709FF0020C5E700006B
:1004F000003C0240083802400A0A00080C000020B4
:10050000154810B5006810F00C02144813D01449B7
:10051000042A0FD0082A0ED10F4C241F226823680A
:1005200002F03F025B0207D52068C0F38810A0FBF1
:10053000010106E0084610BD2168C1F38811A1FB46
:1005400000010023FFF73CFE2168C1F30141491C73
:100550004900B0FBF1F010BD083802400024F4005F
:10056000001BB7002DE9F84F050076D02878DFF89A
:10057000F8B2BE4CC00749D0DBF800105846C1F3B2
:100580008101012908D00068C0F3810002280AD146
:10059000201D0068400206D52068800336D56868B3
:1005A0000028E2D032E06868B0F5803F10D0B0F5A6
:1005B000A02F206810D020F480302060206820F424
:1005C000802020606868A0B1FFF770FE06460CE04E
:1005D000206840F48030F4E740F480202060F7E7A2
:1005E000FFF764FE801B642873D820688003F7D56A
:1005F0000CE0FFF75BFE064605E000BFFFF756FE86
:10060000801B6428F0D820688003F7D42878DFF8AE
:10061000608280074FF000093ED5DBF80010584695
:1006200011F00C0F09D00068C0F3810002280BD133
:100630008D48001F0068400206D42068800715D549
:10064000E868012809D111E0E868B8B10120C8F8CC
:100650000000FFF72BFE064605E002E1FFF726FE4D
:10066000801B0228C0D820688007F7D52068296938
:1006700020F0F80040EAC10020600DE0C8F80090CA
:10068000FFF714FE064604E0FFF710FE801B022869
:100690001FD820688007F7D42878000722D5724E2B
:1006A000744869696C3671B101210160FFF7FEFD84
:1006B000074604E0FFF7FAFDC01B022809D830689E
:1006C0008007F7D50EE0C0F80090FFF7EFFD074672
:1006D00005E083E0FFF7EAFDC01B02287ED8306802
:1006E0008007F7D42878400768D5DFF87CA1002779
:1006F0000AF1380ADAF80000C0000BD4DAF800106A
:1007000041F08051CAF80010DAF80000012700F02B
:1007100080500090584E3068C00510D4306840F4C6
:1007200080703060FFF7C2FD009005E0FFF7BEFD6E
:100730000099401A022851D83068C005F6D54A4EB3
:10074000A868683601280FD00528306810D020F03E
:1007500001003060306820F004003060A868B8B153
:10076000FFF7A4FD00900FE0306840F00100F4E7CF
:1007700040F004003060F7E7FFF798FD0099411A58
:1007800041F28830814264D830688007F4D50EE0A9
:10079000FFF78CFD009007E0FFF788FD0099411AF4
:1007A00041F28830814254D830688007F4D42FB1A8
:1007B000DAF8001021F08051CAF80010A869C0B31F
:1007C000DBF80010C1F3810102294AD00228484613
:1007D00007D0C8F86000FFF769FD00E039E0054682
:1007E0003AE04746C8F86000FFF760FD064604E0BF
:1007F000FFF75CFD801B02282BD820688001F7D40E
:10080000D5E907010843A96A1C4A490802EB0141DE
:100810006A6A41EA8211084395F82C1040EA0161A6
:100820001148001F016001203866FFF73FFD0546B3
:1008300005E014E0FFF73AFD401B022809D82068C4
:100840008001F7D50BE000BFFFF730FD401B022809
:1008500002D90320BDE8F88F20688001F4D400207D
:10086000F8E70120F6E700000838024000380240AF
:1008700000004742800E4742007000400000FFFF2A
:1008800010B5401EB0F1807F01D3012010BD4FF0A4
:10089000E02460610F21601700F091F80020A06152
:1008A00007202061002010BDFEE70000094808B5C0
:1008B000016841F001010160016801F0010100914E
:1008C000016841F080010160006800F08000009044
:1008D00008BD000030380240FEE77047704770479F
:1008E000FFF7EABC30B593B030216846FFF7A0FCB3
:1008F00014210CA8FFF79CFC19480025016841F061
:1009000080510160006800F0805011901548016826
:1009100041F4804101600068022400F4804011909D
:1009200001200090000401908001CDE906400620DE
:100930000890A820CDE9090404200B906846FFF731
:1009400011FE0CA90F2081E831004FF4A0500F9048
:10095000E002109005210CA8FFF73AFD13B030BD5E
:1009600040380240007000401048016841F47001B6
:1009700001600F48016841F0010101600C4A00214B
:100980000832116002680B4B1A400260031D0A4ACC
:100990001A60026822F48022026005480C3001606F
:1009A00002495806803908607047000088ED00E071
:1009B00000380240FFFFF6FE10300024FEE7090772
:1009C000090E002804DB00F1E02080F800147047D5
:1009D00000F00F0000F1E02080F8141D704702E0E5
:1009E00008C8121F08C1002AFAD1704770470020BA
:1009F00001E001C1121F002AFBD17047FFF764FC20
:100A0000FFF770FFFFF752FFFEE700000000000055
:100A10000000010203040607080900003C0A000860
:100A20000000002010000000DE0900084C0A000849
:100A30001000002000040000EE0900080100000082
:0C0A400010000000000000000024F40082
:040000050800018965
:00000001FF
