:020000040800F2
:100000007006002025020008730C0008D90B0008B8
:10001000710C00081B040008490D000800000000D6
:10002000000000000000000000000000770C000845
:100030001D04000800000000750C0008790C000881
:100040003F0200083F0200083F0200083F0200088C
:100050003F0200083F0200083F0200083F0200087C
:100060003F0200083F0200083F0200083F0200086C
:100070003F0200083F0200083F0200083F0200085C
:100080003F0200083F0200083F0200083F0200084C
:100090003F0200083F0200083F0200083F0200083C
:1000A0003F0200083F0200083F0200083F0200082C
:1000B0003F0200083F0200083F0200083F0200081C
:1000C0003F0200083F0200083F0200083F0200080C
:1000D0003F0200083F0200083F0200083F020008FC
:1000E0003F0200083F0200083F0200083F020008EC
:1000F0003F0200083F0200083F0200083F020008DC
:100100003F0200083F0200083F0200083F020008CB
:100110003F0200083F0200083F0200083F020008BB
:100120003F0200083F0200083F0200083F020008AB
:100130003F0200083F0200083F0200083F0200089B
:100140003F0200083F0200083F0200083F0200088B
:100150003F0200083F0200083F0200083F0200087B
:100160003F0200083F0200083F0200083F0200086B
:100170003F0200083F0200083F02000800000000A4
:100180003F0200083F02000800F002F800F03AF8D1
:100190000AA090E8000C82448344AAF10107DA45E2
:1001A00001D100F02FF8AFF2090EBAE80F0013F0FA
:1001B000010F18BFFB1A43F001031847F40B0000AE
:1001C000140C0000103A24BF78C878C1FAD852073E
:1001D00024BF30C830C144BF04680C6070470000C1
:1001E0000023002400250026103A28BF78C1FBD840
:1001F000520728BF30C148BF0B6070471FB51FBDF5
:1002000010B510BD00F0CFF81146FFF7F7FF00F072
:10021000ADFD00F0EDF803B4FFF7F2FF03BC00F012
:10022000F5F800000948804709480047FEE7FEE767
:10023000FEE7FEE7FEE7FEE7FEE7FEE7FEE7FEE796
:1002400004480549054A064B70470000010D0008A7
:100250008901000870000020700600207002002054
:100260007002002053EA020C00F069802DE9F04B87
:100270004FF00006002B1FBFB3FA83F503FA05F415
:1002800024FA05F65E4012BF1643B2FA82F502FA6E
:1002900005F4C5F120051EBF22FA05FC44EA0C0452
:1002A000203556EA044C4FEA144418BF641C4FF042
:1002B00000084FF00009904271EB030C39D300297C
:1002C00019BFB1FA81F701FA07F6B0FA80F700FA20
:1002D00007F6C7F120071EBF20FA07FC46EA0C0606
:1002E0002037B6FBF4FCA7EB0507103F07F01F0B08
:1002F000CBF120060CFA0BFB2CFA06F644BFB346F2
:100300000026202FA4BF5E464FF0000B5BEA060CD0
:1003100008BF4FF0010B19EB0B09ABFB027C48EB5C
:100320000608C01B06FB02CC0BFB03CC71EB0C01D7
:10033000C1E70B46024641464846BDE8F08B13B57F
:100340004FF000004FF00001AFF30080BDE81C400B
:1003500070474FF0000200B5134694469646203988
:1003600022BFA0E80C50A0E80C50B1F12001BFF46E
:10037000F7AF090728BFA0E80C5048BF0CC05DF8D4
:1003800004EB890028BF40F8042B08BF704748BF22
:1003900020F8022B11F0804F18BF00F8012B704796
:1003A000704770477047754600F02CF8AE46050060
:1003B0006946534620F00700854618B020B5FFF780
:1003C0003FFFBDE820404FF000064FF000074FF020
:1003D00000084FF0000B21F00701AC46ACE8C00963
:1003E000ACE8C009ACE8C009ACE8C0098D4670476C
:1003F00010B50446AFF300802046BDE81040FFF77B
:100400000ABF000000487047100000200149182072
:10041000ABBEFEE7260002007047FEE77047000013
:100420002DE9F84FDFF87CB100224FF001084FF0C2
:10043000030A4FF00F090BF1040E00BF0B6808FA16
:1004400002F42340A3426ED14D68022D01D0122D3B
:100450000ED1D50800EB850CDCF820505607F70EBE
:1004600009FA07F6B5430E69BE402E43CCF820606A
:10047000066855000F790AFA05FC07F0030726EA1B
:100480000C06AF40374307604E68012E05D0022EA0
:1004900003D0112E01D0122E0ED18668CF6826EA25
:1004A0000C06AF40374387604668A6430C79C4F317
:1004B0000014944034434460C6688C6826EA0C06F5
:1004C000AC403443C4604C68E40065D5364C2568C4
:1004D00045F480452560246822F0030504F4804437
:1004E0000094324C2E19D6F8084895072F0F09FAB8
:1004F00007F5AC432E4DA84201D1002524E02D4D37
:10050000A84201D101251FE02B4DA84201D10225AF
:100510001AE02A4DA84201D1032515E0284DA84232
:1005200002D1042510E037E0264DA84201D105256F
:100530000AE0254DA84201D1062505E0234DA84239
:1005400001D1072500E00825BD402543C6F808581D
:10055000DBF800405D464E689C43F60300D51C4323
:100560002C60DEF8004075464E689C43B60300D50B
:100570001C432C600B4D08352C684E689C43F602DA
:1005800000D51C432C60074D0C352C684E689C43ED
:10059000B60200D51C432C60521C102AFFF44EAF4B
:1005A000BDE8F88F003C0140443802400030014073
:1005B000000002400004024000080240000C02401B
:1005C000001002400014024000180240001C0240CB
:1005D0000AB1816170470904FBE7000001488068A7
:1005E000704700000400002002488168027811442E
:1005F00081607047040000200B4810B5016841F489
:1006000000710160016841F480610160016841F49A
:1006100080710160032000F061F8002000F006F80E
:1006200000F024F8002010BD003C024070B50D4DD4
:1006300004464FF47A712878B1FBF0F00A49096852
:10064000B1FBF0F000F0B4FA48B9102C07D2002248
:100650002146501E00F022F800206C6070BD012081
:1006600070BD000004000020000000200A4808B50A
:10067000016841F480410160006800F4804000900E
:100680000548001F016841F080510160006800F0DA
:100690008050009008BD000044380240F0B40E4B7A
:1006A0001B680C46C3F30223C3F10705042D00D9D0
:1006B0000425191D072901D2002300E0DB1E0126B5
:1006C00006FA05F1491E214099409E40761E1640CB
:1006D0003143F0BC00F039BB0CED00E0064900F0FE
:1006E000070208684FF6FF03184040EA0220034A59
:1006F00010430860704700000CED00E00000FA05B0
:100700002DE9F0470E46050065D0DFF81481D8F8D2
:100710000000F7B200F00F00B04207D288F8007076
:10072000D8F8000000F00F00B04254D128683D4CCA
:10073000810712D5400703D5206840F4E0502060BF
:100740002878000703D5206840F4604020602068C6
:10075000A96820F0F000084320602878C0072DD059
:10076000304968680839012812D0022813D00328BC
:1007700011D00968890700292DDA216821F00301C9
:1007800001432160FFF72AFF814641F2883A0EE0DB
:1007900009688903EFE709688901ECE7FFF71EFFA5
:1007A000A0EB0901514502D90320BDE8F08720687C
:1007B000696800F00C00B0EB810FEFD1D8F80010A1
:1007C000404601F00F01B14207D90770006800F000
:1007D0000F00B04201D00120E7E72878400705D597
:1007E0002068E96820F4E05008432060287800077A
:1007F00006D52068296920F4604040EAC1002060E5
:1008000000F016F82168084AC1F30311515CC84092
:10081000064908600020FFF709FF0020C5E7000037
:10082000003C024008380240A00D000800000020F3
:10083000154810B5006810F00C02144813D0144984
:10084000042A0FD0082A0ED10F4C241F22682368D7
:1008500002F03F025B0207D52068C0F38810A0FBBE
:10086000010106E0084610BD2168C1F38811A1FB13
:1008700000010023FFF7F6FC2168C1F30141491C88
:100880004900B0FBF1F010BD083802400024F4002C
:10089000001BB7002DE9F84F050076D02878DFF867
:1008A000F8B2BE4CC00749D0DBF800105846C1F37F
:1008B0008101012908D00068C0F3810002280AD113
:1008C000201D0068400206D52068800336D5686880
:1008D0000028E2D032E06868B0F5803F10D0B0F573
:1008E000A02F206810D020F480302060206820F4F1
:1008F000802020606868A0B1FFF770FE06460CE01B
:10090000206840F48030F4E740F480202060F7E76E
:10091000FFF764FE801B642873D820688003F7D536
:100920000CE0FFF75BFE064605E000BFFFF756FE52
:10093000801B6428F0D820688003F7D42878DFF87B
:10094000608280074FF000093ED5DBF80010584662
:1009500011F00C0F09D00068C0F3810002280BD100
:100960008D48001F0068400206D42068800715D516
:10097000E868012809D111E0E868B8B10120C8F899
:100980000000FFF72BFE064605E002E1FFF726FE1A
:10099000801B0228C0D820688007F7D52068296905
:1009A00020F0F80040EAC10020600DE0C8F8009097
:1009B000FFF714FE064604E0FFF710FE801B022836
:1009C0001FD820688007F7D42878000722D5724EF8
:1009D000744869696C3671B101210160FFF7FEFD51
:1009E000074604E0FFF7FAFDC01B022809D830686B
:1009F0008007F7D50EE0C0F80090FFF7EFFD07463F
:100A000005E083E0FFF7EAFDC01B02287ED83068CE
:100A10008007F7D42878400768D5DFF87CA1002745
:100A20000AF1380ADAF80000C0000BD4DAF8001036
:100A300041F08051CAF80010DAF80000012700F0F8
:100A400080500090584E3068C00510D4306840F493
:100A500080703060FFF7C2FD009005E0FFF7BEFD3B
:100A60000099401A022851D83068C005F6D54A4E80
:100A7000A868683601280FD00528306810D020F00B
:100A800001003060306820F004003060A868B8B120
:100A9000FFF7A4FD00900FE0306840F00100F4E79C
:100AA00040F004003060F7E7FFF798FD0099411A25
:100AB00041F28830814264D830688007F4D50EE076
:100AC000FFF78CFD009007E0FFF788FD0099411AC1
:100AD00041F28830814254D830688007F4D42FB175
:100AE000DAF8001021F08051CAF80010A869C0B3EC
:100AF000DBF80010C1F3810102294AD002284846E0
:100B000007D0C8F86000FFF769FD00E039E005464E
:100B10003AE04746C8F86000FFF760FD064604E08B
:100B2000FFF75CFD801B02282BD820688001F7D4DA
:100B3000D5E907010843A96A1C4A490802EB0141AB
:100B40006A6A41EA8211084395F82C1040EA016173
:100B50001148001F016001203866FFF73FFD054680
:100B600005E014E0FFF73AFD401B022809D8206891
:100B70008001F7D50BE000BFFFF730FD401B0228D6
:100B800002D90320BDE8F88F20688001F4D400204A
:100B9000F8E70120F6E7000008380240003802407C
:100BA00000004742800E4742007000400000FFFFF7
:100BB00010B5401EB0F1807F01D3012010BD4FF071
:100BC000E02460610F21601700F0BFF80020A061F1
:100BD00007202061002010BDFEE700002DE9F04154
:100BE00086B014216846FFF7B4FB1E480024016854
:100BF00041F001010160016801F001010591016806
:100C000041F080010160016801F0800105910168F7
:100C100041F0400101600068134F00F04000059072
:100C200001220E213846FFF7D3FCDFF84080002276
:100C30000E214046FFF7CCFC01250E26CDE90065CC
:100C4000CDE9025469463846FFF7EAFB0096CDE944
:100C50000154694640460394FFF7E2FB06B0BDE845
:100C6000F081000030380240001C024000180240B1
:100C7000FEE7704770477047FFF7B6BC30B593B0DA
:100C800030216846FFF765FB14210CA8FFF761FBD4
:100C900019480025016841F080510160006800F0AA
:100CA000805011901548016841F48041016000684E
:100CB000022400F480401190012000900004019073
:100CC0008001CDE9064006200890A820CDE909045E
:100CD00004200B906846FFF7DDFD0CA90F2081E88A
:100CE00031004FF4A0500F90E002109005210CA8A5
:100CF000FFF706FD13B030BD4038024000700040E1
:100D00000D48016841F0010101600B4A00210832E1
:100D100011600268094B1A400260031D084A1A60FC
:100D2000026822F48022026003480C300160054909
:100D3000580608607047000000380240FFFFF6FECA
:100D40001030002408ED00E0FEE70907090E002836
:100D500004DB00F1E02080F80014704700F00F0081
:100D600000F1E02080F8141D70470000FFF744FCFC
:100D7000FFF784FFFFF732FF084C012202212046D3
:100D8000FFF726FC012204212046FFF721FC002268
:100D900008212046FFF71CFCEFE700000018024086
:100DA000000000000000000001020304060708091B
:100DB000D00D00080000002010000000C401000851
:100DC000E00D00081000002060060000E0010008AF
:100DD0000024F400010000001000000000000000EA
:040000050800018965
:00000001FF
