:020000040800F2
:1000000020800020E902000889100008A90F0008DC
:100010008510000843050008B11100080000000029
:10002000000000000000000000000000290200089D
:100030004705000800000000850200088B1000083A
:100040000303000803030008030300080303000878
:100050000303000803030008030300080303000868
:100060000303000803030008030300080303000858
:100070000303000803030008030300080303000848
:100080000303000803030008030300080303000838
:100090000303000803030008030300080303000828
:1000A0000303000803030008030300080303000818
:1000B0000303000803030008030300080303000808
:1000C00003030008030300080303000803030008F8
:1000D00003030008030300080303000803030008E8
:1000E00003030008030300080303000803030008D8
:1000F00003030008030300080303000803030008C8
:1001000003030008030300080303000803030008B7
:1001100003030008030300080303000803030008A7
:100120000303000803030008030300080303000897
:100130000303000803030008030300080303000887
:100140000303000803030008030300080303000877
:100150000303000803030008030300080303000867
:100160000303000803030008030300080303000857
:100170000303000803030008030300080000000055
:10018000030300080303000800F002F800F03CF845
:100190000AA090E8000C82448344AAF10107DA45E2
:1001A00001D100F031F8AFF2090EBAE80F0013F0F8
:1001B000010F18BFFB1A43F001031847F02000009D
:1001C00010210000103A24BF78C878C1FAD852072D
:1001D00024BF30C830C144BF04680C6070470000C1
:1001E0000023002400250026103A28BF78C1FBD840
:1001F000520728BF30C148BF0B6070471FB502F0DF
:1002000009F81FBD10B510BD00F061F91146FFF7E8
:10021000F5FF01F02FF800F07FF903B4FFF7F2FFCC
:1002200003BC00F087F900002C4B19680868B0E89F
:10023000F04F80F30988BFF36F8F4FF0000080F319
:10024000118870470000000008480068006880F3CB
:1002500008884FF0000080F3148862B661B6BFF3DF
:100260004F8FBFF36F8F00DF00BF00BF08ED00E0CE
:10027000DFF80C00016841F470010160704700BFB5
:1002800088ED00E0EFF30980BFF36F8F134B1A681E
:100290001EF0100F08BF20ED108A20E9F04F10600B
:1002A00009B44FF0500080F31188BFF34F8FBFF3B4
:1002B0006F8F01F0D7FC4FF0000080F3118809BC6C
:1002C00019680868B0E8F04F1EF0100F08BFB0ECD6
:1002D000108A80F30988BFF36F8F70471C000020DD
:1002E000EFF3058070470000094880470948004740
:1002F000FEE7FEE7FEE7FEE7FEE7FEE7FEE7FEE7D6
:10030000FEE7FEE704480549054A064B7047000032
:100310004D110008890100082040002020800020A5
:10032000206000202060002053EA020C00F0698069
:100330002DE9F04B4FF00006002B1FBFB3FA83F5F9
:1003400003FA05F424FA05F65E4012BF1643B2FA2A
:1003500082F502FA05F4C5F120051EBF22FA05FC5C
:1003600044EA0C04203556EA044C4FEA144418BF02
:10037000641C4FF000084FF00009904271EB030C31
:1003800039D3002919BFB1FA81F701FA07F6B0FA9B
:1003900080F700FA07F6C7F120071EBF20FA07FC16
:1003A00046EA0C062037B6FBF4FCA7EB0507103F26
:1003B00007F01F0BCBF120060CFA0BFB2CFA06F60C
:1003C00044BFB3460026202FA4BF5E464FF0000B6B
:1003D0005BEA060C08BF4FF0010B19EB0B09ABFBF6
:1003E000027C48EB0608C01B06FB02CC0BFB03CCCF
:1003F00071EB0C01C1E70B46024641464846BDE899
:10040000F08B13B54FF000004FF00001AFF3008008
:10041000BDE81C40704710B5203AC0F00B80B1E831
:100420001850203AA0E81850B1E81850A0E8185029
:10043000BFF4F5AF5FEA027C24BFB1E81850A0E832
:10044000185044BF18C918C0BDE810405FEA827C4C
:1004500024BF51F8043B40F8043B08BF7047D20763
:1004600028BF31F8023B48BF11F8012B28BF20F804
:10047000023B48BF00F8012B70474FF0000200B567
:10048000134694469646203922BFA0E80C50A0E8B7
:100490000C50B1F12001BFF4F7AF090728BFA0E865
:1004A0000C5048BF0CC05DF804EB890028BF40F831
:1004B000042B08BF704748BF20F8022B11F0804F73
:1004C00018BF00F8012B704770477047704775469A
:1004D00000F02CF8AE4605006946534620F00700B0
:1004E000854618B020B5FFF70DFFBDE820404FF05E
:1004F00000064FF000074FF000084FF0000B21F00E
:100500000701AC46ACE8C009ACE8C009ACE8C009DA
:10051000ACE8C0098D46704710B50446AFF30080C3
:100520002046BDE81040FFF778BE00000048704745
:10053000C03F002001491820ABBEFEE726000200A4
:10054000704700BFFEE7704770470000F8B50246ED
:100550000B460025002400200021DCE0012606FADD
:1005600001F51E6806EA0504AC4273D15E68022EEE
:1005700002D05E68122E13D1CF0802F1200656F881
:1005800027004E07F70E0F26BE40B0434F07FF0E61
:100590001E69BE403043CF0802F1200646F827000E
:1005A00010684F000326BE40B0431E7906F00306D4
:1005B0004F00BE40304310605E68012E08D05E6878
:1005C000022E05D05E68112E02D05E68122E13D165
:1005D00090684F000326BE40B0434F00DE68BE4027
:1005E00030439060506801268E40B0431E79C6F3B8
:1005F00000168E4030435060D0684F000326BE4046
:10060000B0434F009E68BE403043D0605E6806F045
:100610008056B6F1805F7DD100BF00260096404E27
:10062000366846F480463E4F3E603E46366806F4E5
:100630008046009600BF00BF3A4E8F0856F827004C
:100640008E07370F0F26BE40B043374EB24202D15D
:10065000002624E05EE0354EB24201D101261EE0C4
:10066000334EB24201D1022619E0324EB24201D1DC
:10067000032614E0304EB24201D104260FE02F4E83
:10068000B24201D105260AE02D4EB24201D1062622
:1006900005E02C4EB24201D1072600E008268F0764
:1006A0003F0FBE4030431F4E8F0846F82700264EAE
:1006B0003068A0435E6806F48036B6F5803F00D10E
:1006C0002043214E3060361D3068A0435E6806F43A
:1006D0000036B6F5003F00D120431B4E361D30607A
:1006E000361D3068A0435E6806F48016B6F5801F9C
:1006F00000D12043144E08363060361D3068A043C8
:100700005E6806F40016B6F5001F00D120430E4EB9
:100710000C363060491C1029FFF420AFF8BD0000F2
:100720004438024008380140000002400004024002
:1007300000080240000C0240001002400014024079
:1007400000180240001C0240003C01400AB18161D7
:1007500001E00B04836170470148006870470000A6
:100760000C00002003480068034909780844014947
:10077000086070470C0000201400002010B50D48E0
:10078000006840F400700B4908600846006840F4B7
:10079000806008600846006840F4807008600320AC
:1007A00000F098F80F2000F007F800F02BF8002078
:1007B00010BD0000003C024070B504460E480078B1
:1007C0004FF47A71B1FBF0F00C490968B1FBF0F518
:1007D000284600F0CFFB08B1012070BD102C07D2D5
:1007E00000222146501E00F037F80548046001E061
:1007F0000120F2E70020F0E714000020180000209C
:100800001000002008B500BF0020009011480068CB
:1008100040F480400F4908600846006800F48040BA
:10082000009000BF00BF00BF00200090081F0068BC
:1008300040F08050091F08600846006800F08050B2
:10084000009000BF00BF00220F21901E00F004F8AE
:1008500008BD0000443802402DE9F05F80460D4697
:100860001646002700F0A6FC074639462A463346BE
:1008700001F00700C0F1070ABAF1040F02D94FF0E6
:10088000040A01E0C0F1070AD14600F1040ABAF1F6
:10089000070F02D24FF0000A01E0A0F1030AD4468C
:1008A0004FF0010A0AFA09FAAAF1010A0AEA020A51
:1008B0000AFA0CFA4FF0010B0BFA0CFBABF1010B2F
:1008C0000BEA030B4AEA0B042146404600F07AFC8F
:1008D000BDE8F09F00BF00F00702064B19684FF615
:1008E000FF031940044B0B4343EA0221014B1960FB
:1008F00000BF70470CED00E00000FA0570B504463B
:100900000D460CB9012070BD5848006800F00F007A
:10091000A84209D255490D700846006800F00F0042
:10092000A84201D00120EEE7207800F00200022862
:100930001DD1207800F00400042805D14C4800683F
:1009400040F4E0504A490860207800F00800082888
:1009500005D14748006840F4604045490860444874
:10096000006820F0F000A168084341490860207841
:1009700000F00100A8B36068012807D13C4808389E
:100980000068C0F34040B8B90120BCE760680228A5
:1009900002D06068032807D1354808380068C0F3E2
:1009A000406048B90120AEE7314808380068C0F31C
:1009B000400008B90120A6E72D48006820F0030098
:1009C000616808432A490860FFF7C6FE064609E049
:1009D000FFF7C2FE801B41F28831884202D9032012
:1009E00091E707E02248006800F00C006168B0EB76
:1009F000810FEDD11D48006800F00F00A84209D911
:100A00001A490D700846006800F00F00A84201D096
:100A1000012078E7207800F00400042807D114486A
:100A2000006820F4E050E16808431149086020782C
:100A300000F00800082808D10D48006820F4604044
:100A4000216940EAC1000A49086000F017F8084926
:100A50000968C1F30311074A515CC84006490860A0
:100A60000F20FFF7A9FE00204DE70000003C0240E8
:100A70000838024074220008180000202DE9F047D1
:100A8000002400250026A1462548006800F00C003F
:100A900020B1042805D008283AD105E0DFF8849079
:100AA00039E0DFF8849036E01D48001F006800F050
:100AB0003F041B48001F006800F4800078B11A480A
:100AC0001749091F0968C1F38811A0FB017001468D
:100AD000224600233846FFF727FC05460EE0114862
:100AE0000F49091F0968C1F38811A0FB0170014675
:100AF000224600233846FFF717FC05460848001F2A
:100B00000068C0F30140401C4600B5FBF6F902E066
:100B1000DFF8109000BF00BF4846BDE8F087000036
:100B2000083802400024F400001BB700F8B5044662
:100B30000CB90120F8BD207800F00100002874D025
:100B4000F948006800F00C0004280DD0F648006851
:100B500000F00C00082813D1F348001F006800F4CF
:100B60008000B0F5800F0BD1EF4808380068C0F363
:100B70004040002859D06068002856D10120D9E7AC
:100B800000BF6068B0F5803F08D1E74808380068CA
:100B900040F48030E449083908601EE06068B0F530
:100BA000A02F0DD1E0480838006840F48020DE49CD
:100BB000083908600846006840F4803008600CE09E
:100BC000D9480838006820F48030D74908390860CF
:100BD0000846006820F48020086000BF606890B17B
:100BE000FFF7BAFD054606E0FFF7B6FD401B642897
:100BF00001D903209EE7CC4808380068C0F3404084
:100C00000028F1D011E0FFF7A7FD054606E0FFF749
:100C1000A3FD401B642801D903208BE7C248083894
:100C20000068C0F340400028F1D1207800F00200B5
:100C300002285FD1BC48006800F00C0058B1BA48E7
:100C4000006800F00C0008281CD1B748001F00689D
:100C500000F48000B0B9B44808380068C0F3400020
:100C600020B1E068012801D0012063E7AE480838D0
:100C7000006820F0F800216940EAC100AA4908395B
:100C8000086037E0E06800B30120A8490860FFF77A
:100C900063FD054606E0FFF75FFD401B022801D912
:100CA000032047E7A04808380068C0F34000002848
:100CB000F1D09D480838006820F0F800216940EA2A
:100CC000C10099490839086014E00020974908607C
:100CD000FFF742FD054606E0FFF73EFD401B0228F8
:100CE00001D9032026E7904808380068C0F3400087
:100CF0000028F1D1207800F0080008282CD1606984
:100D0000A8B101208A490860FFF726FD054606E0E4
:100D1000FFF722FD401B022801D903200AE7824881
:100D20006C300068C0F340000028F1D014E00020CF
:100D30007F490860FFF710FD054606E0FFF70CFD50
:100D4000401B022801D90320F4E677486C30006884
:100D5000C0F340000028F1D1207800F004000428FE
:100D600070D1002670483830006800F0805090B98B
:100D700000BF002000906C483830006840F0805080
:100D80006949383108600846006800F080500090DA
:100D900000BF00BF01266748006800F48070B0B94A
:100DA0006448006840F4807062490860FFF7D4FC32
:100DB000054606E0FFF7D0FC401B022801D90320BE
:100DC000B8E65C48006800F480700028F2D000BFEC
:100DD000A068012808D154486830006840F001003C
:100DE0005149683108601DE0A06805280DD14E48C2
:100DF0006830006840F004004B49683108600846DC
:100E0000006840F0010008600CE047486830006866
:100E100020F001004449683108600846006820F06D
:100E20000400086000BFA068A8B1FFF795FC054664
:100E300009E0FFF791FC401B41F28831884202D95A
:100E4000032077E626E0384868300068C0F34000A9
:100E50000028EED013E0FFF77FFC054608E0FFF71F
:100E60007BFC401B41F28831884201D9032061E6B6
:100E70002D4868300068C0F340000028EFD1012EF3
:100E800007D129483830006820F080502649383191
:100E9000086000BFA069B8B32348006800F00C00E8
:100EA00008285ED0A069022846D100201F490866A4
:100EB000FFF752FC054606E0FFF74EFC401B0228F8
:100EC00001D9032036E6184808380068C0F34060AE
:100ED0000028F1D1D4E907010843616A40EA811191
:100EE0000122A06AC2EB500041EA00412C20005DC3
:100EF00041EA00600C49091F086001200B4908669F
:100F0000FFF72AFC054607E02DE0FFF725FC401B14
:100F1000022801D903200DE6034808380068C0F311
:100F200040600028F1D01EE008380240000047422F
:100F3000800E47420070004000200C490866FFF711
:100F40000BFC054606E0FFF707FC401B022801D911
:100F50000320EFE506480068C0F340600028F2D1A6
:100F600001E00120E6E50020E4E500000000474242
:100F70000038024070B504462546681EB0F1807FF7
:100F800001D301200FE0681E4FF0E02148610F21DE
:100F90004FF0FF3000F016F900204FF0E02188619B
:100FA00007200861002070BD00BFFEE700B595B0C6
:100FB0001C2212490EA8FFF72EFA00210EA800F0FD
:100FC00085F90F4908601C220C491C3107A8FFF75E
:100FD00022FA002107A800F079F90A4908601C22CA
:100FE000064938316846FFF716FA0021684600F0D6
:100FF0006DF90549086015B000BD00002022000809
:1010000000000020040000200800002000B587B088
:10101000142102A8FFF731FA00BF00200190174801
:10102000006840F00100154908600846006800F0BB
:101030000100019000BF00BF00BF002001900846E2
:10104000006840F0800008600846006800F08000FA
:10105000019000BF00BF01224FF4E0510848FFF7A4
:1010600075FB4FF4E050029001200390049005902E
:1010700002A90348FFF76AFA07B000BD3038024002
:10108000001C024000BFFEE7704710B5FFF76AFB87
:1010900000F014F910BD000000B593B0302107A88E
:1010A000FFF7EBF9142102A8FFF7E7F900BF0020D2
:1010B00001902448006840F08050224908600846AA
:1010C000006800F08050019000BF00BF00BF00200A
:1010D00001901D48006840F480401B4908600846A4
:1010E000006800F48040019000BF00BF012007901D
:1010F0000004089002200D9041050E9106210F91E9
:10110000A8211091022111910721129107A8FFF740
:101110000DFD08B1FFF718FA0F200290022003908E
:10112000002004904FF4A05005904FF4805006909A
:10113000052102A8FFF7E2FB08B1FFF705FA13B09B
:1011400000BD0000403802400070004014480068B4
:1011500040F47000124908601248006840F0010035
:101160001049086000200F49083108600D480068E8
:101170000D4908400B4908600C48091D0860081F0C
:10118000006820F48020091F0860002005490C3108
:1011900008604FF000600249803908607047000025
:1011A00088ED00E000380240FFFFF6FE103000241A
:1011B00000BFFEE702480068C0F30220704700004D
:1011C0000CED00E010B5002804DB0A07130E054AF9
:1011D000135406E00A07140E034A00F00F031B1F06
:1011E000D45410BD00E400E018ED00E01CE0002243
:1011F0004FF480610D48FFF7A9FA4FF4FA7000F040
:101200004CF800224FF480610848FFF79FFA4FF432
:10121000FA7000F042F8012291020448FFF796FAB2
:101220004FF4FA7000F039F8E1E70000001C0240CA
:101230001CE000224FF400610D48FFF787FA4FF4DD
:10124000FA7000F02AF80122D1020948FFF77EFA6D
:101250004FF4FA7000F021F800224FF400610448C6
:10126000FFF774FA4FF4FA7000F017F8E1E70000A6
:10127000001C0240FFF782FAFFF70EFFFFF7C6FEE1
:10128000FFF794FE00F015F800BFFEE701460020CE
:10129000842901D0CA1C1044704770B50446254605
:1012A0000DB1294600E00121084600F04DFC002068
:1012B00070BD10B500F076FC002010BD10B500F038
:1012C00073FE012801D000F0C7FD10BD7FB50446B4
:1012D0000D46606998B1A06988B1B4F90800FFF7BC
:1012E000D5FF0646D4E90510CDE9006102902B46F2
:1012F0002269D4E9001000F0FBFD039013E0B4F97B
:101300000800FFF7C3FF064603A8CDE90060238A63
:101310009AB22B46D4E9001000F0B8FD012802D0A3
:10132000002004B070BD0398FBE700002DE9F041F8
:1013300005460E461C4807681C480068001D00F062
:1013400007FB50B91948006890F82C10012088401C
:1013500017490968814316480160681C38B936B1DD
:1013600012480168091D134800F03CFB1AE07C1983
:101370000E4800684460BC4207D20C480168091D51
:101380000D48006800F014FB0CE008480168091DD6
:101390000A48006800F00CFB09480068844201D24A
:1013A00007480460BDE8F081300000201C000020E8
:1013B00034000020AC030020240000202000002086
:1013C0004C00002010B5044600F018FB23480068CC
:1013D000401C224908602248006840B92048046047
:1013E0000846006801280DD100F03AF90AE01D48CE
:1013F000006838B91A480068C06AE16A884201D8B2
:101400001748046018480068401C1749086094F8A1
:101410002C100120884015490968084313490860C9
:10142000E16A01EB8101124A02EB8100211D00F00B
:10143000D9FA00F00DFB0B48006868B10848006855
:10144000C06AE16A884207D24FF0805009490860BB
:10145000BFF34F8FBFF36F8F10BD00002C00002033
:101460001C0000203800002048000020340000202C
:10147000D002002004ED00E010B516E000F0BEFA46
:101480000C48C068C468201D00F062FA0A48006871
:10149000401E0949086009480068401E0749086065
:1014A00000F0D6FA204600F00BF804480068002847
:1014B000E4D110BD980300202C000020280000205B
:1014C00010B5044694F8510030B9206B00F0DEFAF4
:1014D000204600F0DBFA1AE094F85100012803D10D
:1014E000204600F0D3FA12E094F85100022801D10E
:1014F000012000E0002050B900BF502080F3118887
:10150000BFF34F8FBFF36F8F00BF00BFFEE710BD6B
:1015100030B54FF47053174800F007042CB1C01DCC
:1015200020F00700134C041B1B1B0246124C2260C8
:101530000024114D6C60D018083820F007000F4CC3
:10154000206000240D4D2D686C600C4D2D682C60C2
:101550001146441A4C60094C24680C60084D4C68D4
:101560002C60084D4C682C604FF00044064D2C60F8
:1015700030BD0000C00300205800002060000020A3
:1015800068000020640000206C00002000BFFFF70E
:1015900073FF064800680128F9D94FF080500449CC
:1015A0000860BFF34F8FBFF36F8FF0E7D0020020CA
:1015B00004ED00E02DE9FF5F81460F469246DDE92C
:1015C0000E6B109CAAF10100216B01EB800828F042
:1015D000070808F0070008B9012000E0002050B912
:1015E00000BF502080F31188BFF34F8FBFF36F8F80
:1015F00000BF00BFFEE7002507E0795D04F134007D
:101600004155785D00B902E06D1C102DF5D300BF87
:10161000002143200155072E00D30626E6626664AA
:101620000020A064201D00F0C0F904F1180000F0B3
:10163000BCF92461C6F10700A06164620020E06487
:1016400084F8500049464046039A00F049F920606A
:10165000BBF1000F01D0CBF80040BDE8FF9F0000B8
:1016600010B5002407E004EB84010F4A02EB81006F
:1016700000F08EF9641C072CF5D30C4800F088F9B3
:101680000B4800F085F90B4800F082F90A4800F099
:101690007FF90A4800F07CF90448094908600448C9
:1016A0000849086010BD0000D00200205C03002043
:1016B000700300208403002098030020AC03002066
:1016C000200000202400002010B50146164800E04C
:1016D000006803688B42FBD30246436813448B4285
:1016E00004D143684C682344436001460A464B6872
:1016F00013440468A34211D10C4C03682468A3422C
:1017000008D04B680468646823444B6003681B6816
:101710000B6005E0054B1B680B6001E003680B6084
:10172000884200D0016010BD5800002060000020F9
:101730000A490968096809B9012100E0002121B1BD
:101740004FF0FF31064A116006E004490968C96894
:10175000C868034A416811607047000020000020FB
:101760004C0000200E480068401C08B9012000E031
:10177000002050B900BF502080F31188BFF34F8F75
:10178000BFF36F8F00BF00BFFEE700BF502080F3A4
:101790001188BFF34F8FBFF36F8F00BF00BFFEE70D
:1017A000700000202DE9F04104464FF0000800F0E1
:1017B00051FA4648006808B9FFF7AAFE4448006895
:1017C000204000286BD1D4B1083404F00700B0B138
:1017D00004F00700C0F10800044404F0070008B951
:1017E000012000E0002050B900BF502080F3118894
:1017F000BFF34F8FBFF36F8F00BF00BFFEE7002C1A
:101800004DD034480068844249D8334E304605688C
:1018100001E02E462D686868A04202D228680028A0
:10182000F7D12A480068854239D0306800F10808AD
:10183000286830606868001B102819D92F1907F034
:10184000070008B9012000E0002050B900BF502077
:1018500080F31188BFF34F8FBFF36F8F00BF00BFBE
:10186000FEE76868001B78606C603846FFF72CFF65
:10187000184968680968081A164908600846006827
:1018800016490968884203D2124800681349086063
:101890000F4968680968084368600020286000F004
:1018A00037FC08F0070008B9012000E0002050B91B
:1018B00000BF502080F31188BFF34F8FBFF36F8FAD
:1018C00000BF00BFFEE74046BDE8F0816000002099
:1018D0006C000020640000205800002068000020F8
:1018E000001F4FF080730360001F21F001030360AD
:1018F000001F054B036014380260001F6FF00203E5
:101900000360203870470000651700081CE00122C2
:1019100011030E48FEF71AFF4FF4FA70FFF7BDFCF3
:1019200000224FF480510948FEF710FF4FF4FA707F
:10193000FFF7B3FC00224FF480510448FEF706FF86
:101940004FF4FA70FFF7A9FCE1E70000001C024029
:1019500001460A69D1E901309860D1E90103586074
:101960005068884201D18868506000200861106882
:10197000401E106010687047034B0360034B0B6000
:1019800080231360704700007C000020D0000020FE
:1019900000F1080141604FF0FF31816000F1080162
:1019A000C160016100210160704700210161704741
:1019B00010B502460B685C1C0CB9106907E002F117
:1019C000080000E04068446824689C42FAD94468F2
:1019D0004C604C68A160886041600A611468641CB6
:1019E000146010BD42684A6093688B6093685960C8
:1019F0009160086103685B1C0360704700BF502062
:101A000080F31188BFF34F8FBFF36F8F00BF0E4875
:101A10000068401C0C49086008460068012812D183
:101A20000A480068C0B208B9012000E0002050B99F
:101A300000BF502080F31188BFF34F8FBFF36F8F2B
:101A400000BF00BFFEE770477000002004ED00E01B
:101A50000D48006850B900BF502080F31188BFF3D3
:101A60004F8FBFF36F8F00BF00BFFEE706480068CF
:101A7000401E054908600846006820B9002080F330
:101A8000118800BF00BF70477000002070B5064687
:101A90003546002E3FD0083D2C461F496068096836
:101AA000084008B1012000E0002050B900BF5020DC
:101AB00080F31188BFF34F8FBFF36F8F00BF00BF5C
:101AC000FEE7206808B9012000E0002050B900BFFF
:101AD000502080F31188BFF34F8FBFF36F8F00BF8B
:101AE00000BFFEE70C4960680968084098B12068AB
:101AF00088B90949606809688843606000F0AAF8FD
:101B00000649606809680844044908602046FFF7F0
:101B1000DBFD00F0FDFA70BD6C00002064000020C9
:101B200000204FF0E02108618861064800684FF40A
:101B30007A71B0FBF1F0401E4FF0E02148610720C0
:101B4000086170471800002070B504460025D4B124
:101B50001248006808B9012000E0002050B900BF19
:101B6000502080F31188BFF34F8FBFF36F8F00BFFA
:101B700000BFFEE700F06EF800212046FFF7D6FB1D
:101B800000F0C6FA05463DB94FF0805004490860A0
:101B9000BFF34F8FBFF36F8F70BD00005400002064
:101BA00004ED00E010B586B000200590049003AA73
:101BB00004A905A8FFF7E0FE0022DDE904101346A2
:101BC000CDE9002102901CA11D48039A00F090F974
:101BD0001C4908600846006808B1012400E00024A0
:101BE000012C15D100BF502080F31188BFF34F8F17
:101BF000BFF36F8F00BF4FF0FF3013490860012023
:101C00001249086000201249086000F071F810E0E5
:101C1000601C08B1012000E0002050B900BF502036
:101C200080F31188BFF34F8FBFF36F8F00BF00BFEA
:101C3000FEE706B010BD000049444C45000000001E
:101C40008D150008500000204C00002038000020B6
:101C50003000002002480068401C014908607047BD
:101C6000540000201D48006818B101201C4908607C
:101C700032E000201A4908601A480068B0FA80F083
:101C8000C0F11F0101EB8100174A52F8200008B192
:101C9000012000E0002050B900BF502080F31188DF
:101CA000BFF34F8FBFF36F8F00BF00BFFEE701EBA5
:101CB00081020D4B03EB820042685268426000F1E2
:101CC00008024368934202D1426852684260426807
:101CD000D268064B1A6000BF704700005400002015
:101CE0004000002034000020D00200201C00002012
:101CF0001CB5524800685249884201D0012000E0DA
:101D0000002050B900BF502080F31188BFF34F8FDF
:101D1000BFF36F8F00BF00BFFEE748480068484927
:101D2000491E884201D0012000E0002050B900BFC8
:101D3000502080F31188BFF34F8FBFF36F8F00BF28
:101D400000BFFEE73F49084600780190FF200A46A1
:101D500010700846007800909DF8000000F0F00038
:101D60009DF80020904201D1012000E0002050B9F0
:101D700000BF502080F31188BFF34F8FBFF36F8FE8
:101D800000BF00BFFEE79DF8000000F050002E4AA3
:101D9000107007202D4A106009E02C480068401E92
:101DA0002A4A10609DF800004006000E00909DF841
:101DB000000000F080008028EFD024480068C0F1C7
:101DC0000700042801D1012000E0002050B900BF25
:101DD000502080F31188BFF34F8FBFF36F8F00BF88
:101DE00000BFFEE7194800680002184A106010465C
:101DF000008800F4E0601060124A019810700F48EB
:101E00002030006840F470000C492031086008461A
:101E1000006840F070400860FFF782FE00200C4927
:101E20000860FEF725FA0B48006840F04040094979
:101E30000860FEF709FA00201CBD000000ED00E07C
:101E400071C20F4100E400E074000020780000201F
:101E50007000002034EF00E010B500BF502080F388
:101E60001188BFF34F8FBFF36F8F00BF00F0ACF846
:101E700018B14FF080500449086000BF002080F383
:101E8000118800BF10BD000004ED00E02DE9FF4FF8
:101E900085B0804689461746DDE912ABB800FFF7EA
:101EA00081FC064656B15420FFF77CFC04460CB179
:101EB000266304E03046FFF7E9FD00E000248CB122
:101EC000002084F85100CDE900ABCDE902403A464C
:101ED00049464046089BFFF76DFB2046FFF772FA24
:101EE000012501E04FF0FF35284609B0BDE8F08F2D
:101EF0002DE9F04F85B00746884691469A46DDE9C0
:101F00000EB6109C0EB1012000E0002050B900BFB9
:101F1000502080F31188BFF34F8FBFF36F8F00BF46
:101F200000BFFEE70CB1012000E0002050B900BF67
:101F3000502080F31188BFF34F8FBFF36F8F00BF26
:101F400000BFFEE7542003900398542801D10120DC
:101F500000E0002050B900BF502080F31188BFF38B
:101F60004F8FBFF36F8F00BF00BFFEE7B4B1AEB1BC
:101F700025462C462E63022085F85100002004A936
:101F800053464A46CDE900B1CDE9025041463846B4
:101F9000FFF710FB2846FFF715FA01E00020049038
:101FA000049805B0BDE8F08F0549096809B901201A
:101FB00005E00449096809B9022000E000207047E3
:101FC00038000020540000202DE9F0414FF00008B7
:101FD00044480068002877D143480068451C4248BF
:101FE000056015BB41480068006808B9012000E0A1
:101FF000002050B900BF502080F31188BFF34F8FED
:10200000BFF36F8F00BF00BFFEE73848076838484E
:102010000068364908603648076036480068401C4A
:1020200034490860FFF784FB00BF334800688542ED
:102030003CD300BF2D480068006808B9012000E0CB
:10204000002020B14FF0FF302B4908602DE02748D9
:102050000068C068C4686668B54202D22648066057
:1020600023E0201DFFF774FCA06A18B104F11800EA
:10207000FFF76EFC94F82C10012088401F49096876
:1020800008431E490860E16A01EB81011C4A02EB2A
:102090008100211DFFF7A6FC1A49E06A0968C96A98
:1020A0008842C7D34FF00108C4E700BF1548006855
:1020B000C06A00EB8000124951F82000012801D9C4
:1020C0004FF0010805E0FFE70F480068401C0E498B
:1020D00008600E48006808B14FF001084046BDE8AE
:1020E000F08100005400002030000020200000207B
:1020F00024000020440000204C0000203400002078
:10210000D00200201C0000203C00002040000020E5
:1021100070B5002400263648006850B900BF502032
:1021200080F31188BFF34F8FBFF36F8F00BF00BFE5
:10213000FEE7FFF763FC2E480068401E2C4908604C
:102140000846006800284FD12A48006800284BD074
:1021500024E02948C068C46804F11800FFF7F8FBC0
:10216000201DFFF7F5FB94F82C100120884023492F
:102170000968084321490860E16A01EB8101204AAE
:1021800002EB8100211DFFF72DFC1E49E06A096862
:10219000C96A884202D301201B49086016480068BA
:1021A00008B9012000E000200028D2D00CB1FFF7D0
:1021B000BFFA1648056865B100BFFFF705FF10B10B
:1021C0000120114908606D1E002DF6D100200F4935
:1021D00008600D48006838B1012630070C490860D6
:1021E000BFF34F8FBFF36F8FFFF732FC304670BDE8
:1021F000540000202C000020840300203400002024
:10220000D00200201C000020400000203C000020E4
:1022100004ED00E04FF04070E1EE100A704700005E
:102220008C2200080D1900080000000000000000CA
:10223000800000000000000000000000A022000854
:1022400031120008020000000000000080000000C1
:10225000000000000000000094220008ED110008BA
:1022600002000000000000008000000000000000EC
:102270000000000000000000000000000102030454
:102280000607080900000000010203044C45445FF2
:10229000524544004C45445F424C55450000000007
:1022A0004C45445F475245454E000000CC22000893
:1022B000000000207C000000C40100084823000842
:1022C0007C000020A47F0000E00100080000000066
:1022D00000000000000000000000000010000000EE
:1022E000010000000024F4000000000000000000D5
:1022F00000000000000000000000000000000000DE
:1023000000000000000000000000000000000000CD
:1023100000000000000000000000000000000000BD
:1023200000000000000000000000000000000000AD
:10233000000000000000000000000000AAAAAAAAF5
:08234000000000000000000095
:040000050800018965
:00000001FF
