:020000040800F2
:1000000020090020D5020008BD2F0008212E00087D
:10001000B92F0008AD1C00080D36000800000000D4
:100020000000000000000000000000005D3000083B
:100030009F1D000800000000BF2F00085F3000086F
:10004000EF020008EF020008EF020008EF020008CC
:10005000EF020008EF020008EF020008EF020008BC
:10006000EF020008EF020008EF020008EF020008AC
:10007000EF020008EF020008EF020008EF0200089C
:10008000EF020008EF020008EF020008EF0200088C
:10009000EF020008EF020008EF020008EF0200087C
:1000A000EF020008EF020008EF020008EF0200086C
:1000B000EF020008EF020008EF020008EF0200085C
:1000C000EF020008EF020008EF020008EF0200084C
:1000D000EF020008EF020008EF020008E934000810
:1000E000EF020008EF020008EF020008EF0200082C
:1000F000EF020008EF020008EF020008EF0200081C
:10010000EF020008EF020008EF020008EF0200080B
:10011000EF020008EF020008EF020008EF020008FB
:10012000EF020008EF020008EF020008EF020008EB
:10013000EF020008EF020008EF020008EF020008DB
:10014000EF020008EF020008EF020008EF020008CB
:10015000EF020008EF020008B11C0008EF020008DF
:10016000EF020008EF020008EF020008EF020008AB
:10017000EF020008EF020008EF0200080000000094
:10018000EF020008EF02000800F002F800F092F819
:100190000AA090E8000C82448344AAF10107DA45E2
:1001A00001D100F087F8AFF2090EBAE80F0013F0A2
:1001B000010F18BFFB1A43F001031847D83900009C
:1001C000F8390000103A24BF78C878C1FAD852072D
:1001D00024BF30C830C144BF04680C6070470000C1
:1001E0000023002400250026103A28BF78C1FBD840
:1001F000520728BF30C148BF0B6070476E2900F01E
:10020000DB81702900F01D83662903F0EC836529EA
:1002100003F0E983672903F0E683612903F0E583AE
:1002200003681B0A28BF41F08001692900F088811A
:10023000642900F08581752900F082816F2900F022
:10024000AB82782900F0E982E92900F04582E429AF
:1002500000F04282F52900F03F82EF2900F0A882E9
:10026000F82900F0E8820368DB0928BF41F080012B
:10027000632900F0E987732900F0EE87E32900F095
:10028000F987F32900F0FE87002070471FB503F0BF
:10029000A5FB01F049F804000020002103F088FBD1
:1002A000401C60600020002103F06CFBE0601FBD7B
:1002B00010B510BD01F00AF81146FFF7E7FF03F093
:1002C000E7F901F0E3F803B4FFF7F2FF03BC01F034
:1002D0002BF900000948804709480047FEE7FEE780
:1002E000FEE7FEE7FEE7FEE7FEE7FEE7FEE7FEE7E6
:1002F00004480549054A064B704700001D310008B7
:10030000890100082003002020090020200500208A
:100310002005002053EA020C00F069802DE9F04B23
:100320004FF00006002B1FBFB3FA83F503FA05F464
:1003300024FA05F65E4012BF1643B2FA82F502FABD
:1003400005F4C5F120051EBF22FA05FC44EA0C04A1
:10035000203556EA044C4FEA144418BF641C4FF091
:1003600000084FF00009904271EB030C39D30029CB
:1003700019BFB1FA81F701FA07F6B0FA80F700FA6F
:1003800007F6C7F120071EBF20FA07FC46EA0C0655
:100390002037B6FBF4FCA7EB0507103F07F01F0B57
:1003A000CBF120060CFA0BFB2CFA06F644BFB34641
:1003B0000026202FA4BF5E464FF0000B5BEA060C20
:1003C00008BF4FF0010B19EB0B09ABFB027C48EBAC
:1003D0000608C01B06FB02CC0BFB03CC71EB0C0127
:1003E000C1E70B46024641464846BDE8F08B13B5CF
:1003F0004FF000004FF00001AFF30080BDE81C405B
:10040000704700001CB50C46064B7B4469460090C3
:10041000204600F0EAF804460020694600F0F8F8AB
:1004200020461CBD030200004FF0000200B5134639
:1004300094469646203922BFA0E80C50A0E80C5004
:10044000B1F12001BFF4F7AF090728BFA0E80C50B5
:1004500048BF0CC05DF804EB890028BF40F8042BAE
:1004600008BF704748BF20F8022B11F0804F18BF1B
:1004700000F8012B704770477047704770B504460D
:1004800085690068C10601D5302600E02026C00736
:1004900007D070BDD4E9012130469047206A401C46
:1004A00020626D1EF6D570BD70B504468569007872
:1004B000C00707D170BDD4E9012120209047206AF0
:1004C000401C20626D1EF6D570BD09684A0501D535
:1004D00040B27047C905FCD500B2704709684A05AB
:1004E00001D5C0B27047C905FCD580B2704770B560
:1004F0000C460546012A05D02878800600D5EA6911
:10050000002302E0012305E05B1C934202D2E05C81
:100510000028F9D1A869E618C01AA861286A184409
:1005200028622846FFF7AAFF04E0D5E9012114F864
:10053000010B9047B442F8D32846FFF7B5FF70BDD2
:100540002DE9F0410646002410687529314616A5AC
:1005500010D0FFF7BAFF002802DA404213A507E0E7
:1005600031688A0701D512A502E0490704D511A513
:10057000012401E0FFF7B2FF00210A2206F124075F
:1005800009E0B0FBF2FCB0FBF2F302FB1C003030E0
:1005900078541846491C0028F3D123462A46304691
:1005A000BDE8F04100F061BA000000002D0000003D
:1005B0002B0000002000000011680268006A53054B
:1005C00001D508700AE0D30501D5088006E01306BE
:1005D00003D5C217C1E9000200E00860012070479E
:1005E00001694A1C02610878704700B58FB0CDE9F7
:1005F00001310021059105497944CDE903101146E7
:10060000684600F029F90FB000BD0000E5FFFFFFCC
:100610000A6802F8010B0A60704700002DE9FF5FCD
:1006200015468A460446DFF8AC80F8440027D8E92E
:1006300000103E46CDE9001010E03AF816106A4668
:1006400002A800F023FE411C07D02178890603D5BB
:10065000E269391891420DD80744761C207880064B
:1006600002D5E069B84205DDAE42E6DB3AF8160095
:100670000028E2D1A069C01BA0612046FFF7FEFE62
:10068000D8E90010CDE90010002017E03AF8181062
:100690006A4602A800F0FAFDB0F1FF3F81460BD098
:1006A00000250DF1080B05E0D4E901211BF8050038
:1006B00090476D1C4D45F7D308F10100B0428046CC
:1006C000E4DB206A384420622046FFF7EDFEBDE8F7
:1006D000FF9F0000E23300002DE9F0418046D21D6B
:1006E00022F007020025D2E90002F52915A614D050
:1006F000011E72F1000106DA0023D0EB030063EB68
:10070000020211A608E0D8F800108B0701D50FA649
:1007100002E0490701D50EA601251146002408F183
:10072000240704E000F05CF930323A55641C50EACA
:100730000102F7D12B46324621464046BDE8F04142
:1007400000F093B9000000002D0000002B00000015
:100750002000000030B4002100F1240408E002F081
:100760000705D208303542EA4372DB086554491C5C
:1007700052EA0305F3D10468002310A2250708D527
:1007800004F020040C4304D0C46901230CA2641EAD
:10079000C46130BC00F069B910B504462146106848
:1007A000FFF79CFE02462046BDE810400023D1E73B
:1007B000D21D22F00701D1E90023CBE700000000A1
:1007C00030000000F0B40D460188090502D5214C27
:1007D0007C4402E01F4C7C440E34002100F12406CE
:1007E00008E002F00F071209E75D42EA03721B09F5
:1007F0007754491C52EA0307F3D102780023120709
:1008000004D5702D06D009B1022311342246F0BC64
:1008100000F02BB901231034F8E770B504460D46FB
:1008200021461068FFF75AFE024629462046BDE8D9
:1008300070400023C6E7D21D22F00703D3E900234E
:10084000C0E70368126843F0200303600823C36114
:100850000023B7E7443200002DE9F05F89460446E3
:100860004FF0000ADFF874B1FB44C0F820A0204626
:10087000E1688847002874D0252806D0D4E90121F2
:100880009047206A401C2062F1E700265F46204620
:10089000E16888472028054607DB312D05D2781905
:1008A00010F8200C08B10643F1E7B00701D526F097
:1008B0000406C4F81CA00027C4F818A02A2D09D0EB
:1008C000284602F0D9FE38B304EB8708303DC8F85B
:1008D000185019E059F8041B204604EB8702916177
:1008E000E1688847012F054618D1E069002820DA21
:1008F00026F020061DE0D8F8180000EB800005EB7C
:1009000040003038C8F818002046E168884705469E
:1009100002F0B2FE0028EED1012F0AD02E2D08D110
:100920002046E16888477F1C0546022F46F02006D6
:10093000C4DBA069002803DA404246F00106A0614A
:10094000F00701D026F010066C2D0BD0682D09D0D1
:100950004C2D39D06A2D35D0742D35D07A2D33D029
:1009600016E038E0E1682F4620468847B842054641
:1009700009D16C2F26D04FF48060E16806432046F1
:100980008847054604E06C2F1AD04FF48070064368
:100990000DB3A5F14100192802D8203546F40066B0
:1009A0004A462946204626604E46FFF727FC80B17E
:1009B00001280BD0F61D26F0070000F1080956E7C4
:1009C0004020E4E78020D8E70020D6E706F10409BC
:1009D0004DE7284652E7206ABDE8F09FD431000079
:1009E00030B5B0F10A024FEA900E71F100034EEA01
:1009F000817EB0EB0E0061EB91014FEA101E4EEAD2
:100A0000017E10EB0E0041EB11114FEA102E4EEA61
:100A1000016E10EB0E0041EB11214FEA104E4EEA31
:100A2000014E10EB0E0041EB1141401841F1000165
:100A30004FEAD00040EA41704FEAD10110EB800547
:100A40004FEA810444EA907444EB01046D1944EBCD
:100A50000404521BA3414FF0000348BF0A3200D5E3
:100A600030BD401C41F1000130BD2DE9F0470D467D
:100A700099469246044600F124080168880604D588
:100A8000E06921F01001216000E00120A84201DDB1
:100A9000471B00E00027A1697A1902EB0900081A38
:100AA000A0612078C00602D42046FFF7E7FC0026AC
:100AB00008E0D4E901211AF806009047206A401C9A
:100AC000761C20624E45F4DB2078C0060AD520460D
:100AD000FFF7D4FC06E0D4E9012130209047206ADA
:100AE000401C2062381EA7F10107F4DC07E0D4E9BE
:100AF000012118F805009047206A401C2062281E3A
:100B0000A5F10105F3DC2046FFF7CEFC20780006B6
:100B100002D50220BDE8F0870120FBE770472DE9F0
:100B2000FF4F0C461E464FF0FF378BB0D2E9000155
:100B3000DDF860800A908A46C1F30A5505B93D4642
:100B4000002108464FF00000BAF1000F00F4400009
:100B500005DA00EB80004FF4400101EA50004FEA53
:100B60009059B9F1010F00DDB9460A9850EA4A00E0
:100B70000ED044F61050A5F2FF3545432F14B8F1BE
:100B8000000F1ED07542291E1EDDC9F100021CE0B7
:100B9000B8F1010F4FF0000001D0302103E0F24323
:100BA00005E02154401CB042FBDB3046002200210E
:100BB00021540B99C1F80880C1E900200FB0BDE8AD
:100BC000F08FBD1B6D1CDEE74A4600DA694206A8BD
:100BD00000F0EEFB06AB93E8070003AB83E80700E9
:100BE00050460A9900F0A7FC8DE80700A0F50050D8
:100BF0001F3800900398002D09DD42F21F014A467C
:100C0000084403A90390684600F006FF08E0A0F539
:100C100000504A461F3803A90390684600F010FFB1
:100C20008DE807000004000C03D04FF0FF304108AE
:100C300000E01046B8F1000F03D0002200921546E4
:100C40001EE0751E05D4FFF7CBFE303262556D1ED7
:100C5000F9D5B3460122084302D000227F1C04E0EC
:100C60002078302801D100227F1E002A099786D0E3
:100C70001DE0112D07DAFFF7B3FE303262556D1C0F
:100C800050EA0102F5D1084302D00098C8B10EE045
:100C90000021681E05E0235C625C63542254401E00
:100CA000491C8142F7DBAB46A81B401E099000207F
:100CB00004F80B000B98099AC0F80880C0E9002BD3
:100CC0007CE711264FF0000859E72DE9F04F8846E0
:100CD0000446D21D22F0070191B0D1E90001CDE90F
:100CE0000A0102F095FC02460B98C00F01D02D209E
:100CF00007E02068810701D52B2002E0202101EACE
:100D0000C000032A099001D0072A05DB03464146AB
:100D1000204600F00DFB0BE12078800601D5E0694C
:100D200000E00620B8F1650F814606D0B8F1660FE5
:100D300018D0B8F1670F70D131E00020B9F1110F70
:100D4000009001DB112301E009F101030AAA01A9C6
:100D50000CA8FFF7E4FEDDE90C70002609F101059F
:100D6000834647E001204B4600904FF000470AAA17
:100D700001A90CA8FFF7D3FEDDE90DB00C995D4683
:100D8000002610B909F101000D18B9EB050003D4D4
:100D9000C0F1FF3609F10105A5EB09002BE0B9F11F
:100DA000010F01DA4FF001090020B9F1110F009095
:100DB000484601DD112300E003460AAA01A90CA858
:100DC000FFF7ADFEDDE90C704D4600268346207826
:100DD00000070AD4AB4500DA5D4601A8012D04DD09
:100DE000411911F8011C302907D04F4502DA17F1DB
:100DF000040F04DA012082460FE06D1EEEE7002F9B
:100E000002DCED1B3E4403E0781CA84200DD7D1CA3
:100E1000B81B00F1010A4FF000472078000703D407
:100E2000AA4501DB4FF0FF3A0021B7F1004F0DF169
:100E300043088DF8431024D002202B23002F01DA21
:100E40007F422D230A21021EA0F1010000DC5FB1C8
:100E500097FBF1FC97FBF1F201FB1C7C17460CF1B0
:100E6000300C08F801CDEEE7A8F1010003702188ED
:100E7000090501D5452100E06521A0F1010800F830
:100E8000011C09980FA9A1EB0807FF1D00B1012063
:100E9000411901EBEA70A1693844081A401EA061AB
:100EA0002078C00602D42046FFF7E8FA099828B156
:100EB000D4E901219047206A401C20622078C006B6
:100EC00022D52046FFF7DAFA1EE0002E04DBB345F8
:100ED00002DD01A8805D00E03020D4E901219047C7
:100EE000206A401C2062761CAAF101005FEA000A19
:100EF0000AD100F019FAC0680168405CD4E9012108
:100F00009047206A401C2062281EA5F10105DCDC08
:100F100007E0D4E9012118F8010B9047206A401C32
:100F20002062381EA7F10107F3DC2046FFF7BCFA68
:100F3000032011B043E600002DE9F04F04460D46B2
:100F4000D21D22F0070089B0D0E90092484617462A
:100F5000394602F05DFB0246F80F01D02D2307E071
:100F60002068810701D52B2302E0202101EAC0037C
:100F70008DF820300BB1012000E00020032A8246CA
:100F800001D0072A04DB2946204600F0D1F93DE1D3
:100F90002078800601D40D2500E0E569C7F30A56E4
:100FA0000D2D49DA00214FEA175B08464FF000008B
:100FB000002F00F4400007DA00EB80004FF44001FE
:100FC00000EBD07001EA60008115012901DD4FF0CE
:100FD000FF3100224FEA850CBCF1180F06D31346EF
:100FE000ACF118004FF08052C24003E04FF4801380
:100FF00023FA0CF30CF10C0CBCF1200F04D3ACF170
:10100000200C09FA0CF001E007FA0CF000294FF06F
:10101000004801DD18B90FE00ED140450CD319EBA3
:1010200002095F4121B9404502D19F4329EA0209E3
:10103000BBEB175F00D0761C2088000502D57B48EB
:10104000784402E079487844193808AA302302F835
:101050000A30037C0AF10101002E0AF1020A5354FE
:101060006A4602DC4FF0300101E04FF031014FF0F1
:1010700001088DF8001002D0A6F2FF3603E059EA0D
:10108000470100D06A4E002D02DC2178090704D503
:101090004FF002082E218DF80110C44600210BE00C
:1010A000C7F303433F01C35C491C6D1E02F80830BF
:1010B000052908F1010801DA002DF1DC00210CE01E
:1010C00000EB1973491C1B786D1E082902F80830C3
:1010D0004FEA091908F1010801DA002DF0DC217846
:1010E000890602D514E0A8F10108E04505DD02EB10
:1010F000080111F8011C3029F5D0B8F1000F07DD07
:1011000002EB080111F8011C2E2901D1A8F10108F8
:10111000002D05DD3E2102F808106D1E08F10108C2
:10112000407C002E02F8080008F1010804DA2D20A6
:10113000764202F8080002E02B2002F808000A219B
:101140004FF47A70864208F101080BDB96FBF0F34E
:10115000303302F8083096FBF0F308F1010800FB89
:10116000136601E0642E0CDB642096FBF0F3303351
:1011700002F8083096FBF0F308F1010800FB136653
:1011800001E00A2E06DB96FBF1F0303002F8080091
:1011900008F1010896FBF1F001FB1060303002F815
:1011A0000800A16908F1010808EB050202EB0A003A
:1011B000081AA0612078C00602D42046FFF75EF925
:1011C000216A08AE01EB0A00206204E0D4E90121A3
:1011D00016F8010B9047BAF1010AF7D22078C00641
:1011E00002D52046FFF74AF96E4609E016F8010BD2
:1011F0003E280FD0D4E901219047206A401C20628C
:10120000B8F10108F2D22046FFF74EF909B00320E9
:10121000BDE8F08F206A2844206203E0D4E9012170
:10122000302090476D1EEBD3F8E70000202A000025
:1012300002FCFFFF10B5436913B1AFF3008001E07A
:10124000FFF755F9012010BD127800F124010A7052
:1012500000224A700122EDE711684FF0FF32E9E702
:1012600010B5436913B1AFF3008001E0FFF7D6F981
:10127000012010BD128800F1240182840022C28462
:101280000122EDE711684FF0FF32E9E770B516462D
:101290000C46054600F040F8036893F80101012868
:1012A00006D0FF2C0FD8185D68B101202C7070BDDE
:1012B000D3F807013246214603F2071303442846B8
:1012C000BDE8704018474FF0FF3070BD754600F024
:1012D000E7F8AE4605006946534620F0070085460C
:1012E00018B020B5FFF704F8BDE820404FF0000625
:1012F0004FF000074FF000084FF0000B21F00701FE
:10130000AC46ACE8C009ACE8C009ACE8C009ACE840
:10131000C0098D467047000010B500F005F8001DAB
:1013200010BD00BF8D26000000487047E00200207D
:101330002DE9F0411F46044603260168072A01F4FF
:10134000006004DB08B116A505E016A503E008B1AE
:1013500015A500E015A521F010002060A069C01EB1
:10136000A0610FB1401EA0612046FFF787F84FB182
:10137000D4E9012138469047206A401C2062C01CF5
:10138000206206E0206AFAE7D4E9012115F8010B92
:101390009047761EF8D22046FFF786F8BDE8F08128
:1013A0004E414E006E616E00494E4600696E660009
:1013B0002DE9F047814616468AB0334878440DC877
:1013C0008DE80D0030487844801C03AC0DC884E8DB
:1013D0000D0041F69B300844372190FBF1F290FB61
:1013E000F1F5A5F1800501FB12041B3C02D5644216
:1013F000012000E00020DFF890A080460027FA449A
:10140000AAF1BE0A0DE0E00709D03246684607EBB4
:1014100047010AEB810100F013FB8DE8070064101F
:101420007F1C002CEFD1184F7F44AC3F18E0E80739
:1014300014D007EB04100DF1180A90E80E008AE8AA
:101440000E00C068F04201D198190890324606A9F2
:1014500003A800F0F5FA03AB83E807006D10641CE5
:10146000002DE4D132466946B8F1000F03A802D03E
:1014700000F0D2FA01E000F0E3FAC9E90001C9F88E
:1014800008200AB0BDE8F0873427000010B50446F4
:10149000AFF300802046BDE81040FEF714BF000007
:1014A00000487047C00200204FF0013C50F8042B68
:1014B00051F8043B9A4221D1A2EB0C03934313EA67
:1014C000CC1317D150F8042B51F8043B9A4215D194
:1014D000A2EB0C03934313EACC130BD150F8042B6B
:1014E00051F8043B9A4209D1A2EB0C03934313EA4F
:1014F000CC13DBD04FF00000704700BFD01A01BA08
:10150000B1FA81F101F0180122FA01F0CB40C1F1EA
:101510002001DBB2C0B2C01A2CFA01F3D11A9143F8
:1015200011EAC311E6D1704701491820ABBEFEE7AE
:101530002600020070475FEA400C08BF91F0000FE0
:101540004FEA8C234FEAC12243EA51514FEA1C5023
:1015500018BF00F5F0404FEA300018BF41F00041DD
:101560005FEA6C5C00F02980BCF1FF3F08BF40F0EF
:1015700080407047130C06BF12044FF0100C4FF060
:10158000000C130E04BF12020CF1080C130F04BF61
:1015900012010CF1040C930F04BF92000CF1020C29
:1015A000D30F04BF52000CF1010C11464FF00002A2
:1015B000A0F11F00A0EB0C00704711F0004F08BF16
:1015C000704731F000413FF4D5AF0B0C06BF090462
:1015D0004FF0100C4FF0000C0B0E04BF09020CF181
:1015E000080C0B0F04BF09010CF1040C8B0F04BF96
:1015F00089000CF1020CCB0F04BF49000CF1010C67
:10160000CCF12003A0EB0C0022FA03F302FA0CF257
:1016100041EA030100F10100704720F07F4C80EAAD
:10162000030023F07F47ACEB070303F57C5300F086
:10163000004003F1FF032DE980494FEA154B09B43F
:101640004FEA144325EA0B4E24EA03480FF204261E
:1016500006EB132749083E785FEA320203FB066770
:10166000C7F5000707FB06F64FEA54374FEAD646A0
:1016700006F1020607FB066CCCF1005C4FEA1C4742
:101680002CEA074C07FB06F40CFB06F504EB1546A9
:101690004FEA961634BF00204FF000404FEAD13792
:1016A00006FB07FC4FEA1C4C0CFB0BF7D21B03FBA1
:1016B0000CF761EB07010CFB0EF7B0EB074072EB88
:1016C00017420CFB08F734BFA2EB0742B2EB07420C
:1016D00061EB17414FEA0C444FEA910706FB07FC08
:1016E0004FEA1C4C0CFB0BF7B0EBC74072EB5732C8
:1016F00003FB0CF734BFA2EBC742B2EBC74261EB6E
:1017000057310CFB0EF7B0EBC70072EB57720CFBB6
:1017100008F734BFA2EBC702B2EBC70261EB577107
:10172000039F4FEA816141EA921104EBCC044FEA36
:10173000D1374FEA826206FB07FC42EA90124FEA79
:1017400080604FEA1C4C0CFB0BF7D21B03FB0CF721
:1017500061EB07010CFB0EF7B0EB074072EB174291
:101760000CFB08F734BFA2EB0742B2EB074261EB78
:1017700017414FEA8C554FEA910704EB9C2406FB76
:1017800007FC4FEA1C4C0CFB0BF7B0EBC74072EBAD
:10179000573203FB0CF734BFA2EBC742B2EBC74290
:1017A00061EB57310CFB0EF7B0EBC70072EB5772D1
:1017B0000CFB08F734BFA2EBC702B2EBC70261EB28
:1017C000577115EB4C254FEA816141EA92114FEABE
:1017D00082624FEAD13742EA901206FB07FC44F1DD
:1017E00000044FEA80604FEA1C4C0CFB0BF7D21B45
:1017F00003FB0CF761EB07010CFB0EF7B0EB0740A6
:1018000072EB17420CFB08F734BFA2EB0742B2EBB6
:10181000074261EB174115EB1C154FEA813141EA94
:1018200092414FEA823242EA90424FEA80304FEAD8
:101830000C7644F1000448EA03434EEA0B484FF0AB
:10184000000EB2EB080C71EB030724BF6246394669
:101850004EEB0E0E4FF0000B0018524149414BEB7E
:101860000B0BB2EB080C71EB03077BF1000B24BFF1
:10187000624639464EEB0E0E4FF0000B00185241F7
:1018800049414BEB0B0BB2EB080C71EB03077BF1FF
:10189000000B24BF624639464EEB0E0E51EA02079A
:1018A00018BF46F0010616EB0E7655F1000254F112
:1018B000000103D5BDE88901BDE80088BDE88901C4
:1018C000BDE80048B619524141EB0101A3F1010303
:1018D000704780807F7E7D7C7B7A7978777676759D
:1018E0007473727171706F6E6E6D6C6C6B6A6A6915
:1018F0006868676666656464636362616160605FAF
:101900005F5E5E5D5D5C5C5B5B5A5A595958585727
:10191000575656555555545453535252525151508F
:1019200050504F4F4F4E4E4D4D4D4C4C4C4B4B4BE2
:101930004A4A4A4949494848484747474746464628
:101940004545454444444443434343424242424163
:101950004141002B26D4770021D01CB54FEA370730
:1019600003B44FF010004FF010014FF000000FBC17
:10197000BDE810400BF1010BBBF1010F08BF5FEA9E
:10198000170722BF12F1010211F101014FF00041CE
:1019900043F1000300F0004043EA00007047F9D330
:1019A0005708DAE746EA064613F1400F4FEA1646B3
:1019B0001FDD13F1200FDFBF16430A46002120333D
:1019C0005B42C8D0C3F1200746EA064602FA07F791
:1019D0004FEA164646EA0706C3F1200722FA03F249
:1019E00001FA07F721FA03F14FF0000342EA070278
:1019F000B1E746EA020646EA06464FEA164646EAD6
:101A00000106BCBF46EA0646360C4FF000034FF015
:101A100000024FF000019EE72DE9C048934630B424
:101A200091E8380007C831EA400C48BF34EA430C5B
:101A300003D5FFF7F2FDFFF78CFFF0BCBDE800888F
:101A40002DE9C048934630B491E8380007C810F03B
:101A5000804F08BF13F0804F03D100F005F8FFF767
:101A600078FFF0BCBDE8008820F07F4780EA0300E3
:101A700023F07F4C07EB0C03A3F57C5300F00040F0
:101A8000A3F1FE0392F0000F00F0B38095F0000F79
:101A900000F077802DE901494FEA11404FEA1446E2
:101AA00021EA004800FB06FC24EA064708FB06F68C
:101AB00007FB08F800FB07F718EB06484CEB164C41
:101AC0004FEA124B18EB07484FEA15464CEB17400C
:101AD00022EA0B4E0BFB06FC25EA06470EFB06F638
:101AE00007FB0EFE0BFB07F71EEB064E4CEB164CEE
:101AF0004FF000061EEB074E4CEB174B18EB0B0894
:101B000040F1000018EB0E0B58EB000840F100000C
:101B10008F1A4FF000013CBFC943661B14BFB5EBE1
:101B2000040C00213CBFC943F61B4FEA17444EEAA0
:101B30008E0E27EA04454FEA1C4704FB07622CEA95
:101B4000074C05FB07F70CFB05F604FB0CFC16EB3A
:101B5000074642EB174216EB0C4642EB1C421BEBCE
:101B6000060658EB0202414146EA9E0601D5BDE851
:101B70000189B619524141EB0101A3F10103BDE80E
:101B800001894FEA14454FEA114724EA054621EA44
:101B9000074C05FB07F406FB07F70CFB06F105FBFA
:101BA0000CFC11EB074144EB17444FEA124711EBD1
:101BB0000C4144EB1C4422EA074C05FB07F206FBF0
:101BC00007F70CFB06F605FB0CFC16EB074642EB91
:101BD000174216EB0C4642EB1C456A1854F1000103
:101BE00048BF7047B619524141EB0101A3F101030F
:101BF000704795F0000F37D04FEA11424FEA144773
:101C000021EA024624EA074C02FB07F106FB07F72C
:101C10000CFB06F402FB0CFC14EB074441EB1741F0
:101C20004FEA154714EB0C4441EB1C4125EA074CE5
:101C300002FB07F506FB07F70CFB06F602FB0CFCA4
:101C400016EB074645EB174516EB0C4645EB1C42D9
:101C5000121951F1000148BF7047B619524141EBCA
:101C60000101A3F1010370474FEA14454FEA114700
:101C700024EA054621EA074C05FB07F106FB07F7B6
:101C80000CFB06F24FF0000605FB0CFC12EB0742C2
:101C900041EB174112EB0C4251EB1C4148BF70471E
:101CA000921841EB0101A3F10103704700BFFEE769
:101CB00010B5024800F076F810BD0000A001002029
:101CC0000146087810381823B0FBF3F20848805C0E
:101CD000C865032A05D908686FF30900001D8865E7
:101CE00003E008686FF309008865886D704700009D
:101CF000EE390008014600208A6A8B69CBB932B1FF
:101D0000012A0DD0022A03D0032A10D10EE000BF11
:101D1000CB6A03F08073B3F1807F00D1012007E02C
:101D2000CB6AB3F1C07F00D1012001E000E000BF29
:101D300034E08B69B3F5005F1AD132B1012A07D0C4
:101D4000022A03D0032A11D10AE000BF01200EE0CD
:101D5000CB6A03F08073B3F1807F00D1012006E0ED
:101D6000CB6AB3F1C07F00D1012000E000BF15E0D5
:101D700032B1012A05D0022A04D0032A0CD103E093
:101D800000BF00BF012008E0CB6A03F08073B3F10D
:101D9000807F00D1012000E000BF00BF7047704786
:101DA00070470000F8B50446002000908C48006899
:101DB0004FF41651B0FBF1F7A56D2E6894F85C1046
:101DC00008208840304098B12068006800F0040086
:101DD00070B12068006820F004002168086094F861
:101DE0005C1008208840A860606D40F001006065CC
:101DF00094F85C1001208840304068B12068406948
:101E000000F0800040B194F85C1001208840A86088
:101E1000606D40F00200606594F85C10042088401A
:101E2000304068B12068006800F0020040B194F8CA
:101E30005C1004208840A860606D40F0040060657C
:101E400094F85C1010208840304078B32068006817
:101E500000F0080050B394F85C1010208840A8608F
:101E60002068006800F4802080B12068006800F4D9
:101E7000002028B9206CC8B12046216C884715E0A5
:101E8000A06C98B12046A16C88470FE020680068DC
:101E900000F4807028B92068006820F008002168EC
:101EA0000860206C10B12046216C884794F85C10C3
:101EB000202088403040002865D02068006800F06D
:101EC000100000285FD094F85C1020208840A860A3
:101ED00094F83500052828D12068006820F0160005
:101EE000216808602068406920F08000216848610E
:101EF000206C08B9A06C28B12068006820F00800A8
:101F00002168086094F85C103F208840A86000BFFA
:101F1000002084F8340000BF012084F83500206DD3
:101F200010B12046216D8847F8BD2068006800F494
:101F3000802080B12068006800F4002028B9606C1F
:101F400010B12046616C88471DE0E06BD8B1204697
:101F5000E16B884717E02068006800F4807068B97A
:101F60002068006820F010002168086000BF002091
:101F700084F8340000BF012084F83500E06B10B114
:101F80002046E16B8847606D38B3606D00F001005A
:101F9000F0B1052084F835002068006820F00100C9
:101FA0002168086000BF0098401C0090B84200D92A
:101FB00005E02068006800F001000028F3D100BFB0
:101FC00000BF002084F8340000BF012084F83500F1
:101FD000E06C10B12046E16C884700BFA4E7000028
:101FE000180000202DE9F0410446002500F08AF990
:101FF000074614B90120BDE8F081606A00B100BF56
:1020000000BF002084F8340000BF022084F83500AF
:102010002068006820F00100216808600AE000F0F4
:1020200071F9C01B052805D920206065032084F8BC
:102030003500E0E72068006800F001000028EED1DC
:102040002068056821480540D4E901010843E1689A
:1020500008432169084361690843A1690843E169AC
:102060000843216A08430543606A042803D1D4E980
:102070000B0108430543206805602068456925F089
:102080000705606A0543606A04280DD1A06A05430C
:10209000E06A48B12046FFF72DFE28B14020606578
:1020A000012084F83500A6E7206845612046FFF747
:1020B00007FE064694F85C103F208840B060002080
:1020C0006065012084F83500002094E73F8010F01F
:1020D00070B5044600F016F906462546681C10B196
:1020E00004480078054400BF00F00CF9801BA842AA
:1020F000FAD370BD14000020F8B502460B46002547
:10210000002400200021DCE0012606FA01F51E680B
:1021100006EA0504AC4273D15E68022E02D05E6806
:10212000122E13D1CF0802F1200656F827004E07D1
:10213000F70E0F26BE40B0434F07FF0E1E69BE408C
:102140003043CF0802F1200646F8270010684F0000
:102150000326BE40B0431E7906F003064F00BE4082
:10216000304310605E68012E08D05E68022E05D0F4
:102170005E68112E02D05E68122E13D190684F0057
:102180000326BE40B0434F00DE68BE40304390603F
:10219000506801268E40B0431E79C6F300168E406B
:1021A00030435060D0684F000326BE40B0434F001C
:1021B0009E68BE403043D0605E6806F08056B6F13F
:1021C000805F7DD100BF00260096404E366846F401
:1021D00080463E4F3E603E46366806F48046009696
:1021E00000BF00BF3A4E8F0856F827008E07370F02
:1021F0000F26BE40B043374EB24202D1002624E043
:102200005EE0354EB24201D101261EE0334EB242AD
:1022100001D1022619E0324EB24201D1032614E068
:10222000304EB24201D104260FE02F4EB24201D10E
:1022300005260AE02D4EB24201D1062605E02C4EBD
:10224000B24201D1072600E008268F073F0FBE40AB
:1022500030431F4E8F0846F82700264E3068A043B3
:102260005E6806F48036B6F5803F00D12043214EEB
:102270003060361D3068A0435E6806F40036B6F55F
:10228000003F00D120431B4E361D3060361D3068A4
:10229000A0435E6806F48016B6F5801F00D1204387
:1022A000144E08363060361D3068A0435E6806F470
:1022B0000016B6F5001F00D120430E4E0C363060DC
:1022C000491C1029FFF420AFF8BD0000443802403B
:1022D00008380140000002400004024000080240AB
:1022E000000C02400010024000140240001802409E
:1022F000001C0240003C01400AB1816101E00B0476
:102300008361704701480068704700000C0000209E
:102310000348006803490978084401490860704788
:102320000C0000201400002010B50D48006840F497
:1023300000700B4908600846006840F4806008603F
:102340000846006840F480700860032000F0A2F89E
:10235000002000F007F800F02BF8002010BD00006E
:10236000003C024070B504460E4800784FF47A7184
:10237000B1FBF0F00C490968B1FBF0F5284600F01C
:10238000FFFB08B1012070BD102C07D200222146AE
:10239000501E00F041F80548046001E00120F2E71A
:1023A0000020F0E71400002018000020100000209A
:1023B00008B500BF002000900E48006840F480403F
:1023C0000C4908600846006800F48040009000BF97
:1023D00000BF00BF00200090081F006840F0805040
:1023E000091F08600846006800F08050009000BF98
:1023F00000BF08BD4438024001460846002809DBFA
:1024000000F01F0301229A4043099B0003F1E023DF
:10241000C3F8002100BF70472DE9F05F80460D46EC
:102420001646002701F00CF9074639462A4633467E
:1024300001F00700C0F1070ABAF1040F02D94FF00A
:10244000040A01E0C0F1070AD14600F1040ABAF11A
:10245000070F02D24FF0000A01E0A0F1030AD446B0
:102460004FF0010A0AFA09FAAAF1010A0AEA020A75
:102470000AFA0CFA4FF0010B0BFA0CFBABF1010B53
:102480000BEA030B4AEA0B042146404601F0E0F850
:10249000BDE8F09F00BF00F00702064B19684FF639
:1024A000FF031940044B0B4343EA0221014B19601F
:1024B00000BF70470CED00E00000FA0570B504465F
:1024C0000D460CB9012070BD5848006800F00F009F
:1024D000A84209D255490D700846006800F00F0067
:1024E000A84201D00120EEE7207800F00200022887
:1024F0001DD1207800F00400042805D14C48006864
:1025000040F4E0504A490860207800F008000828AC
:1025100005D14748006840F4604045490860444898
:10252000006820F0F000A168084341490860207865
:1025300000F00100A8B36068012807D13C480838C2
:102540000068C0F34040B8B90120BCE760680228C9
:1025500002D06068032807D1354808380068C0F306
:10256000406048B90120AEE7314808380068C0F340
:10257000400008B90120A6E72D48006820F00300BC
:10258000616808432A490860FFF7BCFE064609E077
:10259000FFF7B8FE801B41F28831884202D9032040
:1025A00091E707E02248006800F00C006168B0EB9A
:1025B000810FEDD11D48006800F00F00A84209D935
:1025C0001A490D700846006800F00F00A84201D0BB
:1025D000012078E7207800F00400042807D114488F
:1025E000006820F4E050E168084311490860207851
:1025F00000F00800082808D10D48006820F4604069
:10260000216940EAC1000A49086000F03DF8084924
:102610000968C1F30311074A515CC84006490860C4
:102620000020FFF79FFE00204DE70000003C024025
:1026300008380240F63900081800002001480068F8
:10264000704700001800002000B5FFF7F7FF0449AD
:102650000968C1F38221034A515CC84000BD0000F3
:1026600008380240063A000800B5FFF7E7FF0449C2
:102670000968C1F34231034A515CC84000BD000003
:1026800008380240063A00082DE9F04700240025EA
:102690000026A1462548006800F00C0020B104285F
:1026A00005D008283AD105E0DFF8849039E0DFF85A
:1026B000849036E01D48001F006800F03F041B486E
:1026C000001F006800F4800078B11A481749091FFC
:1026D0000968C1F38811A0FB01700146224600235E
:1026E0003846FDF717FE05460EE011480F49091F51
:1026F0000968C1F38811A0FB01700146224600233E
:102700003846FDF707FE05460848001F0068C0F37D
:102710000140401C4600B5FBF6F902E0DFF81090DE
:1027200000BF00BF4846BDE8F087000008380240FF
:102730000024F400001BB700F8B504460CB90120D2
:10274000F8BD207800F00100002874D0F948006836
:1027500000F00C0004280DD0F648006800F00C00D2
:10276000082813D1F348001F006800F48000B0F57A
:10277000800F0BD1EF4808380068C0F340400028B4
:1027800059D06068002856D10120D9E700BF6068A1
:10279000B0F5803F08D1E7480838006840F4803041
:1027A000E449083908601EE06068B0F5A02F0DD13B
:1027B000E0480838006840F48020DE4908390860A5
:1027C0000846006840F4803008600CE0D9480838BA
:1027D000006820F48030D74908390860084600684E
:1027E00020F48020086000BF606890B1FFF78AFD88
:1027F000054606E0FFF786FD401B642801D903204B
:102800009EE7CC4808380068C0F340400028F1D06B
:1028100011E0FFF777FD054606E0FFF773FD401B6B
:10282000642801D903208BE7C24808380068C0F348
:1028300040400028F1D1207800F0020002285FD14A
:10284000BC48006800F00C0058B1BA48006800F0BD
:102850000C0008281CD1B748001F006800F4800055
:10286000B0B9B44808380068C0F3400020B1E0684F
:10287000012801D0012063E7AE480838006820F045
:10288000F800216940EAC100AA490839086037E028
:10289000E06800B30120A8490860FFF733FD054652
:1028A00006E0FFF72FFD401B022801D9032047E770
:1028B000A04808380068C0F340000028F1D09D48C7
:1028C0000838006820F0F800216940EAC100994901
:1028D0000839086014E0002097490860FFF712FDEE
:1028E000054606E0FFF70EFD401B022801D9032034
:1028F00026E7904808380068C0F340000028F1D16E
:10290000207800F0080008282CD16069A8B10120C7
:102910008A490860FFF7F6FC054606E0FFF7F2FC7F
:10292000401B022801D903200AE782486C30006866
:10293000C0F340000028F1D014E000207F49086077
:10294000FFF7E0FC054606E0FFF7DCFC401B022831
:1029500001D90320F4E677486C300068C0F34000EA
:102960000028F1D1207800F00400042870D100265E
:1029700070483830006800F0805090B900BF0020E7
:1029800000906C483830006840F080506949383118
:1029900008600846006800F08050009000BF00BF4B
:1029A00001266748006800F48070B0B96448006888
:1029B00040F4807062490860FFF7A4FC054606E019
:1029C000FFF7A0FC401B022801D90320B8E65C48B1
:1029D000006800F480700028F2D000BFA0680128D1
:1029E00008D154486830006840F00100514968310E
:1029F00008601DE0A06805280DD14E4868300068C9
:102A000040F004004B49683108600846006840F017
:102A1000010008600CE047486830006820F00100C1
:102A20004449683108600846006820F004000860E6
:102A300000BFA068A8B1FFF765FC054609E0FFF7F5
:102A400061FC401B41F28831884202D9032077E6BD
:102A500026E0384868300068C0F340000028EED017
:102A600013E0FFF74FFC054608E0FFF74BFC401B67
:102A700041F28831884201D9032061E62D4868304F
:102A80000068C0F340000028EFD1012E07D129488B
:102A90003830006820F0805026493831086000BF87
:102AA000A069B8B32348006800F00C0008285ED085
:102AB000A069022846D100201F490866FFF722FCC2
:102AC000054606E0FFF71EFC401B022801D9032043
:102AD00036E6184808380068C0F340600028F1D195
:102AE000D4E907010843616A40EA81110122A06A22
:102AF000C2EB500041EA00412C20005D41EA006039
:102B00000C49091F086001200B490866FFF7FAFB12
:102B1000054607E02DE0FFF7F5FB401B022801D931
:102B200003200DE6034808380068C0F34060002821
:102B3000F1D01EE00838024000004742800E4742B4
:102B40000070004000200C490866FFF7DBFB0546DB
:102B500006E0FFF7D7FB401B022801D90320EFE571
:102B600006480068C0F340600028F2D101E001206F
:102B7000E6E50020E4E5000000004742003802409E
:102B800070B504462546681EB0F1807F01D3012050
:102B90000FE0681E4FF0E02148610F214FF0FF3039
:102BA00000F056FD00204FF0E02188610720086109
:102BB000002070BD10B504460CB9012010BDA069FD
:102BC00000B100E000BF94F8390028B9002084F873
:102BD0003800204600F028F8242084F839002068C6
:102BE000C06820F400502168C860204600F0C8FA90
:102BF0002068006920F490402168086120684069DD
:102C000020F02A00216848612068C06840F4005024
:102C10002168C8600020E063202084F8390084F82F
:102C20003A000020CAE7000010B586B0044614211F
:102C300001A8FDF7F9FB70492068884278D100BFF0
:102C4000002000906D48006840F010006B4908605B
:102C50000846006800F01000009000BF00BF00BFF1
:102C60000020009065481438006840F00200634975
:102C7000143908600846006800F00200009000BFA8
:102C800000BF00BF002000900846006840F001002F
:102C900008600846006800F00100009000BF00BF17
:102CA00080200190022002900120039003200490D4
:102CB0000720059001A95248FFF71EFA4FF4007053
:102CC000019002200290012003900320049007202D
:102CD000059001A94B48FFF70FFA4B484B49086094
:102CE0004FF0006048604021484881600021C16089
:102CF0004FF480610161002141618161C1614FF444
:102D00004031016200214162FFF76CF908B1FFF721
:102D100047F800BF3D482063846300BF002211468E
:102D20002520FFF779FB2520FFF766FB61E0FFE731
:102D30003749206888425CD100BF002000902F48AE
:102D4000001F006840F480202C49091F08600846D5
:102D5000006800F48020009000BF00BF00BF00208A
:102D6000009026481438006840F0040023491439C4
:102D700008600846006800F00400009000BF00BF33
:102D80004FF4406001900220029001200390032044
:102D900004900720059001A91E48FFF7ADF91E48D1
:102DA0001E4908604FF00060486000211B488160A8
:102DB000C1604FF4806101610021416181614FF484
:102DC0008071C1614FF44031016200214162FFF71F
:102DD00009F908B1FEF7E4FF00BF1048606384639F
:102DE00000BF002211462720FFF716FB2720FFF720
:102DF00003FB06B010BD0000001001404438024043
:102E00000004024000000240B8640240A00100201B
:102E100000480040000802402860024000020020F4
:102E200000BFFEE708B500BF00200090164800680C
:102E300040F40010144908600846006800F40010CF
:102E4000009000BF00BF00BF00200090084600684F
:102E500040F4800008600846006800F4800000909C
:102E600000BF00BF002211460C20FFF7D5FA0C204E
:102E7000FFF7C2FA002211464620FFF7CDFA46209E
:102E8000FFF7BAFA08BD00003038024000B587B03D
:102E9000142102A8FDF7C8FA00BF002001902748BE
:102EA000006840F00100254908600846006800F00D
:102EB0000100019000BF00BF00BF00200190084644
:102EC000006840F0020008600846006800F0020058
:102ED000019000BF00BF00BF0020019008460068BD
:102EE00040F0040008600846006800F0040001900B
:102EF00000BF00BF00BF002001900846006840F0FE
:102F0000800008600846006800F08000019000BF63
:102F100000BF01224FF4E0510948FFF7EDF94FF4EB
:102F2000E05002900120039004900220059002A935
:102F30000348FFF7E1F807B000BD00003038024059
:102F4000001C024010B50B480B4908604FF4E130FB
:102F50004860002108488160C16001610C21416125
:102F600000218161C161FFF725FE08B1FEF718FF5E
:102F700010BD0000001001402001002010B50B48DA
:102F80000B4908600B484860002109488160C16016
:102F90004FF4806101610421416100218161C161BF
:102FA000FFF708FE08B1FEF7FBFE10BD0048004029
:102FB00060010020A086010000BFFEE77047704757
:102FC00010B5234B1B685B6943F04003204C246819
:102FD00063611F4B1B68DB6843F010031C4C2468C3
:102FE000E3601C4B1B681B6823F00103194C246829
:102FF000236007E0174B1B681B6823F00103154C87
:1030000024682360134B1B681B6803F00103002B2B
:10301000F0D1114B0F4C2468A3600E4B1B68D86095
:103020000C4B1B6819610B4B1B685A60094B1B68E2
:103030001B6843F48023074C24682360054B1B68FE
:103040001B6843F00103034C2468236010BD00009B
:10305000600100200002002004480040704710B5C5
:10306000FFF756F910BD000000B593B0302107A856
:10307000FDF7DAF9142102A8FDF7D6F900BF002008
:1030800001902448006840F08050224908600846BA
:10309000006800F08050019000BF00BF00BF00201A
:1030A00001901D48006840F480401B4908600846B4
:1030B000006800F48040019000BF00BF012007902D
:1030C0000004089002200D9041050E9106210F91F9
:1030D000A8211091022111910421129107A8FFF754
:1030E0002BFB08B1FEF75CFE0F200290022003903C
:1030F000002004904FF4A05005904FF480500690AB
:10310000052102A8FFF7DAF908B1FEF749FE13B06E
:1031100000BD0000403802400070004014480068C4
:1031200040F47000124908601248006840F0010045
:103130001049086000200F49083108600D480068F8
:103140000D4908400B4908600C48091D0860081F1C
:10315000006820F48020091F0860002005490C3118
:1031600008604FF000600249803908607047000035
:1031700088ED00E000380240FFFFF6FE103000242A
:103180002DE9F04104462068006920F44050E168D0
:103190000843216808612169A06808436169084300
:1031A000E16940EA01052068C06849F20C61884382
:1031B00028432168C8602068406920F44070A169F4
:1031C000084321684861E069B0F5004F7ED1C449E9
:1031D0002068884203D0C349206888425DD1FFF748
:1031E00043FA00EBC00101EB001061684900B0FB3D
:1031F000F1F06421B0FBF1F00601FFF735FA00EBC6
:10320000C00101EB001061684900B0FBF1F7FFF766
:103210002BFA00EBC00101EB001061684900B0FB24
:10322000F1F06421B0FBF1F000EBC00101EB001004
:10323000A7EB8000322101EBC0006421B0FBF1F06C
:1032400000F0F80006EB4006FFF70EFA00EBC001B5
:1032500001EB001061684900B0FBF1F7FFF704FAD9
:1032600000EBC00101EB001061684900B0FBF1F018
:103270006421B0FBF1F000EBC00101EB0010A7EB03
:103280008000322101EBC0006421B0FBF1F000F0BE
:10329000070030442168886020E1FFF7D5F900EB92
:1032A000C00101EB001061684900B0FBF1F064213E
:1032B000B0FBF1F00601FFF7C7F900EBC00101EB2D
:1032C000001061684900B0FBF1F700E045E0FFF74E
:1032D000BBF900EBC00101EB001061684900B0FBD5
:1032E000F1F06421B0FBF1F000EBC00101EB001044
:1032F000A7EB8000322101EBC0006421B0FBF1F0AC
:1033000000F0F80006EB4006FFF79EF900EBC00165
:1033100001EB001061684900B0FBF1F7FFF794F989
:1033200000EBC00101EB001061684900B0FBF1F057
:103330006421B0FBF1F000EBC00101EB0010A7EB42
:103340008000322101EBC0006421B0FBF1F000F0FD
:103350000700304421688860C0E0614920688842E5
:1033600003D06049206888425CD1FFF77DF900EB0B
:10337000C00101EB001061688900B0FBF1F6FFF7B6
:1033800073F900EBC00101EB001061688900B0FB2C
:10339000F1F06421B0FBF1F000EBC00101EB001093
:1033A000A6EB8000322101EB00106421B0FBF1F0AC
:1033B00000F0F006FFF758F900EBC00101EB001038
:1033C00061688900B0FBF1F06421B0FBF1F006EB1D
:1033D0000016FFF749F900EBC00101EB001061682E
:1033E0008900B0FBF1F7FFF73FF900EBC00101EBFB
:1033F000001061688900B0FBF1F06421B0FBF1F0CE
:1034000000EBC00101EB0010A7EB8000322101EBC3
:1034100000106421B0FBF1F000F00F00304421688F
:1034200088605BE0FFF710F900EBC00101EB0010D2
:1034300061688900B0FBF1F6FFF706F900EBC00107
:1034400001EB001061688900B0FBF1F06421B0FB72
:10345000F1F000EBC00101EB0010A6EB800032217F
:1034600001EB00106421B0FBF1F000F0F006FFF773
:10347000EBF800EBC00101EB001061688900B0FBC4
:10348000F1F06421B0FBF1F006EB0016FFF7DCF879
:1034900000EBC00101EB001061688900B0FBF1F79F
:1034A000FFF7D2F800EBC00101EB00106168890062
:1034B000B0FBF1F06421B0FBF1F000EBC00101EBD7
:1034C0000010A7EB8000322101EB00106421B0FB5B
:1034D000F1F000F00F00304421688860BDE8F08111
:1034E000001001400014014008B541480068006820
:1034F00000F0200060B100BF002000903C48006850
:10350000006800903A4800684068009000BF6EE094
:103510003848006800F01000002868D000BF002084
:1035200000903348006800680090314800684068A7
:10353000009000BF00BF30480068006800F4002021
:1035400058BB2D480068006820F001002A4909682E
:103550000860294800684068C0F1240027490880B5
:10356000242025490968486023480068006840F421
:1035700000202149096808601F480068006840F081
:1035800001001D49096808601C48008812282ED1D6
:103590001B491C4800F0E2F829E017480068006861
:1035A00020F0010014490968086013480068406869
:1035B000C0F124001149088024200F49096848609F
:1035C0001148806A20F400200F4988620A48006888
:1035D000006840F001000849096808600748008851
:1035E000122804D106490748243000F0B7F808BD76
:1035F0006001002000480040000200201C00002064
:1036000060020020760200200060024000BFFEE75A
:1036100003B401984100009850EAC12018BF04206B
:103620004A0D18BF40F0010040F2FF72B2EB515F4B
:1036300008BF40F00200012808BF052002B0704713
:1036400002480068C0F30220704700000CED00E063
:1036500010B5002804DB0A07130E054A135406E0D0
:103660000A07140E034A00F00F031B1FD45410BDA9
:1036700000E400E018ED00E030380A2801D2012013
:10368000704700207047000000487047600200202B
:103690008AB0FEF749FEFFF7E7FCFFF7F7FBFFF7FD
:1036A000C1FBFFF74FFCFFF769FC00F04DF800F09D
:1036B0003FF9FFF7E9FF224908603FE02048006832
:1036C000808A1F490968C97C1D4A1268927C1C4B7C
:1036D0001B68B3F91030CDE90632CDE9081018485F
:1036E0000068B0F90E1016480068B0F90C00144AD2
:1036F0001268D27A124B1B689B7ACDE90232CDE96F
:1037000004010F480068B0F908000D490968B1F9D3
:103710000610CDE900100A480068B0F904300848E6
:103720000068B0F9022006480068B0F900100548AA
:1037300000F00AF94FF47A70FEF7CAFCBEE7000009
:10374000000000200C3B000810B524220249A1F122
:103750002400FFF735FC10BD9A02002000B101B92A
:1037600070470278437842EA0322C2F30A020A80D1
:103770004278D210837842EA4312C2F30A024A80A6
:1037800082789211C37842EA8302037942EA832263
:10379000C2F30A028A8002795210437942EAC312C4
:1037A000C2F30A02CA804279C2F301128A724279D4
:1037B00012119308CB728279C37942EA032212B2C2
:1037C0008A81027A437A42EA032213B201F10C029F
:1037D000CB81827AC37A42EA032213B201F10C024E
:1037E0000B82037B8B74437BCB74827BC37B42EA6B
:1037F00003228A82027C437C42EA032212B20A81BB
:103800000A88A2F5806212B20A804A88A2F5806214
:1038100012B24A808A88A2F5806212B28A80CA886F
:10382000A2F5806212B2CA800A89A2F5806212B241
:103830000A8100BF94E700003A4A1268126822F039
:103840000102384B1B681A6007E0364A126812689A
:1038500022F00102334B1B681A60324A1268126868
:1038600002F00102002AF0D12E4A12682E4B9A4231
:1038700005D94FF000622C4B4C3B1A601BE0294AE3
:1038800012682A4B9A4205D94FF00062264B503BF2
:103890001A6010E0234A1268244B603B9A4205D913
:1038A0004FF00062214BB83BDA6004E04FF0006259
:1038B0001E4BB83B9A601B4A12681B4B9A4205D9B3
:1038C0004FF08062184B4C3B1A601BE0154A12689F
:1038D000164B9A4205D94FF08062134B503B1A6049
:1038E00010E0104A1268114B603B9A4205D94FF024
:1038F00080620E4BB83BDA6004E04FF080620B4B05
:10390000B83B9A60074A1268D060064A1268516054
:10391000044A1268126842F00102024B1B681A60E6
:1039200070470000A001002058640240B8600240C7
:1039300004480068406940F0800002490968486115
:1039400070470000200100200FB410B503A80A49F9
:1039500008600846026809480299FCF753FD0849C7
:103960000880002004490860054801880348FFF7E3
:1039700063FF10BC5DF814FB040000202000002051
:103980000800002010B500290AD00878002807D0C8
:1039900005487844FDF788FD002801D0002010BDBF
:1039A0000248784410BD0000220200001A02000004
:1039B00010B500290AD00878002807D005487844B7
:1039C000FDF772FD002801D0002010BD02487844A8
:1039D00010BD0000120200000A0200004FF040700B
:1039E000E1EE100A7047FDF770B9FDF7A5BA0006C1
:1039F0001016000610160000000000000000010272
:103A00000304060708090000000001020304000087
:103A1000000000000000000030313233343536370A
:103A20003839414243444546403058003031323302
:103A30003435363738396162636465664030780002
:103A40000400000800000000000000020001000067
:103A5000103031323334353637383961626364655A
:103A60006678700030313233343536373839414278
:103A7000434445465850000002400000000000A0AA
:103A80000000000005400000000000C80000000029
:103A90000C4000000000409C0000000019400000A5
:103AA0000020BCBE0000000034400000BFC91B8ED7
:103AB00000000004B5400000504BCFD06607E2CFB5
:103AC000010000006C4100003E8251AADFEEA734E5
:103AD00001000000D9420000DCB5A0E23A301F9797
:103AE000FFFFFFFFB4450000FD25A0C8E9A3C14FBB
:103AF000FFFFFFFFFF3F000000000080000000000C
:103B0000FF3F000000000080000000002A2A2A2A4F
:103B10002A2A2A2A2A2A0D0A6368303A25640D0ABD
:103B20006368313A25640D0A6368323A25640D0AE8
:103B30006368333A25640D0A6368343A25640D0AD4
:103B400073313A25640D0A73323A25640D0A6D6F9C
:103B50007573655F783A25640D0A6D6F7573655FDF
:103B6000793A25640D0A70726573735F6C3A256447
:103B70000D0A70726573735F723A25640D0A6B6586
:103B8000793A25640D0A2A2A2A2A2A2A2A2A2A2A3E
:103B90000D0A0000E03C00080000002020000000AA
:103BA000C4010008003D00082000002000090000BA
:103BB000E00100081C00000043000000F8FFFFFFC8
:103BC0000C0000000E0000000F0000002E0000009E
:103BD0001001000043000000F8FFFFFF00404040DC
:103BE00040404040404041414141414040404040D0
:103BF000404040404040404040404040400502027C
:103C0000020202020202020202020202022020203A
:103C10002020202020202002020202020202909096
:103C20009090909010101010101010101010101094
:103C300010101010101010100202020202028888E8
:103C400088888888080808080808080808080808F4
:103C500008080808080808080202020240000000DC
:103C60000000000000000000000000000000000054
:103C70000000000000000000000000000000000044
:103C80000000000000000000000000000000000034
:103C90000000000000000000000000000000000024
:103CA0000000000000000000000000000000000014
:103CB0000000000000000000000000000000000004
:103CC00000000000000000000000000000000000F4
:103CD00000000000000000000000000000000000E4
:103CE00000000000000000000000000000000000D4
:103CF00010000000010000000024F400000000009B
:040000050800018965
:00000001FF
