:020000040800F2
:10000000500B002029020008091600087112000890
:10001000051600081F040008D119000800000000A0
:10002000000000000000000000000000AD18000803
:100030002304000800000000AB180008AF180008F7
:10004000430200084302000843020008430200087C
:10005000430200084302000843020008430200086C
:10006000430200084302000843020008430200085C
:10007000430200084302000843020008430200084C
:10008000430200084302000843020008430200083C
:10009000430200084302000843020008430200082C
:1000A000430200084302000843020008430200081C
:1000B000430200084302000843020008430200080C
:1000C00043020008430200084302000843020008FC
:1000D00043020008430200084302000843020008EC
:1000E00043020008430200084302000843020008DC
:1000F00043020008430200084302000843020008CC
:1001000043020008430200084302000843020008BB
:1001100043020008430200084302000843020008AB
:10012000430200084302000843020008430200089B
:10013000430200084302000843020008430200088B
:10014000430200084302000843020008430200087B
:10015000430200084302000843020008430200086B
:10016000430200084302000843020008430200085B
:100170004302000843020008430200080000000098
:10018000430200084302000800F002F800F03CF8C7
:100190000AA090E8000C82448344AAF10107DA45E2
:1001A00001D100F031F8AFF2090EBAE80F0013F0F8
:1001B000010F18BFFB1A43F001031847402100004C
:1001C00060210000103A24BF78C878C1FAD85207DD
:1001D00024BF30C830C144BF04680C6070470000C1
:1001E0000023002400250026103A28BF78C1FBD840
:1001F000520728BF30C148BF0B6070471FB501F0E0
:1002000031FC1FBD10B510BD00F0CFF81146FFF74F
:10021000F5FF01F0FBFB00F0EDF803B4FFF7F2FF90
:1002200003BC00F0F5F80000094880470948004782
:10023000FEE7FEE7FEE7FEE7FEE7FEE7FEE7FEE796
:10024000FEE7FEE704480549054A064B70470000F3
:100250006D1900088901000850050020500B00208E
:10026000500700205007002053EA020C00F069807C
:100270002DE9F04B4FF00006002B1FBFB3FA83F5BA
:1002800003FA05F424FA05F65E4012BF1643B2FAEB
:1002900082F502FA05F4C5F120051EBF22FA05FC1D
:1002A00044EA0C04203556EA044C4FEA144418BFC3
:1002B000641C4FF000084FF00009904271EB030CF2
:1002C00039D3002919BFB1FA81F701FA07F6B0FA5C
:1002D00080F700FA07F6C7F120071EBF20FA07FCD7
:1002E00046EA0C062037B6FBF4FCA7EB0507103FE7
:1002F00007F01F0BCBF120060CFA0BFB2CFA06F6CD
:1003000044BFB3460026202FA4BF5E464FF0000B2B
:100310005BEA060C08BF4FF0010B19EB0B09ABFBB6
:10032000027C48EB0608C01B06FB02CC0BFB03CC8F
:1003300071EB0C01C1E70B46024641464846BDE859
:10034000F08B13B54FF000004FF00001AFF30080C9
:10035000BDE81C4070474FF0000200B513469446BC
:100360009646203922BFA0E80C50A0E80C50B1F10D
:100370002001BFF4F7AF090728BFA0E80C5048BF21
:100380000CC05DF804EB890028BF40F8042B08BFBF
:10039000704748BF20F8022B11F0804F18BF00F8BB
:1003A000012B7047704770477047754600F02CF876
:1003B000AE4605006946534620F00700854618B052
:1003C00020B5FFF73FFFBDE820404FF000064FF09B
:1003D00000074FF000084FF0000B21F00701AC467A
:1003E000ACE8C009ACE8C009ACE8C009ACE8C00999
:1003F0008D46704710B50446AFF300802046BDE837
:100400001040FFF70ABF000000487047EC040020CE
:1004100001491820ABBEFEE726000200704700BF6E
:10042000FEE770477047000070B5044600F010F911
:1004300006462546681C10B104480078054400BFF4
:1004400000F006F9801BA842FAD370BD0800002016
:10045000F8B502460B460025002400200021DCE010
:10046000012606FA01F51E6806EA0504AC4273D1BE
:100470005E68022E02D05E68122E13D1CF0802F100
:10048000200656F827004E07F70E0F26BE40B04351
:100490004F07FF0E1E69BE403043CF0802F1200611
:1004A00046F8270010684F000326BE40B0431E796F
:1004B00006F003064F00BE40304310605E68012E18
:1004C00008D05E68022E05D05E68112E02D05E68EC
:1004D000122E13D190684F000326BE40B0434F0048
:1004E000DE68BE4030439060506801268E40B043C5
:1004F0001E79C6F300168E4030435060D0684F001E
:100500000326BE40B0434F009E68BE403043D060DB
:100510005E6806F08056B6F1805F7DD100BF002690
:100520000096404E366846F480463E4F3E603E465A
:10053000366806F48046009600BF00BF3A4E8F082A
:1005400056F827008E07370F0F26BE40B043374EB0
:10055000B24202D1002624E05EE0354EB24201D123
:1005600001261EE0334EB24201D1022619E0324E7E
:10057000B24201D1032614E0304EB24201D104262A
:100580000FE02F4EB24201D105260AE02D4EB242B5
:1005900001D1062605E02C4EB24201D1072600E02B
:1005A00008268F073F0FBE4030431F4E8F0846F886
:1005B0002700264E3068A0435E6806F48036B6F504
:1005C000803F00D12043214E3060361D3068A0436B
:1005D0005E6806F40036B6F5003F00D120431B4E9E
:1005E000361D3060361D3068A0435E6806F4801604
:1005F000B6F5801F00D12043144E08363060361DFA
:100600003068A0435E6806F40016B6F5001F00D1FE
:1006100020430E4E0C363060491C1029FFF420AFE9
:10062000F8BD000044380240083801400000024094
:100630000004024000080240000C0240001002408A
:100640000014024000180240001C0240003C01401F
:1006500001480068704700000000002070B50446A3
:100660000CB9012070BD94F83D0028B9002084F831
:100670003C00204600F086F9242084F83D002068E4
:10068000006820F001002168086000F04BFB05467F
:100690005C496068884206D85B48854201D20120E7
:1006A00007E0002005E05948854201D2012000E022
:1006B0000020012800D1D5E75548B5FBF0F62068A9
:1006C000406820F03F003043216848604D49606831
:1006D000884201D8701C07E04FF4967070434FF4C5
:1006E0007A71B0FBF1F0401C2168096A21F03F01EA
:1006F00008432168086243496068884214D8681E2C
:1007000061684900B0FBF1F0401CC0F30B00042805
:1007100001D204203DE0681E61684900B0FBF1F0A1
:10072000401CC0F30B0034E0A06838B9681E616853
:1007300001EB4101B0FBF1F0401C0AE0681E61686A
:1007400001EBC10202EB0111B0FBF1F0401C40F4DF
:100750008040C0F30B0008B901201AE0A06848B936
:10076000681E616801EB4101B0FBF1F0401CC0F371
:100770000B000CE0681E616801EBC10202EB011185
:10078000B0FBF1F0401CC0F30B0040F4804040F49B
:1007900000402168C9694CF6FF7291430843216803
:1007A000C861D4E9070108432168096821F0C00144
:1007B000084321680860D4E9031008432168896868
:1007C00048F2FF329143084321688860D4E905016B
:1007D00008432168C96821F0FF0108432168C86007
:1007E0002068006840F00100216808600020206453
:1007F000202084F83D000020206384F83E0000BFE4
:1008000030E70000A086010080841E0000093D0042
:1008100040420F002DE9F8430446894616461F461C
:10082000DDF82080FFF714FF054694F83D002028EE
:100830007ED11923012251492046009500F0BEFDCA
:1008400010B10220BDE8F88300BF94F83C000128F5
:1008500001D10220F6E7012084F83C0000BF2068A7
:10086000006800F0010028B92068006840F001002D
:10087000216808602068006820F400602168086032
:10088000212084F83D00102084F83E0000202064E0
:1008900066626785608D20853948E0622B46424656
:1008A0004946204600F006FD08B10120CAE700BF16
:1008B00000200090206840690090206880690090C6
:1008C00000BF00BF44E02A464146204600F01BFE20
:1008D00050B1206C042805D12068006840F40070F5
:1008E000216808600120ADE7606A0078216808612E
:1008F000606A401C6062608D401E6085208D401ED5
:10090000208520684069C0F3800070B1208D60B1FF
:10091000606A007821680861606A401C6062608DCE
:10092000401E6085208D401E20852A46414600E0FD
:1009300022E0204600F014FD50B1206C042805D1BF
:100940002068006840F4007021680860012079E7A1
:10095000208D0028B7D12068006840F4007021681D
:100960000860202084F83D00002084F83E0000BF8D
:1009700084F83C0000BF65E7022063E70200100036
:100980000000FFFF10B586B00446142101A8FFF750
:10099000E2FC1B49206888422FD100BF0020009054
:1009A0001848006840F020001649086008460068B2
:1009B00000F02000009000BF00BF03200190122033
:1009C000029001200390032004900420059001A9C7
:1009D0000D48FFF73DFD00BF002000900948103092
:1009E000006840F48000074910310860084600683C
:1009F00000F48000009000BF00BF06B010BD0000F2
:100A0000005800403038024000140240034800689B
:100A10000349097808440149086070470000002034
:100A20000800002010B50D48006840F400700B4924
:100A300008600846006840F4806008600846006866
:100A400040F480700860032000F092F8002000F06D
:100A500007F800F02BF8002010BD0000003C024019
:100A600070B504460E4800784FF47A71B1FBF0F08F
:100A70000C490968B1FBF0F5284600F0DFFB08B12E
:100A8000012070BD102C07D200222146501E00F01C
:100A900031F80548046001E00120F2E70020F0E7AA
:100AA000080000200C0000200400002008B500BF52
:100AB000002000900E48006840F480400C49086017
:100AC0000846006800F48040009000BF00BF00BFEF
:100AD00000200090081F006840F08050091F086047
:100AE0000846006800F08050009000BF00BF08BDBD
:100AF000443802402DE9F05F80460D461646002737
:100B000000F068FF074639462A46334601F00700E1
:100B1000C0F1070ABAF1040F02D94FF0040A01E04C
:100B2000C0F1070AD14600F1040ABAF1070F02D258
:100B30004FF0000A01E0A0F1030AD4464FF0010A89
:100B40000AFA09FAAAF1010A0AEA020A0AFA0CFAEE
:100B50004FF0010B0BFA0CFBABF1010B0BEA030B93
:100B60004AEA0B042146404600F03CFFBDE8F09FF6
:100B700000BF00F00702064B19684FF6FF0319404B
:100B8000044B0B4343EA0221014B196000BF70473D
:100B90000CED00E00000FA0570B504460D460CB9F6
:100BA000012070BD5848006800F00F00A84209D22B
:100BB00055490D700846006800F00F00A84201D0AA
:100BC0000120EEE7207800F0020002281DD12078F5
:100BD00000F00400042805D14C48006840F4E050BF
:100BE0004A490860207800F00800082805D14748E5
:100BF000006840F46040454908604448006820F0BF
:100C0000F000A168084341490860207800F0010025
:100C1000A8B36068012807D13C4808380068C0F3D1
:100C20004040B8B90120BCE76068022802D0606883
:100C3000032807D1354808380068C0F3406048B938
:100C40000120AEE7314808380068C0F3400008B919
:100C50000120A6E72D48006820F0030061680843E2
:100C60002A490860FFF7F4FC064609E0FFF7F0FCAC
:100C7000801B41F28831884202D9032091E707E0C6
:100C80002248006800F00C006168B0EB810FEDD1E4
:100C90001D48006800F00F00A84209D91A490D70DC
:100CA0000846006800F00F00A84201D0012078E754
:100CB000207800F00400042807D11448006820F4CC
:100CC000E050E168084311490860207800F008000E
:100CD000082808D10D48006820F46040216940EAE6
:100CE000C1000A49086000F02DF808490968C1F3FD
:100CF0000311074A515CC840064908600020FFF70D
:100D0000AFFE00204DE70000003C024008380240E2
:100D10006E1A00080C0000200148006870470000AF
:100D20000C00002000B5FFF7F7FF04490968C1F384
:100D30008221034A515CC84000BD000008380240CF
:100D40007E1A00082DE9F047002400250026A14660
:100D50002548006800F00C0020B1042805D00828C0
:100D60003AD105E0DFF8849039E0DFF8849036E08E
:100D70001D48001F006800F03F041B48001F00686A
:100D800000F4800078B11A481749091F0968C1F3B7
:100D90008811A0FB01700146224600233846FFF768
:100DA00063FA05460EE011480F49091F0968C1F3AF
:100DB0008811A0FB01700146224600233846FFF748
:100DC00053FA05460848001F0068C0F30140401C64
:100DD0004600B5FBF6F902E0DFF8109000BF00BF57
:100DE0004846BDE8F0870000083802400024F400BF
:100DF000001BB700F8B504460CB90120F8BD2078F7
:100E000000F00100002874D0F948006800F00C00E0
:100E100004280DD0F648006800F00C00082813D113
:100E2000F348001F006800F48000B0F5800F0BD17C
:100E3000EF4808380068C0F34040002859D0606887
:100E4000002856D10120D9E700BF6068B0F5803F87
:100E500008D1E7480838006840F48030E449083990
:100E600008601EE06068B0F5A02F0DD1E04808389A
:100E7000006840F48020DE490839086008460068B0
:100E800040F4803008600CE0D9480838006820F44D
:100E90008030D749083908600846006820F480206F
:100EA000086000BF606890B1FFF7D2FB054606E01E
:100EB000FFF7CEFB401B642801D903209EE7CC48F6
:100EC00008380068C0F340400028F1D011E0FFF777
:100ED000BFFB054606E0FFF7BBFB401B642801D9BA
:100EE00003208BE7C24808380068C0F34040002860
:100EF000F1D1207800F0020002285FD1BC480068E0
:100F000000F00C0058B1BA48006800F00C00082846
:100F10001CD1B748001F006800F48000B0B9B44885
:100F200008380068C0F3400020B1E068012801D013
:100F3000012063E7AE480838006820F0F800216916
:100F400040EAC100AA490839086037E0E06800B308
:100F50000120A8490860FFF77BFB054606E0FFF784
:100F600077FB401B022801D9032047E7A048083837
:100F70000068C0F340000028F1D09D4808380068A0
:100F800020F0F800216940EAC10099490839086059
:100F900014E0002097490860FFF75AFB054606E079
:100FA000FFF756FB401B022801D9032026E7904893
:100FB00008380068C0F340000028F1D1207800F024
:100FC000080008282CD16069A8B101208A4908606E
:100FD000FFF73EFB054606E0FFF73AFB401B022801
:100FE00001D903200AE782486C300068C0F3400052
:100FF0000028F1D014E000207F490860FFF728FBAB
:10100000054606E0FFF724FB401B022801D9032018
:10101000F4E677486C300068C0F340000028F1D156
:10102000207800F00400042870D100267048383081
:10103000006800F0805090B900BF002000906C481C
:101040003830006840F080506949383108600846FF
:10105000006800F08050009000BF00BF0126674884
:10106000006800F48070B0B96448006840F4807093
:1010700062490860FFF7ECFA054606E0FFF7E8FA78
:10108000401B022801D90320B8E65C48006800F440
:1010900080700028F2D000BFA068012808D1544811
:1010A0006830006840F001005149683108601DE077
:1010B000A06805280DD14E486830006840F0040053
:1010C0004B49683108600846006840F0010008603C
:1010D0000CE047486830006820F00100444968315E
:1010E00008600846006820F00400086000BFA0689F
:1010F000A8B1FFF7ADFA054609E0FFF7A9FA401BD2
:1011000041F28831884202D9032077E626E0384848
:1011100068300068C0F340000028EED013E0FFF70D
:1011200097FA054608E0FFF793FA401B41F2883131
:10113000884201D9032061E62D4868300068C0F379
:1011400040000028EFD1012E07D12948383000682F
:1011500020F0805026493831086000BFA069B8B33C
:101160002348006800F00C0008285ED0A06902281F
:1011700046D100201F490866FFF76AFA054606E0D7
:10118000FFF766FA401B022801D9032036E618480B
:1011900008380068C0F340600028F1D1D4E90701A5
:1011A0000843616A40EA81110122A06AC2EB500043
:1011B00041EA00412C20005D41EA00600C49091F12
:1011C000086001200B490866FFF742FA054607E070
:1011D0002DE0FFF73DFA401B022801D903200DE660
:1011E000034808380068C0F340600028F1D01EE0D2
:1011F0000838024000004742800E4742007000401D
:1012000000200C490866FFF723FA054606E0FFF7C1
:101210001FFA401B022801D90320EFE506480068A9
:10122000C0F340600028F2D101E00120E6E5002093
:10123000E4E50000000047420038024070B5044673
:101240002546681EB0F1807F01D301200FE0681EA3
:101250004FF0E02148610F214FF0FF3000F0C2FB5A
:1012600000204FF0E021886107200861002070BD58
:1012700000BFFEE7014608684069C0F38020B0B1B6
:101280006FF480600A68506100200863202081F8B4
:101290003D00002081F83E00086C40F00400086426
:1012A00000BF002081F83C0000BF012070470020F3
:1012B000FCE700002DE9F84304460D461746984622
:1012C000E66A082E04D0012E02D016F5803F06D122
:1012D0002068006840F480702168086008E0206B96
:1012E000122805D12068006840F4807021680860E9
:1012F0003B4600224FF001112046CDF8008000F05F
:101300005DF810B10120BDE8F8832069B0F5804F89
:1013100004D105F0FE002168086112E005F4407078
:10132000F02141EAE0102168086143463A460B4942
:10133000204600F086F808B10120E4E7E8B2216811
:10134000086143463A460549891F204600F079F86E
:1013500008B10120D7E70020D5E700000800010010
:1013600070B504460D46164620E02046FFF782FF82
:1013700008B1012070BD681CC0B1FFF769F9801B7E
:10138000A84200D895B900202063202084F83D00B1
:10139000002084F83E00206C40F02000206400BF54
:1013A000002084F83C0000BF0120E3E7206840698A
:1013B000C0F380000028D8D00020DBE72DE9F04101
:1013C00004460D4617461E46DDF818801CE0701CCA
:1013D000D0B1FFF73DF9A0EB0800B04200D89EB9AC
:1013E00000202063202084F83D00002084F83E0087
:1013F000206C40F02000206400BF002084F83C00F6
:1014000000BF0120BDE8F081C5F3074001280AD1E3
:1014100020684069A9B20840A9B2884201D10120E0
:101420000BE0002009E020688069A9B20840A9B259
:10143000884201D1012000E00020B842C7D000203E
:10144000E0E72DE9F04104460D4616461F463DE013
:1014500020684069C0F38020E8B12068006840F44B
:101460000070216808606FF4806021684861002086
:101470002063202084F83D00002084F83E00206C8A
:1014800040F00400206400BF002084F83C0000BF4E
:101490000120BDE8F081701CC0B1FFF7D9F8C01B76
:1014A000B04200D896B900202063202084F83D0087
:1014B000002084F83E00206C40F02000206400BF33
:1014C000002084F83C0000BF0120E2E7C5F307409C
:1014D00001280AD120684069A9B20840A9B288420F
:1014E00001D101200BE0002009E020688069A9B249
:1014F0000840A9B2884201D1012000E00020002864
:10150000A6D00020C5E770B504460D46164620E07B
:101510002046FFF7AFFE08B1012070BD681CC0B1C6
:10152000FFF796F8801BA84200D895B900202063E9
:10153000202084F83D00002084F83E00206C40F01C
:101540002000206400BF002084F83C0000BF012080
:10155000E3E720684069C0F3C0100028D8D000201D
:10156000DBE7000008B500BF0020009015480068C8
:1015700040F00100134908600846006800F00100CF
:10158000009000BF00BF00BF002000900846006828
:1015900040F0200008600846006800F0200000903D
:1015A00000BF00BF00BF002000900846006840F068
:1015B000800008600846006800F08000009000BFCE
:1015C00000BF08BD3038024010B50B480B49086019
:1015D0000B484860002109488160C1604FF4804198
:1015E0000161002141618161C1610162FFF736F84B
:1015F00008B1FEF717FF10BD00580040180000208A
:10160000801A060000BFFEE7704700002DE9F04198
:101610000027002500240026002000F0EBF829E038
:10162000002522E02046E11704EB5171C910144A4D
:1016300002EBC502575C002613E007F0800030B1D2
:10164000A01941B2012268B200F01CF805E0A0190F
:1016500041B2002268B200F015F87806070E701C3F
:10166000C6B2082EE9DB681CC5B2802DDADB04F1B6
:101670000800C4B2402CD3DB00F0E6F8BDE8F081EE
:10168000FA1E000870B5134600220024002805DB6E
:101690007F2803DC002901DB3F2900DD70BD0D46FA
:1016A000CE1701EB5676C6F3C702CE1701EB56767E
:1016B000F610A1EBC606F4B2012B0BD1134D05EBCE
:1016C000C005AD5C0126A6403543104E06EBC006B2
:1016D000B55418E0022B0BD10C4D05EBC005AD5CE9
:1016E0000126A6407540094E06EBC006B5540AE037
:1016F000064D05EBC005AE5C0125A540AE43034D8C
:1017000005EBC005AE5400BFC8E700006C00002028
:1017100010B50021AE2000F08BF90021202000F050
:1017200087F90021102000F083F90021B02000F09B
:101730007FF90021C82000F07BF90021084600F065
:1017400077F90021102000F073F90021402000F00B
:101750006FF90021812000F06BF90021FF2000F0DB
:1017600067F90021A12000F063F90021A62000F014
:101770005FF90021A82000F05BF900213F2000F074
:1017800057F90021A42000F053F90021D32000F0E4
:101790004FF90021084600F04BF90021D52000F058
:1017A00047F90021F02000F043F90021D92000F092
:1017B0003FF90021222000F03BF90021DA2000F05F
:1017C00037F90021122000F033F90021DB2000F06E
:1017D0002FF90021202000F02BF900218D2000F0AE
:1017E00027F90021142000F023F90021AF2000F098
:1017F0001FF910BD10B50246002020E000211AE0BC
:10180000012A05D1FF230F4C04EBC104235410E03F
:101810002AB900230B4C04EBC104235409E0094B03
:1018200003EBC1031B5CC3F1FF03064C04EBC104D3
:1018300023544B1CD9B28029E2DB431CD8B20828C0
:10184000DCDB10BD6C00002070B5002412E02146E6
:10185000002000F015F8002508E0084901EBC5015B
:10186000085D012100F0E4F8681CC5B2802DF4DBAE
:10187000601CC4B2082CEADB70BD00006C000020C4
:1018800070B504460D4605F1B001C8B2002100F064
:10189000CFF8102141EA1410002100F0C9F804F03B
:1018A0000F00002100F0C4F870BD7047704710B5FC
:1018B000FFF7ACF810BD000000B593B0302107A8C9
:1018C000FEF749FD142102A8FEF745FD00BF0020E8
:1018D00001902448006840F0805022490860084682
:1018E000006800F08050019000BF00BF00BF0020E2
:1018F00001901D48006840F480401B49086008467C
:10190000006800F48040019000BF00BF01200790F4
:101910000004089002200D9041050E9106210F91C0
:10192000A8211091022111910421129107A8FFF71B
:1019300061FA08B1FEF776FD0F20029002200390B5
:10194000002004904FF4A05005904FF48050069072
:10195000052102A8FFF720F908B1FEF763FD13B0D7
:1019600000BD00004038024000700040144800688C
:1019700040F47000124908601248006840F001000D
:101980001049086000200F49083108600D480068C0
:101990000D4908400B4908600C48091D0860081FE4
:1019A000006820F48020091F0860002005490C31E0
:1019B00008604FF0006002498039086070470000FD
:1019C00088ED00E000380240FFFFF6FE10300024F2
:1019D00000BFFEE702480068C0F302207047000025
:1019E0000CED00E010B5002804DB0A07130E054AD1
:1019F000135406E00A07140E034A00F00F031B1FDE
:101A0000D45410BD00E400E018ED00E0FFF70AF840
:101A1000FFF752FFFFF7A6FDFFF7D6FDFFF778FEB1
:101A200005E0FFF7F3FD4FF47A70FEF7FDFCF8E7F1
:101A300038B504460D461DB900200849087002E07B
:101A4000402006490870054844700A200223034AD2
:101A5000782100900248FEF7DDFE38BD100000201E
:101A6000180000204FF04070E1EE100A70470000AF
:101A7000000000000000010203040607080900003E
:101A8000000001020304000000000000000000004C
:101A90000000000000003F400000000000000000C7
:101AA0003000400030004000000009000BC03D0045
:101AB0000BC03D00090018C024407FE02240318067
:101AC0000000180024C01B000D80324001800380FC
:101AD0001C4027401C8007400040100060000000B0
:101AE0000000000000000000000000001F802040F7
:101AF00040200000402020401F800000000009001E
:101B000006001F80060009000000040004003F805A
:101B1000040004000000001000600000000000004D
:101B200000000400040004000400040000000000A1
:101B300000400000000000000000002001C006007E
:101B40003800400000001F802040204020401F80BF
:101B50000000000010403FC000400000000018C01E
:101B600021402240244018400000108020402440A2
:101B700024401B80000002000D0011003FC0014006
:101B800000003C80244024402440238000001F802B
:101B9000244024403440038000003000200027C04F
:101BA0003800200000001B802440244024401B807B
:101BB00000001C0022C0224022401F8000000000C4
:101BC0000000084000000000000000000000046069
:101BD000000000000000000004000A001100208046
:101BE0004040090009000900090009000000000048
:101BF0004040208011000A0004001800200023400B
:101C00002400180000001F802040274029401F406A
:101C10000000004007C039000F0001C00040204014
:101C20003FC0244024401B8000001F8020402040F3
:101C300020403080000020403FC0204020401F80D6
:101C4000000020403FC024402E4030C00000204013
:101C50003FC024402E00300000000F0010802040C4
:101C600022403380020020403FC0040004003FC0F7
:101C70002040204020403FC0204020400000006025
:101C8000202020203FC02000200020403FC02440D2
:101C90000B0030C0204020403FC0204000400040AA
:101CA00000C03FC03C0003C03C003FC000002040DB
:101CB0003FC00C4023003FC020001F802040204038
:101CC00020401F80000020403FC024402400180016
:101CD00000001F802140214020E01FA00000204084
:101CE0003FC02440260019C0004018C024402440B2
:101CF000224031800000300020403FC020403000B2
:101D0000000020003F80004000403F802000200075
:101D10003E0001C0070038002000380007C03C002A
:101D200007C038000000204039C0060039C02040FC
:101D300000002000384007C038402000000030403C
:101D400021C02640384020C00000000000007FE095
:101D5000402040200000000070000C000380004084
:101D600000000000402040207FE000000000000054
:101D700020004000200000000000001000100010B3
:101D800000100010001000000000400000000000E3
:101D90000000000002800540054003C00040200014
:101DA0003FC0044004400380000000000380044062
:101DB00004400640000000000380044024403FC06F
:101DC0000040000003800540054003400000000083
:101DD00004401FC0244024402000000002E00550C1
:101DE00005500650042020403FC00440040003C0BA
:101DF00000400000044027C0004000000000001028
:101E00000010041027E00000000020403FC0014007
:101E1000070004C00440204020403FC00040004074
:101E2000000007C0040007C0040003C00000044015
:101E300007C00440040003C00040000003800440C9
:101E4000044003800000041007F0045004400380A5
:101E50000000000003800440045007F0001004401C
:101E600007C00240040004000000000006400540D6
:101E7000054004C00000000004001F800440004032
:101E80000000040007800040044007C00040040038
:101E9000070004C0018006000400060001C007001E
:101EA00001C006000000044006C0010006C0044056
:101EB00000000410071004E0018006000400000088
:101EC000044005C00640044000000000000004007B
:101ED0007BE040200000000000000000FFF0000058
:101EE0000000000040207BE00400000000004000F3
:101EF00080004000200020004000000000000000A2
:101F000000000000000000000000000000000000D1
:101F100000000000000000000000000000000000C1
:101F200000000000000000000000000000000000B1
:101F300000000000000000000000000000000000A1
:101F40000006000000000000001E0000000000006D
:101F500000DE00000000000000D8000000000000CB
:101F600000D800000000000000D8000000000000C1
:101F700000DE00000000000000FE00000000000085
:101F800000F60000000000000072000000000000E9
:101F90000000000000000000007C000000000000C5
:101FA00000FE00000000000000C60000000000006D
:101FB00000C600000000000000C600000000000095
:101FC00000FE000000000000007C00000000000097
:101FD0000000000000000000001E000000000000E3
:101FE00000DE00000000000000D60000000000003D
:101FF00000D600000000000000D600000000000035
:1020000000D600000000000000DE400000000000DC
:1020100000FE600000000010006C70000000003046
:1020200000007800000000F0007C7C00000007F059
:1020300000FE7E0000003FF000C67F000001FFF0C0
:1020400000C67F80000FFFF000C67FC0007FFFF05A
:1020500000FE7FE003FFFFF0007C7FF03FFFFFF01A
:1020600000027FF83FFFFFF000067FFC3FFFFFF01C
:10207000001E7FFE3FFFFFF000BC7FFF3FFFFFF031
:1020800000E07FFFBFFFFF8000F87FFFFFFFFC0045
:10209000003E7FFFFFFFE000000E7FFFFFFF00001C
:1020A00000B87FFFFFF8000000E07FFFFFF00000B6
:1020B00000FE7FFFFFF00000001E7FFFFFF000002A
:1020C00000027FFFFFF0000000007FEFFFF0020042
:1020D00000067FE7FFF00200000E7FE3FFF0020042
:1020E000001C7FE1FFF8030000BA7FE0FFFC030063
:1020F00000F67FE07FFE038000E67FE03FFF038085
:1021000000F67FE03FFF83C0003E7FE03FFFC3C09B
:10211000000E7FE03FFFE3E000027FE03FFFF3E0DF
:1021200000007FE03FFFFBF000027FE03FFFFFF099
:1021300000667FE03FFFFFF800F67FE03FFFFFF81B
:1021400000D67FE03FFFFFFC00D67FF07FFFFFFC63
:1021500000D67FF8FFF7FFFE00D67FFFFFF3FFFEFC
:1021600000DE3FFFFFE1FFFF008C3FFFFFE0FFCFFE
:1021700000401FFFFFC07FC780C01FFFFFC03FC3DD
:1021800080C00FFFFF801FC1C0FE07FFFF000FC010
:10219000C0FE03FFFE0007C060C001FFFC0003C0DB
:1021A00020C0007FF00001C00086000F800000C04A
:1021B000001600000000004000D6000000000000F3
:1021C00000D600000000000000D600000000000063
:1021D00000D600000000000000D600000000000053
:1021E00000D000000000000000C00000000000005F
:1021F0000006000000000000001E000000000000BB
:1022000000DE00000000000000D800000000000018
:1022100000D800000000000000D80000000000000E
:1022200000DE00000000000000DE000000000000F2
:1022300000F6000000000000007200000000000036
:10224000000000000000000000620000000000002C
:1022500000F600000000000000F600000000000092
:1022600000D600000000000000D6000000000000C2
:1022700000D600000000000000DE000000000000AA
:10228000008C0000000000000000000000000000C2
:10229000000000000000000000000000000000003E
:1022A000000000000000000000000000000000002E
:1022B000000000000000000000000000000000001E
:1022C000000000000000000000000000000000000E
:1022D00000000000000000000000000000000000FE
:1022E00000000000000000000000000000000000EE
:1022F0000000000000000000000000001C23000897
:102300000000002018000000C40100083423000869
:1023100018000020380B0000E00100080000000059
:1023200010000000010000000024F4000000000084
:0423300000000000A9
:040000050800018965
:00000001FF
