:020000040800F2
:10000000700400209D0100086D1A00088914000882
:10001000691A0008A9020008951B000800000000EA
:10002000000000000000000000000000711A00083D
:10003000AD020008000000006F1A0008731A0008E3
:10004000B7010008B7010008B7010008B7010008B0
:10005000B7010008B7010008B7010008B7010008A0
:10006000B7010008AF020008B7010008B701000897
:10007000B7010008B7010008B7010008B701000880
:10008000B7010008B7010008B7010008B701000870
:10009000B7010008B7010008B7010008B701000860
:1000A000B7010008B7010008B7010008B701000850
:1000B000B7010008B7010008B7010008B701000840
:1000C000B7010008B7010008B7010008B701000830
:1000D000B7010008B7010008B7010008B701000820
:1000E000B7010008B7010008B7010008B701000810
:1000F000B7010008B7010008B7010008B701000800
:10010000B7010008B7010008B7010008B7010008EF
:10011000B7010008B7010008B7010008B7010008DF
:10012000B7010008B7010008B7010008B7010008CF
:10013000B7010008B7010008B7010008B7010008BF
:10014000B7010008B7010008B7010008B7010008AF
:10015000B7010008B7010008B7010008B70100089F
:10016000B7010008B7010008B7010008B70100088F
:10017000B7010008B7010008B7010008000000003F
:10018000B7010008B7010008DFF80CD000F07AF8DA
:1001900000480047011E0008700400200648804700
:1001A00006480047FEE7FEE7FEE7FEE7FEE7FEE75C
:1001B000FEE7FEE7FEE7FEE7311B000889010008C5
:1001C0002DE9F05F0546002092469B46884606468C
:1001D000814640241BE0284641464746224600F01F
:1001E00041F853465A46C01A914110D31146184659
:1001F000224600F028F82D1A67EB01084F462246E8
:100200000120002100F01FF817EB00094E41201ECD
:10021000A4F10104DFDC484631462A464346BDE8E6
:10022000F09FD2B201E000F8012B491EFBD27047CB
:100230000022F6E710B513460A4604461946FFF7B2
:10024000F0FF204610BD202A04DB203A00FA02F11C
:10025000002070479140C2F1200320FA03F31943B4
:1002600090407047202A04DB203A21FA02F0002156
:10027000704721FA02F3D040C2F1200291400843B6
:1002800019467047064C074D06E0E06840F0010350
:1002900094E8070098471034AC42F6D3FFF778FF94
:1002A0003C1E00085C1E000800BFFEE7704710B54A
:1002B000082000F021F810BD7047000070B504461A
:1002C00000F02EF906462546681C10B10448007857
:1002D000054400BF00F024F9801BA842FAD370BD8A
:1002E0000800002010B50446082C02D1014801F096
:1002F00041FD10BD1000002010B504460448006800
:10030000204020B1024804602046FFF7EBFF10BDFB
:10031000143C0140F8B502460B460025002400209D
:100320000021DCE0012606FA01F51E6806EA050454
:10033000AC4273D15E68022E02D05E68122E13D1D9
:10034000CF0802F1200656F827004E07F70E0F26B9
:10035000BE40B0434F07FF0E1E69BE403043CF087A
:1003600002F1200646F8270010684F000326BE4021
:10037000B0431E7906F003064F00BE4030431060C4
:100380005E68012E08D05E68022E05D05E68112ED0
:1003900002D05E68122E13D190684F000326BE4033
:1003A000B0434F00DE68BE40304390605068012685
:1003B0008E40B0431E79C6F300168E403043506025
:1003C000D0684F000326BE40B0434F009E68BE4039
:1003D0003043D0605E6806F08056B6F1805F7DD114
:1003E00000BF00260096404E366846F480463E4FD9
:1003F0003E603E46366806F48046009600BF00BF69
:100400003A4E8F0856F827008E07370F0F26BE404A
:10041000B043374EB24202D1002624E05EE0354EB2
:10042000B24201D101261EE0334EB24201D1022672
:1004300019E0324EB24201D1032614E0304EB242EE
:1004400001D104260FE02F4EB24201D105260AE069
:100450002D4EB24201D1062605E02C4EB24201D10A
:10046000072600E008268F073F0FBE4030431F4E8F
:100470008F0846F82700264E3068A0435E6806F4D1
:100480008036B6F5803F00D12043214E3060361DC6
:100490003068A0435E6806F40036B6F5003F00D130
:1004A00020431B4E361D3060361D3068A0435E6809
:1004B00006F48016B6F5801F00D12043144E08368E
:1004C0003060361D3068A0435E6806F40016B6F54D
:1004D000001F00D120430E4E0C363060491C1029FD
:1004E000FFF420AFF8BD0000443802400838014056
:1004F000000002400004024000080240000C0240DC
:10050000001002400014024000180240001C02408B
:10051000003C01400AB1816101E00B048361704736
:1005200001480068704700000000002070B50446D4
:100530000CB9012070BD94F83D0028B9002084F862
:100540003C00204600F0FAFA242084F83D002068A0
:10055000006820F001002168086000F0EFFC05460B
:100560005C496068884206D85B48854201D2012018
:1005700007E0002005E05948854201D2012000E053
:100580000020012800D1D5E75548B5FBF0F62068DA
:10059000406820F03F003043216848604D49606862
:1005A000884201D8701C07E04FF4967070434FF4F6
:1005B0007A71B0FBF1F0401C2168096A21F03F011B
:1005C00008432168086243496068884214D8681E5D
:1005D00061684900B0FBF1F0401CC0F30B00042837
:1005E00001D204203DE0681E61684900B0FBF1F0D3
:1005F000401CC0F30B0034E0A06838B9681E616885
:1006000001EB4101B0FBF1F0401C0AE0681E61689B
:1006100001EBC10202EB0111B0FBF1F0401C40F410
:100620008040C0F30B0008B901201AE0A06848B967
:10063000681E616801EB4101B0FBF1F0401CC0F3A2
:100640000B000CE0681E616801EBC10202EB0111B6
:10065000B0FBF1F0401CC0F30B0040F4804040F4CC
:1006600000402168C9694CF6FF7291430843216834
:10067000C861D4E9070108432168096821F0C00175
:10068000084321680860D4E9031008432168896899
:1006900048F2FF329143084321688860D4E905019C
:1006A00008432168C96821F0FF0108432168C86038
:1006B0002068006840F00100216808600020206484
:1006C000202084F83D000020206384F83E0000BF15
:1006D00030E70000A086010080841E0000093D0074
:1006E00040420F002DE9FC5F04460F4690469946B4
:1006F000DDE90CAB0E9EFFF713FF054694F83D00B5
:10070000202870D119230122B0492046009501F01C
:100710000DF810B10220BDE8FC9F00BF94F83C002A
:10072000012801D10220F6E7012084F83C0000BF37
:100730002068006800F0010028B92068006840F0D7
:100740000100216808602068006820F400602168CA
:100750000860222084F83D00402084F83E000020FC
:100760002064C4F824A0A4F82AB0608D208598489D
:10077000E0624B46424639462046CDE9006500F02E
:10078000A5FE08B10120C6E7208D88B900BF002072
:10079000019020684069019020688069019000BF45
:1007A00000BF2068006840F400702168086040E0E5
:1007B000208D012818D12068006820F4806021680D
:1007C000086000BF00200190206840690190206807
:1007D0008069019000BF00BF2068006840F400708D
:1007E0002168086025E0EFE0208D022816D12068FE
:1007F000006820F48060216808602068006840F488
:1008000000602168086000BF0020019020684069F6
:10081000019020688069019000BF0AE000BF0020BD
:10082000019020684069019020688069019000BFB4
:1008300000BFBAE0208D03287ED8208D012815D175
:100840002A463146204601F016F808B1012062E739
:1008500020680069616A0870606A401C6062208DCF
:10086000401E2085608D401E60859EE0208D022800
:100870002AD13346002257492046009500F056FF02
:1008800008B1012047E72068006840F40070216843
:10089000086020680069616A0870606A401C6062D4
:1008A000208D401E2085608D401E60852068006977
:1008B000616A0870606A401C6062208D401E20855D
:1008C000608D401E608570E033460022414920461D
:1008D000009500F02BFF08B101201CE7206800689C
:1008E00020F480602168086020680069616A0870EF
:1008F000606A401C6062208D401E2085608D401E15
:1009000060853346002233492046009500F00EFFF3
:1009100008B10120FFE62068006840F400702168FB
:10092000086020680069616A0870606A401C606243
:10093000208D401E208500E010E0608D401E608507
:1009400020680069616A0870606A401C6062208DDE
:10095000401E2085608D401E608526E02A46314677
:10096000204600F088FF08B10120D4E62068006925
:10097000616A0870606A401C6062208D401E20859C
:10098000608D401E608520684069C0F3800060B1C2
:1009900020680069616A0870606A401C6062208D8E
:1009A000401E2085608D401E6085208D00287FF4CC
:1009B00041AF202084F83D00002084F83E0000BFB5
:1009C00084F83C0000BFA6E60220A4E60200100066
:1009D0000000FFFF040001002DE9FC5F04460F4604
:1009E00090469946DDE90CAB0E9EFFF799FD054652
:1009F00094F83D0020287DD1192301224D4920463D
:100A0000009500F093FE10B10220BDE8FC9F00BFEE
:100A100094F83C00012801D10220F6E7012084F877
:100A20003C0000BF2068006800F0010028B9206881
:100A3000006840F00100216808602068006820F428
:100A4000006021680860212084F83D00402084F87F
:100A50003E0000202064C4F824A0A4F82AB0608DD1
:100A600020853548E0624B46424639462046CDE96E
:100A7000006500F0C7FD08B10120C6E731E02A4655
:100A80003146204600F037FF50B1206C042805D1D4
:100A90002068006840F40070216808600120B4E715
:100AA000606A007821680861606A401C6062208D7D
:100AB000401E2085608D401E608520684069C0F31F
:100AC000800070B1208D60B1606A00782168086193
:100AD000606A401C6062208D401E2085608D401E33
:100AE0006085208D0028CAD12A463146204600F074
:100AF000EFFD00E01CE050B1206C042805D1206817
:100B0000006840F400702168086001207DE72068DB
:100B1000006840F4007021680860202084F83D00DF
:100B2000002084F83E0000BF84F83C0000BF6CE762
:100B300002206AE7020010000000FFFF10B586B037
:100B40000446142101A8FFF773FB2A492068884254
:100B50004DD100BF002000902748006840F00400FD
:100B6000254908600846006800F00400009000BFB6
:100B700000BF00BF002000900846006840F0010060
:100B800008600846006800F00100009000BF00BF48
:100B90004815019012200290012003900320049038
:100BA0000420059001A91548FFF7B4FB4FF48070AD
:100BB0000190122002900120039003200490042051
:100BC000059001A90E48FFF7A5FB00BF002000908B
:100BD00009481030006840F40000074910310860EF
:100BE0000846006800F40000009000BF00BF06B097
:100BF00010BD0000005C0040303802400008024098
:100C0000000002400348006803490978084401498C
:100C100008607047000000200800002010B50D4853
:100C2000006840F400700B4908600846006840F412
:100C3000806008600846006840F480700860032007
:100C400000F0A2F8002000F007F800F02BF80020D8
:100C500010BD0000003C024070B504460E4800780C
:100C60004FF47A71B1FBF0F00C490968B1FBF0F573
:100C7000284600F0EFFB08B1012070BD102C07D210
:100C800000222146501E00F041F80548046001E0B2
:100C90000120F2E70020F0E7080000200C0000200F
:100CA0000400002008B500BF002000900E48006836
:100CB00040F480400C4908600846006800F4804019
:100CC000009000BF00BF00BF00200090081F006818
:100CD00040F08050091F08600846006800F080500E
:100CE000009000BF00BF08BD4438024001460846DE
:100CF000002809DB00F01F0301229A4043099B00F2
:100D000003F1E023C3F8002100BF70472DE9F05F35
:100D100080460D461646002700F03EFF074639463E
:100D20002A46334601F00700C0F1070ABAF1040F62
:100D300002D94FF0040A01E0C0F1070AD14600F1E0
:100D4000040ABAF1070F02D24FF0000A01E0A0F145
:100D5000030AD4464FF0010A0AFA09FAAAF1010A75
:100D60000AEA020A0AFA0CFA4FF0010B0BFA0CFB22
:100D7000ABF1010B0BEA030B4AEA0B042146404698
:100D800000F012FFBDE8F09F00BF00F00702064B25
:100D900019684FF6FF031940044B0B4343EA022145
:100DA000014B196000BF70470CED00E00000FA0530
:100DB00070B504460D460CB9012070BD5848006856
:100DC00000F00F00A84209D255490D70084600688E
:100DD00000F00F00A84201D00120EEE7207800F0DB
:100DE000020002281DD1207800F00400042805D15B
:100DF0004C48006840F4E0504A490860207800F010
:100E00000800082805D14748006840F4604045497B
:100E100008604448006820F0F000A1680843414998
:100E20000860207800F00100A8B36068012807D1AD
:100E30003C4808380068C0F34040B8B90120BCE71E
:100E40006068022802D06068032807D13548083856
:100E50000068C0F3406048B90120AEE73148083867
:100E60000068C0F3400008B90120A6E72D480068DB
:100E700020F00300616808432A490860FFF750FB2F
:100E8000064609E0FFF74CFB801B41F2883188429F
:100E900002D9032091E707E02248006800F00C0027
:100EA0006168B0EB810FEDD11D48006800F00F00C4
:100EB000A84209D91A490D700846006800F00F00D1
:100EC000A84201D0012078E7207800F0040004282F
:100ED00007D11448006820F4E050E1680843114944
:100EE0000860207800F00800082808D10D48006844
:100EF00020F46040216940EAC1000A49086000F01E
:100F00002DF808490968C1F30311074A515CC8402C
:100F1000064908600020FFF79FFE00204DE7000013
:100F2000003C024008380240181E00080C00002057
:100F300001480068704700000C00002000B5FFF772
:100F4000F7FF04490968C1F38221034A515CC84094
:100F500000BD000008380240281E00082DE9F047B7
:100F6000002400250026A1462548006800F00C005A
:100F700020B1042805D008283AD105E0DFF8849094
:100F800039E0DFF8849036E01D48001F006800F06B
:100F90003F041B48001F006800F4800078B11A4825
:100FA0001749091F0968C1F38811A0FB01700146A8
:100FB000224600233846FFF703F905460EE01148A4
:100FC0000F49091F0968C1F38811A0FB0170014690
:100FD000224600233846FFF7F3F805460848001F6D
:100FE0000068C0F30140401C4600B5FBF6F902E082
:100FF000DFF8109000BF00BF4846BDE8F087000052
:10100000083802400024F400001BB700F8B504467D
:101010000CB90120F8BD207800F00100002874D040
:10102000F948006800F00C0004280DD0F64800686C
:1010300000F00C00082813D1F348001F006800F4EA
:101040008000B0F5800F0BD1EF4808380068C0F37E
:101050004040002859D06068002856D10120D9E7C7
:1010600000BF6068B0F5803F08D1E74808380068E5
:1010700040F48030E449083908601EE06068B0F54B
:10108000A02F0DD1E0480838006840F48020DE49E8
:10109000083908600846006840F4803008600CE0B9
:1010A000D9480838006820F48030D74908390860EA
:1010B0000846006820F48020086000BF606890B196
:1010C000FFF72EFA054606E0FFF72AFA401B6428D0
:1010D00001D903209EE7CC4808380068C0F340409F
:1010E0000028F1D011E0FFF71BFA054606E0FFF7F4
:1010F00017FA401B642801D903208BE7C24808383F
:101100000068C0F340400028F1D1207800F00200D0
:1011100002285FD1BC48006800F00C0058B1BA4802
:10112000006800F00C0008281CD1B748001F0068B8
:1011300000F48000B0B9B44808380068C0F340003B
:1011400020B1E068012801D0012063E7AE480838EB
:10115000006820F0F800216940EAC100AA49083976
:10116000086037E0E06800B30120A8490860FFF795
:10117000D7F9054606E0FFF7D3F9401B022801D94D
:10118000032047E7A04808380068C0F34000002863
:10119000F1D09D480838006820F0F800216940EA45
:1011A000C10099490839086014E000209749086097
:1011B000FFF7B6F9054606E0FFF7B2F9401B022833
:1011C00001D9032026E7904808380068C0F34000A2
:1011D0000028F1D1207800F0080008282CD160699F
:1011E000A8B101208A490860FFF79AF9054606E090
:1011F000FFF796F9401B022801D903200AE782482D
:101200006C300068C0F340000028F1D014E00020EA
:101210007F490860FFF784F9054606E0FFF780F98B
:10122000401B022801D90320F4E677486C3000689F
:10123000C0F340000028F1D1207800F00400042819
:1012400070D1002670483830006800F0805090B9A6
:1012500000BF002000906C483830006840F080509B
:101260006949383108600846006800F080500090F5
:1012700000BF00BF01266748006800F48070B0B965
:101280006448006840F4807062490860FFF748F9DC
:10129000054606E0FFF744F9401B022801D9032068
:1012A000B8E65C48006800F480700028F2D000BF07
:1012B000A068012808D154486830006840F0010057
:1012C0005149683108601DE0A06805280DD14E48DD
:1012D0006830006840F004004B49683108600846F7
:1012E000006840F0010008600CE047486830006882
:1012F00020F001004449683108600846006820F089
:101300000400086000BFA068A8B1FFF709F905460E
:1013100009E0FFF705F9401B41F28831884202D904
:10132000032077E626E0384868300068C0F34000C4
:101330000028EED013E0FFF7F3F8054608E0FFF7CA
:10134000EFF8401B41F28831884201D9032061E661
:101350002D4868300068C0F340000028EFD1012E0E
:1013600007D129483830006820F0805026493831AC
:10137000086000BFA069B8B32348006800F00C0003
:1013800008285ED0A069022846D100201F490866BF
:10139000FFF7C6F8054606E0FFF7C2F8401B022833
:1013A00001D9032036E6184808380068C0F34060C9
:1013B0000028F1D1D4E907010843616A40EA8111AC
:1013C0000122A06AC2EB500041EA00412C20005DDE
:1013D00041EA00600C49091F086001200B490866BA
:1013E000FFF79EF8054607E02DE0FFF799F8401B50
:1013F000022801D903200DE6034808380068C0F32D
:1014000040600028F1D01EE008380240000047424A
:10141000800E47420070004000200C490866FFF72C
:101420007FF8054606E0FFF77BF8401B022801D94C
:101430000320EFE506480068C0F340600028F2D1C1
:1014400001E00120E6E50020E4E50000000047425D
:101450000038024070B504462546681EB0F1807F12
:1014600001D301200FE0681E4FF0E02148610F21F9
:101470004FF0FF3000F098FB00204FF0E021886132
:1014800007200861002070BD00BFFEE70146086824
:101490004069C0F38020B0B16FF480600A68506189
:1014A00000200863202081F83D00002081F83E00E4
:1014B000086C40F00400086400BF002081F83C0084
:1014C00000BF012070470020FCE700002DE9F84331
:1014D00004460F4615469946DDE9088620680068EF
:1014E00040F48060216808602068006840F48070E3
:1014F00021680860434600224FF001112046009603
:1015000000F014F910B10120BDE8F88307F0FE00E7
:1015100021680861334642463949204600F049F9BE
:1015200008B10120F0E700BF00200090206840696A
:10153000009020688069009000BF00BF324641469D
:10154000204600F0D8F950B1206C042805D120685D
:10155000006840F40070216808600120D4E7B9F108
:10156000010F03D1E8B22168086117E0C5F3072035
:101570002168086132464146204600F0BCF950B16E
:10158000206C042805D12068006840F400702168B0
:1015900008600120B8E7E8B2216808613246414698
:1015A000204600F0A8F950B1206C042805D120682D
:1015B000006840F40070216808600120A4E72068FA
:1015C000006840F4807021680860434600224FF0B4
:1015D00001112046009600F0A9F808B1012093E718
:1015E000F8B240F0010021680861334642460449E0
:1015F000204600F0DEF808B1012085E7002083E7EF
:10160000020001002DE9F843044688461546994634
:10161000DDE908672068006840F480702168086090
:10162000334600224FF001112046009700F07EF86B
:1016300010B10120BDE8F88308F0FE0021680861C0
:101640003B4632462149204600F0B3F808B101205C
:10165000F0E700BF002000902068406900902068FB
:101660008069009000BF00BF3A463146204600F036
:1016700042F950B1206C042805D12068006840F47C
:101680000070216808600120D4E7B9F1010F03D18F
:10169000E8B22168086117E0C5F3072021680861F6
:1016A0003A463146204600F026F950B1206C042815
:1016B00005D12068006840F40070216808600120AE
:1016C000B8E7E8B2216808610020B3E70200010032
:1016D00070B504460D46164620E02046FFF7D6FEBC
:1016E00008B1012070BD681CC0B1FEF719FF801B56
:1016F000A84200D895B900202063202084F83D003E
:10170000002084F83E00206C40F02000206400BFE0
:10171000002084F83C0000BF0120E3E72068406916
:10172000C0F380000028D8D00020DBE72DE9F0418D
:1017300004460D4617461E46DDF818801CE0701C56
:10174000D0B1FEF7EDFEA0EB0800B04200D89EB984
:1017500000202063202084F83D00002084F83E0013
:10176000206C40F02000206400BF002084F83C0082
:1017700000BF0120BDE8F081C5F3074001280AD170
:1017800020684069A9B20840A9B2884201D101206D
:101790000BE0002009E020688069A9B20840A9B2E6
:1017A000884201D1012000E00020B842C7D00020CB
:1017B000E0E72DE9F04104460D4616461F463DE0A0
:1017C00020684069C0F38020E8B12068006840F4D8
:1017D0000070216808606FF4806021684861002013
:1017E0002063202084F83D00002084F83E00206C17
:1017F00040F00400206400BF002084F83C0000BFDB
:101800000120BDE8F081701CC0B1FEF789FEC01B4D
:10181000B04200D896B900202063202084F83D0013
:10182000002084F83E00206C40F02000206400BFBF
:10183000002084F83C0000BF0120E2E7C5F3074028
:1018400001280AD120684069A9B20840A9B288429B
:1018500001D101200BE0002009E020688069A9B2D5
:101860000840A9B2884201D1012000E000200028F0
:10187000A6D00020C5E770B504460D46164632E0F6
:1018800020684069C0F30010A0B16FF0100021681B
:10189000486100202063202084F83D00002084F867
:1018A0003E00206C206400BF002084F83C0000BF94
:1018B000012070BDFEF734FE801BA84200D895B908
:1018C00000202063202084F83D00002084F83E00A2
:1018D000206C40F02000206400BF002084F83C0011
:1018E00000BF0120E5E720684069C0F380100028B0
:1018F000C6D00020DDE770B504460D46164620E050
:101900002046FFF7C3FD08B1012070BD681CC0B1BF
:10191000FEF706FE801BA84200D895B90020206380
:10192000202084F83D00002084F83E00206C40F028
:101930002000206400BF002084F83C0000BF01208C
:10194000E3E720684069C0F3C0100028D8D0002029
:10195000DBE7000000B587B0142102A8FEF768FCA1
:1019600000BF002001902E48006840F001002C4983
:1019700008600846006800F00100019000BF00BF49
:1019800000BF002001900846006840F00400086095
:101990000846006800F00400019000BF00BF00BFCF
:1019A000002001900846006840F08000086008466A
:1019B000006800F08000019000BF00BF00BF002061
:1019C00001900846006840F0400008600846006842
:1019D00000F04000019000BF00BF012240211148EB
:1019E000FEF798FD4020029001200390049005909E
:1019F00002A90C48FEF78EFC082002900A480390CA
:101A00000120049002A90748FEF784FC0022114639
:101A10000920FFF77BF90920FFF768F907B000BD3F
:101A200030380240001802400000211010B50B4869
:101A30000B4908600B484860002109488160C1607B
:101A40004FF480410161002141618161C161016206
:101A5000FEF76CFD08B1FEF72FFC10BD005C0040E6
:101A60001C000020801A060000BFFEE77047704788
:101A7000704710B5FFF7C6F810BD000000B593B071
:101A8000302107A8FEF7D4FB142102A8FEF7D0FBF3
:101A900000BF002001902448006840F08050224997
:101AA00008600846006800F08050019000BF00BF49
:101AB00000BF002001901D48006840F480401B4991
:101AC00008600846006800F48040019000BF00BF35
:101AD000012007900004089002200D9041050E910E
:101AE00006210F91A8211091022111910421129138
:101AF00007A8FFF78BFA08B1FEF7DEFB0F20029074
:101B000002200390002004904FF4A05005904FF461
:101B100080500690052102A8FFF74AF908B1FEF7A8
:101B2000CBFB13B000BD0000403802400070004005
:101B30001448006840F470001249086012480068B8
:101B400040F001001049086000200F49083108608A
:101B50000D4800680D4908400B4908600C48091DF4
:101B60000860081F006820F48020091F086000201A
:101B700005490C3108604FF0006002498039086067
:101B80007047000088ED00E000380240FFFFF6FEDD
:101B90001030002400BFFEE702480068C0F30220B6
:101BA000704700000CED00E010B5002804DB0A07C8
:101BB000130E054A135406E00A07140E034A00F0F8
:101BC0000F031B1FD45410BD00E400E018ED00E02B
:101BD00002E008C8121F08C1002AFAD170477047F6
:101BE000002001E001C1121F002AFBD1704770479D
:101BF000FEB504460D4616460A20012322461C2146
:101C0000CDE9005602900248FEF76CFDFEBD0000D3
:101C10001C0000201FB50446002003900A2001216B
:101C200003AA0B46CDE90021029022461C2103485D
:101C3000FEF758FD9DF80C0004B010BD1C000020FC
:101C400013B584B004460A20012105AA0B46CDE94C
:101C50000021029022461C210248FEF7BDFE06B07C
:101C600010BD00001C00002010B5012240210248D8
:101C7000FEF750FC10BD00000018024010B5002215
:101C800040210248FEF746FC10BD0000001802404B
:101C9000704710B504462046FEF710FB10BD70B526
:101CA000034600BF00BF0020002200BF4FF0E02627
:101CB000756903EBC306F4004FF0E026B16910E04C
:101CC0004FF0E026B06988420BD0884202D20E1A4B
:101CD000324402E02E1A0E4432440146A24200D39E
:101CE00000E0EDE700BF70BD70B500250024FFF7F0
:101CF0007EFFFFF7CDFFFFF7C1FF3220FFF7C9FFDF
:101D0000FFF7B2FF3220FFF7C4FF0020FFF782FF8A
:101D10000546102D01D0402070BD002424E004EBC6
:101D20004402134B1A44517804EB4402985CFFF7C9
:101D300087FF9620FFF7B3FF04EB44010C4A505C89
:101D4000FFF768FF05469620FFF7A9FF04EB440064
:101D5000074908444078A84204D004EB44000844F2
:101D60008078D9E7601CC4B2042CD8DB0020D3E70C
:101D7000301E000810B52DED028B82B00446002005
:101D800008EE100A062269460320FFF731FF9DF88E
:101D900000009DF8011040EA012000B208EE100A90
:101DA000B8EEC80ADFED150A20EE200A84ED000A1D
:101DB0009DF802009DF8031040EA012000B208EEF1
:101DC000100AB8EEC80ADFED0D0A20EE200A84EDF5
:101DD000010A9DF804009DF8051040EA012000B2B8
:101DE00008EE100AB8EEC80ADFED040A20EE200A59
:101DF00084ED020A02B0BDEC028B10BD9A99993EA7
:101E0000FEF70CFFFFF73AFEFFF7A4FDFFF70EFE0B
:101E1000FFF76AFF00BFFEE70000000000000000BF
:101E20000102030406070809000000000102030480
:101E30000B080141090242C0030A0B045C1E0008A2
:101E40000000002010000000D01B00086C1E0008DD
:101E50001000002060040000E01B000800000000EB
:0C1E600010000000010000000024F4004D
:040000050800018965
:00000001FF
