:020000040800F2
:1000000000B8012061020008996F0008055D000832
:10001000796E0008DB13000841B6000800000000FC
:10002000000000000000000000000000A101000826
:10003000EF19000800000000FD010008FD8F000816
:100040007B0200087B0200087B0200087B0200089C
:100050007B0200087B020008F11900087B020008FF
:100060007B020008F7190008FD1900087B02000850
:10007000CD1700087B0200087B0200087B02000805
:100080007B0200087B0200087B0200087B0200085C
:10009000DD1300087B0200087B020008031A000839
:1000A0007B0200087B0200087B0200087B0200083C
:1000B0007B0200087B0200087B0200087B0200082C
:1000C0007B0200087B0200087B0200087B0200081C
:1000D0007B0200087B0200087B020008ED99000803
:1000E0007B0200087B0200087B0200087B020008FC
:1000F0007B020008119100087B020008D917000854
:100100007B0200087B0200087B0200087B020008DB
:100110007B0200087B0200087B0200087B020008CB
:100120007B020008311800083D1800087B02000817
:100130007B0200087B0200087B0200087B020008AB
:10014000E91300087B0200087B0200089D6F00088D
:10015000E1180008ED180008F9180008AD9A000829
:100160007B0200087B0200087B0200087B0200087B
:100170007B0200087B0200087B02000800000000F0
:100180007B0200087B020008DFF810D000F0C8FCFA
:10019000004800477D010108AFF3008000B801204E
:1001A0002C4B19680868B0E8F04F80F30988BFF35A
:1001B0006F8F4FF0000080F311887047000000003F
:1001C00008480068006880F308884FF0000080F35A
:1001D000148862B661B6BFF34F8FBFF36F8F00DF35
:1001E00000BF00BF08ED00E0DFF80C00016841F43B
:1001F00070010160704700BF88ED00E0EFF30980F7
:10020000BFF36F8F134B1A681EF0100F08BF20ED5D
:10021000108A20E9F04F106009B44FF0500080F3CD
:100220001188BFF34F8FBFF36F8F13F06FFF4FF045
:10023000000080F3118809BC19680868B0E8F04F25
:100240001EF0100F08BFB0EC108A80F30988BFF3CE
:100250006F8F704734090020EFF30580704700006E
:100260000648804706480047FEE7FEE7FEE7FEE750
:10027000FEE7FEE7FEE7FEE7FEE7FEE7BD900008CB
:10028000890100089FED1A1AF5EE000A40EE010AF6
:10029000BDEEE00AF5EEC00A10EE100AF1EE10FA1B
:1002A00038BF401E00EE100A1349F7EE001AB8EEF0
:1002B000C00A30EEC00ADFED0F0A20EE200AFCEE85
:1002C000C00A10EE900AC0F3080000EE900A01EB9D
:1002D0008000F8EE600A90ED011A70EE600A90ED71
:1002E000000A71EEE01A21EE800A00EE810A7047E2
:1002F00083F9223E00000044B8540108DFED190ADA
:10030000B5EEC00A60EE200ABDEEE01A11EE100A4A
:10031000F1EE10FA38BF401E00EE100A1349F7EE56
:10032000001AB8EEC00A30EEC00ADFED0F0A60EE28
:10033000200ABCEEE00A10EE100AC0F3080000EE3E
:10034000100A01EB8000B8EE400A90ED011A70EE41
:10035000C00A90ED000A71EEE01A21EE800A00EE6C
:10036000810A704783F9223E00000044B854010816
:100370002DE9F05F0546002092469B4688460646DA
:10038000814640241BE0284641464746224600F06D
:10039000E2FA53465A46C01A914110D31146184604
:1003A000224600F0C9FA2D1A67EB01084F46224693
:1003B0000120002100F0C0FA17EB00094E41201E79
:1003C000A4F10104DFDC484631462A464346BDE835
:1003D000F09FA0F14101192900D82030704740EA70
:1003E00001039B0703D009E008C9121F08C0042AB3
:1003F000FAD203E011F8013B00F8013B521EF9D29A
:100400007047D2B201E000F8012B491EFBD27047C1
:100410000022F6E710B513460A4604461946FFF7D0
:10042000F0FF204610BD421E12F8013F002BFBD109
:1004300011F8013B02F8013B002BF9D17047CAB219
:10044000401E10F8011F8A4202D00029F9D1002075
:100450007047421C10F8011B0029FBD1801A70471D
:1004600010B5002200E0521C835C8C5CA34201D1D9
:10047000002BF8D1D8B2E1B2401A10BD034611F8F2
:10048000012B00F8012B002AF9D11846704730B52E
:1004900005460020034600E05B1C934205D2EC5C5D
:1004A000C85C201A01D1002CF6D130BD2DE9FE4FD9
:1004B000804681EA0300C00F0C46009021F0004105
:1004C00023F00045B8EB0200A94105D24046214681
:1004D00090461C460B46024623F00040104347D08E
:1004E000270DC7F30A00C3F30A510290401A019086
:1004F00040286BDAC3F3130040F4801B0098924647
:1005000020B10023D2EB030A63EB0B0B0198594691
:10051000C0F14002504600F00FFA06460D46504624
:100520005946019A00F027FA10EB080061410024B7
:1005300087EA115284EAE7731A4340D0009A62B303
:10054000019A012A4FEA075215DC001B61EB0201F8
:100550004FF0004202EA0752CDE90042001C41F58B
:10056000801132462B4600F05EFA03B0BDE8F08FF2
:1005700040462146F9E7001B61EB0201001C41F5F2
:10058000801300185B412018A2F5001747EB030108
:1005900040EAD570B6196D4111E06D084FEA360694
:1005A00045EAC0754FEA0752001B61EB0201001CCF
:1005B00041F5801149084FEA300000195141324697
:1005C0002B4603B0BDE8F04F00F01EBA00980122A0
:1005D00040000023D0EB020263EBE0730098214659
:1005E0004FEAE074B8EB000061EB0401E9E783F047
:1005F00000435BE781F0004158E72DE9FE4F81EAB7
:10060000030404F0004421F0004100944FF0000B7B
:1006100023F0004350EA01045ED052EA03045BD0A9
:10062000C3F30A54C1F30A552C44A4F2F3340194E1
:10063000A0FB0254C1F3130141F48011C3F313036F
:1006400043F4801301FB024400FB034E840A970A23
:1006500044EA815447EA8357A4FB076802958D0A50
:1006600005FB07854FEA932C04FB0C542705029DDC
:100670004FEA065847EA1637B5EB08056EEB070C4C
:10068000870E920E47EA811742EA8312A7FB020106
:10069000B6EB0B0164EB00042B0D43EA0C335E1840
:1006A00044EB1C50DA465146E7FB0201C5F3130444
:1006B0004FEA0B3343EA14534FEA0432019C43EAF6
:1006C0000603A4F10C040294009CCDE900B400F0F0
:1006D000AAF903B0BDE8F08F00200146F9E72DE943
:1006E000F04D81EA030404F0004B21F0004514466C
:1006F0004FF0000A23F0004150EA050220D054EAEE
:1007000001021DD0C5F30A570246C5F31303C1F316
:100710001300C1F30A5640F4801543F48013A7EB8D
:100720000608101BD64608F2FD3873EB050002D30D
:1007300008F1010801E092185B41B8F1000F03DAFB
:1007400000200146BDE8F08D00204FF480110646E0
:1007500084460EE0171B73EB050705D3121B63EBF2
:10076000050306434CEA010C49084FEA3000921891
:100770005B4150EA0107EDD152EA030012D082EA50
:10078000040083EA0501084305D0101BAB4106D2E3
:100790000122002306E000224FF0004302E06FF048
:1007A000010253101AEB06004CEB085110EB0A0043
:1007B00041EB0B01BDE8F04D00F026B90EB5C10FBD
:1007C00080EAE0700844CA07002140F233438DE814
:1007D0000E000A460B4600F026F903B000BD70B5C6
:1007E000C1F30A5201F000450024C1F3130140F2A5
:1007F000FF3341F480119A4201DA002070BD40F2CB
:1008000033439A42A2F2334203DC524200F0A3F88F
:1008100000E090402C43F1D0404270BDC1F30A5239
:1008200010B5C1F3130140F2FF3341F480119A4235
:1008300001DA002010BD40F233439A42A2F2334263
:1008400003DC524200F087F810BD904010BD00F06C
:10085000004230F000400AD0C10D01F56071C0F3D4
:10086000160042EA0151C2084007114370470020B8
:100870000146704730B5041E71F1000404DB4FF0EF
:100880000044404264EB0101141E73F1000405DBD7
:100890001C464FF00043524263EB04038B4208BFF7
:1008A000824230BD30B5041E71F1000404DB4FF00C
:1008B0000044404264EB0101141E73F1000405DBA7
:1008C0001C464FF00043524263EB0403994208BFB9
:1008D000904230BD01F0004330B421F0004150EAB5
:1008E000010206D00A0DA2F56072C1F31301002ABD
:1008F00002DC30BC00207047440F44EAC104C10050
:10090000E01830BC00EBC25000F047B830B50B46E1
:10091000014600202022012409E021FA02F59D422F
:1009200005D303FA02F5491B04FA02F52844151E03
:10093000A2F10102F1DC30BD202A04DB203A00FAEA
:1009400002F1002070479140C2F1200320FA03F326
:10095000194390407047202A04DB203A21FA02F024
:100960000021704721FA02F3D040C2F120029140E9
:10097000084319467047202A06DBCB17203A41FA74
:1009800002F043EAE07306E041FA02F3D040C2F11C
:10099000200291400843194670470029A8BF7047BC
:1009A000401C490008BF20F00100704710B4B0FAA5
:1009B00080FC00FA0CF050EA010404BF10BC704740
:1009C00049B1CCF1200421FA04F411FA0CF118BF5A
:1009D000012121430843A3EB0C01CB1D4FEA006129
:1009E0004FEA102042BF002010BC704700EBC350FC
:1009F00010440029A4BF10BC7047401C490008BF28
:100A000020F0010010BC704710B5141E73F10004F3
:100A100008DA401C41F1000192185B411A4301D1F0
:100A200020F0010010BD2DE9F04D92469B4611B11A
:100A3000B1FA81F202E0B0FA80F220329046FFF77C
:100A40007BFF04460F4640EA0A0041EA0B01534689
:100A50005A46084313D0114653EA010019D0C8F191
:100A600040025046FFF777FF05460E46504659466E
:100A70004246FFF761FF084305D0012004E020460D
:100A80003946BDE8F08D0020054346EAE0762C4368
:100A900037430A986305E40AA0EB08000022FD0A28
:100AA00044EA47540A3002D500200146E9E701052F
:100AB00010196941DDE9084500196941BDE8F04DAB
:100AC000A2E770B521F0004303430CD0C1F30A55EF
:100AD0000024D5EB040564EB0403D617AD1AB3412B
:100AE00002DB0020014670BD201841EB025170BDB1
:100AF000C1F30A52C1F3130140F2FF3341F48011F4
:100B00009A4202DA00200146704740F233439A428B
:100B1000A2F2334202DC5242FFF71DBFFFF70CBFC7
:100B2000064C074D06E0E06840F0010394E807003A
:100B300098471034AC42F6D3FFF72AFBB45D0108A6
:100B4000D45D01082DE9F04D00231A461B1A8A4195
:100B500003DB00200146BDE8F08DC1F30A52C1F36A
:100B6000130141F480154FF0000BD10702D100189A
:100B70006D41521E0027044640F2FF11384601EB3A
:100B8000620A3E468046024600204FF48011FFF77D
:100B9000E2FEC2197141BB1846EB0100B4EB030C35
:100BA00075EB000C04D3E41A65EB000517460E46FE
:100BB000241908F101006D4180463428E3DDF9195C
:100BC00046EB0600091BA84103D24FF0FF32134643
:100BD00001E0002213461BEB070046EB0A51BDE87B
:100BE000F04DFFF711BF70B58C1810F8015B15F0D0
:100BF000070301D110F8013B2A1106D110F8012B8F
:100C000003E010F8016B01F8016B5B1EF9D12B07B3
:100C100005D40023521E0DD401F8013BFAE710F869
:100C2000013BCB1A921C03E013F8015B01F8015B56
:100C3000521EF9D5A142D8D3002070BD0AF054BD90
:100C40000AF0E8BDFFF71EBBF0EE400AF5EEC00A61
:100C5000F1EE10FA02DDB0EE600A7047B1EE600A04
:100C6000FBE70000002803D09FED020A80ED000A98
:100C70007047000000000000002803D0B3EE060A11
:100C800080ED000A7047000070B52DED0C8B84B02C
:100C900006460C4615469FED990AF0EE408A9FEDF8
:100CA000970AB0EE409A9FED950AF0EE40BA9FED9C
:100CB000930AF0EE409A9FED910AB0EE40AA0EB171
:100CC00004B11DB904B0BDEC0C8B70BD8C48FFF7AE
:100CD000C9FF8C48FFF7D0FF8A48D0ED000A9FED8E
:100CE0008A1A60EE810AB0EE600A00F025F9F0EE93
:100CF000408A28EEA80AF0EE408A8248D0ED000A29
:100D0000B0EE001A60EE810A9FED7F1A60EE810A54
:100D1000B0EE600A00F010F9B0EE409A29EE090A30
:100D2000B0EE409ADFED790AB7EE000A00EEA80AAD
:100D3000DFED770A00EEC90ADFED760A20EE200A21
:100D4000754880ED000A6E4890ED000ADFED730AE9
:100D500080EE201AB7EE000A31EE000A20EE000AFB
:100D60006D48D0ED000A80EE801A6D4880ED001AC3
:100D700094ED000AB5EEC00AF1EE10FA0DD194ED33
:100D8000010AB5EEC00AF1EE10FA06D194ED020A9E
:100D9000B5EEC00AF1EE10FA46D09FED580AB0EE5B
:100DA000408A0020019002900390D4ED000A60EE8A
:100DB000A00A94ED011AD4ED011A41EE210A94ED36
:100DC000021AD4ED021A41EE210AB0EE600A00F0D8
:100DD000A9F8B0EE408A94ED000A20EE080A8DEDE5
:100DE000010A94ED010A20EE080A8DED020A94ED45
:100DF000020A20EE080A8DED030ADDED010AF1EE8C
:100E0000600AB0EE600AFFF719FFF0EE409A9DED20
:100E1000031AF0EE410A9DED021AB0EE410AFFF707
:100E20000FFFB0EE40AA07E09FED340AF0EE409AC3
:100E30009FED320AB0EE40AA95ED000AB5EEC00A69
:100E4000F1EE10FA0DD195ED010AB5EEC00AF1EE02
:100E500010FA06D195ED020AB5EEC00AF1EE10FACD
:100E60003CD0B0EE690A00F067F8B0EE408AB0EE10
:100E7000690AFFF7E7FEB0EE40DAB0EE4A0A00F08A
:100E80005BF8F0EE40AAB0EE4A0AFFF7DBFEB0EEE8
:100E900040BA28EE2A0AD5ED010A20EE200AD5ED47
:100EA000000A0DEE200A68EE0B0A95ED021A00EE1C
:100EB000810AB0EE40CA95ED010A20EE0B0AD5ED8D
:100EC000020A0AEEE00AF0EE40CAF0EE6C0AB0EE5A
:100ED0004C0AFFF7B5FEF0EE40BA03E09FED070ABB
:100EE000F0EE40BAB0EE4A1AF0EE690AB0EE6B0AC4
:100EF00030460CF0EBFB00BFE4E600000000000011
:100F0000B0090020B409002035FA8E3CC1BFAD3BCA
:100F10009DF8C5362F7C1C41B8090020506CC24A90
:100F2000BC09002010B50BF08BFCB7EE001AC1EE27
:100F3000000AB0EE600A10BDFFF7E0B92DE9F041FC
:100F40002DED028B9AB00546B0EE408A0E4617464C
:100F500098460020179018901990149015901690AC
:100F60004DB146B13FB1B8F1000F04D0B5EEC08A23
:100F7000F1EE10FA05D100201AB0BDEC028BBDE8ED
:100F8000F08196ED000A8DED170A96ED010A8DEDC0
:100F9000180A96ED020A8DED190A97ED000A8DEDFB
:100FA000140A97ED010A8DED150A97ED020A8DEDF1
:100FB000160A17AA14A928460CF0DAF9402104A849
:100FC000FFF726FA00200090019002900390002481
:100FD00017A904A812F0FCFC00BF30E004A800EB45
:100FE000041090ED000AD5ED000A20EE200A04A8B6
:100FF00000EB0410D0ED010A95ED011A00EE810A14
:1010000004A800EB0410D0ED020A95ED021A00EEE0
:10101000810A04A800EB0410D0ED030A95ED031A31
:1010200000EE810A20EE080AF0EE000A80EE201A97
:10103000684600EB840080ED001A601CC4B2042CEA
:10104000CCDB002410E005EB840090ED000A68463C
:1010500000EB8400D0ED000A30EE200A05EB84009E
:1010600080ED000A601CC4B2042CECDB284610F0B2
:10107000EFFE012080E7000001221021014802F06C
:1010800073B800000000024000221021014802F065
:101090006BB80000000002407047000001221146BA
:1010A000014802F061B80000000402400022012162
:1010B000014802F059B800000004024030B54378FE
:1010C00004781B021BB2234300EE103A1B4CB8EE0F
:1010D000C00AD4ED000A20EE200A81ED000AC37890
:1010E00085781B021BB22B4300EE103AF8EEC00AC3
:1010F00094ED000A60EE800AC1ED010A437904799B
:101100001B021BB2234300EE903AF8EEE00A20EEF9
:10111000800A81ED020A017AC3790904807941EAE3
:101120000321014300EE101ADFED050AB8EE400A74
:1011300020EE200A82ED000A30BD0000FC080020ED
:1011400000401C4270470FF0B3B80DF015BE000010
:1011500010B542780378120212B21A4300EE102A38
:10116000124BB8EEC00AD3ED010A20EE200A81ED41
:10117000000AC2788478120212B2224300EE102ACA
:10118000F8EEC00A93ED010A60EE800AC1ED010A93
:1011900042790079120212B2024300EE902AF8EE70
:1011A000E00A20EE800A81ED020A10BDFC08002052
:1011B00010B5FFF771FFFFF7C5FF0CF0CBFB08B1CF
:1011C000802402E00CF038FB04460CF089FD10B1DD
:1011D00044F0400010BD0CF015FD204310BD000090
:1011E0002DE9FC4104460D46164600200090019072
:1011F000FFF74AFF922000F0BFF80622694612204E
:1012000000F09CF8FFF738FF9DF801009DF80010F2
:10121000000200B2084300EE100A474FB8EEC00AC1
:10122000D7ED000A20EE200A85ED000A9DF80300A4
:101230009DF80210000200B2084300EE100AF8EE1A
:10124000C00A97ED000A60EE800AC5ED010A9DF81C
:1012500005009DF80410000200B2084300EE900A59
:10126000F8EEE00A20EE800A85ED020AFFF71EFF85
:1012700008226946002000F061F8FFF70FFF9DF893
:1012800000000F2830D19DF803009DF802100002E5
:1012900000B2084300EE100AD7ED010AB8EEC00A0A
:1012A00020EE200A84ED000A9DF805009DF8041048
:1012B000000200B2084300EE100AF8EEC00A97EDF3
:1012C000010A60EE800AC4ED010A9DF807009DF84E
:1012D0000610000200B2084300EE900AF8EEE00AA1
:1012E00020EE800A84ED020AFFF7CEFEA22000F075
:1012F00043F802226946222000F020F8FFF7BCFEE6
:101300009DF800009DF80110C00040EA5110B0F5B2
:10131000806F02DBA0F5006000B200EE100AB4EEB0
:10132000001AF8EEC00AB3EE070A00EE810A86ED55
:10133000000ABDE8FC810000FC08002070B50D46E5
:10134000144640F0800000F017F806E0552000F049
:1013500013F805F8010B641EE4B2002CF6D170BD41
:1013600010B50C4640F0800000F006F8552000F063
:1013700003F8207010BD000001B582B04FF47A7000
:101380000090012301AA02A9024803F09DFC9DF8E8
:1013900004000EBD2012002002784078D20042EAFC
:1013A0005010B0F5806F02DBA0F5006000B200EED7
:1013B000100AB4EE001AF8EEC00AB3EE070A00EE07
:1013C000810A81ED000A704710B50C46FFF7D4FF83
:1013D0002046BDE81040FFF7CFBFFEE7014800F010
:1013E00056BE000074100020014800F050BE0000FE
:1013F0009C10002038B50E4C4FF400752560002578
:10140000A560E560082525610A4C050A2570607015
:10141000080AA070E170100A20716271180AA071A8
:10142000E3716B4622460249034800F063FC38BD75
:10143000CC3F0020A20200207410002038B50E4CD2
:1014400040F2FF1525600025A560E56008252561AF
:101450000A4C050A25706070080AA070E170100A35
:1014600020716271180AA071E3716B46224602492D
:10147000034800F03FFC38BDB43F00209A02002032
:101480009C10002038B50E4C4FF4007525600025E7
:10149000A560E560082525610A4C050A2570607085
:1014A000080AA070E170100A20716271180AA07118
:1014B000E3716B4622460249034800F01BFC38BD2D
:1014C000E43F0020AA0200209C10002038B50D4AFD
:1014D0004FF40473136000239360D36008231361F7
:1014E000094A13881C0A123214705370030A93704D
:1014F000D070080A107151716B460249034800F020
:10150000F9FB38BDCC3F0020900200207410002071
:1015100004284FF0000070470020704710B50022EB
:101520000449054808F014FC0449034808F006FC87
:10153000002010BDB4290020BC160020B4210020DA
:1015400070B5184C09682068084420604FF40065A5
:10155000A8420CD21449415C0A2908D0134901441D
:10156000134808F0EBFB124808F0C7FB01E001202C
:1015700060606068012812D10D4A0C48216812F0A1
:1015800079FA00202060606029460848FEF740FF95
:101590000649074808F0D2FB054808F0AEFB0020DA
:1015A00070BD00007C000020B3210020B421002089
:1015B000BC1600200020704710B50A460849D1F833
:1015C000BC12D1F81412002901D0012010BD01462F
:1015D000034808F0BDFBBDE81040014808F03FBCDF
:1015E000BC1600202DE9F04F0BAFDDE909C897E8E4
:1015F000800E0F9D002401E00655641C032C02DAC6
:101600000E5D002EF8D110F8031F41F0380162F38F
:1016100002010170018863F38911018041786CF344
:1016200085014170818869F309018180B0F8051056
:101630006AF38C01A0F80510C1886BF34F11C180CB
:10164000B0F8011068F38E11A0F80110418867F31B
:10165000CF114180C01E002104E0431815F8012B72
:10166000DA73491CB942F8D300220021435C1A44C2
:10167000D2B2491C2D29F9D390F82E10914202D0F4
:10168000052180F82D1080F82E20BDE8F08F000095
:1016900070B586B090F82D10002957D0491E80F8FB
:1016A0002D104FF6FF710591044603AEA5208DF86D
:1016B0000C003320ADF80D00264D28788DF80F0072
:1016C000FF220421304600F0D9FA8DF8100040F2D4
:1016D0000130ADF811004FF48870ADF804001E48D9
:1016E0000078ADF806000DF07DFCADF80800BDF8FF
:1016F00014200721304600F0A9FA059001AB0246FC
:101700000621184600F0A2FA0246059020462D2137
:1017100000F09CFA059003A90722104810F0EBFB9B
:1017200001A906220D4810F0E6FB204601462D22B5
:101730000A4810F0E0FB05A90222084810F0DBFB84
:101740002878401C2870002006B070BD4FF0FF3094
:10175000FAE70000AC000020334F0020FC310020ED
:101760002DE9F043DDE909C8DDF82C90DDE90767D4
:10177000002401E00555641C032C02DA0D5D002DE8
:10178000F8D110F8031F21F03801103162F3020183
:101790000170018863F389110180417866F3850146
:1017A0004170818867F309018180B0F805106CF3FE
:1017B0008C01A0F80510C18868F34F11C180018920
:1017C00069F309010181BDE8F0830000014801F0DF
:1017D000F3B800009C15002010B5124A50680001B3
:1017E0001FD5114B114C4FF00061586B0068A0429F
:1017F00003D90E484C3801600EE00A4CB834A042C0
:1018000003D90A485038016006E0064C5834A0421B
:1018100001D9D16000E091601868016841F400715D
:10182000016010BD006002401811002058640240A1
:10183000014801F0C1B80000FC15002070B5234834
:101840000068800240D521494FF0F46008310860FB
:101850001F4C207880070CD5207820F002002070E3
:10186000207840F00400207001221146194801F050
:101870007BFC6078184D80070CD5607820F0020062
:101880006070607840F004006070012210212846EA
:1018900001F06AFCA07880070CD5A07820F0020047
:1018A000A070A07840F00400A0700122102128460A
:1018B00001F05AFC0EF038FA2078400704D50748AA
:1018C000016841F00101016070BD00000064024048
:1018D000F00200200004024000000240103C0140E1
:1018E000014801F069B800003C150020014801F0F2
:1018F00063B800005C160020014801F05DB80000EC
:10190000DC14002001680A4BCAB2103AA3FB023271
:101910001209084B9B5CC365032A04D96FF30901C4
:10192000091D816502E06FF309018165806D7047D3
:10193000ABAAAAAAA3540108014600208A6A8B69AF
:10194000002B0FD0B3F5005F1DD08AB3012A30D031
:10195000022A2ED0032A04D1C96A11F0807F00D058
:10196000012070471AB1012A07D0022AF9D1C96AA9
:1019700011F0807FF5D001207047C96AB1F1C07FB6
:10198000FAD1012070475AB1012A0BD0022A07D0A0
:10199000032AF7D1C96AB1F1C07FF3D101207047A2
:1019A00001207047C96A11F0807FFAD0012070478A
:1019B000FFE70120704710B4D0F800C0DCF8004009
:1019C00024F48024CCF80040D0F800C0CCF80430D7
:1019D0008368402B05D0036899600068C26010BC22
:1019E000704703689A600068C16010BC7047704718
:1019F000012001F095BA082001F092BA102001F000
:101A00008FBA202001F08CBA704700000022002914
:101A100005D001291AD002291BD04FF440720E497B
:101A20000B6823F440730B600B681A430A600A6862
:101A300022F0F8020A600A68022343EAC000104359
:101A40000860086840F48030086070474FF4807286
:101A5000E5E74FF40072E2E7103C024014480168E9
:101A600011F4007F0FD0016821F40071016001685A
:101A700041F400610160016821F4006101600168C6
:101A800041F400710160016811F4806F0FD00168AA
:101A900021F480610160016841F4805101600168B6
:101AA00021F480510160016841F480610160704758
:101AB000003C024008490A6822F440720A600A6841
:101AC00042F004020A600A684FF4803343EA0020BF
:101AD0001043086070470000103C0240064A13683B
:101AE00023F44073136013681360136843F0010319
:101AF0001360017070470000103C02400B49D1F8A0
:101B000000C02CF4407CC1F800C0D1F800C04CF4F7
:101B1000407CC1F800C0D1F800C04CF0010CC1F805
:101B200000C00260BFF36F8F43607047103C0240FB
:101B3000074A136823F440731360136843F48073F7
:101B40001360136843F001031360018070470000C5
:101B5000103C0240074A136823F440731360136873
:101B600043F400731360136843F0010313600160D2
:101B700070470000103C02401A49086810F0100F2E
:101B8000194805D0C26942F01002C26110220A60F1
:101B90000A6812F0200F05D0C26942F00802C26143
:101BA00020220A600A6812F0400F05D0C26942F094
:101BB0000402C26140220A600A6812F0800F05D058
:101BC000C26942F00202C26180220A600A6812F011
:101BD000020F05D0C26942F02002C26102200860F3
:101BE000704700000C3C0240C05B002070B504460A
:101BF00014490020C86101F0BFFA0646124D28685A
:101C000010F4803F0ED0B4F1FF3F07D024B101F0B3
:101C1000B3FA801BA04201D9032070BD286810F4DC
:101C2000803FF0D1286810F0010F01D0012028601A
:101C3000286810F0F20F03D0FFF79EFF012070BD5F
:101C4000002070BDC05B00200C3C024010B5034674
:101C50001046002B01D0084C0AE04FF6FF7010BD73
:101C600013F8012B4240D2B234F8122082EA10203D
:101C7000491E4A1CF4D110BDBC50010810B5054CDA
:101C800003E010F8013B5340E25C491E4B1CF8D1C5
:101C9000104610BDBC4F010810B50B480168001D6F
:101CA0000468001D0068084400280BD0082207497A
:101CB00004F078FC054920460422BDE810401031AC
:101CC00004F070BC10BD0000107AFF1F62000020FD
:101CD00090F82020012A07D0022A05D0416A41F459
:101CE00080214162012070470068426911434161CF
:101CF0000020704770B490F82040D0F800C0DCF8A5
:101D000008C0012C08D0022C06D0416A41F4802181
:101D1000416270BC012070470CF080640CF00065DB
:101D20002C4302D11CF0805F5FD0CCF3016CBCF17E
:101D3000020F06D9416A41F40001416270BC0120E2
:101D40007047012404FA0CF41C608B684FF4C074D3
:101D50009BB1CD6804EB0C162B434D6843EAC503D9
:101D60000568AB514FF4C273066803EB0C130D69A1
:101D7000F550097D012909D00DE00D88CB6804EBF1
:101D80000C1643EA45530568AB51EBE70168CD58A3
:101D900045F48075CD501179D379557941EA0361C5
:101DA00093791B0443EA052319434FF4C67503686E
:101DB00005EB0C1559511178D37841EA03619378FA
:101DC00052781B0443EA022211434FF4C4730268A1
:101DD00003EB0C13D150016804EB0C100A5842F0CD
:101DE00001020A5070BC00207047416A41F40011A2
:101DF000416270BC0120704790F82020012A07D072
:101E0000022A05D0416A41F48021416201207047D5
:101E10004248D0F8002242F00102C0F80022D0F877
:101E2000002222F47C52C0F80022D0F800224B6A33
:101E300042EA0322C0F800220A7D012302F01F02B9
:101E400003FA02F2D0F81C329343C0F81C32CB697B
:101E5000D3B9D0F80C329343C0F80C32B1F80CC0AF
:101E60004B686CF31F43D1F814C000EBCC0CCCF8DA
:101E70004032B1F808C00B686CF31F43D1F814C0AE
:101E800000EBCC0CCCF84432CB69012B1AD1D0F842
:101E90000C321343C0F80C32B1F800C04B686CF33D
:101EA0001F43D1F814C000EBCC0CCCF84032B1F891
:101EB00008C0CB686CF31F43D1F814C000EBCC0C06
:101EC000CCF844328B697BB1D0F804321343C0F8AC
:101ED00004320B6973B1D0F814321343C0F81432D2
:101EE000096A01290CD010E0D0F804329343C0F8FD
:101EF0000432EEE7D0F814329343C0F81432EFE71F
:101F0000D0F81C121143C0F81C12D0F8001221F0B6
:101F10000101C0F80012002070470000006400407A
:101F2000704710B490F820C0BCF1010F09D0BCF18B
:101F3000020F06D0416A41F48021416210BC0120A9
:101F4000704739B1D0F800C0DCF810C01CF0030FA6
:101F50007DD006E0D0F800C0DCF80CC01CF0030F08
:101F60007BD04FF4D87C04680CEB011C54F80C4077
:101F700004F004049460002C7DD0046854F80C40F4
:101F8000E4085460046854F80CC00CF0020CC2F869
:101F90000CC04FF4DA7C04680CEB011C54F80C40C4
:101FA00004F00F041461046854F80C40C4F30724CF
:101FB0009461046854F80CC04FEA1C4CC2F814C079
:101FC0004FF4DC72D0F800C002EB01125CF802C0E2
:101FD00083F800C0D0F800C05CF802C04FEA1C2CA7
:101FE00083F801C0D0F800C05CF802C04FEA1C4C76
:101FF00083F802C0D0F800C05CF80220120EDA703C
:102000004FF4DE72D0F800C002EB01125CF802C09F
:1020100083F804C0D0F800C05CF802C04FEA1C2C62
:1020200083F805C0D0F800C05CF802C04FEA1C4C31
:1020300083F806C0D0F800C05CF80220120EDA71F6
:10204000F9B10068016941F02001016102E00BE093
:1020500003E010E010BC00207047416A41F4001119
:10206000416210BC01207047416A41F40011416295
:1020700010BC01207047046854F80C40640D1460D3
:1020800080E70068C16841F02001C160DEE72DE90A
:10209000F05F0546002428684669D0F804908768F8
:1020A000D0F80CA0D0F810B0D0F8188016F0010FBE
:1020B00054D017F0010F17D00121816017F0020FE3
:1020C00003D0284600F0E8FB0EE017F0040F02D022
:1020D0004FF4006408E017F0080F02D04FF480546A
:1020E00002E0284600F0D7FB17F4807F19D029685A
:1020F0004FF48070886017F4007F03D0284600F00A
:10210000CDFB0EE017F4806F02D044F4005408E0D9
:1021100017F4006F02D044F4804402E0284600F037
:10212000BCFB17F4803F19D029684FF480308860D9
:1021300017F4003F03D0284600F0B2FB0EE017F47E
:10214000802F02D044F4004408E017F4002F02D09E
:1021500044F4803402E0284600F0A1FB16F0080F9A
:1021600007D01AF0100F04D044F40074296810202E
:10217000C86016F0040F4FF0080707D01AF0080FD8
:1021800004D02868C760284600F0D0F916F0020F86
:1021900007D02868C06810F0030F02D0284600F06E
:1021A000C7F916F0400F07D01BF0100F04D044F40D
:1021B000806429681020086116F0200F07D01BF0FA
:1021C000080F04D028680761284600F02FFB16F09E
:1021D000100F07D02868006910F0030F02D02846BE
:1021E00000F025FB16F4003F08D019F0100F05D0C1
:1021F000296810204860284600F01AFB16F4803F3A
:1022000007D019F0080F04D028684760284600F06E
:1022100048FB16F4004F4AD019F0040F44D016F4CE
:10222000807F04D018F0010F01D044F0010416F4AF
:10223000007F04D018F0020F01D044F0020416F41D
:10224000806F04D018F0040F01D044F0040416F499
:10225000006F29D018F0700F26D008F070004028C9
:1022600015D006DC102809D020280AD0302816D135
:102270000AE050280ED0602811D10EE044F0080486
:102280000DE044F010040AE044F0200407E044F0BC
:10229000400404E044F0800401E044F480742868C1
:1022A000816921F070018161296804204860002C57
:1022B00005D0686A204368622846FFF731FEBDE812
:1022C000F09F70B50446002C03D094F8200010B1A4
:1022D00004E0012070BD204600F0A8F820680168E5
:1022E00021F00201016000F047FF054620684068C8
:1022F0004FF0050610F0020F11D000F03DFF401B1B
:102300000A2807D9606A40F40030606284F82060CF
:10231000012070BD2068406810F0020FEDD12068E8
:10232000016841F00101016000F026FF05462068C8
:10233000406810F0010F11D100F01EFF401B0A2869
:1023400007D9606A40F40030606284F820600120A0
:1023500070BD2068406810F0010FEDD0207E01288C
:102360003FD02068016821F080010160607E012873
:102370003DD02068016821F040010160A07E012865
:102380003BD02068016821F020010160E07E012837
:1023900039D02068016841F010010160207F0128D8
:1023A00037D02068016821F008010160607F0128B2
:1023B00035D02068016821F004010160E168A0685F
:1023C000626908432169114308436168491E084353
:1023D0002168C86100206062012084F8200000208C
:1023E00070BD2068016841F080010160BEE720688F
:1023F000016841F040010160C0E72068016841F0D8
:1024000020010160C2E72068016821F0100101602D
:10241000C4E72068016841F008010160C6E7206850
:10242000016841F004010160C8E700002DE9F041B6
:1024300086B00446142101A8FDF7EAFF364B374A5F
:10244000DFF8D08018682168344C03260227401C2E
:10245000103200254FF0090C414527D118600128A2
:1024600007D1106840F000701060106800F0007034
:102470000090206840F008002060206800F008000C
:1024800000900196029703950496CDF814C001A917
:10249000234800F051FD00220521142001F0A4FA88
:1024A000142001F093FA06B0BDE8F081DFF87480E3
:1024B0004145F8D1116841F080611160116801F067
:1024C000806100911860012807D1106840F0007009
:1024D0001060106800F000700090206840F002006A
:1024E0002060206800F002000090602001900297B8
:1024F00003950496CDF814C001A90B4800F01CFD0B
:1025000000220521402001F06FFA402001F05EFA20
:10251000C9E700000064004020000020303802407D
:10252000000C0240006800400004024070470000B8
:1025300030B593B00446B4492068884205D10AAB4F
:102540000CAA0021B148FFF7ECFCB1492068884291
:1025500005D101AB03AA0021AE48FFF7E2FC0C99BC
:10256000AD48B1F5017F63D008DCA1F500710139F8
:102570000DD0012926D0022923D13EE0A1F500711A
:10258000053971D001296FD00C291AD16CE001886E
:1025900001819DF829109DF8282041EA022101803F
:1025A0009DF82B109DF82A2041EA022141809DF8D8
:1025B0002D109DF82C2041EA022181809DF82E10DB
:1025C000817180E0418941829DF829109DF8282081
:1025D00041EA022141819DF82B109DF82A2041EA11
:1025E000022181819DF82D109DF82C2041EA0221C5
:1025F000C1819DF82E10017465E0818A81839DF868
:1026000029109DF8282041EA022181829DF82B1093
:102610009DF82A2041EA0221C1829DF82D109DF8E3
:102620002C2041EA022101839DF82E1081764AE098
:10263000C18BC1849DF829109DF8282041EA022110
:10264000C1839DF82B109DF82A2041EA02210184C4
:102650009DF82D109DF82C2041EA022141849DF81F
:102660002E1080F824102EE0BDF82A1000EE101A6B
:10267000F8EE400A9FED690A694980EE801AFCEE87
:10268000C10A10EE902A0A80BDF8282000EE902A98
:10269000F8EE600A9FED631AC0EE811AFDEEE10AC2
:1026A00010EE902A4A80BDF82C208A80BDF82E209A
:1026B00000EE902AF8EE600A80EE801ABCEEC10AA5
:1026C00010EE102A8A710399A1F2022105291FD266
:1026D000DFE801F0031F3B57730030F85A1F0181F8
:1026E0009DF805109DF8042041EA022101809DF823
:1026F00007109DF8062041EA022141809DF809104B
:102700009DF8082041EA022181809DF80A1081711C
:1027100074E030F8461F01819DF805109DF80420F3
:1027200041EA022101809DF807109DF8062041EA48
:10273000022141809DF809109DF8082041EA0221FC
:1027400081809DF80A10817158E030F8501F018196
:102750009DF805109DF8042041EA022101809DF8B2
:1027600007109DF8062041EA022141809DF80910DA
:102770009DF8082041EA022181809DF80A108171AC
:102780003CE0018D01869DF805109DF8042041EA8A
:10279000022101859DF807109DF8062041EA0221DB
:1027A00041859DF809109DF8082041EA02218185A4
:1027B0009DF80A1080F82E1020E030F8321F0181B9
:1027C0009DF805109DF8042041EA022404809DF83C
:1027D00007109DF8062041EA022141809DF809205A
:1027E0009DF8083042EA032282809DF80A30837106
:1027F0004589458244818181C28103740A4804F07D
:102800003DFB13B030BD0000006400407410002098
:10281000006800409C100020503F00200000C8428B
:102820009202002000007A44E402002070477047C2
:10283000704770B5044694F82000012805D0606AFE
:1028400040F400206062012070BD022084F8200066
:102850002068016821F00101016000F08DFC05464F
:102860002068406810F0010F12D000F085FC401B7A
:102870000A2808D9606A40F400306062052084F8B4
:102880002000012070BD2068406810F0010FECD1DD
:102890000020606270BD7047704770477047704796
:1028A0007047704710B50446002C02D0607910B113
:1028B00006E0012010BD00202071204600F004F841
:1028C00001206071002010BD08B5006806498842EB
:1028D00008D10648016841F480510160006800F4A5
:1028E0008050009008BD00000030024030380240A7
:1028F0002DE9F0410446A66D00F03EFC054694F833
:1029000035000027022806D08020606584F83470E6
:102910000120BDE8F0812068016821F01601016006
:102920002068416921F080014161206C08B9A06CE8
:1029300020B12068016821F0080101602068016869
:1029400021F0010101602068006810F0010F12D031
:1029500000F012FC401B052808D92020606584F88F
:102960003470032084F83500BDE8F08120680068E9
:1029700010F0010FECD194F85C003F2101FA00F057
:10298000B06084F83470012084F835000020BDE880
:10299000F08190F83510022903D080214165012093
:1029A0007047052180F835100068016821F00101A9
:1029B00001600020704700002DE9F84304464FF005
:1029C0000008CDF8008076484FF416510068B0FB3F
:1029D000F1F7A56D2E6894F85C00082101FA00F06B
:1029E000304211D02068026812F0040F0CD0026847
:1029F00022F00402026094F85C0001FA00F0A86082
:102A0000606D40F00100606594F85C004FF00109D2
:102A100009FA00F0304209D02168496911F0800FAD
:102A200004D0A860606D40F00200606594F85C100E
:102A300004208840304209D02168096811F0020F53
:102A400004D0A860606D40F00400606594F85C10EC
:102A500010208840304224D02168096811F0080F06
:102A60001FD0A8602068016811F4802F0DD0006885
:102A700010F4002F04D0A16C99B12046884710E0D3
:102A8000216C71B1204688470BE0016811F4807F0A
:102A900003D1016821F008010160216C09B12046D1
:102AA000884794F85C1020208840304251D021683B
:102AB000096811F0100F4CD0A86094F83500052873
:102AC0000DD02068016811F4802F32D0006810F416
:102AD000002F29D0E16B59B32046884739E02068A0
:102AE000016821F0160101602068416921F0800130
:102AF0004161206C08B9A06C20B12068016821F008
:102B00000801016094F85C003F2101FA00F0A86020
:102B100084F8348084F83590216D00293ED001B0CE
:102B20002046BDE8F0430847616C09B1204688475C
:102B30000FE0016811F4807F07D1016821F01001D6
:102B4000016084F8348084F83590E16B09B1204647
:102B50008847606D002821D0606D10F0010F15D0FE
:102B6000052084F835002068016821F0010101602A
:102B70000098401C0090B84204D82068006810F00B
:102B8000010FF5D184F8348084F83590E16C002988
:102B900004D001B02046BDE8F0430847BDE8F88303
:102BA000980000202DE9F041044600F0E5FA0546C2
:102BB000DCB1002684F83460022084F835002068F7
:102BC000016821F0010101602068006810F0010F28
:102BD00013D000F0D1FA401B052809D920206065E8
:102BE000032084F83500BDE8F0810120BDE8F081C4
:102BF0002068006810F0010FEBD121680868234AB3
:102C00001040A3686268D4F810C01A43E36843EA2E
:102C10000C031A4363691A43A3691A43E3691A430D
:102C2000236A1A431043626A042A03D1236BE26ABF
:102C30001A43104308602068406920F00701606A69
:102C400040EA0105012704280ED1A06A0543E06A85
:102C500050B12046FEF770FE30B14020606584F828
:102C600035700120BDE8F081206845612046FEF7FF
:102C700049FE94F85C103F2202FA01F1816066651A
:102C800084F835700020BDE8F08100003F8010F02E
:102C900070B504460025A66D94F8340001280DD0C7
:102CA000012084F8340094F835C00020BCF1010FF5
:102CB00006D084F834000225284670BD022070BD7D
:102CC0004FF0020C84F835C060652046FEF773FEB5
:102CD00094F85C003F2101FA00F0B06020680168C0
:102CE00041F016010160206C20B12068016841F0BC
:102CF000080101602068016841F001010160DBE723
:102D000070B5044600F038FA0546B4F1FF3F02D032
:102D100004480078044400F02FFA401BA042FAD384
:102D200070BD0000280900202DE9F04104460F463F
:102D3000DFF8988098F8180001280AD0012088F858
:102D400018004CF25030FEF751FF0246100003D03D
:102D500035E00220BDE8F0814FF0FF303860206898
:102D60001B4E012815D0A568E0682844A84224D944
:102D7000217C2846FEF74AFE4CF25030FEF736FF23
:102D80000246306820F0FA00306010000FD03D603D
:102D900013E0207C6168FEF78DFE4CF25030FEF7A8
:102DA00025FF0246306820F00400306005E06D1C0D
:102DB000A168E0680844A842DAD8FEF74FFE002078
:102DC00088F818001046BDE8F0810000C05B0020C4
:102DD000103C02400348016841F0004101600020BE
:102DE00070470000103C02402DE9F041064688463D
:102DF00014461D461A4F387E012807D00120387628
:102E00004CF25030FEF7F2FE18B115E00220BDE89A
:102E1000F081AEB1012E18D0022E1BD022462B46D7
:102E20004046FEF76BFE4CF25030FEF7DFFE0D49D8
:102E30000A6822F001020A6000213976BDE8F081BB
:102E4000E1B24046FEF74AFEEDE7A1B24046FEF78A
:102E50006FFEE8E721464046FEF77CFEE3E7000010
:102E6000C05B0020103C0240002008490A6812F0B4
:102E7000004F09D0074A064B1360074B13600968DF
:102E800011F0004F00D0012070470000103C0240BC
:102E900023016745043C0240AB89EFCD10B51E4CC1
:102EA00010281AD0202827D0082830D0012813D184
:102EB00011F0F6FD01280FD004F10C01206911F08A
:102EC0003FF8E068002807D014494FF080500860B0
:102ED000BFF34F8FBFF36F8F10BD607840F00100DC
:102EE0006070A07840F00100A07020790028F3D035
:102EF000BDE810400CF018BF207840F001002070B1
:102F000020790028E8D0BDE810400CF00DBFE07833
:102F100040F00100E07010BDF002002004ED00E080
:102F200010B504490A68024202D00860FFF7B6FFF4
:102F300010BD0000143C01402DE9F84F0022DFF8DD
:102F40001492DFF814A2DFF814B24FF0010E032739
:102F50004FF00F080EFA02FC0B6803EA0C036345FE
:102F60007DD10C7904F00304012C01D0022C14D182
:102F70008568540007FA04F6B543CE6806FA04F4EF
:102F80002C438460446824EA0C0C0C79C4F30014CC
:102F9000944044EA0C0CC0F804C0D1F804C037EAED
:102FA0000C0C0CD0C4684FEA420C07FA0CF5AC4389
:102FB0008D6805FA0CFC4CEA040CC0F80CC091F8C2
:102FC00004C00CF0030CBCF1020F12D14FEAD20C7A
:102FD00000EB8C04256A4FEA427C4FEADC6C08FA6D
:102FE0000CF6B5430E6906FA0CFC4CEA050CC4F865
:102FF00020C004684FEA420C07FA0CF5AC430D7987
:1030000005F0030505FA0CFC4CEA040CC0F800C0FE
:10301000D1F804C01CF0805F7DD0D9F800C04CF41A
:10302000804CC9F800C0D9F800C00CF4804CCDF831
:1030300000C022F0030C0CF1804505F59835D5F859
:1030400008C89407240F08FA04F62CEA0606A0F133
:10305000804CBCF5003C64D0A0F1804C00E05AE00C
:10306000BCF5013C60D0A0F1804CBCF5023C5ED0C8
:10307000A0F1804CBCF5033C5CD0A0F1804CBCF5C9
:10308000043C5AD0A0F1804CBCF5053C58D0A0F1CE
:10309000804CBCF5063C56D0A0F1804CBCF5073CFA
:1030A00054D04FF0080C0CFA04FC4CEA060CC5F89E
:1030B00008C8DAF800C02CEA030C4C6814F4803F0E
:1030C00001D04CEA030CCAF800C0254CD4F800C06B
:1030D0002CEA030C4D6815F4003F01D04CEA030CB8
:1030E000C4F800C0DBF800C02CEA030C4C6814F4F0
:1030F000801F01D04CEA030CCBF800C0194CD4F867
:1031000000C02CEA030C4D6815F4001F01D04CEAF6
:10311000030CC4F800C0521C102AFFF41BAFBDE81A
:10312000F88F4FF0000CBEE74FF0010CBBE74FF0FB
:10313000020CB8E74FF0030CB5E74FF0040CB2E710
:103140004FF0050CAFE74FF0060CACE74FF0070C63
:10315000A9E7000044380240003C0140083C01401F
:10316000043C01400C3C0140002A01D081617047C1
:1031700009048161704700000148806870470000C1
:103180002809002070B50446002C04D094F83D00B6
:10319000002510B106E0012070BD84F83C502046A7
:1031A00000F0E0FA242084F83D002068016821F056
:1031B000010101602068016841F40041016020685C
:1031C000016821F40041016001F0FEF9544B61688F
:1031D000994203D85349884203D304E052498842B4
:1031E00001D2012070BD5149B0FBF1F12268D2F843
:1031F00004C02CF03F0C4CEA010CC2F804C0626819
:103200009A4201D84A1C07E04FF4967251434FF49A
:103210007A72B1FBF2F14A1C2168D1F820C02CF07F
:103220003F0C42EA0C020A626168994210D84900D8
:10323000401EB0FBF1F2521CC2F30B02042A01D271
:10324000042026E0B0FBF1F0401CC0F30B0020E0AE
:10325000A268002A50D001EBC10303EB0113A0F1D7
:10326000010CBCFBF3F35B1C43F480431B051B0DFB
:103270004AD0002A4AD001EBC10202EB0111401EE4
:10328000B0FBF1F0401CC0F30B0040F4804040F470
:1032900000402168CA6922F0FF0222F44F42104325
:1032A000C861216AE06901432068026822F0C00217
:1032B00011430160E168206901432068826822F0BF
:1032C000FF0222F4034211438160A1696069014356
:1032D0002068C26822F0FF021143C16020680168C3
:1032E00041F0010101602564202084F83D00256340
:1032F00084F83E50002070BD01EB4103A0F1010CA9
:10330000BCFBF3F35B1CB1E70120C2E701EB410119
:10331000401EB0FBF1F0401CC0F30B00B7E700000B
:10332000A086010080841E0000093D0040420F007D
:103330002DE9FF4F83B004468A469346DDF844905A
:10334000DDF84080129EFFF717FF054694F83D0018
:10335000202803D007B00220BDE8F08F19230122F6
:10336000A0492046009502F027FE18B107B00220C0
:10337000BDE8F08F94F83C00012808D0012084F8C3
:103380003C002068016811F0010F04D007E007B08D
:103390000220BDE8F08F016841F001010160206862
:1033A000016821F400610160222084F83D00402082
:1033B00084F83E0000272764C4F82480A4F82A90EB
:1033C000608D20858848E062019500965A465146F6
:1033D0002046069B02F0B0FC18B107B00120BDE802
:1033E000F08F208D10B3012829D0022835D0206815
:1033F000416980690290208D002800F0E880DFF8A4
:10340000EC81208D032800F2B780012834D00228F7
:103410004AD03346002241462046009502F0CCFDBA
:1034200000286CD007B00120BDE8F08F206841690A
:1034300081690291016841F400710160DBE7206855
:10344000016821F48061016020684169816902910D
:10345000016841F400710160CDE72068016821F442
:10346000806101602068016841F4006101602068AA
:10347000416980690290BEE72A463146204602F043
:103480005CFE18B107B00120BDE8F08F206800692C
:10349000616A0870606A401C6062208D401E208551
:1034A000608D401E60858EE03346002241462046F6
:1034B000009502F081FD18B107B00120BDE8F08F42
:1034C0002068016841F40071016020680069616A48
:1034D0000870606A401C6062218D491E2185618DE3
:1034E000491E6185216809690170606A401C60623B
:1034F000208D401E2085608D401E608563E0206821
:10350000016821F48061016020680069616A0870C7
:10351000606A401C6062208D401E2085608D401EC8
:1035200060853346002241462046009502F044FD66
:1035300018B107B00120BDE8F08F2068016841F4A0
:103540000071016020680069616A0870606A401C4F
:103550006062218D491E2185618D491E618521682A
:1035600009690170606A401C6062208D401E2085E0
:10357000608D401E608526E02A463146204602F0D6
:10358000DCFD18B107B00120BDE8F08F20680069AC
:10359000616A0870606A401C6062218D491E218545
:1035A000618D491E61852268516911F0040F0AD0AE
:1035B00011690170606A401C6062208D401E208588
:1035C000608D401E6085208D00287FF41AAF20207A
:1035D00084F83D0084F83E7084F83C7007B0002009
:1035E000BDE8F08F020010000000FFFF04000100A2
:1035F0002DE9FF4F83B004468A469346DDF8449098
:10360000DDF84080129EFFF7B7FD054694F83D00B7
:10361000202803D007B00220BDE8F08F1923012233
:103620004E492046009502F0C7FC18B107B00220B1
:10363000BDE8F08F94F83C00012808D0012084F800
:103640003C002068016811F0010F04D007E007B0CA
:103650000220BDE8F08F016841F00101016020689F
:10366000016821F400610160212084F83D004020C0
:1036700084F83E0000272764C4F82480A4F82A9028
:10368000608D20853648E062019500965A46514685
:103690002046069B02F0FAFB18B107B00120BDE8F6
:1036A000F08F208D002836D02A463146204602F081
:1036B00082FD58B1206C042804D12068016841F4CF
:1036C0000071016007B00120BDE8F08F606A2168D9
:1036D00000780861606A00F1010CC4F824C0208DF4
:1036E000401E80B22085618D491E6185236859691D
:1036F00011F0040F0CD058B19CF800001861606AFA
:10370000401C6062208D401E2085608D401E6085BB
:10371000208D0028C8D12A463146204602F01EFCE2
:1037200058B1206C042804D12068016841F400716C
:10373000016007B00120BDE8F08F2068016841F406
:1037400000710160202084F83D0084F83E7084F808
:103750003C7007B00020BDE8F08F000002001000B0
:103760000000FFFF2DE9F04786B00646142101A8AE
:10377000FCF74EFE504C4F4A306800254E49032757
:1037800010344FF012084FF001094FF0040A904234
:103790001FD1086840F002000860086800F00200CD
:1037A000009038020190CDF80880CDF80C90049775
:1037B000CDF814A001A94148FFF7BEFB206840F4F2
:1037C00000102060206800F40010009006B0BDE8F2
:1037D000F0873B4A904235D1086840F020000860ED
:1037E000086800F0200000900197CDF80880CDF81F
:1037F0000C900497CDF814A001A93248FFF79CFB68
:10380000206840F480002060206800F48000009070
:103810002E4C2D4820604FF0606060604020A0601A
:10382000E560000120616561A561E561C00120627C
:1038300065622046FFF7B6F908B1FEF7E5F8746354
:10384000A663C3E7224A9042C0D1086840F0040052
:103850000860086800F004000090086840F001006B
:103860000860086800F00100009050150190CDF844
:103870000880CDF80C900497CDF814A001A9154844
:10388000FFF75AFB4FF480700190CDF80880CDF817
:103890000C900497CDF814A001A90F48FFF74CFB3A
:1038A000206840F400002060206800F400000090D0
:1038B0008CE7000000540040303802400004024011
:1038C0000058004000140240B8600240C0110020BF
:1038D000005C00400008024000000240024881688D
:1038E00002781144816070472809002010B50B4808
:1038F000016841F400710160016841F48061016078
:10390000016841F480710160032000F0A1F80F20EC
:1039100000F006F800F03EF8002010BD003C024028
:1039200010B588B0014600222D2000F05DF82D2052
:1039300000F04CF800241348016841F480710160E4
:10394000006800F48070019002A903A800F018FE3E
:1039500000F03AFE40000C49B0FBF1F1491E0C4862
:103960000A4A026040F2E732C2604160046184604A
:1039700001F028FB10B1012008B010BD044801F08F
:10398000C1FBF9E74038024040420F0000200040F0
:10399000B431002082B00C48016841F480410160DC
:1039A000006800F4804001900748001F016841F062
:1039B00080510160006800F08050019000220F21CA
:1039C000901E02B000F010B84438024000280ADB14
:1039D00000F01F01012202FA01F14009800000F10C
:1039E000E020C0F80011704710B4184B1B68C3F3F7
:1039F0000223C3F1070CBCF1040F01D94FF0040CF2
:103A00001C1D072C01D2002300E0DB1E012404FA58
:103A10000CFCACF1010C0CEA0101994004FA03F32F
:103A20005B1E1A401143002806DB00F1E02009016B
:103A300080F8001410BC704700F00F0000F1E02087
:103A4000090180F8141D10BC704700000CED00E067
:103A500000F00700064A11684FF6FF03194041EADB
:103A6000002040F0FD7040F0806010607047000062
:103A70000CED00E07047006841620020704730B4F0
:103A80000368586A00291BD0D3F828C000EB1C4CEF
:103A900000200129A1F101014FF4827408D004EB48
:103AA00080055D590CEB154C401CC0B28842F6D322
:103AB00004EB81014CEA0240585030BC00207047B2
:103AC00040EA02409862F8E7D0F8040406F0CFBC60
:103AD000C1EBC10200EB8202D0F80404926C06F044
:103AE00031BCC1EBC10200EB8202D0F80404D2F871
:103AF000082206F085BCD0F8040406F0BABC70B504
:103B0000044611F0800F01F00F00C0EBC00104EB80
:103B100081014FF001024FF0000502D03C314A70A4
:103B200002E001F5FE714D70087094F8BC030128A5
:103B300008D084F8BC23206807F0C0F884F8BC5390
:103B4000002070BD022070BD70B5044601F00F0268
:103B50006068824201D9012070BD01F00F00C0EB06
:103B6000C00011F0800F04EB80004FF001034FF014
:103B7000000503D000F13C014B7002E000F5FE713E
:103B80004D708D700A7094F8BC03012808D084F839
:103B9000BC33206807F0A4FA84F8BC53002070BD41
:103BA000022070BD01F00F01C1EBC10100EB8100EB
:103BB000D0F81402704770B5044611F0800F01F080
:103BC0000F00C0EBC00104EB81014FF0010C4FF07E
:103BD000000503D03C3181F801C002E001F5FE711F
:103BE0004D7008708A60CB704A7802B1C880022B91
:103BF00000D10D7194F8BC03012808D084F8BCC32F
:103C0000206806F0A1FF284684F8BC5370BD02204E
:103C100070BD10B50C4604F00F0CCCEBCC0100EBE2
:103C2000810101F5FE71CA604B6100238B614B700D
:103C300081F800C00369012B00D10A6114F00F0F55
:103C400005D0027C006807F0A6FA002010BD027CB7
:103C5000006807F07FF9F8E770B504460D46616823
:103C600005F00F00884201D9012070BD15F0800FCA
:103C70004FF000064FF0010206D0C0EBC00104EB8C
:103C800081013C314A7006E0C5EBC50104EB8101BE
:103C900001F5FE714E708A70087094F8BC0301281B
:103CA00008D084F8BC23206807F046FA15F00F0FFF
:103CB00002D007E0022070BD217C04F571722068FB
:103CC00007F0DEF984F8BC63002070BD10B50C4627
:103CD00004F00F0CCCEBCC0100EB81013C31CA604D
:103CE0004B6100238B6101234B7081F800C0036995
:103CF000012B00D10A6114F00F0F05D0027C00687F
:103D000007F049FA002010BD027C006807F022F994
:103D1000F8E72DE9F05F04462568284607F08CFB9C
:103D200000287DD1206807F0B3FB002878D02068F8
:103D300007F0AEFB10F0020F04D02068416901F0DB
:103D400002014161206807F0A3FB10F0100F36D08C
:103D50002068816921F0100181612F6A07F00F004E
:103D6000C0EBC00004EB800000F5FE76C7F34340D3
:103D7000022802D0062812D01CE047F6F070074255
:103D800018D0C7F30A1217462846F16807F084FBDB
:103D9000F0683844F060B0693844B0610AE0082245
:103DA00004F57171284607F077FBB069C7F30A1173
:103DB0000844B0612068816941F010018161206888
:103DC00007F066FB10F4002F4FF001094FF0080ACE
:103DD0004FF0100B45D00026206807F038FB8046D6
:103DE0005FEA08003DD018F0010F34D0F1B220682E
:103DF00007F046FB074617F0010F07D005EB46100A
:103E0000C0F8089B3146204603F0F2F817F0080F7F
:103E100009D005EB4610C0F808AB3146204600E05B
:103E200090E103F0C1F817F0100F03D005EB461036
:103E3000C0F808BB17F0200F04D005EB4611202076
:103E4000C1F8080B17F4005F05D005EB46114FF4DD
:103E50000050C1F8080B761C4FEA5808B8F1000F63
:103E6000C1D1206807F014FB10F4802F63D02068C4
:103E700007F0E6FA80460026B8F1000F5BD018F094
:103E8000010F52D0F1B2206807F0E8FA074617F0A8
:103E9000010F25D006F00F0009FA00F0D5F834180C
:103EA00021EA0000C5F8340805EB4610C0F808996F
:103EB0002069012810D1C6EBC60004EB8000426CDB
:103EC000816C114481643EB9206D28B904F571728A
:103ED0000121206807F0D4F8F1B22046FFF7F8FD81
:103EE00017F0080F03D005EB4610C0F808A917F02B
:103EF000100F03D005EB4610C0F808B917F0400FBB
:103F000004D005EB46114020C1F8080917F0020F54
:103F100004D005EB46110220C1F8080917F0800F04
:103F200003D03146204603F0D9F8761C4FEA5808F2
:103F3000B8F1000FA3D1206807F0AAFA10F0004FE3
:103F400011D0D5F8040820F00100C5F8040894F851
:103F5000F403012867D0204600F0F7F92068416992
:103F600001F000414161206807F092FA10F4006FFF
:103F70000CD0D5F8080810F0010F02D0204600F050
:103F800029FA2068416901F400614161206807F065
:103F90007FFA10F4805F6CD0D5F8040820F001009F
:103FA000C5F804081021206807F022FA0021606893
:103FB000002823D94FF67F3205EB4110C0F80829BD
:103FC000D0F8003923F40013C0F80039D0F80039D4
:103FD00043F00063C0F80039C0F8082BD0F8003B6C
:103FE00023F40013C0F8003BD0F8003B43F000631B
:103FF000C0F8003B491C60688842DDD8D5F81C0831
:1040000040F00110C5F81C08206BA0B1D5F8840859
:1040100040F00B00C5F88408D5F8440840F00B00C8
:10402000C5F8440814E0002084F8F4030021204679
:10403000FFF720FD92E7D5F8140842F22B01084360
:10404000C5F81408D5F8100840F00B00C5F81008A2
:10405000D5F8000820F4FE60C5F80008217C04F5BE
:104060007172206807F00CF82068416901F48051F2
:104070004161206807F00CFA10F4005F16D0206848
:1040800006F0B0FD206807F0C7F9E06000F096FA8E
:1040900023680146227B184607F040FA204600F0CC
:1040A0003DF92068416901F400514161206807F041
:1040B000EFF910F0080F07D0204600F04AF9206809
:1040C000416901F008014161206807F0E1F910F44D
:1040D000801F08D00021204600F036F82068416992
:1040E00001F480114161206807F0D2F910F4001F3B
:1040F00008D00021204600F02BF82068416901F427
:1041000000114161206807F0C3F910F0804F07D01B
:104110002046FFF7D9FC2068416901F080414161E8
:10412000206807F0B5F910F0040F0BD0206845683F
:1041300015F0040F02D02046FFF7DDFC206841682F
:1041400029434160BDE8F09FD0F8040406F0E2B9CD
:10415000D0F8040406F0EFB92DE9F0478AB0044620
:10416000002C05D0266894F8BD03002520B108E096
:104170000AB00120BDE8F08784F8BC53204600F067
:104180008BF8032084F8BD03F06B10F4807F00D11E
:104190002561206806F0D8FE04F11000D4F82C80C8
:1041A00090E80F10A76A666A8DE80F10CDF81C80A2
:1041B00006970596616B206B0991089094E80F00B3
:1041C00006F01EFD022728B184F8BD730AB0012055
:1041D000BDE8F0870021206807F070F900216068D1
:1041E0000126002813D9C1EBC10004EB800080F840
:1041F0003D6080F83C10A0F8421080F83F504564C4
:1042000085640565481CC1B260688842EBD800210E
:104210006068002814D9C1EBC10004EB800080F86D
:10422000FD5180F8FC1180F8FF51C0F80452C0F82D
:104230000852C0F81052481CC1B260688842EAD8DF
:1042400004F11000D4F82CA090E80F10D4F82890B6
:10425000D4F824808DE80F10CDF81CA0CDF818906C
:10426000CDF81480616B206B0991089094E80F00E1
:1042700006F0AEFD28B184F8BD730AB00120BDE898
:10428000F08784F8385084F8BD63206806F092FD0A
:104290000AB00020BDE8F08710B586B004461421AE
:1042A00001A8FCF7B5F82068B0F1A04F2FD100218C
:1042B0001848026842F001020260006800F0010044
:1042C00000904FF4C050019002200290039103200F
:1042D00004900A20059001A90F48FEF72DFE0D4815
:1042E000001D016841F0800101600A481430016836
:1042F00041F480410160006800F480400090002299
:1043000005214320FFF770FB4320FFF75FFB06B05A
:1043100010BD0000303802400000024070B5044675
:104320000125E06800280ED0022801D0FDF76CFBC3
:104330002946D4F8040406F06DF9D4F80404BDE865
:10434000704006F01EB90025F2E7D0F8040406F02C
:1043500046B9D0F8040406F04CB910B5044694F8F8
:10436000BC0301280BD0012084F8BC0384F838106A
:10437000206807F0BBF8002084F8BC0310BD0220C1
:1043800010BDD0F8042400F57171104606F04EB946
:1043900010B50446206894F8BC13012906D0012109
:1043A00084F8BC13A16A012902D008E0022010BDE4
:1043B000A169012903D0816B41F4803181632068B8
:1043C00006F0FDFF206806F0E7FC002084F8BC033F
:1043D00010BD000010B50446D4F8040406F068F9D6
:1043E0002068D0F8001E41F00101C0F8001E206ACC
:1043F000002804D00248016841F00601016010BDA8
:1044000010ED00E02DE9F04704460D46002C13D0D6
:10441000DFF85491D9F80000EFB200F00700A8428D
:104420000DD289F80070D9F8000000F00700A8420A
:1044300005D00120BDE8F0870120BDE8F0872068A5
:104440004A4E10F0020F14D010F0040F03D0306861
:1044500040F4E0503060207810F0080F03D030684E
:1044600040F4604030603068A16820F0F0000843FC
:104470003060207810F0010F3ED060683C49012880
:1044800008D002280DD003280BD0096811F0020FC4
:1044900028D00AE0096811F4003F06D10120BDE8E8
:1044A000F087096811F0007F19D0316821F003010D
:1044B00008433060FEF760FE80463068616800F0B7
:1044C0000C00B0EB810F17D041F2883AFEF754FE92
:1044D000A0EB0800504508D90320BDE8F087012073
:1044E000BDE8F0870120BDE8F0873068616800F022
:1044F0000C00B0EB810FE9D1D9F8000000F0070003
:10450000A8420AD989F80070D9F8000000F0070025
:10451000A84202D00120BDE8F087207810F0040FF7
:1045200005D03068E16820F4E0500843306020781E
:1045300010F0080F06D03068216920F4604040EA8E
:10454000C100306000F060F831680A4AC1F303111D
:10455000515CC8400849086008480068FFF7E0F966
:104560000020BDE8F0870000003C0240083802400F
:1045700000380240384F0108980000202C09002024
:104580000F2202600B4A136803F0030343601368B1
:1045900003F0F0038360136803F4E053C360126810
:1045A00002F46042D20802610348006800F007008C
:1045B0000860704708380240003C0240014800682B
:1045C000704700009800002000B5FFF7F7FF04498E
:1045D0000968044AC1F38221515CC84000BD000053
:1045E00008380240484F010800B5FFF7E7FF0449CB
:1045F0000968044AC1F34231515CC84000BD000063
:1046000008380240484F010810B51748006810F0FC
:104610000C01164816D0164B042912D0082911D1C6
:10462000144C216801F03F02216811F4800F0AD078
:104630002068C0F38810A0FB03010023FBF798FE5D
:1046400009E0184610BD21680023C1F38811A1FBC1
:104650000001FBF78DFE2168C1F30141491C4900AF
:10466000B0FBF1F010BD0000083802400024F40057
:10467000001BB700043802402DE9F84F0446002C17
:1046800012D02078FB4E10F0010FA6F1040563D084
:10469000301D016801F00C0104290CD0006800F005
:1046A0000C00082803D010E00120BDE8F88F306826
:1046B00010F4800F09D0286810F4003F4CD06068D7
:1046C000002849D10120BDE8F88F6068B0F5803F2F
:1046D00014D0B0F5A02F16D0286820F480302860C0
:1046E000286820F480202860606810B3FEF744FD3D
:1046F0000746286810F4003F0ED02DE0286840F4EB
:1047000080302860F0E7286840F48020286028681E
:1047100040F480302860E7E7FEF72EFDC01B6428D8
:1047200002D90320BDE8F88F286810F4003FF3D0C9
:1047300012E0FEF721FD0746286810F4003F0BD079
:10474000FEF71AFDC01B642802D90320BDE8F88FCC
:10475000286810F4003FF3D12078C74F10F0020F03
:104760004FF0000957D0C548016811F00C0F14D064
:10477000006800F00C00082803D1306810F4800FA6
:104780000BD0E06880B301203860FEF7F5FC80466E
:10479000286810F0020F12D01EE0286810F0020FF7
:1047A00005D0E068012802D00120BDE8F88F286814
:1047B000216920F0F80040EAC10028602BE0FEF7F4
:1047C000DBFCA0EB0800022802D90320BDE8F88F2B
:1047D000286810F0020FF2D02868216920F0F80054
:1047E00040EAC100286016E0FFE7C7F80090FEF736
:1047F000C3FC8046286810F0020F0CD0FEF7BCFC0A
:10480000A0EB0800022802D90320BDE8F88F286831
:1048100010F0020FF2D1207810F0080F35D0984830
:10482000DFF860A26169C1B101210160FEF7A4FC5B
:104830008046DAF8000010F0020F26D1FEF79CFC4B
:10484000A0EB0800022802D90320BDE8F88FDAF8AF
:10485000000010F0020FF1D017E0C0F80090FEF752
:104860008BFC8046DAF8000010F0020F0DD0FEF746
:1048700083FCA0EB0800022802D90320BDE8F88FD2
:10488000DAF8000010F0020FF1D1207810F0040FD8
:1048900071D04FF000087C48006810F0805F0AD1AA
:1048A0007948016841F080510160006800F0805053
:1048B00000904FF00108DFF8D4B1DBF8000010F4ED
:1048C000807F1BD1DBF8000040F48070CBF8000043
:1048D000FEF752FC8246DBF8000010F4807F0DD119
:1048E000FEF74AFCA0EB0A00022802D90320BDE82B
:1048F000F88FDBF8000010F4807FF1D0A068DFF8BB
:1049000090B1012818D005281DD0DBF8000020F058
:104910000100CBF80000DBF8000020F00400CBF829
:104920000000A06840B3FEF727FC8246DBF80000D9
:1049300010F0020F14D03EE0DBF8000040F0010060
:10494000CBF80000EDE7DBF8000040F00400CBF806
:104950000000DBF8000040F00100CBF80000E0E7C9
:10496000FEF70AFCA0EB0A0141F28830814204D92B
:104970000320BDE8F88F26E005E0DBF8000010F02A
:10498000020FEDD017E0FEF7F7FB8246DBF80000E0
:1049900010F0020F0FD0FEF7EFFBA0EB0A0141F27F
:1049A0008830814202D90320BDE8F88FDBF800008F
:1049B00010F0020FEFD1B8F1010F04D132480168B5
:1049C00021F080510160A069F0B32C4909684FF0D3
:1049D000FF3801F00C01082966D0022810D0C7F872
:1049E0006090FEF7C9FB0446286810F0007F2BD0CA
:1049F000FEF7C2FB001B022851D90320BDE8F88F47
:104A0000C7F86090FEF7B8FB8146286810F0007F79
:104A10000CD0FEF7B1FBA0EB0900022802D903205D
:104A2000BDE8F88F286810F0007FF2D1216AE069B4
:104A3000A26A0843616A08EB5202890141EA024115
:104A4000084394F82C1000E055E040EA0160306023
:104A500001203866FEF790FB0446286810F0007FBE
:104A600049D1FEF789FB001B022813D90320BDE8BA
:104A7000F88F000004380240000047420838024026
:104A8000800E4742743802404038024000700040B7
:104A900070380240286810F0007FE2D02BE02868D0
:104AA00010F0007FA4D126E0012822D03068E2690E
:104AB00000F4800191421AD1226A00F03F01914234
:104AC00015D147F6C071626A0140B1EB821F0ED169
:104AD000A26A00F4403108EB5202B1EB024F06D15A
:104AE00094F82C1000F07060B0EB016F03D001203F
:104AF000BDE70120BBE70020B9E770B50446002CF4
:104B000009D0606A002540B125616561A56294F80D
:104B1000510040B10CE0012070BD6068B0F5827FAB
:104B2000F4D0E561F2E784F85050204600F044F8F4
:104B3000022084F851002068016821F040010160E2
:104B4000A088218900F4827001F404410843A189FE
:104B500001F400610843217C01F002010843217D3A
:104B600001F001010843218B01F400710843217F0A
:104B700001F03801084394F8201001F08001084347
:104B8000218D01F40051084321680860A1690420C7
:104B900000EA114094F8241001F01001014320684C
:104BA00041602068C16921F40061C161656501202F
:104BB00084F85100002070BD2DE9F04387B0054610
:104BC000142102A8FBF724FC3949286888426CD1DB
:104BD00000263848016841F480510160006800F403
:104BE0008050019033481438016841F0020101609F
:104BF000016801F002010191016841F001010160C9
:104C0000006800F001000190182002904FF00208A7
:104C1000CDF80C804FF00109CDF8109003240594D5
:104C20000527069702A92448FEF786F980200290FE
:104C3000CDF80C80CDF810900594069702A91F4876
:104C4000FEF77AF91F4C1E4820604FF0C068C4F888
:104C50000480A660E660071527616661A661E661CB
:104C60004FF44030206266622046FDF79BFF08B19A
:104C7000FCF7CAFEEC64A5631148124C183060348E
:104C80002060C4F804804020A060E660276166616F
:104C9000A661E661C002206266622046FDF782FFDF
:104CA00008B1FCF7B1FEAC64A56307B0BDE8F083C2
:104CB000003001404438024000040240000002403D
:104CC00040640240781200202DE9F84F04460A9E05
:104CD0008A4693461F4601254FF0000894F850007D
:104CE00001280ED0012084F85000FEF745FA8146D5
:104CF00094F85100616801280ED0B1F5827F07D188
:104D000002E00220BDE8F88FA16809B9042803D0A9
:104D10004FF0020800F0CBB8BAF1000F1DD0BBF184
:104D2000000F1AD0380018D094F85100042802D08F
:104D3000052084F8510000206065C4F838B0E7878A
:104D4000A787C4F830A0E786A7862064606420683F
:104D5000016811F0400F03D006E04FF00108A6E013
:104D6000016841F040010160E068B0F5006F05D0D6
:104D70006068002848D0012F46D07EE0606808B106
:104D8000012F3AD1206B21680088C860206B801CFD
:104D90002063E08E401EE0862FE02068816811F0DD
:104DA000020F0DD0E18E59B1012D09D1216B098877
:104DB000C160206B801C2063E08E401EE0860025D1
:104DC0002068816811F0010F0BD0E18F49B1C068F4
:104DD000A16B0880A06B801CA063E08F401EE08761
:104DE0000125FEF7C9F9A0EB0900B04205D3B6F1E1
:104DF000FF3F02D04FF0030859E0E08E0028CCD1ED
:104E0000E08F0028C9D13EE0206B2168007808734C
:104E1000206B401C2063E08E401EE0862DE0206861
:104E2000816811F0020F0DD0E18E59B1012D09D129
:104E3000216B09780173206B401C2063E08E401EBB
:104E4000E08600252068816811F0010F0BD0E18F0A
:104E500049B1C068A16B0870A06B401CA063E08FD3
:104E6000401EE0870125FEF787F9A0EB0900B0425C
:104E700002D3B6F1FF3F11D186B1E08E0028CED12A
:104E8000E08F0028CBD14A463146204603F060FF30
:104E900038B14FF001082020606508E04FF00308AA
:104EA00005E0A06818B92068C168806800900120FA
:104EB00084F85100002084F850004046BDE8F88F87
:104EC0007047704790F83C20012A2CD0012280F8CE
:104ED0003C20CA680023D1F808C022F4407242EA9C
:104EE0000C02D1F804C022F4806242EA0C02D1F82C
:104EF00000C022F4006242EA0C02D1F810C022F491
:104F0000805242EA0C02D1F814C022F4005242EA64
:104F10000C02C96922F4804211430268516480F88E
:104F20003C30002070470220704730B490F83C209D
:104F3000012A44D0012480F83C40022280F83D2020
:104F40000268D2F804C093682CF0700C0D6845EA32
:104F50000C0CC2F804C00268A2F1804CBCF5803C85
:104F600020D0B2F1804F1DD0A2F1804CBCF5806CF6
:104F700018D0A2F1804CBCF5006C13D0A2F1804C8B
:104F8000BCF5406C0ED0A2F1804CBCF5823C09D03F
:104F9000A2F1804CBCF5A03C04D0A2F1804CBCF541
:104FA000C05C04D123F0800349681943916080F804
:104FB0003D40002180F83C1030BC0020704730BCE0
:104FC0000220704710B50446002C03D094F83D0031
:104FD00010B107E0012010BD002084F83C002046FD
:104FE00000F01EF8022084F83D00211D206804F026
:104FF00095F8012084F8460084F83E0084F83F00CC
:1050000084F8400084F8410084F8420084F84300AA
:1050100084F8440084F8450084F83D00002010BD69
:1050200008B50068134A1449904208D1086840F056
:1050300001000860086800F00100009008BD0F4AF8
:1050400090420AD10C48001F016841F0080101603C
:10505000006800F00800009008BD094A9042FBD1AA
:10506000086840F400300860086800F400300090E0
:1050700008BD00000000014044380240000C004020
:105080000044014090F83D10012901D001207047F3
:10509000022180F83D100068A0F18041B1F5803117
:1050A00026D0B0F1804F23D0A0F18041B1F58061CE
:1050B0001ED0A0F18041B1F5006119D0A0F180416E
:1050C000B1F5406114D0A0F18041B1F582310FD02B
:1050D000A0F18041B1F5A0310AD0A0F18041B1F535
:1050E000C05105D0016841F0010101600020704706
:1050F000816801F007010629F8D0016841F001013B
:105100000160F3E790F83D10012901D001207047BC
:10511000022180F83D100168CA6842F00102CA60AD
:105120000068A0F18041B1F5803126D0B0F1804F08
:1051300023D0A0F18041B1F580611ED0A0F1804163
:10514000B1F5006119D0A0F18041B1F5406114D0F2
:10515000A0F18041B1F582310FD0A0F18041B1F5CD
:10516000A0310AD0A0F18041B1F5C05105D001684D
:1051700041F00101016000207047816801F00701E2
:105180000629F8D0016841F001010160F3E770B52C
:10519000044694F83C00012818D0012584F83C50BE
:1051A000022084F83D002068826822F0770222F411
:1051B0007F4282600868502832D00EDC20284DD013
:1051C00006DC00284AD010284DD147E0022070BDEF
:1051D000302843D0402846D136E060282AD07028B5
:1051E00006D0B0F5805F3ED0B0F5005F3BD10BE05C
:1051F000CB684A688968206804F005F820688168EF
:1052000041F0770181602EE0CB684A6889682068A8
:1052100003F0F9FF2068816841F48041816022E059
:10522000CA684968206804F0DDF85021206803F05E
:10523000F5FF18E0CA684968206804F0E6F86021C4
:10524000206803F0EBFF0EE0CA684968206804F0AC
:10525000C9F84021206803F0E1FF04E0226801461C
:10526000104603F0DBFF84F83D50002084F83C003A
:1052700070BD704770B50446206801694FF00005A5
:1052800011F0020F17D0C16811F0020F13D0E91E00
:105290000161012020772068806910F0030F03D09E
:1052A0002046FFF7E6FF05E0204600F023F9204600
:1052B00000F0B9F925772068016911F0040F18D0C2
:1052C000C16811F0040F14D06FF0040101610220D5
:1052D00020772068806910F4407F03D02046FFF7D4
:1052E000C8FF05E0204600F005F9204600F09BF9D4
:1052F00025772068016911F0080F18D0C16811F0F6
:10530000080F14D06FF00801016104202077206895
:10531000C06910F0030F03D02046FFF7AAFF05E095
:10532000204600F0E7F8204600F07DF92577206858
:10533000016911F0100F18D0C16811F0100F14D0CE
:105340006FF010010161082020772068C06910F417
:10535000407F03D02046FFF78CFF05E0204600F099
:10536000C9F8204600F05FF925772068016911F03F
:10537000010F09D0C16811F0010F05D06FF00101D4
:105380000161204600F0BEF92068016911F0800F2C
:1053900009D0C16811F0800F05D06FF08001016164
:1053A0002046FFF78DFD2068016911F0400F09D0FC
:1053B000C16811F0400F05D06FF040010161204637
:1053C00000F0AAF92068016911F0200F0BD0C16824
:1053D00011F0200F07D06FF0200101612046BDE8D9
:1053E0007040FFF76EBD70BDF0B587B00446142164
:1053F00002A8FBF70DF8374A206800263649022438
:105400000125904220D1086840F01000086008682B
:1054100000F0100001904FF4C040029003940496F5
:10542000059606952D4F02A93846FDF785FD4FF4E8
:1054300020600290039404960594069502A93846CC
:10544000FDF77AFD07B0F0BD254A904222D10868E9
:1054500040F080000860086800F0800001904FF480
:10546000E0500290039404950594069402A91D4807
:10547000FDF762FD1C48FFF705FE00211A4800F009
:10548000D3F80421184800F0CFF80821164800F09E
:10549000CBF8D7E7154A9042D4D1086840F02000F5
:1054A0000860086800F020000190402002900394FA
:1054B000049505940320069002A90D48FDF73CFDD4
:1054C00009484830FFF7DEFD07480021483000F06A
:1054D000ABF8B7E70000014030380240001002404E
:1054E000000C0040001C02408013002000440140DA
:1054F00000140240704770B504460D4694F83C0015
:1055000001280AD0012084F83C0042B1042A1AD0B4
:10551000082A2DD00C2A53D13EE0022070BD294626
:10552000206803F083FE2068816941F008018161F1
:105530002068816921F004018161206881692A69FC
:10554000114381613CE02946206803F0A7FE2068F2
:10555000816941F4006181612068816921F4806181
:105560008161206881692A6941EA0221816127E01D
:105570002946206803F0CEFE2068C16941F0080189
:10558000C1612068C16921F00401C1612068C1695D
:105590002A691143C16113E02946206803F0F6FE31
:1055A0002068C16941F40061C1612068C16921F4CA
:1055B0008061C1612068C1692A6941EA0221C16133
:1055C000002084F83C0070BD10B50446002C03D0C8
:1055D00094F83D0010B107E0012010BD002084F8D0
:1055E0003C00204600F01EF8022084F83D00211DFA
:1055F000206803F093FD012084F8460084F83E0003
:1056000084F83F0084F8400084F8410084F84200A8
:1056100084F8430084F8440084F8450084F83D0091
:10562000002010BD7047704710B50446002909D00E
:1056300004290AD008290BD094F8410001280AD087
:10564000012010BD94F83E00F8E794F83F00F5E71C
:1056500094F84000F2E70220D9B3042947D0082982
:1056600048D084F841000122206803F0BDFD234AA0
:1056700020682349904201D0884203D1436C43F40F
:10568000004343642068904224D0B0F1804F21D081
:10569000A0F18042B2F580621CD0A0F18042B2F548
:1056A000006217D0A0F18042B2F5406212D0884269
:1056B00010D0A0F18041B1F5A0310BD0A0F1804114
:1056C000B1F5C05106D0016841F001010160002030
:1056D00010BD09E0816801F007010629F7D00168D3
:1056E00041F001010160F2E784F83E00BBE784F875
:1056F0003F00B8E784F84000B5E700000000014033
:105700000004014000680349884201D1FEF7E6B871
:10571000704700000020004070477047704700004D
:10572000F8B5044622681068D168536900F00F0C80
:10573000BCF1000F0AD110F0200F07D011F0200F9C
:1057400004D02046BDE8F84003F024BF0025BCF19A
:10575000000F6DD003F0010C01F490765CEA0606B0
:1057600066D010F0010F06D011F4807F03D0226CB8
:1057700042F00102226410F0040F06D013F0010F72
:1057800003D0226C42F00202226410F0020F06D015
:1057900013F0010F03D0226C42F00402226410F0D7
:1057A000080F08D001F0200252EA0C0203D0226C4C
:1057B00042F008022264226C002A2FD010F0200F41
:1057C00005D011F0200F02D0204603F0E3FE206840
:1057D0004069C0F38010216C11F0080F00D110B3A4
:1057E000204603F0A9FE2068416911F0400F16D051
:1057F000416921F040014161A06B60B147490165F9
:10580000A06BFDF7C6F8002808D0A06B016D01B0B1
:10581000BDE8F04008472046FFF780FFF8BD20466E
:10582000FFF77CFFF8BD2046FFF778FF2564F8BD41
:10583000236B012B5CD110F0100F59D011F0100F19
:1058400056D010685068009050694FF0200310F057
:10585000400F2FD0A16B0868406880B20028E6D0C6
:10586000B4F82CC08445E2D9E085C869B0F5807FE2
:1058700018D0D06820F48070D0602068416921F091
:10588000010141612068416921F04001416184F8D2
:105890003E3025632068C16821F01001C160A06B13
:1058A000FDF726F8A08DE18D401A81B22046FFF762
:1058B00034FFF8BDA08DE18D401A81B2E08D002843
:1058C000F7D00029F5D0D06820F49070D06020681F
:1058D000426922F00102426184F83E30256320686B
:1058E000C26822F01002C2602046FFF716FFF8BD22
:1058F00010F0800F07D011F0800F04D02046BDE8D3
:10590000F84003F059BF10F0400FF0D011F0400FF5
:10591000EDD02046BDE8F84003F026BE2F940008E5
:1059200070B50446002C04D094F83D00002510B159
:1059300006E0012070BD84F83C50204600F022F8BB
:10594000242084F83D002068C16821F40051C16022
:10595000204603F079FE2068016921F4904101613D
:105960002068416921F02A0141612068C16841F441
:105970000051C1602564202084F83D0084F83E0079
:10598000002070BD2DE9F04F87B00446142102A815
:10599000FAF73EFD9C489B4F143823689A4A02212F
:1059A000002506154FF003084FF0070A4FF0400B93
:1059B0004FF00069BB426CD1136843F010031360D1
:1059C000126802F010020192026842F002020260C4
:1059D000026802F002020192026842F001020260D3
:1059E000006800F001000190802002900F460391B2
:1059F0000495CDF81480CDF818A002A98348FDF7CE
:105A00009BFA7010029003970495CDF81480CDF89E
:105A100018A002A97E48FDF78FFA7F4F7D483860B5
:105A2000C7F80490C7F808B0FD603E617D61BD61B4
:105A3000FD614FF48038C7F820807D623846FDF75D
:105A4000B1F808B1FBF7E0FF6763BC637148724FC0
:105A5000303860373860C7F80490BD60FD603E6143
:105A60007D61BD61FD61C7F820807D623846FDF72C
:105A700099F808B1FBF7C8FFA763BC6300220521B2
:105A80002520FDF7B1FF2520FDF7A0FF07B0BDE8F9
:105A9000F08FDFF888C14FF4003763454AD15A4A86
:105AA000121F136843F480231360126802F48022EB
:105AB0000192026842F004020260006800F00400F3
:105AC00001904FF44060029003910495CDF814804A
:105AD000CDF818A002A95248FDF72EFADFF8388158
