:020000040800F2
:1000000010820020E9020008211E0008C51B00081C
:100010001D1E0008490800086125000800000000B6
:10002000000000000000000000000000290200089D
:100030002B09000800000000850200088921000843
:100040000303000803030008030300080303000878
:100050000303000803030008030300080303000868
:1000600003030008030300082D0900080303000828
:100070000303000803030008030300080303000848
:100080000303000803030008030300080303000838
:1000900003030008030300080303000837090008EE
:1000A0000303000803030008030300080303000818
:1000B0000303000803030008030300080303000808
:1000C00003030008030300080303000803030008F8
:1000D00003030008030300080303000803030008E8
:1000E00003030008030300080303000803030008D8
:1000F00003030008030300080303000803030008C8
:1001000003030008030300080303000803030008B7
:1001100003030008030300080303000803030008A7
:100120000303000803030008030300080303000897
:100130000303000803030008030300080303000887
:100140000303000803030008030300080303000877
:100150000303000803030008030300080303000867
:100160000303000803030008030300080303000857
:100170000303000803030008030300080000000055
:10018000030300080303000800F002F800F03CF845
:100190000AA090E8000C82448344AAF10107DA45E2
:1001A00001D100F031F8AFF2090EBAE80F0013F0F8
:1001B000010F18BFFB1A43F001031847F439000080
:1001C000143A0000103A24BF78C878C1FAD8520710
:1001D00024BF30C830C144BF04680C6070470000C1
:1001E0000023002400250026103A28BF78C1FBD840
:1001F000520728BF30C148BF0B6070471FB503F0DE
:10020000A9FC1FBD10B510BD00F080F91146FFF725
:10021000F5FF02F043FB00F09EF903B4FFF7F2FF95
:1002200003BC00F0A5F900002C4B19680868B0E881
:10023000F04F80F30988BFF36F8F4FF0000080F319
:10024000118870470000000008480068006880F3CB
:1002500008884FF0000080F3148862B661B6BFF3DF
:100260004F8FBFF36F8F00DF00BF00BF08ED00E0CE
:10027000DFF80C00016841F470010160704700BFB5
:1002800088ED00E0EFF30980BFF36F8F134B1A681E
:100290001EF0100F08BF20ED108A20E9F04F10600B
:1002A00009B44FF0500080F31188BFF34F8FBFF3B4
:1002B0006F8F03F025F94FF0000080F3118809BC1F
:1002C00019680868B0E8F04F1EF0100F08BFB0ECD6
:1002D000108A80F30988BFF36F8F704714000020E5
:1002E000EFF3058070470000094880470948004740
:1002F000FEE7FEE7FEE7FEE7FEE7FEE7FEE7FEE7D6
:10030000FEE7FEE704480549054A064B7047000032
:1003100049220008890100081042002010820020B4
:10032000106200201062002053EA020C00F0698085
:100330002DE9F04B4FF00006002B1FBFB3FA83F5F9
:1003400003FA05F424FA05F65E4012BF1643B2FA2A
:1003500082F502FA05F4C5F120051EBF22FA05FC5C
:1003600044EA0C04203556EA044C4FEA144418BF02
:10037000641C4FF000084FF00009904271EB030C31
:1003800039D3002919BFB1FA81F701FA07F6B0FA9B
:1003900080F700FA07F6C7F120071EBF20FA07FC16
:1003A00046EA0C062037B6FBF4FCA7EB0507103F26
:1003B00007F01F0BCBF120060CFA0BFB2CFA06F60C
:1003C00044BFB3460026202FA4BF5E464FF0000B6B
:1003D0005BEA060C08BF4FF0010B19EB0B09ABFBF6
:1003E000027C48EB0608C01B06FB02CC0BFB03CCCF
:1003F00071EB0C01C1E70B46024641464846BDE899
:10040000F08B13B54FF000004FF00001AFF3008008
:10041000BDE81C40704710B5431C02E010F8011BFA
:1004200071B18107FAD14FF0013202C88C1A8C43A6
:1004300014EAC211F9D0C01A0A0603D0C01E10BDBA
:10044000C01A10BD0A0401D0801E10BD0902FCD0E4
:10045000401E10BD10B5203AC0F00B80B1E8185016
:10046000203AA0E81850B1E81850A0E81850BFF49E
:10047000F5AF5FEA027C24BFB1E81850A0E818503D
:1004800044BF18C918C0BDE810405FEA827C24BF91
:1004900051F8043B40F8043B08BF7047D20728BF1F
:1004A00031F8023B48BF11F8012B28BF20F8023B6E
:1004B00048BF00F8012B70474FF0000200B513460B
:1004C00094469646203922BFA0E80C50A0E80C5074
:1004D000B1F12001BFF4F7AF090728BFA0E80C5025
:1004E00048BF0CC05DF804EB890028BF40F8042B1E
:1004F00008BF704748BF20F8022B11F0804F18BF8B
:1005000000F8012B7047704770477047754600F040
:100510002BF8AE4605006946534620F00700854695
:1005200018B020B5FFF7EEFEBDE820404FF0000602
:100530004FF000074FF000084FF0000B21F00701CB
:10054000AC46ACE8C009ACE8C009ACE8C009ACE80E
:10055000C0098D46704710B50446AFF300802046B1
:10056000BDE81040FFF759BE00487047AC4100207D
:1005700001491820ABBEFEE72600020070470000CC
:1005800010B501221021024800F086FB10BD0000CA
:100590000000024010B500221021024800F07CFB50
:1005A00010BD0000000002407047000010B501229D
:1005B0001146024800F070FB10BD0000000402402C
:1005C00010B500220121024800F066FB10BD0000BA
:1005D00000040240704710B5044603E04FF47A70FF
:1005E00000F006F8201EA4F101018CB2F6D110BD76
:1005F00070B5034600BF00BF0020002200BF4FF0CF
:10060000E0267569A82603FB06F44FF0E026B169E1
:1006100010E04FF0E026B06988420BD0884202D249
:100620000E1A324402E02E1A0E4432440146A2420F
:1006300000D300E0EDE700BF70BD10B50024FFF768
:10064000B3FFFFF7C7FF01F0A9FF044302F03AF838
:100650000443204610BD00002DE9FC4105460E462E
:100660001746002000900190FFF794FF922000F0C1
:10067000D1F806226946122000F0ACF8FFF780FF9F
:100680009DF80100000200B29DF8001040EA01044C
:1006900000EE104AB8EEC00A4C48D0ED000A20EE39
:1006A000200A86ED000A9DF80300000200B29DF8C2
:1006B000021040EA010400EE104AB8EEC00A4348B6
:1006C000D0ED000A20EE200A86ED010A9DF8050013
:1006D000000200B29DF8041040EA010400EE104A46
:1006E000B8EEC00A3948D0ED000A20EE200A86EDA7
:1006F000020AFFF765FF08226946002000F06AF849
:10070000FFF754FF9DF800000F2838D19DF8030033
:10071000000200B29DF8021040EA010400EE104A07
:10072000B8EEC00A2A48D0ED000A20EE200A85ED76
:10073000000A9DF80500000200B29DF8041040EA8E
:10074000010400EE104AB8EEC00A2148D0ED000ABC
:1007500020EE200A85ED010A9DF80700000200B294
:100760009DF8061040EA010400EE104AB8EEC00AF7
:100770001748D0ED000A20EE200A85ED020AFFF7A7
:1007800009FFA22000F046F802226946222000F06C
:1007900021F8FFF7F5FE9DF80000C0009DF801105C
:1007A00040EA6114B4F5806F02DBA4F5006004B286
:1007B00000EE104AF8EEC00AB4EE001AB3EE070AD3
:1007C00000EE810A87ED000ABDE8FC81840000206C
:1007D0008800002070B506460C46154646F080009D
:1007E00000F018F806E0552000F014F82070641CA2
:1007F000681EC5B2002DF6D170BD70B504460D4619
:1008000044F0800000F006F8552000F003F828704E
:1008100070BD000001B582B04FF47A70012301AAC7
:1008200002A90090024800F04DFF9DF804000EBDA3
:100830000403002070B505460C462846FFF7EAFF82
:100840002046FFF7E7FF70BD00BFFEE701460878CE
:1008500010381823B0FBF3F20848805CC865032AFF
:1008600005D908686FF30900001D886503E0086872
:100870006FF309008865886D704700007C3B0008B5
:10088000014600208A6A8B69CBB932B1012A0DD0AA
:10089000022A03D0032A10D10EE000BFCB6A03F076
:1008A0008073B3F1807F00D1012007E0CB6AB3F100
:1008B000C07F00D1012001E000E000BF34E08B697F
:1008C000B3F5005F1AD132B1012A07D0022A03D052
:1008D000032A11D10AE000BF01200EE0CB6A03F029
:1008E0008073B3F1807F00D1012006E0CB6AB3F1C1
:1008F000C07F00D1012000E000BF15E032B1012A25
:1009000005D0022A04D0032A0CD103E000BF00BFA7
:10091000012008E0CB6A03F08073B3F1807F00D13F
:10092000012000E000BF00BF7047704710B51020E5
:1009300000F0A4F810BD10B5202000F09FF810BD05
:10094000704700002DE9F0410446002500F0AAF9A7
:10095000074614B90120BDE8F081606A00B100BF0C
:1009600000BF002084F8340000BF022084F8350066
:100970002068006820F00100216808600AE000F0AB
:1009800091F9C01B052805D920206065032084F853
:100990003500E0E72068006800F001000028EED193
:1009A0002068056821480540D4E901010843E16851
:1009B00008432169084361690843A1690843E16963
:1009C0000843216A08430543606A042803D1D4E937
:1009D0000B0108430543206805602068456925F040
:1009E0000705606A0543606A04280DD1A06A0543C3
:1009F000E06A48B12046FFF743FF28B14020606518
:100A0000012084F83500A6E7206845612046FFF7FD
:100A10001DFF064694F85C103F208840B06000201F
:100A20006065012084F83500002094E73F8010F0D5
:100A300010B50446102C16D10C480078A0B102F075
:100A400053FF012810D00A490A48006802F080FCD0
:100A50000748006840B1200607490860BFF34F8F80
:100A6000BFF36F8F00E000BF10BD000078000020D2
:100A7000800000207400002004ED00E010B5044662
:100A800004480068204020B1024804602046FFF777
:100A9000CFFF10BD143C0140F8B502460B460025BF
:100AA000002400200021DCE0012606FA01F51E6882
:100AB00006EA0504AC4273D15E68022E02D05E687D
:100AC000122E13D1CF0802F1200656F827004E0748
:100AD000F70E0F26BE40B0434F07FF0E1E69BE4003
:100AE0003043CF0802F1200646F8270010684F0077
:100AF0000326BE40B0431E7906F003064F00BE40F9
:100B0000304310605E68012E08D05E68022E05D06A
:100B10005E68112E02D05E68122E13D190684F00CD
:100B20000326BE40B0434F00DE68BE4030439060B5
:100B3000506801268E40B0431E79C6F300168E40E1
:100B400030435060D0684F000326BE40B0434F0092
:100B50009E68BE403043D0605E6806F08056B6F1B5
:100B6000805F7DD100BF00260096404E366846F477
:100B700080463E4F3E603E46366806F4804600960C
:100B800000BF00BF3A4E8F0856F827008E07370F78
:100B90000F26BE40B043374EB24202D1002624E0B9
:100BA0005EE0354EB24201D101261EE0334EB24224
:100BB00001D1022619E0324EB24201D1032614E0DF
:100BC000304EB24201D104260FE02F4EB24201D185
:100BD00005260AE02D4EB24201D1062605E02C4E34
:100BE000B24201D1072600E008268F073F0FBE4022
:100BF00030431F4E8F0846F82700264E3068A0432A
:100C00005E6806F48036B6F5803F00D12043214E61
:100C10003060361D3068A0435E6806F40036B6F5D5
:100C2000003F00D120431B4E361D3060361D30681A
:100C3000A0435E6806F48016B6F5801F00D12043FD
:100C4000144E08363060361D3068A0435E6806F4E6
:100C50000016B6F5001F00D120430E4E0C36306052
:100C6000491C1029FFF420AFF8BD000044380240B1
:100C70000838014000000240000402400008024021
:100C8000000C024000100240001402400018024014
:100C9000001C0240003C01400AB1816101E00B04EC
:100CA000836170470148006870470000040000201D
:100CB00003480068034909780844014908607047FF
:100CC000040000200C00002010B50D48006840F41E
:100CD00000700B4908600846006840F480600860B6
:100CE0000846006840F480700860032000F0A8F80F
:100CF0000F2000F007F800F02BF8002010BD0000D6
:100D0000003C024070B504460E4800784FF47A71FA
:100D1000B1FBF0F00C490968B1FBF0F5284600F092
:100D2000E6FD08B1012070BD102C07D2002221463B
:100D3000501E00F047F80548046001E00120F2E78A
:100D40000020F0E70C000020100000200800002028
:100D500008B500BF002000901148006840F48040B2
:100D60000F4908600846006800F48040009000BF0A
:100D700000BF00BF00200090081F006840F08050B6
:100D8000091F08600846006800F08050009000BF0E
:100D900000BF00220F21901E00F014F808BD0000D3
:100DA0004438024001460846002809DB00F01F03D2
:100DB00001229A4043099B0003F1E023C3F800217C
:100DC00000BF70472DE9F05F80460D4616460027AC
:100DD00001F0C8FB074639462A46334601F00700B2
:100DE000C0F1070ABAF1040F02D94FF0040A01E07A
:100DF000C0F1070AD14600F1040ABAF1070F02D286
:100E00004FF0000A01E0A0F1030AD4464FF0010AB6
:100E10000AFA09FAAAF1010A0AEA020A0AFA0CFA1B
:100E20004FF0010B0BFA0CFBABF1010B0BEA030BC0
:100E30004AEA0B042146404601F09CFBBDE8F09FC6
:100E400000BF00F00702064B19684FF6FF03194078
:100E5000044B0B4343EA0221014B196000BF70476A
:100E60000CED00E00000FA0570B504460D460CB923
:100E7000012070BD5848006800F00F00A84209D258
:100E800055490D700846006800F00F00A84201D0D7
:100E90000120EEE7207800F0020002281DD1207822
:100EA00000F00400042805D14C48006840F4E050EC
:100EB0004A490860207800F00800082805D1474812
:100EC000006840F46040454908604448006820F0EC
:100ED000F000A168084341490860207800F0010053
:100EE000A8B36068012807D13C4808380068C0F3FF
:100EF0004040B8B90120BCE76068022802D06068B1
:100F0000032807D1354808380068C0F3406048B965
:100F10000120AEE7314808380068C0F3400008B946
:100F20000120A6E72D48006820F00300616808430F
:100F30002A490860FFF7B6FE064609E0FFF7B2FE51
:100F4000801B41F28831884202D9032091E707E0F3
:100F50002248006800F00C006168B0EB810FEDD111
:100F60001D48006800F00F00A84209D91A490D7009
:100F70000846006800F00F00A84201D0012078E781
:100F8000207800F00400042807D11448006820F4F9
:100F9000E050E168084311490860207800F008003B
:100FA000082808D10D48006820F46040216940EA13
:100FB000C1000A49086000F017F808490968C1F340
:100FC0000311074A515CC840064908600F20FFF72B
:100FD00099FE00204DE70000003C02400838024026
:100FE000843B0008100000202DE9F0470024002574
:100FF0000026A1462548006800F00C0020B1042816
:1010000005D008283AD105E0DFF8849039E0DFF810
:10101000849036E01D48001F006800F03F041B4824
:10102000001F006800F4800078B11A481749091FB2
:101030000968C1F38811A0FB017001462246002314
:101040003846FFF771F905460EE011480F49091FB0
:101050000968C1F38811A0FB0170014622460023F4
:101060003846FFF761F905460848001F0068C0F3DD
:101070000140401C4600B5FBF6F902E0DFF8109095
:1010800000BF00BF4846BDE8F087000008380240B6
:101090000024F400001BB700F8B504460CB9012089
:1010A000F8BD207800F00100002874D0F9480068ED
:1010B00000F00C0004280DD0F648006800F00C0089
:1010C000082813D1F348001F006800F48000B0F531
:1010D000800F0BD1EF4808380068C0F3404000286B
:1010E00059D06068002856D10120D9E700BF606858
:1010F000B0F5803F08D1E7480838006840F48030F8
:10110000E449083908601EE06068B0F5A02F0DD1F1
:10111000E0480838006840F48020DE49083908605B
:101120000846006840F4803008600CE0D948083870
:10113000006820F48030D749083908600846006804
:1011400020F48020086000BF606890B1FFF7AAFD1E
:10115000054606E0FFF7A6FD401B642801D90320E1
:101160009EE7CC4808380068C0F340400028F1D022
:1011700011E0FFF797FD054606E0FFF793FD401BE2
:10118000642801D903208BE7C24808380068C0F3FF
:1011900040400028F1D1207800F0020002285FD101
:1011A000BC48006800F00C0058B1BA48006800F074
:1011B0000C0008281CD1B748001F006800F480000C
:1011C000B0B9B44808380068C0F3400020B1E06806
:1011D000012801D0012063E7AE480838006820F0FC
:1011E000F800216940EAC100AA490839086037E0DF
:1011F000E06800B30120A8490860FFF753FD0546E9
:1012000006E0FFF74FFD401B022801D9032047E706
:10121000A04808380068C0F340000028F1D09D487D
:101220000838006820F0F800216940EAC1009949B7
:101230000839086014E0002097490860FFF732FD84
:10124000054606E0FFF72EFD401B022801D90320CA
:1012500026E7904808380068C0F340000028F1D124
:10126000207800F0080008282CD16069A8B101207E
:101270008A490860FFF716FD054606E0FFF712FDF4
:10128000401B022801D903200AE782486C3000681D
:10129000C0F340000028F1D014E000207F4908602E
:1012A000FFF700FD054606E0FFF7FCFC401B0228A7
:1012B00001D90320F4E677486C300068C0F34000A1
:1012C0000028F1D1207800F00400042870D1002615
:1012D00070483830006800F0805090B900BF00209E
:1012E00000906C483830006840F0805069493831CF
:1012F00008600846006800F08050009000BF00BF02
:1013000001266748006800F48070B0B9644800683E
:1013100040F4807062490860FFF7C4FC054606E0AF
:10132000FFF7C0FC401B022801D90320B8E65C4847
:10133000006800F480700028F2D000BFA068012887
:1013400008D154486830006840F0010051496831C4
:1013500008601DE0A06805280DD14E48683000687F
:1013600040F004004B49683108600846006840F0CE
:10137000010008600CE047486830006820F0010078
:101380004449683108600846006820F0040008609D
:1013900000BFA068A8B1FFF785FC054609E0FFF78C
:1013A00081FC401B41F28831884202D9032077E654
:1013B00026E0384868300068C0F340000028EED0CE
:1013C00013E0FFF76FFC054608E0FFF76BFC401BDE
:1013D00041F28831884201D9032061E62D48683006
:1013E0000068C0F340000028EFD1012E07D1294842
:1013F0003830006820F0805026493831086000BF3E
:10140000A069B8B32348006800F00C0008285ED03B
:10141000A069022846D100201F490866FFF742FC58
:10142000054606E0FFF73EFC401B022801D90320D9
:1014300036E6184808380068C0F340600028F1D14B
:10144000D4E907010843616A40EA81110122A06AD8
:10145000C2EB500041EA00412C20005D41EA0060EF
:101460000C49091F086001200B490866FFF71AFCA8
:10147000054607E02DE0FFF715FC401B022801D9C7
:1014800003200DE6034808380068C0F340600028D8
:10149000F1D01EE00838024000004742800E47426B
:1014A0000070004000200C490866FFF7FBFB054672
:1014B00006E0FFF7F7FB401B022801D90320EFE508
:1014C00006480068C0F340600028F2D101E0012026
:1014D000E6E50020E4E50000000047420038024055
:1014E00010B504460CB9012010BD606A00B900BFF8
:1014F0000021A16294F8510028B9002084F850001E
:10150000204600F033F8022084F85100206800687B
:1015100020F0400021680860D4E901010843E16837
:1015200008432169084361690843218B01F4007174
:101530000843E1690843216A0843A16A0843216816
:1015400008600421A06901EA1040616A084321682B
:1015500048602068C06920F400602168C8610020EC
:101560006065012084F851000020BDE710B586B009
:101570000446142101A8FEF79FFF4B4920688842CA
:101580007ED100BF002000904848006840F48050A1
:10159000464908600846006800F48050009000BF8B
:1015A00000BF00BF0020009040481438006840F0A1
:1015B00002003E49143908600846006800F0020045
:1015C000009000BF00BF00BF0020009008460068E8
:1015D00040F0010008600846006800F0010000903B
:1015E00000BF00BF1820019002200290002003904D
:1015F000032004900520059001A92D48FFF74CFA1F
:10160000802001900220029000200390032004908B
:101610000520059001A92748FFF73EFA26482749EB
:1016200008604FF0C0604860002124488160C160BC
:101630004FF480610161002141618161C1614FF41A
:101640004031016200214162FFF77CF908B1FFF7E8
:1016500077F900BF1948E064846300BF164818306A
:10166000174908604FF0C06048604021144881600D
:101670000021C1604FF4806101610021416100E0FF
:1016800010E08161C1614FF40031016200214162CB
:10169000FFF758F908B1FFF753F900BF0848A064F5
:1016A000846300BF06B010BD0030014044380240E2
:1016B0000004024000000240406402405C0300203D
:1016C000BC0300202DE9FF5F0446884691461D4675
:1016D0000E9E012002900020019000BF94F850005F
:1016E000012803D1022004B0BDE8F09F012084F856
:1016F000500000BFFFF7D6FA074694F851B0606873
:101700000390AA46BBF1010F0BD00398B0F5827F7E
:1017100004D1A06810B9BBF1040F02D002200190DF
:10172000DBE0B8F1000F03D0B9F1000F00D015B91C
:1017300001200190D1E094F85100042802D0052046
:1017400084F8510000206065C4F83890E587A587CB
:10175000C4F83080E586A58620646064206800684F
:1017600000F04000402805D02068006840F04000AC
:1017700021680860E068B0F5006F4AD1606810B178
:10178000BAF1010F09D1206B00882168C860206B75
:10179000801C2063E08E401EE08633E02068806875
:1017A00000F00200022810D1E08E70B102980128EA
:1017B0000BD1206B00882168C860206B801C2063DF
:1017C000E08E401EE086002002902068806800F0D5
:1017D000010068B1E08F58B12068C068A16B088033
:1017E000A06B801CA063E08F401EE0870120029068
:1017F000FFF758FAC01BB04204D3701C10B103208D
:1018000001906AE0E08E0028C8D1E08F0028C5D1A1
:101810004AE0606810B1BAF1010F09D1206B00787D
:1018200021680873206B401C2063E08E401EE08618
:1018300034E02068806800F00200022810D1E08EB9
:1018400070B1029801280BD1206B007821680873D1
:10185000206B401C2063E08E401EE086002002903A
:101860002068806800F0010068B1E08F58B12068FE
:10187000C068A16B0870A06B401CA063E08F401E85
:10188000E08701200290FFF70DFAC01BB04201D3A0
:10189000701C00B916B9032001901EE0E08E0028EC
:1018A000C7D1E08F0028C4D13A463146204600F027
:1018B000E1FB20B101200190202060650DE0A068CF
:1018C00050B900BF002000902068C06800902068D8
:1018D0008068009000BF00BF00BF012084F8510065
:1018E00000BF002084F8500000BF0198FBE670B5EF
:1018F00004462546681EB0F1807F01D301200FE029
:10190000681E4FF0E02148610F214FF0FF3000F0DA
:1019100031FE00204FF0E02188610720086100209F
:1019200070BD10B504460CB9012010BD94F83D00FF
:1019300028B9002084F83C00204600F00DF8022071
:1019400084F83D00211D206800F0B0FC012084F8DF
:101950003D000020E9E7000008B50A4A016891420D
:101960000FD100BF002100910749096841F40031FF
:10197000054A11601146096801F40031009100BF69
:1019800000BF08BD00440140443802400146022027
:1019900081F83D000868806800F00702062A05D03B
:1019A0000868006840F001000B681860012081F8A9
:1019B0003D0000207047000010B586B00446142199
:1019C00001A8FEF779FD15492068884224D100BF9F
:1019D000002000901248006840F020001049086084
:1019E0000846006800F02000009000BF00BF4020C3
:1019F0000190022002900120039002200490032015
:101A0000059001A90748FFF747F80748FFF7BEFF11
:101A10000021054800F0AAF806B010BD00440140BE
:101A200030380240001402401C04002070B5044607
:101A30000D46164600BF94F83C00012801D1022053
:101A400070BD012084F83C0000BF022084F83D00F6
:101A500036B1042E1BD0082E31D00C2E5ED145E0BD
:101A60002946206800F0A0FC2068806940F008004A
:101A7000216888612068806920F0040021688861FD
:101A800020688069296908432168886147E0294600
:101A9000206800F0C1FC2068806940F40060216883
:101AA00088612068806920F48060216888612068EE
:101AB0008069296940EA0120216888612FE0294670
:101AC000206800F0E7FC2068C06940F00800216849
:101AD000C8612068C06920F004002168C8612068DE
:101AE000C069296908432168C86118E0294620684F
:101AF00000F00CFD2068C06940F400602168C861F6
:101B00002068C06920F480602168C8612068C069CD
:101B1000296940EA01202168C86100E000BF00BFD8
:101B2000012084F83D0000BF002084F83C0000BF85
:101B300000BF85E710B504460CB9012010BD94F82C
:101B40003D0028B9002084F83C00204600F00CF845
:101B5000022084F83D00211D206800F0A7FB012031
:101B600084F83D000020E9E77047000070B50446A6
:101B70000E4601223146206800F004FC0F4920681F
:101B8000884203D00E492068884201D1012000E03C
:101B9000002028B12068406C40F40040216848646F
:101BA0002068806800F00705062D05D020680068D1
:101BB00040F0010021680860002070BD0000014075
:101BC0000004014000BFFEE708B500BF0020009000
:101BD0000E48006840F480000C4908600846006820
:101BE00000F48000009000BF00BF002205213A20D1
:101BF000FFF7E8F83A20FFF7D5F8002205213B204F
:101C0000FFF7E0F83B20FFF7CDF808BD3038024081
:101C100000B587B01C2206496846FEF71BFC002170
:101C2000684600F06DFE0349086007B000BD000083
:101C3000603B00080000002000B587B0142102A816
:101C4000FEF73AFC00BF002001904248006840F0D7
:101C50000200404908600846006800F00200019058
:101C600000BF00BF00BF002001900846006840F0A0
:101C7000010008600846006800F00100019000BF04
:101C800000BF00BF002001900846006840F08000BF
:101C900008600846006800F08000019000BF00BFA7
:101CA00000BF002001900846006840F02000086056
:101CB0000846006800F02000019000BF00BF00BF90
:101CC000002001900846006840F0040008600846C3
:101CD000006800F00400019000BF00BF0122102145
:101CE0001D48FEF7D9FF012211461C48FEF7D4FF1C
:101CF000102002900120039004900220059002A978
:101D00001548FEF7C9FE30200290154803900120C7
:101D1000049002A91348FEF7BFFE01200290039031
:101D200004900220059002A90C48FEF7B5FE00229F
:101D300005210A20FFF746F80A20FFF733F80022B2
:101D400005211720FFF73EF81720FFF72BF807B003
:101D500000BD000030380240000002400004024094
:101D6000000021100008024010B50F480F4908601C
:101D70004FF48270486000210C488160C1600221EC
:101D8000016101214161490281613821C161002164
:101D90000162416281620A21C162FFF7A1FB08B1C1
:101DA000FEF7CEFD10BD000000300140040300200E
:101DB00000B587B01C216846FEF77EFB1548164922
:101DC00008600020486000211348816041F287319B
:101DD000C160002101618161FFF7A3FD08B1FEF739
:101DE000AFFD0D48FFF7A6FE08B1FEF7A9FD602084
:101DF000009000200190029004900022694606485D
:101E0000FFF714FE08B1FEF79BFD0348FFF7D4FD72
:101E100007B000BD004401401C04002000BFFEE7E5
:101E200070470000B0EE401A10B99FED790A704774
:101E300090ED100A80ED110A90ED0F0A80ED100A66
:101E4000C0ED060A80ED071A30EEC10A80ED0F0AD8
:101E50000178002975D190ED010AD0ED0F1A20EE1E
:101E6000210A80ED090A90ED0A0AD0ED021A90EDE0
:101E70000F2A01EE820A80ED0A0A90ED0D0A80ED2C
:101E80000E0A90ED0C0A80ED0D0A90ED0F0AD0EDD0
:101E9000101A30EE610A80ED0C0A90ED030AD0EDC5
:101EA0000C1A20EE210A80ED0B0A90ED0A0AD0ED03
:101EB000051AB4EEE10AF1EE10FA04DD90ED050A20
:101EC00080ED0A0A10E090ED0A0AD0ED051AF1EE55
:101ED000611AB4EEE10AF1EE10FA05D290ED050AAE
:101EE000B1EE400A80ED0A0A90ED090AD0ED0A1A17
:101EF00030EE210AD0ED0B1A30EE210A80ED080AEF
:101F000090ED080AD0ED041AB4EEE10AF1EE10FAF1
:101F100004DD90ED040A80ED080A76E090ED080AF1
:101F2000D0ED041AF1EE611AB4EEE10AF1EE10FA06
:101F30006BD290ED040AB1EE400A80ED080A64E02D
:101F4000FFE70178012960D190ED0F0AD0ED101A5A
:101F500030EE610AD0ED011A20EE210A80ED090A67
:101F600090ED020AD0ED0F1A20EE210A80ED0A0A48
:101F700090ED0D0A80ED0E0A90ED0C0A80ED0D0A31
:101F800090ED0F0AD0ED101AB0EE002A02EE610AB1
:101F9000D0ED111A30EE210A80ED0C0A90ED030A03
:101FA000D0ED0C1A20EE210A80ED0B0A90ED090A03
:101FB000D0ED0A1A30EE210AD0ED0B1A30EE210ACC
:101FC000D0ED081A30EE210A80ED080A90ED080ADB
:101FD000D0ED041AB4EEE10AF1EE10FA04DD90ED52
:101FE000040A80ED080A10E090ED080AD0ED041A0A
:101FF000F1EE611AB4EEE10AF1EE10FA05D290EDBD
:10200000040AB1EE400A80ED080A90ED080A0EE7D6
:102010000000000000B102B97047017092ED001A93
:1020200080ED011A92ED011A80ED021A92ED021A6A
:1020300080ED031A80ED040AC0ED050A9FED0C1A2D
:1020400080ED0E1A80ED0D1A80ED0C1A9FED081A26
:1020500080ED081A80ED0B1A80ED0A1A80ED091A3E
:1020600080ED111A80ED101A80ED0F1A00BFD3E732
:10207000000000007CB504460D4616461648006870
:102080001821B0FBF1F01549B0FBF1F04FF47A7173
:10209000484301906068B0F5827F0DD12B46002245
:1020A00080212046009600F01BF898B1606D40F04A
:1020B0002000606503207CBD00BF019800B908E0E6
:1020C0000198401E019020688068C0F3C01000286D
:1020D000F3D100BF0020EEE71000002040420F00C7
:1020E0002DE9F04104460E4617461D46DDF81880DE
:1020F0003EE0681CD8B3FEF7D5FDA0EB0800A8426F
:1021000000D2A5BB2068406820F0E000216848604C
:102110006068B0F5827F0DD1A068B0F5004F03D0A4
:10212000A068B0F5806F05D12068006820F04000FD
:1021300021680860A06AB0F5005F0DD100BF20687B
:10214000006820F40050216808602068006840F4AE
:1021500000502168086000BF012084F8510000BFD2
:10216000002084F8500000BF0320BDE8F081FFE7A5
:10217000206880683040B04201D1012000E000209A
:10218000B842B6D10020F0E710B5FEF791FD00F09F
:10219000AFFB10BD00B593B0302107A8FEF78CF956
:1021A000142102A8FEF788F900BF002001902448FE
:1021B000006840F08050224908600846006800F03E
:1021C0008050019000BF00BF00BF002001901D485B
:1021D000006840F480401B4908600846006800F42D
:1021E0008040019000BF00BF0120079000040890CC
:1021F00002200D9041050E9106210F91A82110910A
:10220000022111910721129107A8FEF745FF08B19D
:10221000FEF796FB0F20029002200390002004900E
:102220004FF4A05005904FF480500690052102A86D
:10223000FEF71AFE08B1FEF783FB13B000BD0000E5
:1022400040380240007000401448006840F47000BC
:10225000124908601248006840F001001049086007
:1022600000200F49083108600D4800680D490840FA
:102270000B4908600C48091D0860081F006820F41D
:102280008020091F0860002005490C3108604FF0CC
:1022900000600249803908607047000088ED00E066
:1022A00000380240FFFFF6FE1030002410B502682F
:1022B000294B98420ED0B0F1804F0BD0274B98425B
:1022C00008D0274B984205D0264B984202D0264B87
:1022D000984203D122F070024B681A431E4B984279
:1022E00020D0B0F1804F1DD01C4B98421AD01C4B0F
:1022F000984217D01B4B984214D01B4B984211D0D8
:102300001A4B98420ED01A4B98420BD0194B984258
:1023100008D0194B984205D0184B984202D0184B60
:10232000984203D122F44072CB681A4322F0800312
:102330004C6943EA040202608B68C3620B688362E3
:10234000054B984202D0084B984201D10B690363B8
:102350000123436110BD0000000001400004004063
:1023600000080040000C0040000401400040014013
:10237000004401400048014000180040001C00409B
:102380000020004030B501F01F05012404FA05F3D8
:10239000046A9C430462046A01F01F0502FA05F511
:1023A0002C43046230BD000030B5056A25F00105FC
:1023B0000562026A4368846924F0700424F003040F
:1023C0000D682C4322F002028D682A43104DA8426A
:1023D00000D103E00F4DA84206D100BF22F0080251
:1023E000CD682A4322F00402094DA84202D0094DCB
:1023F000A84207D123F4807323F400734D692B4363
:102400008D692B43436084614D684563026230BD32
:10241000000001400004014030B5056A25F01005B8
:102420000562026A4368846924F4E04424F4407439
:102430000D6844EA052422F020028D6842EA051264
:10244000124DA84200D103E0114DA84207D100BFB0
:1024500022F08002CD6842EA051222F040020B4DC4
:10246000A84202D00A4DA84209D123F4806323F484
:1024700000634D6943EA85038D6943EA8503436040
:1024800084614D688563026230BD00000000014038
:102490000004014030B5056A25F480750562026AC2
:1024A0004368C46924F0700424F003040D682C43CD
:1024B00022F400728D6842EA0522124DA84200D132
:1024C00003E0114DA84207D100BF22F40062CD689D
:1024D00042EA052222F480620A4DA84202D00A4D47
:1024E000A84209D123F4805323F400534D6943EAF1
:1024F00005138D6943EA05134360C4614D68C563E4
:10250000026230BD000001400004014030B5056AA0
:1025100025F480550562036A4468C26922F4E042EA
:1025200022F440720D6842EA052223F400538D68BC
:1025300043EA0533084DA84202D0084DA84204D111
:1025400024F480444D6944EA85144460C2614D68B6
:102550000564036230BD000000000140000401403A
:1025600000BFFEE702480068C0F302207047000089
:102570000CED00E010B5002804DB0A07130E054A35
:10258000135406E00A07140E034A00F00F031B1F42
:10259000D45410BD00E400E018ED00E070B5002553
:1025A0000024FDF7F7FF8020FEF734F95520FEF7F1
:1025B00031F95520FEF72EF90546FDF7E1FF96208B
:1025C000FEF716F8FDF7E6FF8020FEF723F9552009
:1025D000FEF720F95520FEF71DF90546FDF7D0FF5F
:1025E0009620FEF705F8FDF7D5FFB6217E20FEF711
:1025F00021F9FDF7C5FF5020FDF7EDFFFDF7CAFFFC
:102600008020FEF707F95520FEF704F95520FEF764
:1026100001F90546FDF7B4FF9620FDF7E9FFFDF748
:10262000B9FF8020FEF7F6F85520FEF7F3F85520A5
:10263000FEF7F0F80546FDF7A3FF9620FDF7D8FF5B
:102640001E2D01D0FF2070BD002434E0FDF7A2FF55
:1026500004EB44021A4B1A44517804EB4402985C90
:10266000FEF7E8F8FDF78CFF9620FDF7C1FFFDF7B8
:1026700091FF04EB4401124A515C41F08000FEF7E7
:10268000C9F85520FEF7C6F85520FEF7C3F80546F1
:10269000FDF776FF9620FDF7ABFF04EB44000849F9
:1026A00008444078A84204D004EB440008448078F1
:1026B000C9E7601CC4B2062CC8DB0020C3E70000D9
:1026C0008C00002038B5002400200090FDF778FF32
:1026D00069460020FEF791F8FDF768FF9620FDF7A8
:1026E00087FFFDF76DFF69460020FEF786F8FDF7CE
:1026F0005DFF9620FDF77CFFFDF762FFB6211420F9
:10270000FEF798F8FDF752FF5020FDF764FFFDF744
:1027100057FF69460020FEF770F8FDF747FF962047
:10272000FDF766FFFDF74CFF69460020FEF765F8F0
:10273000FDF73CFF9620FDF75BFF9DF800000F289A
:1027400001D0FF2038BD00242FE0FDF739FF04EB56
:102750004402184B1A44517804EB4402985CFEF78B
:1027600069F8FDF723FF9620FDF742FFFDF728FFEC
:1027700004EB44010F4A505C6946FEF73EF8FDF752
:1027800015FF9620FDF734FF04EB44000949084487
:1027900040789DF80010884205D004EB44000549BC
:1027A00008448078CEE7601CC4B2062CCDDB002044
:1027B000C8E700009E000020014908607047000043
:1027C000344401404FF4FA7000F081F8DFED270A3D
:1027D0009FED270A274A00212748FFF71BFC00BF6F
:1027E000FDF72BFF0028FBD110212448C161FEF723
:1027F00077FE08B1FEF7A4F8002000F0B1F8044617
:1028000001F020F81E49086001201E4908702CE0E4
:1028100000BF4FF0FF31012000F0FAFB0128F8D192
:10282000194A1A491A48FDF717FFDFED1A0A164828
:1028300090ED000A1048FFF7F5FA0F4890ED080AEE
:10284000B5EEC00AF1EE10FA03D29FED130A80ED47
:10285000080A094890ED080ABCEEC00A10EE100AFA
:1028600084B22046FFF7A8FF00BFD1E7008089456A
:1028700000A08C459C3B000864410020040300201C
:1028800074000020780000207C00002058410020C7
:102890004C4100200000204200000000FEF714FA26
:1028A000FFF778FCFFF7C8F9FFF78EF9FFF75CFA3E
:1028B000FFF77EFAFFF7ACF900F015F800BFFEE76E
:1028C00001460020842901D0CA1C1044704770B50D
:1028D000044625460DB1294600E00121084600F0D6
:1028E00009FD002070BD10B500F0AAFD002010BD4C
:1028F00010B500F0F9FF012801D000F0FBFE10BD7B
:102900007FB504460D46606998B1A06988B1B4F9F5
:102910000800FFF7D5FF0646D4E90510CDE90061B0
:1029200002902B462269D4E9001000F02FFF03909B
:1029300013E0B4F90800FFF7C3FF064603A8CDE98A
:102940000060238A9AB22B46D4E9001000F0ECFE16
:10295000012802D0002004B070BD0398FBE70000FE
:10296000014611B90948006800E00846024652B91C
:1029700000BF502080F31188BFF34F8FBFF36F8FDC
:1029800000BF00BFFEE702F13400704714000020D2
:102990002DE9F04105460E461C4807681C480068B2
:1029A000001D00F06FFB50B91948006890F82C101A
:1029B0000120884017490968814316480160681C56
:1029C00038B936B112480168091D134800F0A4FB5C
:1029D0001AE07C190E4800684460BC4207D20C48DB
:1029E0000168091D0D48006800F07CFB0CE00848F8
:1029F0000168091D0A48006800F074FB0948006876
:102A0000844201D207480460BDE8F081280000201C
:102A1000140000202C000020380500201C0000209D
:102A2000180000204400002010B5044600F080FB90
:102A300023480068401C224908602248006840B9C9
:102A4000204804600846006801280DD100F03AF9DA
:102A50000AE01D48006838B91A480068C06AE16A8F
:102A6000884201D81748046018480068401C17497C
:102A7000086094F82C100120884015490968084323
:102A800013490860E16A01EB8101124A02EB8100FF
:102A9000211D00F041FB00F075FB0B48006868B198
:102AA00008480068C06AE16A884207D24FF0805047
:102AB00009490860BFF34F8FBFF36F8F10BD00004F
:102AC00024000020140000203000002040000020DE
:102AD0002C0000205C04002004ED00E010B516E09E
:102AE00000F026FB0C48C068C468201D00F0CAFA3C
:102AF0000A480068401E0949086009480068401EED
:102B00000749086000F03EFB204600F00BF804483F
:102B100000680028E4D110BD240500202400002016
:102B20002000002010B5044694F8510030B9206B05
:102B300000F046FB204600F043FB1AE094F85100F9
:102B4000012803D1204600F03BFB12E094F851002D
:102B5000022801D1012000E0002050B900BF502020
:102B600080F31188BFF34F8FBFF36F8F00BF00BF9B
:102B7000FEE710BD30B54FF47053174800F007045E
:102B80002CB1C01D20F00700134C041B1B1B024678
:102B9000124C22600024114D6C60D018083820F0CF
:102BA00007000F4C206000240D4D2D686C600C4D0B
:102BB0002D682C601146441A4C60094C24680C6046
:102BC000084D4C682C60084D4C682C604FF0004458
:102BD000064D2C6030BD00004C0500205000002048
:102BE00058000020600000205C00002064000020ED
:102BF00000BFFFF773FF064800680128F9D94FF0BE
:102C0000805004490860BFF34F8FBFF36F8FF0E728
:102C10005C04002004ED00E02DE9FF5F81460F46D3
:102C20009246DDE90E6B109CAAF10100216B01EBCD
:102C3000800828F0070808F0070008B9012000E024
:102C4000002050B900BF502080F31188BFF34F8F90
:102C5000BFF36F8F00BF00BFFEE7002507E0795D7F
:102C600004F134004155785D00B902E06D1C102D6F
:102C7000F5D300BF002143200155072E00D30626BF
:102C8000E66266640020A064201D00F028FA04F1CA
:102C9000180000F024FA2461C6F10700A061646204
:102CA0000020E06484F8500049464046039A00F052
:102CB00099F92060BBF1000F01D0CBF80040BDE8CE
:102CC000FF9F000010B5002407E004EB84010F4AC9
:102CD00002EB810000F0F6F9641C072CF5D30C48D8
:102CE00000F0F0F90B4800F0EDF90B4800F0EAF9BC
:102CF0000A4800F0E7F90A4800F0E4F904480949F5
:102D0000086004480849086010BD00005C04002009
:102D1000E8040020FC040020100500202405002009
:102D200038050020180000201C00002010B50146C6
:102D3000164800E0006803688B42FBD302464368F4
:102D400013448B4204D143684C68234443600146DA
:102D50000A464B6813440468A34211D10C4C036823
:102D60002468A34208D04B680468646823444B601D
:102D700003681B680B6005E0054B1B680B6001E0F6
:102D800003680B60884200D0016010BD5000002035
:102D9000580000200A490968096809B9012100E0C2
:102DA000002121B14FF0FF31064A116006E00449CD
:102DB0000968C968C868034A416811607047000023
:102DC00018000020440000202DE9F04102460D4685
:102DD00000271068002843D01046D0F804C0DCF863
:102DE00004C0C0F804C000F1080CD0F80480E0452D
:102DF00005D1D0F804C0DCF804C0C0F804C0D0F895
:102E000004C0DCF80C6000BF1046D0F804C0DCF849
:102E100004C0C0F804C000F1080CD0F80480E045FC
:102E200005D1D0F804C0DCF804C0C0F804C0D0F864
:102E300004C0DCF80C1000230AE001F13400C45C8B
:102E4000E85CA04200D005E00CB90F4602E05B1C34
:102E5000102BF2D300BF07B101E0B142D4D100BFC3
:102E60003846BDE8F08100000E480068401C08B9F3
:102E7000012000E0002050B900BF502080F31188ED
:102E8000BFF34F8FBFF36F8F00BF00BFFEE700BFE0
:102E9000502080F31188BFF34F8FBFF36F8F00BFB7
:102EA00000BFFEE7680000202DE9F04104464FF026
:102EB000000800F01DFB4648006808B9FFF75AFEFD
:102EC00044480068204000286BD1D4B1083404F095
:102ED0000700B0B104F00700C0F10800044404F09A
:102EE000070008B9012000E0002050B900BF5020C1
:102EF00080F31188BFF34F8FBFF36F8F00BF00BF08
:102F0000FEE7002C4DD034480068844249D8334E47
:102F10003046056801E02E462D686868A04202D25E
:102F200028680028F7D12A480068854239D03068DF
:102F300000F10808286830606868001B102819D95B
:102F40002F1907F0070008B9012000E0002050B950
:102F500000BF502080F31188BFF34F8FBFF36F8FF6
:102F600000BF00BFFEE76868001B78606C603846F1
:102F7000FFF7DCFE184968680968081A16490860F6
:102F80000846006816490968884203D2124800685A
:102F9000134908600F4968680968084368600020A1
:102FA000286000F055FD08F0070008B9012000E096
:102FB000002050B900BF502080F31188BFF34F8F1D
:102FC000BFF36F8F00BF00BFFEE74046BDE8F08152
:102FD00058000020640000205C0000205000002009
:102FE00060000020001F4FF080730360001F21F07D
:102FF00001030360001F054B036014380260001FCB
:103000006FF002030360203870470000692E00084B
:1030100070B506460D4600F08BF818480068C06C85
:1030200088B901201549096881F850005DB1012176
:103030002846FFF7ADFC4FF0805011490860BFF300
:103040004F8FBFF36F8F00F09DF800F071F80B48C1
:103050000068C46C4CB126B1002008490968C864F6
:1030600003E0601E05490968C86400200349096837
:1030700081F8500000F086F8204670BD1400002052
:1030800004ED00E001460A69D1E901309860D1E918
:10309000010358605068884201D188685060002060
:1030A00008611068401E106010687047034B036091
:1030B000034B0B608023136070470000B0000020BA
:1030C0000401002000F1080141604FF0FF318160F0
:1030D00000F10801C1600161002101607047002119
:1030E0000161704710B502460B685C1C0CB9106991
:1030F00007E002F1080000E04068446824689C4250
:10310000FAD944684C604C68A160886041600A61EB
:103110001468641C146010BD42684A6093688B6038
:10312000936859609160086103685B1C0360704795
:1031300000BF502080F31188BFF34F8FBFF36F8F14
:1031400000BF0E480068401C0C4908600846006833
:10315000012812D10A480068C0B208B9012000E075
:10316000002050B900BF502080F31188BFF34F8F6B
:10317000BFF36F8F00BF00BFFEE7704768000020FD
:1031800004ED00E00D48006850B900BF502080F306
:103190001188BFF34F8FBFF36F8F00BF00BFFEE7F3
:1031A00006480068401E054908600846006820B9C6
:1031B000002080F3118800BF00BF70476800002026
:1031C00070B506463546002E3FD0083D2C461F49B7
:1031D00060680968084008B1012000E0002050B98B
:1031E00000BF502080F31188BFF34F8FBFF36F8F64
:1031F00000BF00BFFEE7206808B9012000E0002002
:1032000050B900BF502080F31188BFF34F8FBFF338
:103210006F8F00BF00BFFEE70C4960680968084077
:1032200098B1206888B90949606809688843606076
:1032300000F05EF9064960680968084404490860BE
:103240002046FFF773FD00F003FC70BD6400002012
:103250005C00002000204FF0E021086188610648F2
:1032600000684FF47A71B0FBF1F0401E4FF0E0219E
:1032700048610720086170471000002070B5FDF715
:103280002FF80446102C16D304F1E02090F8F053E8
:1032900015480078854201DB012000E0002050B98C
:1032A00000BF502080F31188BFF34F8FBFF36F8FA3
:1032B00000BF00BFFEE70D48006800F4E0600C4965
:1032C0000968884201D8012000E0002050B900BF01
:1032D000502080F31188BFF34F8FBFF36F8F00BF73
:1032E00000BFFEE770BD00006C0000200CED00E0A8
:1032F0007000002070B504460025D4B11248006863
:1033000008B9012000E0002050B900BF502080F330
:103310001188BFF34F8FBFF36F8F00BF00BFFEE771
:1033200000F0E6F800212046FFF732FB00F090FBAA
:1033300005463DB94FF0805004490860BFF34F8FF8
:10334000BFF36F8F70BD00004C00002004ED00E063
:103350002DE9F04105460F4655B900BF502080F3D6
:103360001188BFF34F8FBFF36F8F00BF00BFFEE721
:10337000FFF784FF2C4600BF5021EFF3118081F34B
:103380001188BFF34F8FBFF36F8F00BF064694F8CD
:103390005080022084F85000E06C401CE064B8F1DA
:1033A000010F3BD1A06A08B9012000E0002050B90C
:1033B00000BF502080F31188BFF34F8FBFF36F8F92
:1033C00000BF00BFFEE718480068A8B9201DFFF73E
:1033D00059FE94F82C1001208840144909680843CC
:1033E00012490860E16A01EB8101114A02EB810098
:1033F000211DFFF791FE04E004F118010D48FFF7CD
:103400008BFE0D49E06A0968C96A884206D917B17E
:103410000120386002E001200849086000BF86F3FF
:10342000118800BFBDE8F0814C0000202C00002076
:103430005C0400201005002014000020380000204B
:1034400010B586B000200590049003AA04A905A831
:10345000FFF72CFE0022DDE904101346CDE9002120
:1034600002901CA11D48039A00F090F91C490860C5
:103470000846006808B1012400E00024012C15D1A1
:1034800000BF502080F31188BFF34F8FBFF36F8FC1
:1034900000BF4FF0FF301349086001201249086057
:1034A00000201249086000F071F810E0601C08B1BB
:1034B000012000E0002050B900BF502080F31188A7
:1034C000BFF34F8FBFF36F8F00BF00BFFEE706B0A3
:1034D00010BD000049444C4500000000F12B0008DD
:1034E0004800002044000020300000202800002078
:1034F00002480068401C0149086070474C000020E9
:103500001D48006818B101201C49086032E0002005
:103510001A4908601A480068B0FA80F0C0F11F012B
:1035200001EB8100174A52F8200008B1012000E0A9
:10353000002050B900BF502080F31188BFF34F8F97
:10354000BFF36F8F00BF00BFFEE701EB81020D4BA1
:1035500003EB820042685268426000F1080243684F
:10356000934202D14268526842604268D268064B78
:103570001A6000BF704700004C0000203800002097
:103580002C0000205C040020140000201CB55248D0
:1035900000685249884201D0012000E0002050B963
:1035A00000BF502080F31188BFF34F8FBFF36F8FA0
:1035B00000BF00BFFEE7484800684849491E8842EE
:1035C00001D0012000E0002050B900BF502080F35E
:1035D0001188BFF34F8FBFF36F8F00BF00BFFEE7AF
:1035E0003F49084600780190FF200A4610700846BF
:1035F000007800909DF8000000F0F0009DF8002099
:10360000904201D1012000E0002050B900BF5020BD
:1036100080F31188BFF34F8FBFF36F8F00BF00BFE0
:10362000FEE79DF8000000F050002E4A10700720C1
:103630002D4A106009E02C480068401E2A4A10609C
:103640009DF800004006000E00909DF8000000F07C
:1036500080008028EFD024480068C0F107000428CB
:1036600001D1012000E0002050B900BF502080F3BC
:103670001188BFF34F8FBFF36F8F00BF00BFFEE70E
:10368000194800680002184A10601046008800F4CB
:10369000E0601060124A019810700F4820300068F6
:1036A00040F470000C49203108600846006840F082
:1036B00070400860FFF7CEFD00200C490860FCF761
:1036C000D7FD0B48006840F0404009490860FCF70E
:1036D000BBFD00201CBD000000ED00E071C20F41E9
:1036E00000E400E06C000020700000206800002072
:1036F00034EF00E010B500BF502080F31188BFF315
:103700004F8FBFF36F8F00BF00F0FEF818B14FF07E
:1037100080500449086000BF002080F3118800BF7A
:1037200010BD000004ED00E02DE9FF4F85B080469C
:1037300089461746DDE912ABB800FFF7B5FB064630
:1037400056B15420FFF7B0FB04460CB1266304E0E9
:103750003046FFF735FD00E000248CB1002084F8EE
:103760005100CDE900ABCDE902403A46494640461A
:10377000089BFFF751FA2046FFF756F9012501E0B3
:103780004FF0FF35284609B0BDE8F08F2DE9F04F26
:1037900085B00746884691469A46DDE90EB6109CEC
:1037A0000EB1012000E0002050B900BF502080F38E
:1037B0001188BFF34F8FBFF36F8F00BF00BFFEE7CD
:1037C0000CB1012000E0002050B900BF502080F370
:1037D0001188BFF34F8FBFF36F8F00BF00BFFEE7AD
:1037E000542003900398542801D1012000E00020C8
:1037F00050B900BF502080F31188BFF34F8FBFF343
:103800006F8F00BF00BFFEE7B4B1AEB125462C46B6
:103810002E63022085F85100002004A953464A4631
:10382000CDE900B1CDE9025041463846FFF7F4F941
:103830002846FFF7F9F801E000200490049805B04D
:10384000BDE8F08F70B5064607253046FCF7E3FD6E
:10385000102801D2012000E0002050B900BF502004
:1038600080F31188BFF34F8FBFF36F8F00BF00BF8E
:10387000FEE7FFF73DFE00BF6D1E05EB8501154A13
:1038800002EB81003146FFF79FFA044604B101E0E4
:10389000002DF1D100BF2CB931460F480068FFF769
:1038A00093FA04462CB931460C480068FFF78CFAAD
:1038B000044624B931460A48FFF786FA044624B97B
:1038C00031460848FFF780FA044600F0C1F8204668
:1038D00070BD00005C040020180000201C000020C7
:1038E00038050020240500200549096809B9012090
:1038F00005E00449096809B9022000E0002070478A
:10390000300000204C0000202DE9F0414FF000086D
:1039100044480068002877D143480068451C424865
:10392000056015BB41480068006808B9012000E047
:10393000002050B900BF502080F31188BFF34F8F93
:10394000BFF36F8F00BF00BFFEE7384807683848F5
:103950000068364908603648076036480068401CF1
:1039600034490860FFF716FA00BF33480068854203
:103970003CD300BF2D480068006808B9012000E072
:10398000002020B14FF0FF302B4908602DE0274880
:103990000068C068C4686668B54202D226480660FE
:1039A00023E0201DFFF76EFBA06A18B104F1180098
:1039B000FFF768FB94F82C10012088401F49096824
:1039C00008431E490860E16A01EB81011C4A02EBD1
:1039D0008100211DFFF7A0FB1A49E06A0968C96A46
:1039E0008842C7D34FF00108C4E700BF15480068FC
:1039F000C06A00EB8000124951F82000012801D96B
:103A00004FF0010805E0FFE70F480068401C0E4931
:103A100008600E48006808B14FF001084046BDE854
:103A2000F08100004C000020280000201800002039
:103A30001C0000203C000020440000202C0000203E
:103A40005C04002014000020340000203800002016
:103A500070B5002400263648006850B900BF5020D9
:103A600080F31188BFF34F8FBFF36F8F00BF00BF8C
:103A7000FEE7FFF75DFB2E480068401E2C490860FA
:103A80000846006800284FD12A48006800284BD01B
:103A900024E02948C068C46804F11800FFF7F2FA6E
:103AA000201DFFF7EFFA94F82C10012088402349DD
:103AB0000968084321490860E16A01EB8101204A55
:103AC00002EB8100211DFFF727FB1E49E06A096810
:103AD000C96A884202D301201B4908601648006861
:103AE00008B9012000E000200028D2D00CB1FFF777
:103AF00051F91648056865B100BFFFF705FF10B121
:103B00000120114908606D1E002DF6D100200F49DB
:103B100008600D48006838B1012630070C4908607C
:103B2000BFF34F8FBFF36F8FFFF72CFB304670BD95
:103B30004C00002024000020100500202C00002054
:103B40005C04002014000020380000203400002015
:103B500004ED00E04FF04070E1EE100A7047000005
:103B6000A83B0008C5270008000000000000000076
:103B70000002000000000000000000000006101617
:103B800000061016000000000000000001020304FF
:103B90000607080900000000010203040000C844F1
:103BA000CDCC4C3E0000000054454D5000000000BC
:103BB000D03B000800000020B0000000C401000855
:103BC000803C0008B000002060810000E001000897
:103BD00000000000000000001000000001000000D4
:103BE0000024F400000000000000000000000000BD
:103BF00000000000000000000000000000000000C5
:103C000000000000000000000000000000000000B4
:103C100000000000000000000000000000000000A4
:103C20000000000000000000000000000000000094
:103C30000000000000000000AAAAAAAA00000000DC
:103C40000000000000000000000000000000000074
:103C500000000000E7416B3A58A08B3A7D04017CDC
:103C6000000240AB034100055308065804070F004B
:103C70000810820911000A15800B16000C18010D9E
:040000050800018965
:00000001FF
